:1000000003C1000030C100002EC100002CC100005F
:100010002AC1000028C1000026C1000024C1000040
:1000200022C1000020C100001EC100001CC1000050
:100030001AC1000018C1000016C1000014C1000060
:1000400012C1000010C100000EC100000CC1000070
:100050000AC1000008C1000006C1000014C500006C
:1000600002C10000DAC40000AFC40000FCC0000000
:10007000FAC00000F8C00000F6C00000F4C00000A4
:10008000F2C00000F0C00000EEC00000ECC00000B4
:10009000EAC00000E8C00000E6C00000E4C00000C4
:1000A000E2C00000E0C00000DEC00000DCC00000D4
:1000B000DAC00000D8C00000D6C00000D4C00000E4
:1000C000D2C00000D0C00000CEC00000CCC00000F4
:1000D000CAC00000C8C00000C6C00000C4C0000004
:1000E000C2C0000000002100240027002A002D00CB
:1000F0003000330001010000040107010A01000083
:1001000020002300260029002C002F0032000001CF
:10011000000003010601090100002200250028005B
:100120002B002E00310034000201000005010801FF
:100130000B0105050505070508080808020202026B
:100140000A0A080804040404010101010101010173
:100150000303030303030303040707070C0C0C0C3E
:100160000C0C0C0C02020202060606060606060627
:100170000B0B0B0B0B0B0B0B0102102020080810B4
:100180002040102040800201020108040201010207
:1001900004081020408080402010080402018004E0
:1001A000020180402010080402010804020101023B
:1001B0000408102040800102040810204080000044
:1001C0000A0B02090C0D0E080703040100000000D1
:1001D000000000000000000000000000000000001F
:1001E00000000000000000000000121110000000DC
:1001F00000000000000000000000000000000000FF
:1002000000000000E205110811241FBECFEFD1E26B
:10021000DEBFCDBF00E00CBF25E0A0E8B4E001C028
:100220001D92AC36B207E1F714E0A0E0B2E0E2EBD9
:10023000F5E100E00BBF02C007900D92A038B107B6
:10024000D9F711E0C3E0D1E000E005C02197010932
:10025000802FFE0169D7C230D10780E00807B1F7CF
:10026000EBD40C94C80ACCCEAF92BF92CF92DF925F
:10027000EF92FF920F931F93CF93DF936C017B015B
:100280008B01040F151FEB015E01AE18BF08C017EC
:10029000D10759F06991D601ED91FC910190F0815F
:1002A000E02DC6011995892B79F7C501DF91CF9112
:1002B0001F910F91FF90EF90DF90CF90BF90AF9084
:1002C0000895FC01538D448D252F30E0842F90E05C
:1002D000821B930B541710F0CF9608950197089541
:1002E000FC01918D828D981761F0A28DAE0FBF2F0A
:1002F000B11D5D968C91928D9F5F9F73928F90E060
:1003000008958FEF9FEF0895FC01918D828D9817CE
:1003100031F0828DE80FF11D858D90E008958FEF0B
:100320009FEF0895FC01918D228D892F90E0805CD4
:100330009F4F821B91098F73992708958FE994E04D
:10034000F1DF21E0892B09F420E0822F0895FC01E0
:10035000A48DA80FB92FB11DA35ABF4F2C91848D26
:1003600090E001968F739927848FA689B7892C9383
:10037000A089B1898C91837080648C93938D848DD6
:10038000981306C00288F389E02D80818F7D8083D9
:100390000895EF92FF920F931F93CF93DF93EC0199
:1003A00081E0888F9B8D8C8D98131AC0E889F9891C
:1003B000808185FF15C09FB7F894EE89FF8960831F
:1003C000E889F98980818370806480839FBF81E0A0
:1003D00090E0DF91CF911F910F91FF90EF900895E2
:1003E000F62E0B8D10E00F5F1F4F0F731127E02EBD
:1003F0008C8D8E110BC00FB607FCFACFE889F989F6
:10040000808185FFF5CFCE01A2DFF2CFEB8DEC0F1F
:10041000FD2FF11DE35AFF4FF0829FB7F8940B8F29
:10042000EA89FB8980818062D0CFCF93DF93EC0192
:10043000888D8823B1F0AA89BB89E889F9898C91D4
:1004400085FD03C0808186FD0CC00FB607FCF7CF89
:100450008C9185FFF2CF808185FFEDCFCE0177DFD4
:10046000EACFDF91CF91089580E090E0892B21F0D1
:1004700065DF81110E94000080E090E0892B49F047
:1004800080E090E0892B29F00E94000081110E94F9
:10049000000080E090E0892B49F080E090E0892B1B
:1004A00029F00E94000081110E94000080E090E08D
:1004B000892B49F080E090E0892B29F00E94000010
:1004C00081110C94000008958150823108F059C0C8
:1004D000E82FF0E08827E159FD4F8F4F25C68F02A6
:1004E0009302810287028B02C10296029C02A00243
:1004F000A602AA02AE02B402B802C102BC02C20243
:10050000C602809180008F7780938000089580914B
:1005100080008F7DF9CF80918000877FF5CF84B5F3
:100520008F7784BD089584B58F7DFBCF8091B00017
:100530008F778093B00008958091B0008F7DF9CFC0
:10054000809190008F778093900008958091900023
:100550008F7DF9CF80919000877FF5CF8091A000AB
:100560008F778093A00008958091A0008F7DF9CFB0
:100570008091A000877FF5CF809120018F778093B5
:1005800020010895809120018F7DF9CF8091200175
:10059000877FF5CFCF93DF93282F30E0F901E25426
:1005A000FE4F8491F901E858FE4FD491F901EE5CB9
:1005B000FE4FC491CC2389F0811186DFEC2FF0E04F
:1005C000EE0FFF1FE85EFE4FA591B4918FB7F89430
:1005D000EC91D095DE23DC938FBFDF91CF9108950E
:1005E000CF93DF9390E0FC01E858FE4F24918E5C9E
:1005F0009E4FFC0184918823C9F090E0880F991FD9
:10060000FC01EC51FF4FA591B491FC01E85EFE4F57
:10061000C591D49161110DC09FB7F8948C9120952C
:1006200082238C938881282328839FBFDF91CF91D9
:100630000895623051F49FB7F8943C91822F8095D1
:1006400083238C93E8812E2BEFCF8FB7F894EC9116
:100650002E2B2C938FBFEACF3FB7F8948091810463
:1006600090918204A0918304B091840426B5A89B44
:1006700005C02F3F19F00196A11DB11D3FBFBA2F34
:10068000A92F982F8827BC01CD01620F711D811DF4
:10069000911D42E0660F771F881F991F4A95D1F779
:1006A0000895CF92DF92EF92FF920F931F93CF9313
:1006B000DF9300D000D000D0CDB7DEB78C01DC01D5
:1006C00019968D919C91892B09F463C0C5DFF801BF
:1006D000C784D088E188F2886C197D098E099F094A
:1006E0006C3271408105910588F3F894D801149615
:1006F0008D919C9115979A8389831996ED91FC9120
:100700007F01BFEFEB1AFB0A80818987F801908196
:100710000388F489E02DD80155968C91992309F42A
:1007200047C09081982B98879081809589238F83EB
:100730008F818C8388E08B8358856F8149853B81CD
:100740002C8189819A81D701508347FD252F3A95C5
:100750002083262F39F0441F00C000006083000072
:1007600000C0F2CF38E04D9160830000019761F73F
:10077000D8015496FC93EE93539749873B832C837F
:100780009A838983789468DFF8016787708B818BFF
:10079000928B29960FB6F894DEBF0FBECDBFDF91C6
:1007A000CF911F910F91FF90EF90DF90CF90089520
:1007B0009081982B98879081809589238F838F8152
:1007C0008E8388E08D8358856F8149853D812E8198
:1007D00089819A81D701508347FD252F00C000C031
:1007E000208300C000C000C000C000C060830000C3
:1007F000262F3A9541F0441F000000C000C000C001
:1008000000C000C0E8CF38E04D9100C0608300C058
:10081000019709F7D8015496FC93EE9353974987B3
:100820003D832E83ADCFCF93DF93EC018E819F81EB
:1008300097FD04C061E0D4DE8E81ACDE81E0898367
:10084000DF91CF9108952CE8AC01249FC001259F32
:10085000900D11244EE0469F9001479F300D1124CA
:10086000820F931F70E060E0A4E6FB01EE0FFF1F14
:10087000E80FF91FEA5FFD4F4081518157FD33C0FA
:1008800020915405309155054217530760F520918A
:100890005A05B4E6222321F02A9F90011124B32F98
:1008A000E091600520915B0530915C05F0915D055C
:1008B000EF1320C0FA01EE0FFF1F4E0F5F1F240F32
:1008C000351FE0915D05E20FF32FF11DB083E0913C
:1008D0005E05E20FF32FF11D108240915F05240F9A
:1008E000311DF90110826F5F7F4F6730710509F08C
:1008F000BCCF0895440F551F440F551F240F351FBB
:10090000E20FF32FF11D1082DCCF0F931F93CF93D3
:10091000DF938C01E2E5F5E04481558170E060E011
:100920008185928527D6C80168EE73E0C8D390E030
:1009300080E089DFC80164E670E0C1D3CB01CAE082
:10094000D0E0BE01BCD3BC0181E090E07CDFC801F7
:10095000BE01B5D38C01CB01BE01B1D3BC0182E095
:1009600090E071DFB80183E090E06DDF82E595E013
:10097000DF91CF911F910F9194CE0F931F93CF933F
:10098000DF93EC0188819981009759F02A813B819E
:100990002617370730F081E0DF91CF911F910F913B
:1009A00008958B016F5F7F4F00D5009759F09983B1
:1009B00088831B830A832C813D81232B61F7FC01F3
:1009C0001082E9CF80E0E8CF1F920F920FB60F920E
:1009D00011240BB60F922F933F934F935F936F9316
:1009E0007F938F939F93AF93BF93EF93FF938FE981
:1009F00094E0ADDCFF91EF91BF91AF919F918F910A
:100A00007F916F915F914F913F912F910F900BBE0E
:100A10000F900FBE0F901F9018951F920F920FB658
:100A20000F9211240BB60F922F938F939F93EF93F6
:100A3000FF93E091AF04F091B0048081E091B504A0
:100A4000F091B60482FD1DC090818091B8048F5F43
:100A50008F732091B904821741F0E091B804F0E05F
:100A6000E156FB4F958F8093B804FF91EF919F91D2
:100A70008F912F910F900BBE0F900FBE0F901F9074
:100A800018958081F2CF1F920F920FB60F9211240A
:100A90002F933F938F939F93AF93BF9380919B042A
:100AA00090919C04A0919D04B0919E04309180048B
:100AB00023E0230F2D3758F50196A11DB11D20937A
:100AC000800480939B0490939C04A0939D04B09316
:100AD0009E048091810490918204A0918304B0913E
:100AE00084040196A11DB11D80938104909382041A
:100AF000A0938304B0938404BF91AF919F918F9191
:100B00003F912F910F900FBE0F901F90189526E8E0
:100B1000230F0296A11DB11DD2CFCF92DF92EF928B
:100B2000FF920F931F93CF93DF93EC016B018A0128
:100B3000198218861F86188A198A1A8A81E08E8778
:100B40008B871C8692E09D8788837B01EE0CFF1CBF
:100B5000E60EF71EFD82EC82C70102D39A878987D1
:100B6000009759F1A70170E060E004D5DB82CA82EA
:100B70001F830E838981882329F061E0802F30DD77
:100B8000802F08DDF801EE5CFE4FE491F0E0EE0FFF
:100B9000FF1FE85EFE4F859194919C8B8B8BF80133
:100BA000E858FE4FE491ED8BDF91CF911F910F91AB
:100BB000FF90EF90DF90CF9008951D821C821B82E2
:100BC0001A82D6CFEFE9F4E01382128288EE93E026
:100BD000A0E0B0E084839583A683B78380E594E0AA
:100BE0009183808385EC90E09587848784EC90E006
:100BF0009787868780EC90E0918B808B81EC90E0EA
:100C0000938B828B82EC90E0958B848B86EC90E0CA
:100C1000978B868B118E128E138E148E46E150E0C8
:100C200065E270E082E595E078DF47E150E063E05F
:100C300070E08CE395E071CFCF93DF93CDB7DEB753
:100C40006A970FB6F894DEBF0FBECDBF789484B517
:100C5000826084BD84B5816084BD85B5826085BDB8
:100C600085B5816085BD80916E00816080936E0046
:100C70001092810080918100826080938100809138
:100C800081008160809381008091800081608093E9
:100C900080008091B10084608093B1008091B000A9
:100CA00081608093B0008091910082608093910078
:100CB000809191008160809391008091900081608B
:100CC000809390008091A10082608093A100809128
:100CD000A10081608093A1008091A0008160809339
:100CE000A0008091210182608093210180912101E7
:100CF0008160809321018091200181608093200197
:100D000080917A00846080937A0080917A0082607A
:100D100080937A0080917A00816080937A0080913C
:100D20007A00806880937A001092C100E091AF044D
:100D3000F091B00482E08083E091AB04F091AC04C8
:100D40001082E091AD04F091AE048FEC808310929C
:100D5000B704E091B304F091B40486E08083E0919D
:100D6000B104F091B204808180618083E091B1048C
:100D7000F091B204808188608083E091B104F091A9
:100D8000B204808180688083E091B104F091B20464
:100D900080818F7D808382E595E045DD4091560519
:100DA0005091570570E060E080915B0590915C0583
:100DB000E1D382E595E075DC8CE395E034DD40918C
:100DC00040055091410570E060E0809145059091AB
:100DD0004605D0D38CE395E064DC06E314E0F8012B
:100DE00080810E5F1F4F62E0FBDBF4E00C341F07D5
:100DF000B1F78E010F5F1F4F38EE432E33E0532EB5
:100E0000612C712C25E8222E24E0322E26E334E0DA
:100E10003A8F298FB12CA12CE98DFA8D2191319136
:100E2000FA8FE98F3327F901E254FE4F8491F901DB
:100E3000E858FE4FE490F901EE5CFE4FF490FF207D
:100E400009F4BCC0811140DBEF2DF0E0EE0FFF1F75
:100E5000E250FF4FA591B491EC91EE2291E080E039
:100E600009F090E0E92EF82EF101819191911F0196
:100E70008E159F0509F479C0E114F10409F071C0E1
:100E80001C8A1B8A1E8A1D8A188E1F8A4AE0B80196
:100E9000C501E2D0F80101900020E9F731976F0118
:100EA000C01AD10AB601CE01439667DD2B893C8971
:100EB000811188C02115310511F0C901EDD11C8ABD
:100EC0001B8A188E1F8A1E8A1D8A1A8219821C820A
:100ED0001B821E821D826EE170E0C8014EDD2981F9
:100EE0003A81811175C02115310511F0C901D4D1A4
:100EF0001A8219821E821D821C821B828B889C880A
:100F00008114910409F46DC0CF88D88CC114D10428
:100F1000A1F08D819E81C80ED91EB601C8012DDDBC
:100F2000882309F45EC029813A818D819E81B401B4
:100F3000820F931F26D3DE82CD824D815E8169812F
:100F40007A818FE994E090D942E050E06DE774E057
:100F50008FE994E089D989819A819ED18B899C8976
:100F60009BD1F1013297F182E082FFEFAF1ABF0A05
:100F70002BE0A216B10409F04FCF2FB7F89480915F
:100F80009B0490919C04A0919D04B0919E042FBF5E
:100F900020EE33E944E050E0281B390B4A0B5B0B91
:100FA000CA01B901A30192019DD06901C90137FFAE
:100FB00024C090E080E0A9DC57DA24CFEE24E3944B
:100FC000F12C52CFD88ECF8AB801C901DAD27DCFA9
:100FD0008EE190E09E838D836EE574E0C901D1D2ED
:100FE0008DCF89819A81009709F056D11A82198292
:100FF0001E821D821C821B82A0CF6CE370E05FD03A
:1010000044EC46039001479F300D11242C0D3D1DEB
:1010100054E6569FC001579F900D1124820F931FD5
:10102000CACF809145059091460536D18091420501
:101030009091430597FD02C060E0D2DA80915B0594
:1010400090915C0529D1809158059091590597FDA3
:1010500002C060E0C5CA0895BB274A3031F4992325
:1010600022F4BDE2909581959F4F01C0BB27FB0103
:101070005527AA27880F991FAA1FA41710F0A41B91
:1010800083955051B9F7A05DAA3308F0A95DA193EB
:10109000009779F7B111B1931192CB0100C0DC0137
:1010A000FC01672F71917723E1F7329704C07C919F
:1010B0006D9370836291AE17BF07C8F3089597FBD5
:1010C000072E16F4009406D077FD08D035D007FC23
:1010D00005D03EF4909581959F4F08957095619548
:1010E0007F4F0895A1E21A2EAA1BBB1BFD010DC064
:1010F000AA1FBB1FEE1FFF1FA217B307E407F507C8
:1011000020F0A21BB30BE40BF50B661F771F881FA3
:10111000991F1A9469F760957095809590959B0139
:10112000AC01BD01CF010895EE0FFF1F881F8BBFDB
:101130000790F691E02D1994AA1BBB1B51E107C043
:10114000AA1FBB1FA617B70710F0A61BB70B881F57
:10115000991F5A95A9F780959095BC01CD010895E6
:101160000F931F93CF93DF938230910510F482E0A9
:1011700090E0E0916A05F0916B0530E020E0B0E08E
:10118000A0E0309799F42115310509F44AC0281BD5
:10119000390B24303105D8F58A819B8161157105A1
:1011A00089F1FB0193838283FE0111C0408151814B
:1011B0000281138148175907E0F04817590799F43D
:1011C000109761F012960C93129713961C93329617
:1011D000CF01DF91CF911F910F91089500936A0580
:1011E00010936B05F4CF2115310551F042175307C9
:1011F00038F0A901DB019A01BD01DF01F801C1CF7F
:10120000EF01F9CF90936B0580936A05CDCFFE0176
:10121000E20FF31F81939193225031093983288380
:10122000D7CF2091680530916905232B41F4209197
:1012300002023091030230936905209368052091E2
:101240000002309101022115310541F42DB73EB75E
:101250004091040250910502241B350BE091680572
:10126000F0916905E217F307A0F42E1B3F0B281736
:10127000390778F0AC014E5F5F4F2417350748F00F
:101280004E0F5F1F509369054093680581939193BA
:101290009FCFF0E0E0E09CCFCF93DF930097E9F0A1
:1012A000FC01329713821282A0916A05B0916B05FE
:1012B000ED0130E020E01097A1F420813181820F10
:1012C000931F20916805309169052817390709F0A7
:1012D00061C0F0936905E0936805DF91CF910895AF
:1012E000EA01CE17DF07E8F54A815B819E014115CF
:1012F0005105B1F7E901FB83EA8349915991C40F84
:10130000D51FEC17FD0761F4808191810296840F4F
:10131000951FE90199838883828193819B838A83C6
:10132000F0E0E0E012968D919C9113970097B9F54B
:101330002D913C911197CD010296820F931F209120
:101340006805309169052817390739F6309751F546
:1013500010926B0510926A05B0936905A093680519
:10136000BCCFD383C28340815181840F951FC8179E
:10137000D90761F44E5F5F4F88819981480F591FEB
:10138000518340838A819B81938382832115310518
:1013900009F0B0CFF0936B05E0936A059ECFFD0195
:1013A000DC01C0CF13821282D7CF4F925F926F922F
:1013B0007F928F929F92AF92BF92CF92DF92EF92E5
:1013C000FF920F931F93CF93DF938C01009791F4BB
:1013D000CB01DF91CF911F910F91FF90EF90DF90A4
:1013E000CF90BF90AF909F908F907F906F905F90C5
:1013F0004F90B6CEFC01E60FF71F9C012250310939
:10140000E217F30708F4AAC0D901CD91DC91119736
:10141000C617D70718F1C530D10570F0CE01049773
:101420008617970748F0C61BD70B2297C193D19315
:101430006D937C93CF0130DFC801DF91CF911F9175
:101440000F91FF90EF90DF90CF90BF90AF909F9063
:101450008F907F906F905F904F9008955B01AC1AD2
:10146000BD0A4C018C0E9D1EA0916A05B0916B05C2
:10147000512C412CF12CE12C109731F5809168050D
:10148000909169058815990509F05CC046165706C4
:1014900008F058C08091000290910102009741F439
:1014A0008DB79EB74091040250910502841B950BA5
:1014B000E817F90708F052C0F0936905E093680552
:1014C000F90171836083B8CF8D919C911197129629
:1014D0006C90129713967C901397A815B90559F53F
:1014E0006C0142E0C40ED11CCA14DB0420F1AC0133
:1014F0004A195B09DA011296159780F062827382AD
:1015000051834083D9016D937C93E114F10471F010
:10151000D7011396FC93EE9312978ECF22968C0FE1
:101520009D1FF90191838083F301EFCFF0936B0549
:10153000E0936A0581CF4816590608F42C017D0115
:10154000D3019ACFCB010CDE7C01009739F0AE01BC
:10155000B80107D0C801A0DE87016ECF10E000E01F
:101560006BCFFB01DC0102C001900D924150504055
:10157000D8F70895DC0101C06D9341505040E0F769
:101580000895FB01DC0101900D920020E1F7089520
:1015900011E0C3E0D1E000E005C0802FFE01C4DD12
:1015A0002196011DC430D10780E00807B1F7F894F7
:0215B000FFCF6B
:1015B20000006C05800006000700080016001700F6
:1015C2002400FFFF08001700FFFFFFFFFFFFFFFFE0
:1015D200FFFF06000800150016002400FFFFFFFFB2
:1015E20006000800150017002400FFFFFFFFFFFFA1
:1015F200070008001500FFFF1700FFFF06000700A5
:10160200FFFF1500FFFF1700240006000700FFFF81
:1016120015001600170024000600FFFF0800FFFF58
:10162200FFFF1700FFFF0600070008001500160065
:10163200170024000600070008001500FFFF17002E
:101642002400040009000A00180019002200FFFF0C
:101652000A001900FFFFFFFFFFFFFFFFFFFF04006B
:101662000A00130018002200FFFFFFFF04000A0017
:10167200130019002200FFFFFFFFFFFF09000A000D
:101682001300FFFF1900FFFF04000900FFFF130012
:10169200FFFF1900220004000900FFFF13001800D9
:1016A200190022000400FFFF0A00FFFFFFFF1900DC
:1016B200FFFF040009000A001300180019002200AD
:1016C200040009000A001300FFFF190022000200B3
:1016D2000B000C001A001B002000FFFF0C001B0077
:1016E200FFFFFFFFFFFFFFFFFFFF02000C001100E3
:1016F2001A002000FFFFFFFF02000C0011001B0078
:101702002000FFFFFFFFFFFF0B000C001100FFFF97
:101712001B00FFFF02000B00FFFF1100FFFF1B0079
:10172200200002000B00FFFF11001A001B00200026
:101732000200FFFF0C00FFFFFFFF1B00FFFF020084
:101742000B000C0011001A001B00200002000B000D
:101752000C001100FFFF1B00200000000D000E0016
:101762001C001D001E00FFFF0E001D00FFFFFFFFFB
:10177200FFFFFFFFFFFF00000E000F001C001E0016
:10178200FFFFFFFF00000E000F001D001E00FFFF05
:10179200FFFFFFFF0D000E000F00FFFF1D00FFFF08
:1017A20000000D00FFFF0F00FFFF1D001E000000E4
:1017B2000D00FFFF0F001C001D001E000000FFFFB8
:1017C2000E00FFFFFFFF1D00FFFF00000D000E00D7
:1017D2000F001C001D001E0000000D000E000F0077
:1017E200FFFF1D001E000C000B000A00090008008C
:1017F200070006000500040003000D0000000000C1
:10180200C901340161011502920170018401506124
:101812007373776F726420427574746F6E20646F95
:10182200776E2C206E756D6265723A20000D0A008B
:00000001FF
