:100000000C9463000C948B000C948B000C948B006C
:100010000C948B000C948B000C948B000C948B0034
:100020000C948B000C948B000C948B000C948B0024
:100030000C948B000C948B000C948B000C948B0014
:100040000C9456080C948B000C9424080C94FE0716
:100050000C948B000C948B000C948B000C948B00F4
:100060000C94A0080C948B000000000024002700D2
:100070002A000000000023002600290000000008DC
:10008000000201000003040700000000000000005F
:10009000010204081020408001020408102001021F
:1000A0000408102000000000250028002B00040494
:1000B0000404040404040202020202020303030310
:1000C0000303190AD80E11241FBECFEFD8E0DEBFFC
:1000D000CDBF14E0A0E0B1E0ECE8F5E202C005908D
:1000E0000D92AC3AB107D9F727E0ACEAB4E001C011
:1000F0001D92A037B207E1F710E0C2E6D0E004C0DD
:100100002197FE010E949210C136D107C9F70E94C3
:10011000600B0C94B9120C9400002091A5052223C9
:10012000C1F0880F991FFC01E556FA4F808191813B
:10013000680F791F653071051CF0118210820895D7
:1001400077FD03C071836083089584E090E091831C
:100150008083089520919A0581E0213208F044C0FF
:10016000809176058111FCCF8091990592E0909362
:10017000760591E0909375059FEF9093740510922A
:10018000730520937205A9E7B5E0E2E5F5E090E09C
:10019000291331C01092510590915105880F892B78
:1001A0008093510580915005813049F5109250059A
:1001B000809151058093BB008091BC0083FDF8CFF6
:1001C00085EC8093BC00809176058230E1F38091CC
:1001D00074058F3FB1F0809174058032A1F0809159
:1001E0007405803391F084E01092780510929A059E
:1001F0001092770508953D9131939F5FC9CF85EEA9
:10020000E0CF80E0F1CF82E0EFCF83E0EDCFFC01E3
:10021000248135816217730720F4808191810097D2
:1002200029F410921A058AE195E00895860F971F28
:100230000895AF92BF92CF92DF92EF92FF920F9309
:100240001F93CF93DF936C017B018B01040F151F6C
:10025000EB015E01AE18BF08C017D10759F06991D4
:10026000D601ED91FC910190F081E02DC601099538
:10027000892B79F7C501DF91CF911F910F91FF90E5
:10028000EF90DF90CF90BF90AF900895FC01538D19
:10029000448D252F30E0842F90E0821B930B541760
:1002A00010F0CF96089501970895FC01918D828DED
:1002B000981761F0A28DAE0FBF2FB11D5D968C9186
:1002C000928D9F5F9F73928F90E008958FEF9FEFC5
:1002D0000895FC01918D828D981731F0828DE80F81
:1002E000F11D858D90E008958FEF9FEF0895FC013B
:1002F000918D228D892F90E0805C9F4F821B910908
:100300008F739927089586EA95E00E94770121E08E
:10031000892B09F420E0822F089580E090E0892B5A
:1003200029F00E94830181110C9400000895FC01C2
:10033000A48DA80FB92FB11DA35ABF4F2C91848D46
:1003400090E001968F739927848FA689B7892C93A3
:10035000A089B1898C91837080648C93938D848DF6
:10036000981306C00288F389E02D80818F7D8083F9
:100370000895EF92FF920F931F93CF93DF93EC01B9
:1003800081E0888F9B8D8C8D98131AC0E889F9893C
:10039000808185FF15C09FB7F894EE89FF8960833F
:1003A000E889F98980818370806480839FBF81E0C0
:1003B00090E0DF91CF911F910F91FF90EF90089502
:1003C000F62E0B8D10E00F5F1F4F0F731127E02EDD
:1003D0008C8D8E110CC00FB607FCFACFE889F98915
:1003E000808185FFF5CFCE010E949701F1CFEB8D83
:1003F000EC0FFD2FF11DE35AFF4FF0829FB7F894E9
:100400000B8FEA89FB8980818062CFCFCF93DF9306
:10041000EC01888D8823B9F0AA89BB89E889F9891C
:100420008C9185FD03C0808186FD0DC00FB607FC51
:10043000F7CF8C9185FFF2CF808185FFEDCFCE0184
:100440000E949701E9CFDF91CF910895833081F029
:1004500028F4813099F08230A9F008958730A9F00E
:100460008830C9F08430B1F4809180008F7D03C062
:10047000809180008F7780938000089584B58F7776
:1004800084BD089584B58F7DFBCF8091B0008F77B8
:100490008093B00008958091B0008F7DF9CF1F93B5
:1004A000CF93DF93282F30E0F901E458FF4F849178
:1004B000F901E057FF4FD491F901E255FF4FC49184
:1004C000CC23A9F0162F81110E942602EC2FF0E018
:1004D000EE0FFF1FEC55FF4FA591B4918FB7F89425
:1004E000EC91111108C0D095DE23DC938FBFDF9112
:1004F000CF911F910895DE2BF8CFCF93DF9390E03B
:10050000FC01E057FF4F249182559F4FFC018491DD
:100510008823C9F090E0880F991FFC01E859FF4F2C
:10052000A591B491FC01EC55FF4FC591D491611197
:100530000DC09FB7F8948C91209582238C9388816D
:10054000282328839FBFDF91CF910895623051F413
:100550009FB7F8943C91822F809583238C93E881F8
:100560002E2BEFCF8FB7F894EC912E2B2C938FBFBF
:10057000EACF3FB7F8948091160590911705A091A6
:100580001805B091190526B5A89B05C02F3F19F095
:100590000196A11DB11D3FBFBA2FA92F982F882703
:1005A000BC01CD01620F711D811D911D42E0660FDE
:1005B000771F881F991F4A95D1F7089521E001C040
:1005C000220F6A95EAF7DC011C962C931C971A9669
:1005D0005C934E931997ED91FC910484F585E02D81
:1005E00060E0099408950895DC01ED91FC91068482
:1005F000F785E02D41E0099581E090E00895DC0168
:10060000ED91FC910684F785E02D40E00994CF93AD
:10061000DF93CDB7DEB728970FB6F894DEBF0FBED5
:10062000CDBF40910A0150910B0160910C01709176
:100630000D014D835E836F83788740910E01509149
:100640000F01609110017091110149835A836B83EE
:100650007C8320917206821710F08FEF820F90E05A
:10066000309173068C0F9D1FFC01303181F42430D2
:1006700071F4618160688BE696E028960FB6F89475
:10068000DEBF0FBECDBFDF91CF910C94FF0265811D
:10069000F1CF8F929F92AF92BF92CF92DF92EF9263
:1006A000FF920F931F93CF93DF93EC01423018F02A
:1006B0008C8188608C834F836887222329F04130A6
:1006C00019F48C8184608C830E94B9024B015C0117
:1006D00084E6C82ED12CE12CF12C0E94B9026819B5
:1006E00079098A099B09683E734081059105A8F341
:1006F00021E0C21AD108E108F10888EE880E83E0F3
:10070000981EA11CB11CC114D104E104F10429F705
:100710006C8164FD64C0E881F9810684F785E02D71
:1007200042E063E0CE0109958BE496E40197F1F78E
:10073000E881F9810684F785E02D42E063E0CE018F
:10074000099503E512E0C8010197F1F7E881F98105
:100750000684F785E02D42E063E0CE010995C801EB
:100760000197F1F7E881F9810684F785E02D42E0F1
:1007700062E0CE010995C8010197F1F76C816062D2
:10078000CE010E94FF028BEE90E00197F1F784E02A
:100790008D836CE0CE010E94FF0261E0CE010E94D9
:1007A000FF028BE39FE10197F1F782E08E8366E021
:1007B000CE010E94FF02E881F9810484F585E02DD5
:1007C0006FEFCE01DF91CF911F910F91FF90EF90CE
:1007D000DF90CF90BF90AF909F908F900994606210
:1007E000CE010E94FF028BE496E40197F1F76C8141
:1007F0006062CE010E94FF0203E512E0C80101978A
:10080000F1F76C816062CE010E94FF02B4CF0895BF
:100810000895089585ED8093BC008091BC0084FD0F
:10082000FCCF1092760508952091EC04260F332713
:10083000331F21323105ECF420917605FC0190E064
:1008400080E0243069F082E00895A091EC042191C9
:10085000AC0144535B4FA40FB52FB11D2C930196EF
:10086000861798F38091EC04680F6093EC0480E0A5
:10087000089581E008950895E0911405809113058D
:10088000E81730F4F0E0E455FB4F808190E00895E4
:100890008FEF9FEF089590911405809113052FEF2E
:1008A0003FEF981748F4E92FF0E0E455FB4F208123
:1008B00030E09F5F90931405C9010895809113055E
:1008C00090911405891B990B0895CF92DF92EF92B6
:1008D000FF920F931F93CF93DF937C01CB018A018B
:1008E00020917705222389F0EB016B01C40ED51E00
:1008F000CC15DD0569F06991D701ED91FC9101906E
:10090000F081E02DC7010995F3CF642F0E941404F4
:10091000C801DF91CF911F910F91FF90EF90DF9071
:10092000CF900895CF93DF931F92CDB7DEB7698341
:10093000209177052223F9F020919A05203258F072
:1009400021E030E0FC013383228390E080E00F90CF
:10095000DF91CF91089580917805E82FF0E0E75876
:10096000FA4F998190838F5F8093780580939A05E1
:1009700081E090E0ECCF61E0CE0101960E9414048A
:10098000F7CFFC0123812223E1F08181682B608372
:10099000828191E090937705809399051092780574
:1009A00010929A0583E496E00E9492040E94AA00A5
:1009B000282F30E081E090E0232B11F090E080E0E0
:1009C000089530E020E0F6CFEF92FF920F931F934F
:1009D000CF938C01FC0184E0C0E0262F30E060FF63
:1009E00002C09589C92BB9017595679581503196DB
:1009F0008111F3CF413011F4F8014489F801658584
:100A0000C62BC42B7801FEE0EF0EF11CF8016289C1
:100A10006C2BC7010E94C104F801628960956C23A8
:100A2000C701CF911F910F91FF90EF900C94C104DB
:100A30000F931F93CF93DF93062F0F70423041F433
:100A400040E0602FDF91CF911F910F910C94E4044F
:100A5000142FEC0170E084E0759567958A95E1F7B5
:100A6000CE010E94E404412F602FCE01EBCFFC01A8
:100A700084858823A1F0218532852115310521F453
:100A8000611107C0158606C021303105D9F7611103
:100A9000F9CF85876585CF010E960C94C104089522
:100AA000EF92FF920F931F93CF93DF93EC01062FEA
:100AB000F42EE22E8B85888B10921405109213056C
:100AC0001092780510929A051092760511E0109315
:100AD00075051092500561E082E10E944F0261E0CD
:100AE00083E10E944F028091B9008E7F8093B9000C
:100AF0008091B9008D7F8093B90088E48093B8001D
:100B000085E48093BC0082EF92E09093120580937D
:100B1000110583EF92E09093100580930F0588896B
:100B200010937705809399051092780510929A0595
:100B30000E94AA0081111CC0198B83E496E00E94D8
:100B40004B048E878989882339F01F861C8260E0D8
:100B5000CE010E960E94C1042E2D4F2D602FCE0186
:100B6000DF91CF911F910F91FF90EF900C9449036B
:100B7000198AE8CF90E080E00895FC019A014427AB
:100B800055278085882349F090E0829FD001839F7C
:100B9000B00D929FB00D11242B2FA6854185528553
:100BA0008385A81317C0CB01880F991F680F791F81
:100BB000640F751FA385A60FB72FB11D2C93A485B5
:100BC000A60FB72FB11D1C928585680F711DFB0103
:100BD00010820895660F771F660F771F640F751FC9
:100BE000A60FB72FB11D1C92E5CFCF92DF92EF92E7
:100BF000FF920F931F93CF93DF93CDB7DEB7299763
:100C00000FB6F894DEBF0FBECDBF8C01DC01199684
:100C10008D919C91892B09F465C00E94B902F8015D
:100C2000C784D088E188F2886C197D098E099F09F4
:100C30006C3271408105910580F3F894D8011496C7
:100C40008D919C9115979A8389831996ED91FC91CA
:100C50007F01BFEFEB1AFB0A80818987F801908141
:100C60000388F489E02DD80155968C91992309F4D5
:100C700048C09081982B98879081809589238F8395
:100C80008F818C8388E08B8358856F8149853B8178
:100C90002C8189819A81D701508347FD252F3A9570
:100CA0002083262F39F0441F00C00000608300001D
:100CB00000C0F2CF38E04D9160830000019761F7EA
:100CC000D8015496FC93EE93539749873B832C832A
:100CD0009A83898378940E94B902F8016787708BA0
:100CE000818B928B29960FB6F894DEBF0FBECDBFD5
:100CF000DF91CF911F910F91FF90EF90DF90CF90F8
:100D000008959081982B98879081809589238F836F
:100D10008F818E8388E08D8358856F8149853D81E1
:100D20002E8189819A81D701508347FD252F00C0EC
:100D300000C0208300C000C000C000C000C06083AD
:100D40000000262F3A9541F0441F000000C000C06B
:100D500000C000C000C0E8CF38E04D9100C0608303
:100D600000C0019709F7D8015496FC93EE9353976E
:100D700049873D832E83ACCFCF93DF93EC018E81E7
:100D80009F8197FD07C061E00E947D0260E08E8137
:100D90000E944F0281E08983DF91CF9108950F93E4
:100DA0001F93CF93DF932CE8289F8001299F100D7C
:100DB00011248EE0869F9001879F300D1124020F31
:100DC000131FD0E0C0E0FE01EE0FFF1FE00FF11F88
:100DD000EE5EFE4F6081718177FD0FC080915807F4
:100DE000909159076817790740F420E030E044E615
:100DF00050E086E597E00E94BD052196C730D105F9
:100E000011F7DF91CF911F910F910895FC0144815B
:100E1000558170E060E0818592850C949C120F935F
:100E20001F93CF93DF938C0186E597E00E9406071E
:100E3000C80168EE73E00E947E1090E080E00E949E
:100E4000CF06C80164E670E00E947E10CB01CAE0C4
:100E5000D0E0BE010E947E10BC0181E090E00E94C3
:100E6000CF06C801BE010E947E108C01CB01BE01DD
:100E70000E947E10BC0182E090E00E94CF06B80183
:100E800083E090E00E94CF0686E597E0DF91CF9166
:100E90001F910F910C94F505CF93DF93EC0188819E
:100EA0009981009711F00E944811198218821D82C1
:100EB0001C821B821A82DF91CF910895FC018081F0
:100EC00091810C944811CF93DF93FC0144815581AB
:100ED00064177507C8F49B01EC0180819181415032
:100EE000510955834483461B570B6F5F7F4F680F33
:100EF000791F820F931F0E94AA12E881F9818C81C9
:100F00009D81E80FF91F1082DF91CF91089542E093
:100F100050E060E973E086EA95E00C941901CF9304
:100F2000DF93FC01448155816081718186EA95E0FF
:100F30000E941901EC010E9487078C0F9D1FDF9111
:100F4000CF9108950E948E120F931F93CF93DF933A
:100F5000EC0188819981009759F02A813B812617FD
:100F6000370730F081E0DF91CF911F910F91089505
:100F70008B016F5F7F4F0E94D111009759F09983C9
:100F800088831B830A832C813D81232B59F7FC0125
:100F90001082E8CF80E0E7CFEF92FF920F931F938C
:100FA000CF93DF93EC017B018A01BA010E94A40771
:100FB00081110BC0CE010E944C07CE01DF91CF9171
:100FC0001F910F91FF90EF9008951D830C83B7013F
:100FD000888199810E94A312F0CFFC0111821082B6
:100FE0001382128215821482FB0101900020E9F71E
:100FF0003197AF01461B570B0C94CC071F920F92F1
:101000000FB60F9211242F933F934F935F936F93DB
:101010007F938F939F93AF93BF93EF93FF9386EA52
:1010200095E00E949701FF91EF91BF91AF919F9141
:101030008F917F916F915F914F913F912F910F9081
:101040000FBE0F901F9018951F920F920FB60F9220
:1010500011242F938F939F93EF93FF93E091B60505
:10106000F091B7058081E091BC05F091BD0582FD4E
:101070001BC090818091BF058F5F8F732091C00549
:10108000821741F0E091BF05F0E0EA55FA4F958FE5
:101090008093BF05FF91EF919F918F912F910F90BA
:1010A0000FBE0F901F9018958081F4CF1F920F9262
:1010B0000FB60F9211242F933F938F939F93AF936B
:1010C000BF9380914C0590914D05A0914E05B09134
:1010D0004F053091150523E0230F2D3758F5019664
:1010E000A11DB11D2093150580934C0590934D05CE
:1010F000A0934E05B0934F0580911605909117056A
:10110000A0911805B09119050196A11DB11D8093FC
:10111000160590931705A0931805B0931905BF9174
:10112000AF919F918F913F912F910F900FBE0F9094
:101130001F90189526E8230F0296A11DB11DD2CF4E
:101140001F920F920FB60F9211242F933F934F933C
:101150005F936F937F938F939F93AF93BF93EF931F
:10116000FF938091B900887F803609F44AC0F0F57A
:10117000883209F4A7C018F5803109F49BC0B8F48F
:10118000882309F4F9C0883009F494C0FF91EF91E5
:10119000BF91AF919F918F917F916F915F914F918F
:1011A0003F912F910F900FBE0F901F90189588318F
:1011B00009F488C0803251F78093740514C08034DC
:1011C00009F49DC040F48033B9F38833F9F6809375
:1011D000740585ECB0C0803509F485C0883509F404
:1011E00096C0883499F60E940A04D0CF883909F451
:1011F0008CC038F5883729F050F4883611F08037E4
:1012000029F683E08093760510920E0557C0883842
:1012100009F47BC0803919F0803809F0B7CF80918C
:101220000E05803208F071C0E0910E0581E08E0F4E
:1012300080930E058091BB00F0E0E251FB4F80836C
:101240003DC0803B39F0E0F4803A09F479C0883A37
:1012500009F09CCF84E0809376051092ED04109203
:10126000EC04E0911105F091120509958091EC04D0
:1012700081110FC081E08093EC041092CC0409C06E
:10128000803C09F4A6CF883C09F4A3CF883B09F041
:101290007DCFE091ED0481E08E0F8093ED04F0E0CE
:1012A000E453FB4F80818093BB009091ED048091CB
:1012B000EC0429C0809151058093BB0085EC80939C
:1012C000BC0064CF9091730580917205981758F512
:1012D000E091730581E08E0F80937305F0E0EE5A84
:1012E000FA4F8081E9CFE091730581E08E0F809302
:1012F00073058091BB00F0E0EE5AFA4F8083909125
:101300007305809172059817C8F285E8D8CFE091EF
:10131000730581E08E0F809373058091BB00F0E030
:10132000EE5AFA4F80838091750581115CCF81E080
:101330008093500584EA8093BC001092760526CFF6
:1013400085EC8093BC001092760580910E0580326A
:1013500030F4E0910E05F0E0E251FB4F1082609115
:101360000E0570E0E0910F05F09110058EEE94E00F
:10137000099510920E050ACF1092740534CFCF92C2
:10138000DF92EF92FF920F931F93CF93DF93EC01C5
:101390006B018A01198218861F86188A198A1A8A8F
:1013A00081E08E878B871C8692E09D8788837B01F6
:1013B000EE0CFF1CE60EF71EFD82EC82C7010E94B8
:1013C000AC109A878987009779F1A70170E060E0F7
:1013D0000E949C12DB82CA821F830E83898188232C
:1013E00041F061E0802F0E947D0260E0802F0E942A
:1013F0004F02F801E255FF4FE491F0E0EE0FFF1FBE
:10140000EC55FF4F859194919C8B8B8BF801E057A5
:10141000FF4FE491ED8BDF91CF911F910F91FF90E2
:10142000EF90DF90CF9008951D821C821B821A825C
:10143000D3CFE6EAF5E01382128288EE93E0A0E0D3
:10144000B0E084839583A683B7832CE533E03183B2
:10145000208325EC30E03587248724EC30E0378783
:10146000268720EC30E0318B208B21EC30E0338B71
:10147000228B22EC30E0358B248B26EC30E0378B4E
:10148000268B118E128E138E148EE3E4F6E01382F7
:10149000128284839583A683B7838EE693E091833B
:1014A000808346E150E065E270E086E597E00E94C7
:1014B000BF0963E973E084E896E00E94ED0769E9FB
:1014C00073E08AE896E00E94ED076FE973E080E937
:1014D00096E00E94ED0765EA73E086E996E00E94D7
:1014E000ED076BEA73E08CE996E00E94ED0761EB93
:1014F00073E082EA96E00E94ED0767EB73E088EA0A
:1015000096E00E94ED076DEB73E08EEA96E00E9494
:10151000ED0763EC73E084EB96E00E94ED0769EC65
:1015200073E08AEB96E00E94ED076FEC73E080ECCD
:1015300096E00E94ED0765ED73E086EC96E00E9470
:10154000ED076BED73E08CEC96E00E94ED0761EE29
:1015500073E082ED96E00E94ED0767EE73E088EDA0
:1015600096E00E94ED076DEE73E08EED96E00E942E
:10157000ED0763EF73E084EE96E00E94ED0769EFFC
:1015800073E08AEE96E00E94ED076FEF73E080EF64
:1015900096E00E94ED0765E074E086EF96E00E9419
:1015A000ED076BE074E08CEF96E00E94ED0761E1DF
:1015B00074E082E097E00E94ED0767E174E088E064
:1015C00097E00E94ED076DE174E08EE097E00E94E5
:1015D000ED0763E274E084E197E00E94ED0769E2C1
:1015E00074E08AE197E00E94ED076FE274E080E228
:1015F00097E00E94ED0765E374E086E297E00E94C1
:10160000ED076BE374E08CE297E00E94ED0761E484
:1016100074E082E397E00E94ED0767E474E088E3FA
:1016200097E00E94ED076DE474E08EE397E00E947E
:10163000ED0763E574E084E497E00E94ED0769E557
:1016400074E08AE497E00E94ED076FE574E080E5BE
:1016500097E00E94ED07EBE6F6E01382128280E845
:1016600093E091838083108A8FEF87871686118A93
:1016700087E28387148615861286118684E0828B22
:1016800082E0838B81E0848B80E1858B80E2868B96
:1016900080E4878B80E8808F50E040E063E0CF01FA
:1016A0000E94DE0262E973E085E696E00E94ED07A3
:1016B00047E150E063E070E08FE496E00C94BF09EE
:1016C000CF93DF93CDB7DEB76A970FB6F894DEBF3E
:1016D0000FBECDBF789484B5826084BD84B581602F
:1016E00084BD85B5826085BD85B5816085BD8091ED
:1016F0006E00816080936E00109281008091810065
:10170000826080938100809181008160809381005C
:10171000809180008160809380008091B10084601E
:101720008093B1008091B00081608093B00080917F
:101730007A00846080937A0080917A00826080933E
:101740007A0080917A00816080937A0080917A009B
:10175000806880937A001092C100E091B605F09104
:10176000B70582E08083E091B205F091B305108265
:10177000E091B405F091B5058FEC80831092BE0521
:10178000E091BA05F091BB0586E08083E091B80551
:10179000F091B905808180618083E091B805F09176
:1017A000B905808188608083E091B805F091B90522
:1017B000808180688083E091B805F091B9058081CF
:1017C0008F7D808386E597E00E94BC0686E597E0E2
:1017D0000E94060786E597E00E94F5058FE496E0F3
:1017E0000E94BC068FE496E00E9406078FE496E014
:1017F0000E94F50580E480937C0080917A008064EB
:1018000080937A0080917A0086FDFCCF80917800E9
:1018100060917900762F682F072E000C880B990BAA
:10182000611571058105910511F00E94A60F68E50B
:10183000E62E63E0F62E02E413E0F80180810E5FED
:101840001F4F62E00E947D02E016F106B1F720E032
:1018500042E060E18BE696E00E9450056FEF8BE678
:1018600096E00E94370580E00E9407030E94570F10
:1018700023E230E040E050E00E94E40F26E0269FA3
:10188000F001279FF00D1124EC57F94F6081718111
:101890006115710509F4A8C04481558185E696E07B
:1018A0000E94CC074091690650916A0660916506D6
:1018B000709166068BE696E00E94190181E00E9415
:1018C00007030BE915E055E0C52ED12CE12CF12CD6
:1018D0000E94570FA70196010E94E40FF80161933F
:1018E00071938F01F5E0053A1F0791F765E674E003
:1018F000CE0143960E94ED0710E000E0809169065A
:1019000090916A060817190708F473C04DE1A42ED8
:1019100045E0B42E10E000E08091690690916A06DF
:101920000817190708F078C01A8219821C821B82D6
:101930001E821D826B897C896115710531F04F898A
:10194000588DCE0101960E94CC07B80185E696E03D
:101950000E940701FC016081062E000C770B615686
:101960007109CE0101960E946307912C812CCD80D4
:10197000DE80F12CE12CC114D104E104F10439F032
:101980000E94570FA70196010E94E40F6B010C2CD7
:10199000000CDD08B601CE0101960E940701FC0192
:1019A000F080B601CE0101960E946307F501E80DB3
:1019B000F91DF082FFEF8F1A9F0A25E0821691042D
:1019C000B1F6B80185E696E00E940701FC0180812E
:1019D000F5018083CE0101960E945E070F5F1F4FC5
:1019E000F5E0AF0EB11C98CF85E696E00E944C075B
:1019F00059CFB80185E696E00E940701FC0160819D
:101A0000062E000C770B61567109CE0143960E9499
:101A100063070F5F1F4F72CFCE0143960E945E0790
:101A2000DE0153962BE935E090E080E065E0F901B6
:101A3000419151919F01689FF001699FF00D112420
:101A4000E35EFA4FE40FF51F40814D930196853018
:101A5000910569F7BE016D5E7F4F8E010F5F1F4FCD
:101A6000C8010E94ED074D815E8169817A818BE614
:101A700096E00E941901C8010E945E0781E08093F0
:101A8000A50538EE432E33E0532E612C712C26E34E
:101A9000222E25E0322E22E433E03A8F298FB12C1A
:101AA000A12CE98DFA8D21913191FA8FE98F33279D
:101AB000F901E458FF4F8491F901E057FF4FE4909A
:101AC000F901E255FF4FF490FF2009F479C081112C
:101AD0000E942602EF2DF0E0EE0FFF1FEE58FF4FA1
:101AE000A591B491EC91EE2291E080E009F090E0B4
:101AF000E92EF82EF101819191911F018E159F051C
:101B000009F4A4C0E114F10409F09CC01C8A1B8AEA
:101B10001E8A1D8A188E1F8A4AE0B801C5010E94DC
:101B2000AF0FF80101900020E9F73197AF01401B9A
:101B3000510BB801CE0143960E94CC0760E874E0D7
:101B4000C8010E94ED078B889C888114910409F4D8
:101B50003BC0CF88D88CC114D104A9F08D819E815F
:101B6000C80ED91EB601C8010E94A407882361F1DE
:101B700029813A818D819E81B401820F931F0E9439
:101B8000A312DE82CD82C8010E948F07C8010E9485
:101B90005E07CE0143960E945E07F5013197EA3059
:101BA000F105B0F4EA52F24F0C9492105C0E5F0E05
:101BB000640E670E6C0E6F0E740E770E770E7C0E31
:101BC000EE24E394F12C96CFC8010E944C07DBCFA2
:101BD00061E070E090E080E00E948D004BE050E01A
:101BE0006FE974E086EA95E00E9419010E94870778
:101BF000AE014D5E5F4F6A01ABE9B5E030E020E039
:101C00004D915D9165E0629FC001639F900D11242D
:101C1000835E9A4F840F951FFC018081F6018193AA
:101C20006F012F5F3F4F2530310551F7BE016D5ECB
:101C30007F4FC8010E94ED07C8010E948F07C801AD
:101C40000E945E07F1013297F182E082FFEFAF1A46
:101C5000BF0A2BE0A216B10409F023CF2FB7F894E6
:101C600080914C0590914D05A0914E05B0914F0586
:101C70002FBF20EE33E944E050E0281B390B4A0B1C
:101C80005B0BCA01B901A30192010E944D106901C9
:101C9000C90137FF3EC090E080E00E940F0780E05E
:101CA00090E0892B09F4F3CE0E948301882309F484
:101CB000EECE0E940000EBCE6FEF7FEF8BCF61E0A6
:101CC00070E081E090E088CF6FEF7FEFFACF61E0C6
:101CD00070E082E090E080CF6FEF7FEFFACF61E0BD
:101CE00070E083E090E078CF6FEF7FEFFACF6FEF97
:101CF0007FEF84E090E070CF1092A505EBE9F5E06E
:101D000081919191892BD1F425E0E53AF207C1F751
:101D100065CF6CE370E00E947E1034EC3603C001A6
:101D2000379F900D1124C80ED91E44E6469FC0016E
:101D3000479F900D11248C0D9D1DAFCFC0901B05AA
:101D4000D0901C059FEFC91AD90AD0921C05C092E9
:101D50001B058FE496E00E94060780905106909044
:101D6000520681149104F9F0C114D10421F0C81471
:101D7000D90408F44601D12CC12C809151069091D0
:101D80005206C816D90648F420E030E046E950E093
:101D9000B6018FE496E00E94BD053FEFC31AD30A57
:101DA0008C149D0451F78FE496E00E94F50516CF40
:101DB000CF93DF9380915806909159060E94481165
:101DC000809155069091560697FD03C060E00E94F1
:101DD0007D0285E696E00E945E07C6E5D7E026977D
:101DE000CE010E945E0786E0C438D807C1F7809113
:101DF0005F07909160070E94481180915C07909165
:101E00005D0797FD05C060E0DF91CF910C947D02E6
:101E1000DF91CF9108958F929F92AF92BF92CF9210
:101E2000DF92EF92FF92CF93DF93EC01688179818B
:101E30008A819B81611571058105910521F464E218
:101E400079ED8BE597E02DE133EF41E050E00E9422
:101E5000E40F49015A019B01AC01A7EAB1E40E94D9
:101E600003106B017C01ACEEB4EFA50194010E945C
:101E70001110C60ED71EE81EF91EF7FE06C081E03F
:101E8000C81AD108E10880E8F80AC882D982EA8233
:101E9000FB82C701B6019F77DF91CF91FF90EF9052
:101EA000DF90CF90BF90AF909F908F9008958F92CA
:101EB0009F92AF92BF92CF92DF92EF92FF9260918A
:101EC000000170910101809102019091030161155F
:101ED00071058105910521F464E279ED8BE597E0C8
:101EE0002DE133EF41E050E00E94E40F49015A0137
:101EF0009B01AC01A7EAB1E40E9403106B017C01D5
:101F0000ACEEB4EFA50194010E941110C60ED71ECD
:101F1000E81EF91EF7FE06C081E0C81AD108E108E4
:101F200080E8F80AC0920001D0920101E09202011B
:101F3000F0920301C701B6019F77FF90EF90DF9009
:101F4000CF90BF90AF909F908F90089560930001C5
:101F50007093010180930201909303010895BB27C0
:101F60004A3031F4992322F4BDE2909581959F4F38
:101F70000C94BB0FBB27FB015527AA27880F991F7D
:101F8000AA1FA41710F0A41B83955051B9F7A05DA8
:101F9000AA3308F0A95DA193009779F7B111B19325
:101FA0001192CB010C94D40FDC01FC01672F7191CD
:101FB0007723E1F7329704C07C916D93708362912F
:101FC000AE17BF07C8F30895052E97FB1EF40094C3
:101FD0000E94FB0F57FD07D00E944D1007FC03D055
:101FE0004EF40C94FB0F50954095309521953F4F42
:101FF0004F4F5F4F089590958095709561957F4FF5
:102000008F4F9F4F08950E946F10A59F900DB49F12
:10201000900DA49F800D911D11240895B7FF0C947D
:1020200003100E940310821B930B08952F923F927E
:102030004F925F926F927F928F929F92AF92BF92D8
:10204000CF92DF92EF92FF920F931F93CF93DF9384
:10205000CDB7DEB7CA1BDB0B0FB6F894DEBF0FBEE1
:10206000CDBF09942A88398848885F846E847D842E
:102070008C849B84AA84B984C884DF80EE80FD8030
:102080000C811B81AA81B981CE0FD11D0FB6F894A6
:10209000DEBF0FBECDBFED010895A1E21A2EAA1B2F
:1020A000BB1BFD010DC0AA1FBB1FEE1FFF1FA21708
:1020B000B307E407F50720F0A21BB30BE40BF50B05
:1020C000661F771F881F991F1A9469F7609570958E
:1020D000809590959B01AC01BD01CF010895A29F11
:1020E000B001B39FC001A39F700D811D1124911DEC
:1020F000B29F700D811D1124911D089597FB072E2D
:1021000016F4009407D077FD09D00E94981007FCC0
:1021100005D03EF4909581959F4F089570956195F7
:102120007F4F0895EE0FFF1F0590F491E02D099465
:10213000AA1BBB1B51E107C0AA1FBB1FA617B707ED
:1021400010F0A61BB70B881F991F5A95A9F7809509
:102150009095BC01CD0108950F931F93CF93DF930A
:102160008230910510F482E090E0E0916E07F091EA
:102170006F0730E020E0B0E0A0E0309799F421153F
:10218000310509F44AC0281B390B24303105D8F534
:102190008A819B816115710589F1FB01938382839B
:1021A000FE0111C0408151810281138148175907F6
:1021B000E0F04817590799F4109761F012960C93C4
:1021C000129713961C933296CF01DF91CF911F91F6
:1021D0000F91089500936E0710936F07F4CF2115A8
:1021E000310551F04217530738F0A901DB019A017C
:1021F000BD01DF01F801C1CFEF01F9CF90936F0767
:1022000080936E07CDCFFE01E20FF31F8193919370
:102210002250310939832883D7CF20916C07309120
:102220006D07232B41F42091060130910701309373
:102230006D0720936C072091040130910501211551
:10224000310541F42DB73EB7409108015091090185
:10225000241B350BE0916C07F0916D07E217F30733
:10226000A0F42E1B3F0B2817390778F0AC014E5F06
:102270005F4F2417350748F04E0F5F1F50936D07CF
:1022800040936C07819391939FCFF0E0E0E09CCF67
:10229000CF93DF930097E9F0FC013297138212820B
:1022A000A0916E07B0916F07ED0130E020E010972C
:1022B000A1F420813181820F931F20916C0730910E
:1022C0006D072817390709F061C0F0936D07E09397
:1022D0006C07DF91CF910895EA01CE17DF07E8F58B
:1022E0004A815B819E0141155105B1F7E901FB83EC
:1022F000EA8349915991C40FD51FEC17FD0761F48A
:10230000808191810296840F951FE90199838883CA
:10231000828193819B838A83F0E0E0E012968D9125
:102320009C9113970097B9F52D913C911197CD0190
:102330000296820F931F20916C0730916D0728172A
:10234000390739F6309751F510926F0710926E07E2
:10235000B0936D07A0936C07BCCFD383C283408139
:102360005181840F951FC817D90761F44E5F5F4FE5
:1023700088819981480F591F518340838A819B81AD
:10238000938382832115310509F0B0CFF0936F0755
:10239000E0936E079ECFFD01DC01C0CF1382128255
:1023A000D7CFB0E0A0E0E7EDF1E10C9418108C017C
:1023B000009751F4CB010E94AC108C01C801CDB73D
:1023C000DEB7E0E10C943410FC01E60FF71F9C012E
:1023D00022503109E217F30708F49DC0D901CD91CD
:1023E000DC911197C617D70798F0C530D10530F3A7
:1023F000CE0104978617970708F3C61BD70B2297C1
:10240000C193D1936D937C93CF010E944811D6CF95
:102410005B01AC1ABD0A4C018C0E9D1EA0916E078B
:10242000B0916F07512C412CF12CE12C109731F514
:1024300080916C0790916D078815990509F05CC033
:102440004616570608F058C0809104019091050186
:10245000009741F48DB79EB7409108015091090152
:10246000841B950BE817F90708F055C0F0936D072A
:10247000E0936C07F90171836083A0CF8D919C91EB
:10248000119712966C90129713967C901397A8153B
:10249000B90559F56C0142E0C40ED11CCA14DB0425
:1024A00020F1AC014A195B09DA011296159780F008
:1024B0006282738251834083D9016D937C93E114CE
:1024C000F10471F0D7011396FC93EE93129776CF37
:1024D00022968C0F9D1FF90191838083F301EFCF2A
:1024E000F0936F07E0936E0769CF4816590608F41A
:1024F0002C017D01D3019ACFCB010E94AC107C014D
:10250000009749F0AE01B8010E949312C8010E94E1
:102510004811870153CF10E000E050CF81E090E0F8
:10252000F8940C94B912FB01DC0102C001900D92E9
:1025300041505040D8F70895DC0101C06D934150DF
:102540005040E0F70895FB01DC0101900D9200205E
:10255000E1F70895FB01DC014150504048F0019043
:102560000D920020C9F701C01D9241505040E0F784
:10257000089510E0C2E6D0E004C0FE010E9492106F
:0C2580002196C336D107C9F7F894FFCFAD
:10258C00010000000000700780000040145400405F
:10259C001050060007000800160017002400FFFF6B
:1025AC0008001700FFFFFFFFFFFFFFFFFFFF060004
:1025BC000800150016002400FFFFFFFF06000800AE
:1025CC00150017002400FFFFFFFFFFFF07000800A6
:1025DC001500FFFF1700FFFF06000700FFFF1500A7
:1025EC00FFFF1700240006000700FFFF1500160070
:1025FC00170024000600FFFF0800FFFFFFFF170075
:10260C00FFFF060007000800150016001700240045
:10261C000600070008001500FFFF17002400040047
:10262C0009000A00180019002200FFFF0A00190017
:10263C00FFFFFFFFFFFFFFFFFFFF04000A00130077
:10264C0018002200FFFFFFFF04000A00130019000E
:10265C002200FFFFFFFFFFFF09000A001300FFFF2E
:10266C001900FFFF04000900FFFF1300FFFF190012
:10267C00220004000900FFFF1300180019002200BB
:10268C000400FFFF0A00FFFFFFFF1900FFFF04001B
:10269C0009000A00130018001900220004000900A8
:1026AC000A001300FFFF1900220002000B000C00AF
:1026BC001A001B002000FFFF0C001B00FFFFFFFF98
:1026CC00FFFFFFFFFFFF02000C0011001A002000AB
:1026DC00FFFFFFFF02000C0011001B002000FFFF9A
:1026EC00FFFFFFFF0B000C001100FFFF1B00FFFFA3
:1026FC0002000B00FFFF1100FFFF1B002000020077
:10270C000B00FFFF11001A001B0020000200FFFF4E
:10271C000C00FFFFFFFF1B00FFFF02000B000C0073
:10272C0011001A001B00200002000B000C0011000D
:10273C00FFFF1B00200000000D000E001C001D0000
:10274C001E00FFFF0E001D00FFFFFFFFFFFFFFFF3E
:10275C00FFFF00000E000F001C001E00FFFFFFFF1C
:10276C0000000E000F001D001E00FFFFFFFFFFFF0B
:10277C000D000E000F00FFFF1D00FFFF00000D00FD
:10278C00FFFF0F00FFFF1D001E0000000D00FFFFEC
:10279C000F001C001D001E000000FFFF0E00FFFFBD
:1027AC00FFFF1D00FFFF00000D000E000F001C00BE
:1027BC001D001E0000000D000E000F00FFFF1D008D
:1027CC001E000C000B000A000900080007000600A0
:1027DC000500040003000D0000000000B901190100
:1027EC0046010602770155016901000000009204C0
:1027FC006504BA053B045E044B043C040000000075
:10280C00F4021901BA0509045005DE023705180552
:10281C000D0A0061626F7574006166746572006107
:10282C006761696E0062656C6F7700636F756C64CD
:10283C0000657665727900666972737400666F75EF
:10284C006E6400677265617400686F757365006C07
:10285C0061726765006C6561726E006E657665729B
:10286C00006F7468657200706C61636500706C61F8
:10287C006E7400706F696E740072696768740073AF
:10288C006D616C6C00736F756E64007370656C6C4D
:10289C00007374696C6C007374756479007468658A
:1028AC00697200746865726500746865736500749C
:1028BC0068696E67007468696E6B00746872656530
:1028CC000077617465720077686572650077686976
:1028DC00636800776F726C6400776F756C64007757
:1028EC0072697465006162636465666768696A6BC6
:1028FC006C6D6E6F707172737475767778797A000F
:10290C0050617373776F726420427574746F6E20AC
:10291C00646F776E2C206E756D6265723A20004381
:0C292C007572722053746174653A0000EB
:00000001FF
