:100000008DC20000BCC20000BAC20000B8C200002D
:10001000B6C20000B4C20000B2C20000B0C200000C
:10002000AEC20000ACC20000AAC20000A8C200001C
:10003000A6C20000A4C20000A2C20000A0C200002C
:100040009EC200009CC200009AC2000098C200003C
:1000500096C2000094C2000092C200000C94A91540
:100060008EC200000C9473150C94491588C20000D0
:1000700086C2000084C2000082C2000080C200006C
:100080007EC200007CC200007AC2000078C200007C
:1000900076C2000074C2000072C200000C94F31516
:1000A0006EC200006CC200006AC2000068C200009C
:1000B00066C2000064C2000062C2000060C20000AC
:1000C0005EC200005CC200005AC2000058C20000BC
:1000D00056C2000054C2000052C2000050C20000CC
:1000E0004EC20000000020002300260029002C0042
:1000F0002F00320000010000030106010901000089
:100100002100240027002A002D00300033000101C7
:100110000000040107010A0100000A0B02090C0D8E
:100120000E080703040100000000000000000000AA
:1001300000000000000000000000000000000000BF
:10014000000000001211100000000000000000007C
:10015000000000000000000000000000000010008F
:100160008E2F11000C000700210028000600280037
:10017000050027007F052900A18900000100FFFF7D
:1001800064002900B080FFFF1E002900FEFF070069
:100190002302FFFF1E00070033020100832103003A
:1001A00030682F00FFFF2C00008027007005020040
:1001B00000030B000C581200090613000031110057
:1001C0007F78B103053C3CB203053C3CB306053CDB
:1001D0003C053C3CB40103C003280804C101C0C273
:1001E000020D00C3028D2AC4028DEEC5011A17014B
:1001F00005360100E0100322070A2E30252A2826A2
:100200002E3A00010313E1100416060D2D262327B4
:1002100027252D3B000104133A0105290001007F29
:100220009628003A0155C0020D0DC1024300C201DB
:1002300000C50400480048B40100B60302023BE0D8
:100240000F0F241C0A0F084388320F10060F0700F7
:10025000E10F0F3830090F0F4E773C071005231BB5
:100260000011007F9629002E018929018F2B0102A0
:10027000E20100E40101E50110E60101E70110E8F7
:100280000170F20100EA0100EB0120EC013CED01FC
:10029000C8E90138F101011B011A1A0101240161A9
:1002A00025015C2301881801361901011F01887F8F
:1002B000051F01807F051F01907F051F01D47F0569
:1002C0001701053601002801387F2828013C02016A
:1002D000000301000401000501EF06010007010011
:1002E00008010109013F0100B903FF83577FFAB3F9
:1002F0000400000606B60125B00168CC0105B10670
:1003000000151C1C83AAC0065050013C1E08B407EF
:100310000240002A2A0D783A01553601C035010005
:100320004402000211007F9629007F3201007F32D3
:100330002800F603010100CF03008130ED046403BF
:100340001281E803851078CB05392C003402F701BF
:1003500020EA020000B00100B40100C00121C10187
:1003600011C5023F3CC701B53601883A0155B102BB
:10037000001B360148F20100260101E00F0F262480
:100380000B0E0954A8460C17090F0700E10F0019BE
:100390001B0410072A473903060630380FB7010738
:1003A00011007F96290000000100FFFF32000100CC
:1003B00000010200000703003010040000000800E4
:1003C0000202090000000A0000000C0000000D00FD
:1003D00000000F00000010000000110007001200D4
:1003E000000013000000FFFFC8001000901611006D
:1003F0002702FFFF320012001A00FFFF3200130035
:10040000001829002A00FFFF3200300000003100F0
:1004100000003200000035000602360008083700F0
:10042000070038000102390000003C0000003D00D8
:1004300000002000000021000000500000005100DA
:10044000EF005200000053003F01600000A7610070
:1004500003006A000000900010009200000093006A
:1004600003009500001197000000980000000700AD
:100470003301010210202008081020401020408085
:100480000201020108040201010204081020408058
:1004900080402010080402018004020180402010E6
:1004A000080402010804020101020408102040802F
:1004B00001020408102040800000220025002800CE
:1004C0002B002E003100340002010000050108015C
:1004D0000B010505050507050808080802020202C8
:1004E0000A0A0808040404040101010101010101D0
:1004F0000303030303030303040707070C0C0C0C9B
:100500000C0C0C0C02020202060606060606060683
:100510000B0B0B0B0B0B0B0B7117CA2011241FBEFF
:10052000CFEFD1E2DEBFCDBF00E00CBF13E1A0E012
:10053000B2E0E8E2F9E400E00BBF02C007900D92E0
:10054000A637B107D9F726E1A6E7B3E101C01D92AE
:10055000A23EB207E1F712E0CDE8D2E000E006C02B
:1005600021970109802FFE010E943C22CC38D1073F
:1005700080E00807A9F70E9457190C94832440CD06
:100580002091CD142223C1F0880F991FFC01ED5357
:10059000FB4E80819181680F791F653071051CF0D9
:1005A00011821082089577FD03C0718360830895DE
:1005B00084E090E09183808308952091C21481E0CB
:1005C000213208F044C080919E148111FCCF8091AB
:1005D000C11492E090939E1491E090939D149FEF2C
:1005E00090939C1410929B1420939A14A1EAB4E166
:1005F000EAE7F4E190E0291331C010927914909168
:100600007914880F892B8093791480917814813024
:1006100049F510927814809179148093BB008091F1
:10062000BC0083FDF8CF85EC8093BC0080919E14C4
:100630008230E1F380919C148F3FB1F080919C1443
:100640008032A1F080919C14803391F084E010926C
:10065000A0141092C21410929F1408953D913193EA
:100660009F5FC9CF85EEE0CF80E0F1CF82E0EFCF92
:1006700083E0EDCFFC01828993890895FC01848990
:1006800095890895FC01248135816217730720F450
:1006900080819181009729F410925A148AE594E19F
:1006A0000895860F971F0895AF92BF92CF92DF9261
:1006B000EF92FF920F931F93CF93DF936C017B0117
:1006C0008B01040F151FEB015E01AE18BF08C017A8
:1006D000D10759F06991D601ED91FC910190F0811B
:1006E000E02DC6011995892B79F7C501DF91CF91CE
:1006F0001F910F91FF90EF90DF90CF90BF90AF9040
:100700000895FC01538D448D252F30E0842F90E017
:10071000821B930B541710F0CF96089501970895FC
:10072000FC01918D828D981761F0A28DAE0FBF2FC5
:10073000B11D5D968C91928D9F5F9F73928F90E01B
:1007400008958FEF9FEF0895FC01918D828D98178A
:1007500031F0828DE80FF11D858D90E008958FEFC7
:100760009FEF0895FC01918D228D892F90E0805C90
:100770009F4F821B91098F73992708958EEC94E106
:10078000F1DF21E0892B09F420E0822F0895FC019C
:10079000A48DA80FB92FB11DA35ABF4F2C91848DE2
:1007A00090E001968F739927848FA689B7892C933F
:1007B000A089B1898C91837080648C93938D848D92
:1007C000981306C00288F389E02D80818F7D808395
:1007D0000895EF92FF920F931F93CF93DF93EC0155
:1007E00081E0888F9B8D8C8D98131AC0E889F989D8
:1007F000808185FF15C09FB7F894EE89FF896083DB
:10080000E889F98980818370806480839FBF81E05B
:1008100090E0DF91CF911F910F91FF90EF9008959D
:10082000F62E0B8D10E00F5F1F4F0F731127E02E78
:100830008C8D8E110BC00FB607FCFACFE889F989B1
:10084000808185FFF5CFCE01A2DFF2CFEB8DEC0FDB
:10085000FD2FF11DE35AFF4FF0829FB7F8940B8FE5
:10086000EA89FB8980818062D0CFCF93DF93EC014E
:10087000888D8823B1F0AA89BB89E889F9898C9190
:1008800085FD03C0808186FD0CC00FB607FCF7CF45
:100890008C9185FFF2CF808185FFEDCFCE0177DF90
:1008A000EACFDF91CF91089580E090E0892B21F08D
:1008B00065DF81110E94000080E090E0892B49F003
:1008C00080E090E0892B29F00E94000081110E94B5
:1008D000000080E090E0892B49F080E090E0892BD7
:1008E00029F00E94000081110E94000080E090E049
:1008F000892B49F080E090E0892B29F00E940000CC
:1009000081110C94000008958150823108F05AC082
:10091000E82FF0E08827E057FB4F8F4F0C943C22E4
:10092000B004B404A204A804AC04E204B704BD04F7
:10093000C104C704CB04CF04D504D904E204DD0408
:10094000E304E704809180008F778093800008950E
:10095000809180008F7DF9CF80918000877FF5CFD7
:1009600084B58F7784BD089584B58F7DFBCF80914A
:10097000B0008F778093B00008958091B0008F7D94
:10098000F9CF809190008F778093900008958091A7
:1009900090008F7DF9CF80919000877FF5CF809177
:1009A000A0008F778093A00008958091A0008F7D94
:1009B000F9CF8091A000877FF5CF809120018F77BC
:1009C000809320010895809120018F7DF9CF80913F
:1009D0002001877FF5CF1F93CF93DF93282F30E03F
:1009E000F901E85EFE4F8491F901EE58FB4FD49176
:1009F000F901EE52FB4FC491CC23A1F0162F8111C7
:100A000083DFEC2FF0E0EE0FFF1FE854FB4FA591C2
:100A1000B4918FB7F894EC91111108C0D095DE23F2
:100A2000DC938FBFDF91CF911F910895DE2BF8CF1C
:100A3000CF93DF9390E0FC01EE58FB4F24918E5250
:100A40009B4FFC0184918823C9F090E0880F991F87
:100A5000FC01E250FF4FA591B491FC01E854FB4F1B
:100A6000C591D49161110DC09FB7F8948C912095D8
:100A700082238C938881282328839FBFDF91CF9185
:100A80000895623051F49FB7F8943C91822F80957D
:100A900083238C93E8812E2BEFCF8FB7F894EC91C2
:100AA0002E2B2C938FBFEACF3FB7F894809156142A
:100AB00090915714A0915814B091591426B5A89B41
:100AC00005C02F3F19F00196A11DB11D3FBFBA2FE0
:100AD000A92F982F8827BC01CD01620F711D811DA0
:100AE000911D42E0660F771F881F991F4A95D1F725
:100AF00008958F929F92AF92BF92CF92DF92EF9222
:100B0000FF926B017C01D0DF4B015C01C114D10469
:100B1000E104F104B1F0C8DF681979098A099B0979
:100B2000683E73408105910588F321E0C21AD1081F
:100B3000E108F10888EE880E83E0981EA11CB11C24
:100B4000E5CFFF90EF90DF90CF90BF90AF909F9058
:100B50008F90089521E001C0220F6A95EAF7DC0129
:100B60001C962C931C971A965C934E931997ED91B3
:100B7000FC910484F585E02D60E0199408950895B2
:100B8000DC01ED91FC910684F785E02D41E019959B
:100B900081E090E00895DC01ED91FC910684F785F9
:100BA000E02D40E019940F931F93CF93DF9300D073
:100BB00000D01F921F92CDB7DEB700910A021091AC
:100BC0000B0220910C0230910D020D831E832F83A6
:100BD000388700910E0210910F022091100230917F
:100BE000110209831A832B833C8390919A1569170C
:100BF00010F06FEF690F262F30E040919B152C0FFE
:100C00003D1FF901403191F4943081F46181680F06
:100C1000606883E995E128960FB6F894DEBF0FBEB1
:100C2000CDBFDF91CF911F910F91B5CF6581EFCFF0
:100C30000F931F93CF93DF93EC01423018F08C8118
:100C400088608C834F836887222329F0413019F410
:100C50008C8184608C8364E670E080E090E049DF02
:100C60006C8164FD58C0E881F9810684F785E02D28
:100C700042E063E0CE0119958BE496E40197F1F729
:100C8000E881F9810684F785E02D42E063E0CE013A
:100C9000199503E512E0C8010197F1F7E881F981A0
:100CA0000684F785E02D42E063E0CE011995C80186
:100CB0000197F1F7E881F9810684F785E02D42E09C
:100CC00062E0CE011995C8010197F1F76C8160626D
:100CD000CE0161DF8BEE90E00197F1F784E08D8328
:100CE0006CE0CE0158DF61E0CE0155DF8BE39FE180
:100CF0000197F1F782E08E8366E0CE014CDFE88158
:100D0000F9810484F585E02D6FEFCE01DF91CF915D
:100D10001F910F9119946062CE013DDF8BE496E440
:100D20000197F1F76C816062CE0135DF03E512E0D7
:100D3000C8010197F1F76C816062CE012CDFC3CF4F
:100D400008950895089585ED8093BC008091BC00BE
:100D500084FDFCCF10929E14089520912C14260F30
:100D60003327331F21323105ECF420919E14FC010E
:100D700090E080E0243069F082E00895A0912C1486
:100D80002191AC01445F5B4EA40FB52FB11D2C9394
:100D90000196861798F380912C14680F60932C1499
:100DA00080E0089581E008950895E09154148091C1
:100DB0005314E81730F4F0E0E451FC4E808190E0E9
:100DC00008958FEF9FEF08959091541480915314DC
:100DD0002FEF3FEF981748F4E92FF0E0E451FC4E75
:100DE000208130E09F5F90935414C9010895809151
:100DF000531490915414891B990B0895CF92DF924C
:100E0000EF92FF920F931F93CF93DF937C01CB015F
:100E10008A0120919F14222389F0EB016B01C40EFB
:100E2000D51ECC15DD0561F06991D701ED91FC91DE
:100E30000190F081E02DC7011995F3CF642F8DDF6C
:100E4000C801DF91CF911F910F91FF90EF90DF903C
:100E5000CF900895CF93DF931F92CDB7DEB769830C
:100E600020919F142223F9F02091C214203258F0CF
:100E700021E030E0FC013383228390E080E00F909A
:100E8000DF91CF9108958091A014E82FF0E0EF5505
:100E9000FB4E998190838F5F8093A0148093C2143E
:100EA00081E090E0ECCF61E0CE01019656DFF8CF13
:100EB000FC0123812223D1F08181682B6083828110
:100EC00091E090939F148093C1141092A0141092FB
:100ED000C2148BE695E1BEDF70DB282F30E081E0A5
:100EE00090E0232B11F090E080E0089530E020E0C6
:100EF000F6CFEF92FF920F931F93CF938C01FC01DB
:100F000084E0C0E0262F30E060FF02C09589C92B45
:100F1000B90175956795815031968111F3CF4130B4
:100F200011F4F8014489F8016585C62BC42B7801BA
:100F3000FEE0EF0EF11CF80162896C2BC701B8DFEF
:100F4000F801628960956C23C701CF911F910F91C1
:100F5000FF90EF90ADCF0F931F93CF93DF93062FAA
:100F60000F70423039F440E0602FDF91CF911F9134
:100F70000F91BFCF142FEC0170E084E07595679559
:100F80008A95E1F7CE01B5DF412F602FCE01EDCF7D
:100F9000FC018485882399F021853285211531054E
:100FA00021F4611107C0158606C021303105D9F73B
:100FB0006111F9CF85876585CF010E9679CF0895A8
:100FC000EF92FF920F931F93CF93DF93EC01062FC5
:100FD000F42EE22E8B85888B1092541410925314A9
:100FE0001092A0141092C21410929E1411E010934B
:100FF0009D141092781461E084E1EDDC61E085E1FC
:10100000EADC8091B9008E7F8093B9008091B900AD
:101010008D7F8093B90088E48093B80085E4809345
:10102000BC008EEB95E090935214809351148FEB9B
:1010300095E09093501480934F14888910939F14D7
:101040008093C1141092A0141092C214B6DA8111C8
:1010500019C0198B8BE695E1B7DE8E8789898823C5
:1010600031F01F861C8260E0CE010E9621DF2E2D0E
:101070004F2D602FCE01DF91CF911F910F91FF90E7
:10108000EF90D6CD198AEACF90E080E0089538E05D
:10109000439FC0011124807E977026952695269542
:1010A000822B70E0762F66276627787F862B972B1A
:1010B0000895CF93DF93FC01848D882351F01EBCEB
:1010C00000000DB407FEFDCF2EB5822FDF91CF912A
:1010D000089588E0EF01CE5BDF4FA7A9B0AD9C91EA
:1010E000388193239C93A7A9B0AD9C9135AD932BE8
:1010F0009C93220FA3A9B4A99C9133AD932309F02B
:101100002160815051F7E1CF0F931F93CF93DF936D
:10111000FC01848D882359F06EBD00000DB407FEDC
:10112000FDCF8EB5DF91CF911F910F91089588E08B
:1011300090E020E8AF014F5B5F4F8F010E5B1F4FC8
:10114000A5A9B6A9362F3223A9F03C9174AD372B4F
:101150003C93A7A9B0AD3C91E801788137233C933B
:10116000A7A9B0AD3C9175AD372B3C93269501975F
:1011700039F7D8CF3C91EA0178813723E9CFFF9244
:101180000F931F93CF93DF93F82E162F072FCEE7E1
:10119000D6E1EFA5F8A980812EAD82238083E9A94D
:1011A000FAA980812FAD82238083692FCE01ACDF25
:1011B0006F2DCE01A9DFE9A9FAA980819AAD892B0B
:1011C0008083602FCE01A0DF612FCE019DDFEFA5D0
:1011D000F8A9808199AD892B8083DF91CF911F91F0
:1011E0000F91FF9008950F931F93CF93DF93EC011E
:1011F0008B01FE0185919491FE01329624966591B2
:1012000074918F3F980769F490E080E072DC04509D
:101210001109101611066CF3DF91CF911F910F91F8
:101220000895ADDFF4CFE091AD16F091AE16808158
:101230009091B716892B80838091C61687FD0BC0CD
:1012400060E0C9DB62E070E080E090E052DC61E0E9
:101250008091C616C0DBE091AD16F091AE1680818C
:101260009091BC1689238083E091AF16F091B0165F
:1012700080819091BD168923808360E08EE796E19E
:1012800043DFE091AD16F091AE1680819091B716D4
:10129000892B80830895CF93DF93D82FC62FE091B9
:1012A000AD16F091AE1680819091BC168923808393
:1012B000E091AF16F091B01680819091BD16892310
:1012C000808360E08EE796E11FDF6D2F8EE796E169
:1012D0001BDF61E070E080E090E00BDC8EE796E1E0
:1012E000E8DED82F8EE796E1E4DEC13069F0E091C8
:1012F000AD16F091AE1690812091B716922B908387
:101300009D2FDF91CF910895C0E0E8CF4F925F927B
:101310006F927F928F929F92AF92BF92CF92DF9205
:10132000EF92FF920F931F93CF93DF93EC015A013B
:10133000270137FF05C0620F731F319521953109D1
:101340007B01E20EF31E6B0177FF02C0D12CC12C92
:10135000E881F9810684F785E02DCE0119958E1577
:101360009F0544F4E881F9810684F785E02DCE01DC
:1013700019957C0147018C189D0817FF05C0A00E28
:10138000B11E1195019511090A0D1B1DB7FE02C072
:10139000B12CA12CE881F9810484F585E02DCE01E2
:1013A00019958017910744F4E881F9810484F58543
:1013B000E02DCE0119958C0138016A187B08015087
:1013C0001109970121503109E881F9810680F781DF
:1013D000E02DA501B601CE011995EFA5F8A98081F0
:1013E0009EAD89238083888D998D892B49F4E9A945
:1013F000FAA980819FAD8923808360E0CE0184DEDD
:10140000E9A9FAA980819FAD8923808369A1CE01D2
:101410007BDE861497042CF0962D872D3401892EBF
:10142000982E18141904A4F48301E9A9FAA980815B
:101430009AAD892B8083652DCE0166DE642DCE01A9
:1014400063DE0150110989F781E0881A9108E9CF1C
:10145000888D998D009751F50C891D8901501109CE
:101460002A893B8921503109E881F9810680F78179
:10147000E02D50E040E070E060E0CE011995EFA56E
:10148000F8A9808199AD892B8083DF91CF911F913D
:101490000F91FF90EF90DF90CF90BF90AF909F9013
:1014A0008F907F906F905F904F900895019739F7DC
:1014B000EFA5F8A980819EAD89238083E9A9FAA9C7
:1014C00080819FAD8923808364E0CE011DDEE9A980
:1014D000FAA980819AAD892B80838A899B8901979B
:1014E000692FCE0111DEE9A9FAA980819FAD892378
:1014F000808365E0CE0108DEE9A9FAA980819AAD72
:10150000892B80836A896150CE01FEDDE9A9FAA9A1
:1015100080819FAD8923808368E0CE01F5DDE9A954
:10152000FAA980819AAD892B80838C899D89019746
:10153000692FCE01E9DDE9A9FAA980819FAD892350
:10154000808369E0CE01E0DDE9A9FAA980819AAD46
:10155000892B80836C896150CE01D6DDEFA5F8A977
:10156000808199AD892B80838ACFAF92BF92CF9231
:10157000DF92EF92FF920F931F93CF93DF9377FD4C
:1015800041C057FD3FC0C32ED22E5A017B01EC0152
:10159000E881F9810684F785E02D19958E159F0560
:1015A0008CF1E881F9810484F585E02DCE0119954F
:1015B0008A159B053CF1E881F9810680F781E02DD1
:1015C00085019701A501B701CE011995EFA5F8A9ED
:1015D00080819EAD89238083888D998DE9A9FAA9A0
:1015E0000797D9F480819AAD892B80836C2DCE0129
:1015F0008BDD6D2DCE0188DDEFA5F8A9808199AD39
:10160000892B8083DF91CF911F910F91FF90EF90F5
:10161000DF90CF90BF90AF90089580819FAD8923D8
:1016200080836AA1CE0170DD69A1CE016DDDE9A9DB
:10163000FAA9D8CF2F923F924F925F926F927F92EA
:101640008F929F92AF92BF92CF92DF92EF92FF92D2
:101650000F931F93CF93DF93EC018B017901390135
:10166000661A770A5A01A81AB90AA614B70444F0F0
:101670008F2D7A01422F582F812F8E01C62FD82F00
:101680004701801A910A1A012C1A3D0A6401D59467
:10169000C79444244A94542CC417D5071CF44424FA
:1016A0004394512C2091881630918916A801BE01CF
:1016B000A614B70414F0AE01B8018EE796E155DF29
:1016C000C218D308D7FE04C0C40DD51DC80CD91C40
:1016D0000F5F1F4FE016F1062CF7DF91CF911F919E
:1016E0000F91FF90EF90DF90CF90BF90AF909F90C1
:1016F0008F907F906F905F904F903F902F900895C4
:101700007F928F929F92AF92BF92CF92DF92EF9291
:10171000FF920F931F93CF93DF93EC015901980130
:101720000E9D60010F9DD00C1E9DD00C11248701D1
:10173000040F151F01501109260F371F21503109C1
:10174000E881F9810680F781E02D19951C141D04AC
:101750000CF084C0EFA5F8A980819EAD8923808319
:10176000E9A9FAA980819FAD892380836CA1CE016C
:10177000CBDC6BA1CE01C8DC888D998D892B09F05B
:101780003BC075018601CE0194DCCE0192DCCE0116
:1017900090DCCE018EDCCE018CDCCE018ADCCE0169
:1017A00088DC782ECE0185DC972DF701819391930B
:1017B0007F010150110939F7CC0CDD1CAC0CBD1CAC
:1017C0000C891D89015011092A893B892150310951
:1017D000E881F9810680F781E02D50E040E070E07B
:1017E00060E0CE011995EFA5F8A9808199AD892B0C
:1017F0008083D12CC12CAACFCE015BDC7501860180
:101800008DA59EA581309105F9F4CE0152DC982E6C
:10181000CE014FDC882ECE014CDCE881F9810190AD
:10182000F081E02D282F482D692DCE0119954C010E
:10183000F701819291927F010150110909F7CC0CB7
:10184000DD1CAC0CBD1CCFCF892B91F7CE0131DC58
:10185000882ECE012EDC982C882EEACF90E080E0F6
:10186000DF91CF911F910F91FF90EF90DF90CF907C
:10187000BF90AF909F908F907F900895BF92CF922E
:10188000DF92EF92FF920F931F93CF93DF93EC01C0
:101890006B01B42E152F0170EFA5F8A980819EADC4
:1018A000892380832223B1F0888D998D892B49F477
:1018B000E9A9FAA980819FAD8923808360E0CE01E8
:1018C00023DCE9A9FAA980819FAD8923808369A1DE
:1018D000CE011ADC7601CB2CD12E1C141D04E4F4AD
:1018E000F7010023B1F085919491182F692FE9A990
:1018F000FAA980819AAD892B8083CE0105DC612F06
:10190000CE0102DCF2E0EF0EF11C81E0C81AD10832
:10191000E4CF10816181EBCFEFA5F8A9808199AD6B
:10192000892B8083DF91CF911F910F91FF90EF90D2
:10193000DF90CF90BF900895CF92DF92EF92FF9209
:101940000F931F93CF93DF93EC01162F6A01022FA1
:10195000EFA5F8A980819EAD89238083E9A9FAA922
:1019600080819FAD8923808360E0CE01CDDB612F34
:10197000CE01CADB7601DD24DA94D00E101604F510
:10198000F70161917F01E9A9FAA980819AAD892BBC
:101990008083CE01B9DBDD2089F0888D998D019798
:1019A00069F41F5FE9A9FAA980819FAD892380832B
:1019B00060E0CE01A9DB612FCE01A6DB0D2DDBCFD0
:1019C000EFA5F8A9808199AD892B8083DF91CF9114
:1019D0001F910F91FF90EF90DF90CF900895DF92CD
:1019E000EF92FF920F931F93CF93DF93CDB7DEB7A4
:1019F00068970FB6F894DEBF0FBECDBF8C017B0198
:101A0000F80164913196D4900E5F1F4F6F3771F0DB
:101A1000DE01119690E080E0AD018D1518F5F8011A
:101A2000E80FF91FE491ED930196F7CF6D2D70E06B
:101A300090E080E05ED8D12CED2DF0E03296EE1AE9
:101A4000FF0A1E141F04E4F268960FB6F894DEBF76
:101A50000FBECDBFDF91CF911F910F91FF90EF90FF
:101A6000DF9008950D0D111D2D2D8EE796E164DF99
:101A7000E3CF4F925F926F927F928F929F92AF923D
:101A8000BF92CF92DF92EF92FF920F931F93CF936B
:101A9000DF9300D000D01F921F92CDB7DEB77C013C
:101AA0004B016A015901DC019F96ED91FC91D097A1
:101AB0008081DE969C91DE978923808358968D9154
:101AC0009C915997009709F034C156968D919C913D
:101AD00057978230910509F4FBC08330910509F4D2
:101AE00015C12A013B01019791F41E968D919C919D
:101AF000980120953095C094D0943601680E791ED7
:101B00002B018501530164014901880E991ED701FB
:101B1000D196ED91FC91D2978081DF969C9189239B
:101B2000808360E0C701F0DA60E5C701EDDAD70134
:101B3000D196ED91FC91D2978081DA969C91892B78
:101B40008083692DC701E0DA682DC701DDDAD7018E
:101B5000D196ED91FC91D2978081DF969C9189235B
:101B6000808360E0C701D0DA61E5C701CDDAD70133
:101B7000D196ED91FC91D2978081DA969C91892B38
:101B800080836B2DC701C0DA6A2DC701BDDAD7018A
:101B9000D196ED91FC91D2978081DF969C9189231B
:101BA000808360E0C701B0DA62E5C701ADDAD70132
:101BB000D196ED91FC91D2978081DA969C91892BF8
:101BC00080836D2DC701A0DA6C2DC7019DDAD70186
:101BD000D196ED91FC91D2978081DF969C918923DB
:101BE000808360E0C70190DA63E5C7018DDAD70131
:101BF000D196ED91FC91D2978081DA969C91892BB8
:101C00008083612FC70180DA602FC7017DDAD70199
:101C1000D196ED91FC91D2978081DF969C9189239A
:101C2000808360E0C70170DA60E2C7016DDAD70136
:101C3000D196ED91FC91D2978081DA969C91892B77
:101C40008083672DC70160DA662DC7015DDAD70191
:101C5000D196ED91FC91D2978081DF969C9189235A
:101C6000808360E0C70150DA61E2C7014DDAD70135
:101C7000D196ED91FC91D2978081DA969C91892B37
:101C80008083652DC70140DA642DC7013DDAD70195
:101C90009F96ED91FC91D0978081D9969C91892B4C
:101CA000808328960FB6F894DEBF0FBECDBFDF91BC
:101CB000CF911F910F91FF90EF90DF90CF90BF9049
:101CC000AF909F908F907F906F905F904F9008950E
:101CD000F70186859785A901409550955C01A61A64
:101CE000B70AF1E0AF1AB10850962D913C91B801B6
:101CF00060957095860100951095020F131F2801BD
:101D000035016B01C20ED31E4A01FFCEF701808957
:101D10009189209530952C01461A570AF1E04F1A07
:101D200051083A015801820146016901C80ED91EC5
:101D3000EECE8130910509F0CEC0D196ED91FC91A7
:101D4000D2978081DF969C918923808362E0C701CE
:101D5000DBD9D701D196ED91FC91D2978081DA96AB
:101D60009C91892B8083692DC701CED9D701D1964B
:101D7000ED91FC91D2978081DF969C91892380839D
:101D800063E0C701C1D9D701D196ED91FC91D297FB
:101D90008081DA969C91892B8083682DC701B4D904
:101DA000D701D196ED91FC91D2978081DF969C91DD
:101DB0008923808366E0C701A7D9D701D196ED9129
:101DC000FC91D2978081DA969C91892B80836D2D2E
:101DD000C7019AD9D701D196ED91FC91D297808114
:101DE000DF969C918923808367E0C7018DD9D70155
:101DF000D196ED91FC91D2978081DA969C91892BB6
:101E000080836C2DC70180D9D701D196ED91FC91CB
:101E1000D2978081DF969C918923808364E0C701FB
:101E200073D9D701D196ED91FC91D2978081DA9642
:101E30009C91892B80836B2DC70166D9D701D196E0
:101E4000ED91FC91D2978081DF969C9189238083CC
:101E500065E0C70159D9D701D196ED91FC91D29790
:101E60008081DA969C91892B80836A2DC7014CD999
:101E7000D701D196ED91FC91D2978081DF969C910C
:101E80008923808368E0C7013FD9D701D196ED91BE
:101E9000FC91D2978081DA969C91892B8083612F67
:101EA000C70132D9D701D196ED91FC91D2978081AB
:101EB000DF969C918923808369E0C70125D9D701EA
:101EC000D196ED91FC91D2978081DA969C91892BE5
:101ED0008083602FDACE079709F0A7C0F7018689C3
:101EE00097898130910531F058F08230910541F0A9
:101EF0000397A1F422E0C20ED11C0E5F1F4F0EC04B
:101F0000C601029698012E5F3F4F6401F2E0CF0EAA
:101F1000D11C85010E5F1F4F59014C01D701D1968D
:101F2000ED91FC91D2978081DF969C91DF97892378
:101F300080835D966C91C701E7D8D701D196ED916A
:101F4000FC91D2978081DA969C91892B80836A2DAF
:101F5000C701DAD8D701D196ED91FC91D297808153
:101F6000DA969C91892B8083682DC701CDD8D70143
:101F7000D196ED91FC91D2978081DF969C91DF976D
:101F8000892380835F966C91C701BED8D701D19613
:101F9000ED91FC91D2978081DA969C91892B808378
:101FA000602FC701B1D8D701D196ED91FC91D2979E
:101FB0008081DA969C91892B80836C2DC701A4D8EF
:101FC000D701D196ED91FC91D2978081DF969C91BB
:101FD0008923808361E2C70197D8D701D196ED911B
:101FE000FC91D2978081DA969C91892B8083682D11
:101FF000C7018AD8D701D196ED91FC91D297808103
:10200000DA969C91892B80836C2DC7017DD8D701EE
:10201000D196ED91FC91D2978081DF969C91DF97CC
:102020008923808391966C9130CE9D826E83BF828E
:102030002887D9824A831B830C8324E0AE014B5F3F
:102040005F4FF701658DC70177DC24E0AE014F5F7C
:102050005F4FD7015F966C91C7016EDC18CEFC0113
:102060009A01442755278085882349F090E0829F74
:10207000D001839FB00D929FB00D11242B2FA68508
:10208000418552858385A81317C0CB01880F991FFE
:10209000680F791F640F751FA385A60FB72FB11D99
:1020A0002C93A485A60FB72FB11D1C928585680FB0
:1020B000711DFB0110820895660F771F660F771F51
:1020C000640F751FA60FB72FB11D1C92E5CFCF92DD
:1020D000DF92EF92FF920F931F93CF93DF9300D085
:1020E00000D000D0CDB7DEB78C01DC0119968D9100
:1020F0009C91892B09F465C00E945405F801C7849E
:10210000D088E188F2886C197D098E099F096C32AC
:1021100071408105910580F3F894D80114968D9152
:102120009C9115979A8389831996ED91FC917F0173
:10213000BFEFEB1AFB0A80818987F8019081038841
:10214000F489E02DD80155968C91992309F448C063
:102150009081982B98879081809589238F838F8198
:102160008C8388E08B8358856F8149853B812C81E6
:1021700089819A81D701508347FD252F3A95208385
:10218000262F39F0441F00C000006083000000C00B
:10219000F2CF38E04D9160830000019761F7D801DC
:1021A0005496FC93EE93539749873B832C839A83F1
:1021B000898378940E945405F8016787708B818B1E
:1021C000928B29960FB6F894DEBF0FBECDBFDF917C
:1021D000CF911F910F91FF90EF90DF90CF900895D6
:1021E0009081982B98879081809589238F838F8108
:1021F0008E8388E08D8358856F8149853D812E814E
:1022000089819A81D701508347FD252F00C000C0E6
:10221000208300C000C000C000C000C06083000078
:10222000262F3A9541F0441F000000C000C000C0B6
:1022300000C000C0E8CF38E04D9100C0608300C00E
:10224000019709F7D8015496FC93EE935397498769
:102250003D832E83ACCFCF93DF93EC018E819F81A2
:1022600097FD07C061E00E94180560E08E810E9422
:10227000EB0481E08983DF91CF9108950F931F9341
:10228000CF93DF932CE8289F8001299F100D112404
:102290008EE0869F9001879F300D1124020F131F3F
:1022A000D0E0C0E0FE01EE0FFF1FE00FF11FEB5E7C
:1022B000FD4F6081718177FD0EC08091CA169091AB
:1022C000CB166817790738F420E030E044E650E098
:1022D00088EC96E1C4DE2196C730D10519F7DF916D
:1022E000CF911F910F910895EF92FF920F931F933B
:1022F000CF93DF938B01FC01C081D1819E013327F5
:10230000F901E85EFE4F8491F901EE58FB4FE4902D
:10231000F901EE52FB4FF490FF2081F181110E94F0
:102320008404EF2DF0E0EE0FFF1FEC51FF4FA5915D
:10233000B491EC91EE2291E080E009F090E0E92E7A
:10234000F82ECC0FDD1FFE01EA58FC4E80819181F2
:102350008E159F0561F0F1E0EF16F10421F490E095
:1023600080E0F8011995CA58DC4EF982E882DF91C5
:10237000CF911F910F91FF90EF900895EE24E39479
:10238000F12CDFCFFC014481558170E060E0818554
:1023900092850C9466240F931F93CF93DF938C0147
:1023A00088EC96E1EFDFC80168EE73E00E94292215
:1023B00090E080E063DFC80164E670E00E942922BB
:1023C000CB01CAE0D0E0BE010E942922BC0181E01D
:1023D00090E054DFC801BE010E9429228C01CB018C
:1023E000BE010E942922BC0182E090E047DFB801D3
:1023F00083E090E043DF88EC96E1DF91CF911F917D
:102400000F9165CECF93DF93EC018881998100977E
:1024100011F00E94F422198218821D821C821B82F4
:102420001A82DF91CF910895FC01808191810C94F3
:10243000F42242E050E067E372E18EEC94E10C9408
:102440005403CF93DF93FC014481558160817181F6
:102450008EEC94E10E945403EC01EBDF8C0F9D1F86
:10246000DF91CF910895CF93DF93FC014481558193
:1024700064177507C8F49B01EC018081918141507C
:10248000510955834483461B570B6F5F7F4F680F7D
:10249000791F820F931F0E947424E881F9818C8137
:1024A0009D81E80FF91F1082DF91CF9108950E945E
:1024B00059240F931F93CF93DF93EC018881998167
:1024C000009759F02A813B812617370730F081E0C9
:1024D000DF91CF911F910F9108958B016F5F7F4F17
:1024E0000E947D23009759F0998388831B830A8378
:1024F0002C813D81232B59F7FC011082E8CF80E02D
:10250000E7CFEF92FF920F931F93CF93DF93EC01EE
:10251000FB01E080F180E114F10409F104811581EF
:1025200001151105A1F08C819D81080F191FB801BB
:10253000CE01BFDF882399F0288139818C819D816C
:10254000B701820F931F0E946D241D830C83CE015F
:10255000DF91CF911F910F91FF90EF900895CE01E1
:1025600051DFF5CFEF92FF920F931F93CF93DF933D
:10257000EC017B018A01BA019CDF81110AC0CE0106
:1025800041DFCE01DF91CF911F910F91FF90EF902E
:1025900008951D830C83B701888199810E946D2461
:1025A000F0CFEF92FF920F931F93CF93DF93CDB7AE
:1025B000DEB762970FB6F894DEBF0FBECDBF8C01B9
:1025C000CB01F801118210821382128215821482CB
:1025D0004AE09E012F5F3F4F7901B9010E94992186
:1025E000F70101900020E9F73197AF014E195F091B
:1025F000B701C801B7DF62960FB6F894DEBF0FBE11
:10260000CDBFDF91CF911F910F91FF90EF90089573
:10261000FC01118210821382128215821482FB0146
:1026200001900020E9F73197AF01461B570B9ACF75
:10263000EF92FF920F931F93CF93DF93CDB7DEB747
:102640002C970FB6F894DEBF0FBECDBF8C01BC0136
:10265000CE010796A6DF6AE372E1CE010196D8DFCC
:10266000BE01695F7F4FCE0101964BDFEADECE01EE
:102670000196DADECE010796D7DE0B301105C0F4E5
:10268000F8018827E95BFC4E8F4F0C943C225213D3
:10269000941397139C139F13A413A713AC13AF1396
:1026A000AF13B41361E070E090E080E00E94C002DC
:1026B0004BE050E069E572E18EEC94E10E94540336
:1026C000B8DE23EC34E1DE01179690E080E065E0AF
:1026D000F901419151919F01689FF001699FF00DAF
:1026E0001124E55AFB4EE40FF51F40814D930196EE
:1026F0008530910569F7BE01695F7F4FCE01019674
:1027000087DFCE0101969DDECE0101968DDE2C96EF
:102710000FB6F894DEBF0FBECDBFDF91CF911F91F2
:102720000F91FF90EF9008956FEF7FEFBDCF61E0C5
:1027300070E081E090E0BACF6FEF7FEFFACF61E019
:1027400070E082E090E0B2CF6FEF7FEFFACF61E010
:1027500070E083E090E0AACF6FEF7FEFFACF6FEFEA
:102760007FEF84E090E0A2CF1092CD14E3ECF4E18F
:1027700081919191892B29F484E1ED3CF807C1F70F
:1027800097CF0091EA131091EB130F5F1F4F109337
:10279000EB130093EA1387E795E1F4DDE0907915F8
:1027A000F0907A15E114F104E9F00115110521F01A
:1027B0000E151F0508F4780110E000E080917915EE
:1027C00090917A150817190740F420E030E046E9A7
:1027D00050E0B80187E795E142DC0F5F1F4FE0163C
:1027E000F10661F787E795E172DC62CF2F923F92A5
:1027F0004F925F926F927F928F929F92AF92BF9211
:10280000CF92DF92EF92FF920F931F93CF93DF93BC
:10281000CDB7DEB76A970FB6F894DEBF0FBECDBF57
:10282000109289161092881620E430E041E850E0BA
:1028300060E470E090E080E00E941A0B21E830E054
:1028400040E450E070E060E080E490E00E941A0B09
:1028500035EC632E31E1732E42EE842E43E1942E4B
:1028600087E190E0988B8F87E7E3F0E0FE87ED87C4
:1028700053E0452E512C6DE0C62ED12CC601841993
:1028800095099C012F5F3F4F8095909537FFC3C0FE
:10289000CD8ADE8A37FDC2C02F8B388F9A8A898A0B
:1028A0007C8A6B8A26E1A22EB12C10928916109296
:1028B0008816EB89FC8921903190FC8BEB8BB10160
:1028C000CE0101966EDE65E672E1CE010796A0DECE
:1028D000BE016F5F7F4FCE01079613DEB2DDCE01E2
:1028E0000796A2DDCE0101969FDD3694322C22247C
:1028F00037942794C1018B5B9B4F1C01EF84F888B0
:10290000F5017A96FA8FE98F00E210E0F1018081FB
:102910009181A281B381002E04C0B595A7959795AA
:1029200087950A94D2F780FF0DC0209188163091C8
:102930008916A701698D7A8D601B710B8EE796E170
:102940000E94B50A0150110909F7F4E02F0E311C5D
:102950008FEFE81AF80AED85FE85EE16FF06A1F660
:10296000E989FA8981919191FA8BE98BF12CE12C1B
:10297000019721F480E8E82E8FE0F82EF092891676
:10298000E09288160F89188D25E130E04D895E8927
:10299000B5018EE796E10E948609F0E4AF0EB11C06
:1029A00086E9A816B10409F080CF90E4C90ED11CC5
:1029B000E0E44E0E511C8D859E85805C9F4F9E8766
:1029C0008D87EF85F889E05CFF4FF88BEF87F4E0A7
:1029D0006F0E711C84E0880E911C9DE8C916D1040D
:1029E00009F04CCF6A960FB6F894DEBF0FBECDBF8C
:1029F000DF91CF911F910F91FF90EF90DF90CF90DB
:102A0000BF90AF909F908F907F906F905F904F900E
:102A10003F902F9008954D8A5E8A3CCF8F8B988F80
:102A20003DCF0F931F93CF93DF93CDB7DEB72C9796
:102A30000FB6F894DEBF0FBECDBF8C01BC01CE0136
:102A40000796AFDD62E772E1CE010196E1DDBE01DE
:102A5000695F7F4FCE01019654DDF3DCCE01019614
:102A6000E3DCCE010796E0DC000F111FF801EE5108
:102A7000FC4E81E090E091838083B8DE2C960FB607
:102A8000F894DEBF0FBECDBFDF91CF911F910F91A4
:102A900008951F920F920FB60F9211240BB60F924A
:102AA0002F933F934F935F936F937F938F939F9356
:102AB000AF93BF93EF93FF938EEC94E10E94C70313
:102AC000FF91EF91BF91AF919F918F917F916F9106
:102AD0005F914F913F912F910F900BBE0F900FBEC2
:102AE0000F901F9018951F920F920FB60F921124FE
:102AF0000BB60F922F938F939F93EF93FF93E091D9
:102B0000DE14F091DF148081E091E414F091E5147B
:102B100082FD1DC090818091E7148F5F8F7320919B
:102B2000E814821741F0E091E714F0E0E253FB4E25
:102B3000958F8093E714FF91EF919F918F912F9143
:102B40000F900BBE0F900FBE0F901F9018958081B5
:102B5000F2CF1F920F920FB60F9211242F933F9333
:102B60008F939F93AF93BF9380917414909175143A
:102B7000A0917614B09177143091551423E0230F6F
:102B80002D3758F50196A11DB11D20935514809342
:102B9000741490937514A0937614B0937714809165
:102BA000561490915714A0915814B091591401964D
:102BB000A11DB11D8093561490935714A0935814DF
:102BC000B0935914BF91AF919F918F913F912F91E5
:102BD0000F900FBE0F901F90189526E8230F0296B6
:102BE000A11DB11DD2CF1F920F920FB60F921124CB
:102BF0000BB60F922F933F934F935F936F937F93F7
:102C00008F939F93AF93BF93EF93FF938091B900FE
:102C1000887F803609F44DC008F040C0883209F43E
:102C2000A9C028F5803109F49DC0C8F4882309F4AF
:102C3000FBC0883009F496C0FF91EF91BF91AF912E
:102C40009F918F917F916F915F914F913F912F91C4
:102C50000F900BBE0F900FBE0F901F9018958831EC
:102C600009F488C0803241F780939C1414C08034EA
:102C700009F49DC040F48033B9F38833E9F68093BA
:102C80009C1485ECB0C0803509F485C0883509F402
:102C900096C0883489F60E94A306CECF883909F4FD
:102CA0008CC038F5883729F050F4883611F0803719
:102CB00019F683E080939E1410924E1457C0883802
:102CC00009F47BC0803919F0803809F0B5CF8091C4
:102CD0004E14803208F071C0E0914E1481E08E0FE6
:102CE00080934E148091BB00F0E0E25DFB4E808348
:102CF0003DC0803B39F0E0F4803A09F479C0883A6D
:102D000009F09ACF84E080939E1410922D141092B3
:102D10002C14E0915114F0915214199580912C14B7
:102D200081110FC081E080932C1410920C1409C003
:102D3000803C09F4A6CF883C09F4A3CF883B09F076
:102D40007BCFE0912D1481E08E0F80932D14F0E065
:102D5000E45FFB4E80818093BB0090912D148091A5
:102D60002C1429C0809179148093BB0085EC80934A
:102D7000BC0062CF90919B1480919A14981758F5DB
:102D8000E0919B1481E08E0F80939B14F0E0E65855
:102D9000FB4E8081E9CFE0919B1481E08E0F809300
:102DA0009B148091BB00F0E0E658FB4E808390912D
:102DB0009B1480919A149817C8F285E8D8CFE091B7
:102DC0009B1481E08E0F80939B148091BB00F0E0F8
:102DD000E658FB4E808380919D1481115CCF81E089
:102DE0008093781484EA8093BC0010929E1424CFC0
:102DF00085EC8093BC0010929E1480914E1480321A
:102E000030F4E0914E14F0E0E25DFB4E10826091F0
:102E10004E1470E0E0914F14F09150148EE294E162
:102E2000199510924E1408CF10929C1434CFCF9263
:102E3000DF92EF92FF920F931F93CF93DF93EC01FA
:102E40006B018A01198218861F86188A198A1A8AC4
:102E500081E08E878B871C8692E09D8788837B012B
:102E6000EE0CFF1CE60EF71EFD82EC82C7010E94ED
:102E700058229A878987009779F1A70170E060E06E
:102E80000E946624DB82CA821F830E838981882385
:102E900041F061E0802F0E94180560E0802F0E94C1
:102EA000EB04F801EE52FB4FE491F0E0EE0FFF1F50
:102EB000E854FB4F859194919C8B8B8BF801EE58D5
:102EC000FB4FE491ED8BDF91CF911F910F91FF901C
:102ED000EF90DF90CF9008951D821C821B821A8292
:102EE000D3CF0F931F93CF93DF93EEECF4E11382D4
:102EF000128288EE93E0A0E0B0E084839583A683FD
:102F0000B7832FEE31E13183208325EC30E0358724
:102F1000248724EC30E03787268720EC30E0318BA3
:102F2000208B21EC30E0338B228B22EC30E0358B90
:102F3000248B26EC30E0378B268B118E128E138E6D
:102F4000148EEBE6F5E11382128284839583A683C7
:102F5000B78381E092E19183808344E350E065E2AE
:102F600070E088EC96E163DFCEE7D6E180E098EF91
:102F70009987888720EE37E03F832E839B878A8757
:102F800001E00C871D8687E292E1998388838AE1BC
:102F90008093C1168CE18093C2161FEF1093C31665
:102FA0008DE18093C4168EE18093C5168BE18093EA
:102FB000C6161093C7161C8EECEEF4E0E491F0E018
:102FC000EE0FFF1FE854FB4FA591B491B8ABAFA72C
:102FD000ECE8F4E0849189AF982F90959EAFEEEEE7
:102FE000F4E0E491F0E0EE0FFF1FE854FB4F259171
:102FF00034913AAB29ABEEE8F4E0E491EAAFE09526
:10300000EFAF1CAA1BAA1BAE1092BE16EFEEF4E0A7
:10301000E491F0E0EE0FFF1FE854FB4F259134914F
:103020003EAB2DABEFE8F4E0E491ECAFE095E0933C
:10303000BF16E0EFF4E0E491F0E0EE0FFF1FE8547C
:10304000FB4F2591349138AF2FABE0E9F4E0E491E8
:10305000EDAFE095E093C016EC918E2B8C93E9A92F
:10306000FAA980819AAD892B8083EBA9FCA9808184
:103070009BAD892B8083EDA9FEA980819CAD892B16
:103080008083EFA9F8AD80819DAD892B808361E0BD
:103090008AE10E94180561E08CE10E94180560E059
:1030A0008FEF0E94180561E08DE10E94180561E034
:1030B0008EE10E94180561E08BE10E94EB0461E063
:1030C0008BE10E9418051F8A1E8A83E892E19B8F7C
:1030D0008A8F82E890E09F878E87998B888B9B8B65
:1030E0008A8B9D8B8C8B68E872E18CEA95E190DA93
:1030F0006EE872E182EB95E18BDA64E972E188EBCC
:1031000095E186DA6AE972E18EEB95E181DA60EAAF
:1031100072E184EC95E17CDA66EA72E18AEC95E191
:1031200077DA6CEA72E180ED95E172DA62EB72E1D6
:1031300086ED95E16DDA68EB72E18CED95E168DA88
:103140006EEB72E182EE95E163DA64EC72E188EE97
:1031500095E15EDA6AEC72E18EEE95E159DA60EDA6
:1031600072E184EF95E154DA66ED72E18AEF95E160
:103170004FDA6CED72E180E096E14ADA62EE72E1DC
:1031800086E096E145DA68EE72E18CE096E140DA9D
:103190006EEE72E182E196E13BDA64EF72E188E182
:1031A00096E136DA6AEF72E18EE196E131DA60E0BB
:1031B00073E184E296E12CDA66E073E18AE296E15B
:1031C00027DA6CE073E180E396E122DA62E173E1F1
:1031D00086E396E11DDA68E173E18CE396E118DAA3
:1031E0006EE173E182E496E113DA64E273E188E46C
:1031F00096E10EDA6AE273E18EE496E109DA60E3C1
:1032000073E184E596E104DA66E373E18AE596E129
:10321000FFD96CE373E180E696E1FAD962E473E1E9
:1032200086E696E1F5D968E473E18CE696E1F0D99B
:103230006EE473E182E796E1EBD964E573E188E738
:1032400096E1E6D9E3E9F5E11382128283E192E1A6
:1032500091838083108A17871686118A87E2838775
:10326000148615861286118684E0828B82E0838B19
:10327000048B80E1858B80E2868B80E4878B80E8FD
:10328000808F50E040E063E0CF010E94AA0569E32F
:1032900072E18DE895E1BCD942E350E063E070E073
:1032A00087E795E1DF91CF911F910F91C0CDCF932B
:1032B000DF93CDB7DEB72C970FB6F894DEBF0FBE05
:1032C000CDBF789484B5826084BD84B5816084BDAF
:1032D00085B5826085BD85B5816085BD80916E00B4
:1032E000816080936E0010928100809181008260E5
:1032F0008093810080918100816080938100809122
:1033000080008160809380008091B1008460809310
:10331000B1008091B00081608093B00080919100F5
:1033200082608093910080919100816080939100F0
:10333000809190008160809390008091A1008260D4
:103340008093A1008091A10081608093A100809171
:10335000A00081608093A000809121018260809311
:1033600021018091210181608093210180912001C0
:1033700081608093200180917A00846080937A003C
:1033800080917A00826080937A0080917A008160D7
:1033900080937A0080917A00806880937A001092FE
:1033A000C10080917B00877F80937B0080E48093C5
:1033B0007C0080917A00806480937A0080917A000A
:1033C00086FDFCCF8091780060917900762F682F80
:1033D000072E000C880B990B61157105810591056D
:1033E00009F09ED7E091DE14F091DF1482E0808333
:1033F000E091DA14F091DB141082E091DC14F0918A
:10340000DD148FEC80831092E614E091E214F091C9
:10341000E31486E08083E091E014F091E114808170
:1034200080618083E091E014F091E11480818860F4
:103430008083E091E014F091E114808180688083C2
:10344000E091E014F091E11480818F7D808388EC1D
:1034500096E10E942B1188EC96E10E94C21188EC43
:1034600096E10E94671087E795E10E942B1187E79C
:1034700095E10E94C21187E795E10E9467100DEC6B
:1034800011E1B3EEEB2EB1E1FB2EF80180810E5F6E
:103490001F4F62E00E941805E016F106B1F720E028
:1034A00042E060E183E995E10E94E0076FEF83E984
:1034B00095E10E94C80760E080E00E94D305E4D651
:1034C00023E230E040E050E067D726E0269FF0019D
:1034D000279FF00D1124E455FA4E6081718161152A
:1034E000710509F4A9C0448155818DE895E13AD868
:1034F000409191155091921560918D1570918E1596
:1035000083E995E10E94540361E080E00E94D305C5
:10351000E3EC2E2EE4E13E2EFDECEF2EF4E1FF2E47
:103520008101A5E08A2E912CA12CB12CADD6A5014C
:10353000940132D7F801619371938F01EE16FF0663
:10354000A9F76AE573E1CE01079662D810E000E0C2
:1035500080919115909192150817190708F471C080
:103560007BE5A72E74E1B72E10E000E08091911565
:10357000909192150817190708F076C01A821982DF
:103580001C821B821E821D826F81788561157105E8
:1035900031F04B855C85CE0101960E94B212B801D4
:1035A0008DE895E10E944203FC016081062E000C2B
:1035B000770B61567109CE0101960E943312912C4E
:1035C000812CCD80DE80F12CE12CC114D104E104EA
:1035D000F10429F059D6A7019601DED66B010C2C17
:1035E000000CDD08B601CE0101960E944203FC01E9
:1035F000F080B601CE0101960E943312F501E80D6C
:10360000F91DF082FFEF8F1A9F0A25E082169104C0
:10361000C1F6B8018DE895E10E944203FC0180816A
:10362000F5018083CE0101960E9414120F5F1F4F97
:10363000F5E0AF0EB11C9ACF8DE895E10E94021221
:1036400057CFB8018DE895E10E944203FC016081EB
:10365000062E000C770B61567109CE0107960E9469
:1036600033120F5F1F4F74CFCE0107960E941412C2
:1036700061E083E995E10E94CB058BE39FE101972F
:10368000F1F753ECE52E54E1F52EDD24D39410E050
:1036900000E065E0C62E60E08D2D0E94D305F701A5
:1036A000819191917F01C09EF001C19EF00D112486
:1036B000E55AFB4EE80FF91F608183E995E10E940E
:1036C000C0050F5F1F4FD394D394FBE0DF12E3CF0D
:1036D00081E08093CD14DE01179690E080E045E014
:1036E000F101219131911F01489FF001499FF00D97
:1036F0001124E55AFB4EE20FF31F20812D93019612
:103700008530910569F7BE01695F7F4FCE01019653
:103710000E940813CE0101960E942112CE0101964B
:103720000E9414128DE895E10E94211203EE11E12E
:1037300043EFE42E41E1F42EE016F10641F0F801EA
:1037400080810E5F1F4F62E00E941805F5CF0E9436
:1037500013098091C71687FD03C061E00E94EB0446
:103760008091981690919916019609F041C060E0F9
:1037700084E090E00E944B09892B21F561E084E010
:1037800090E00E944B0981159048E1F4809112026B
:1037900090911302A091140289839A83AB8323E052
:1037A000AE014F5F5F4F69EB8EE796E10E949C0C84
:1037B00060E080ED90E00E944B0961E080ED90E0D8
:1037C0000E944B0961E083ED90E00E944B09813437
:1037D00033E9930749F0863844E9940729F060E01B
:1037E00090E080E00E944B09909399168093981680
:1037F00000919816109199160E94130968EC70E0D8
:1038000080E090E00E947905053253E9150709F43C
:1038100064C008F058C00537E5E71E0709F49FC0EB
:1038200058F40338124109F4BAC28FEF90E0909334
:103830009716809396160AC1053337E7130709F4E4
:1038400071C20039104989F783E090E09093971690
:10385000809396168AE290E090939C1680939B1634
:103860008BE290E090939E1680939D168CE290E000
:103870009093A01680939F168EE290E09093A216EC
:103880008093A11683E390E09093A4168093A316EF
:1038900087E390E09093A6168093A51686E390E0C8
:1038A0009093A8168093A71681E090E09093AA16B3
:1038B0008093A9169093AC168093AB1666E470E0E3
:1038C00086EE92E0C1C0013453E9150709F47EC0C9
:1038D000E8F50832134909F0A8CF10929716109214
:1038E000961610929C1610929B1610929E1610928D
:1038F0009D1682E290E09093A01680939F1690937D
:10390000A2168093A11681E690E09093A41680936E
:10391000A3168AE690E09093A6168093A51683E0FE
:1039200090E09093A8168093A71681E090E0909382
:10393000AA168093A9161092AC161092AB166CECD6
:1039400070E086EA93E00E94F30880C00638F4E94C
:103950001F0709F4AAC10539154909F066CF81E0AE
:1039600090E0909397168093961610929C16109262
:103970009B1610929E1610929D1622E230E0309314
:10398000A01620939F163093A2162093A1162EE026
:1039900030E03093A4162093A31624E130E0309356
:1039A000A6162093A51626E130E03093A8162093A2
:1039B000A7169093AA168093A9169093AC1680939D
:1039C000AB166FE770E087E692E03EC082E090E0E1
:1039D00090939716809396168AE290E090939C16A7
:1039E00080939B168BE290E090939E1680939D1699
:1039F0008CE290E09093A01680939F168EE290E068
:103A00009093A2168093A11683E390E09093A4165E
:103A10008093A31687E390E09093A6168093A51653
:103A200086E390E09093A8168093A7161092AA16AA
:103A30001092A91681E090E09093AC168093AB169B
:103A40006AE770E08CE293E00E94EF0C809194169C
:103A5000282F237030E03093951620939416282F4A
:103A6000217080FFDBC180918E1690918F1690930C
:103A700091168093901680918C1690918D1621113D
:103A800004C080918E1690918F1690939316809318
:103A90009216E091AD16F091AE1680819091BC1611
:103AA00089238083209196163091971680919416E1
:103AB000909195162115310509F0C0C1813091050D
:103AC00009F4B1C108F4B7C18230910509F4AEC15F
:103AD000039709F4ADC1E091AF16F091B016808163
:103AE0009091BD16892380836091A8168EE796E198
:103AF0000E9484086091A7168EE796E10E948408D0
:103B0000E091AF16F091B01680819091B816892B94
:103B1000808360E18EE796E10E948408642D8EE741
:103B200096E10E948408009192161091931601501C
:103B3000110920919016309191162150310950E0D1
:103B400040E070E060E08EE796E10E94390D209140
:103B50009616309197162115310509F071C263E070
:103B600070E08091A3169091A4160E94BF0870E0A7
:103B700060E08091A5169091A6160E94BF08E09182
:103B8000AD16F091AE1680819091B716892B808387
:103B9000E091AD16F091AE1680819091BC1689230C
:103BA00080831091A9162091961630919716E09176
:103BB000AF16F091B0168091BD162115310509F0B0
:103BC0007EC290818923808361E68EE796E10E9420
:103BD0008408E091AF16F091B01680819091B816EC
:103BE000892B8083612F8EE796E10E948408E09103
:103BF000AD16F091AE1680819091B716892B808317
:103C00000091921610919316209190163091911672
:103C1000EE24EA94FE2C50E040E070E060E08EE795
:103C200096E10E9486090E94F61390EEC92E93E950
:103C3000D92E94E0E92EF12C28EE822E23E0922E4C
:103C4000A12CB12C0CE310E034EC732E44E6642E6E
:103C500068E173E18DEC91E10E94741161E175E11D
:103C600083EE91E10E9474112FB7F894809174143F
:103C700090917514A0917614B09177142FBFA7017D
:103C80009601281B390B4A0B5B0BCA01B901A50130
:103C90009401AED31901C90137FF6AC290E080E0F8
:103CA0000E94CB110E945404D3CF85E090E0909302
:103CB0009716809396168AE290E090939C168093D4
:103CC0009B168BE290E090939E1680939D168CE25B
:103CD00090E09093A01680939F168EE290E09093D0
:103CE000A2168093A11683E390E09093A41680938C
:103CF000A31687E390E09093A6168093A51686E31B
:103D000090E09093A8168093A7161092AA1610928E
:103D1000A9161092AC161092AB166AE470E08DE111
:103D200092E092CE86E090E090939716809396165C
:103D30008AE290E090939C1680939B168BE290E031
:103D400090939E1680939D168CE290E09093A0161F
:103D500080939F168EE290E09093A2168093A11616
:103D600083E390E09093A4168093A31687E390E0FA
:103D70009093A6168093A51686E390E09093A816DC
:103D80008093A7161092AA161092A9161092AC163C
:103D90001092AB166FE570E08EEB91E055CE87E0A8
:103DA00090E0909397168093961685E490E0909318
:103DB0009C1680939B1684E490E090939E168093CB
:103DC0009D1682E290E09093A01680939F168EE25B
:103DD00090E09093A2168093A11681E490E09093D6
:103DE000A4168093A31682E490E09093A616809385
:103DF000A51683E090E09093A8168093A71681E023
:103E000090E09093AA168093A9161092AC16109287
:103E1000AB1660E670E08EE591E095CD80918C1652
:103E200090918D1624CE38E2432E55CE412C53CEA0
:103E300028E1422E50CE90E3492E4DCE263031055A
:103E400071F58130910501F138F182309105F9F079
:103E50000397F9F0E091AF16F091B0168081909140
:103E6000BD16892380836091A7168EE796E10E9494
:103E70008408E091AF16F091B01680819091B81649
:103E8000892B8083652D4BCE80EA582EE3CF512CB1
:103E9000E1CF00E6502EDECF10ED512EDBCF2730E4
:103EA000310509F09EC08130910549F008F450C0F9
:103EB0008230910509F44CC0039709F034CEE091AB
:103EC000AF16F091B01680819091BD168923808342
:103ED00060E08EE796E10E94840861E08EE796E15B
:103EE0000E948408E091AF16F091B0168081909105
:103EF000B816892B808362E28EE796E10E948408DF
:103F000063E88EE796E10E948408E091AF16F09195
:103F1000B01680819091BD168923808360E08EE782
:103F200096E10E94840863E08EE796E10E9484088F
:103F3000E091AF16F091B01680819091B816892B60
:103F4000808368E68EE796E10E94840868E3E7CD07
:103F5000E091AF16F091B01680819091BD16892343
:103F6000808360E08EE796E10E94840861E08EE73E
:103F700096E10E948408E091AF16F091B01680811E
:103F80009091B816892B808361E28EE796E10E94BA
:103F9000840863E88EE796E10E948408E091AF16FA
:103FA000F091B01680819091BD168923808360E0E6
:103FB0008EE796E10E94840863E08EE796E10E9416
:103FC0008408E091AF16F091B01680819091B816F8
:103FD000892B808368E68EE796E10E94840860E37F
:103FE0009ECD8130910501F140F182309105F9F0CB
:103FF000039701F1E091AF16F091B0168081909196
:10400000BD16892380836091A7168EE796E10E94F2
:104010008408E091AF16F091B01680819091B816A7
:10402000892B8083662D7BCDB8E26B2EE3CFA8E988
:104030006A2EE0CFF8EF6F2EDDCFE8E46E2EDACFF8
:104040008091A3169091A4162730310519F470E0E1
:1040500060E093CD90918E1620918F1619821A826E
:104060002B839C831D821E8226E0AE014F5F5F4F33
:10407000682F8EE796E10E949C0C19821A8222E03A
:10408000AE014F5F5F4F6091A5168EE796E10E94EB
:104090009C0C8091961690919716019759F419826D
:1040A00021E0AE014F5F5F4F61E08EE796E10E9435
:1040B0009C0C65CD20E050E040E063E1F6CF21307C
:1040C0003105B1F490818923808361E08EE796E128
:1040D0000E948408E091AF16F091B0168081909113
:1040E000B816892B808368E011117DCD6AE07BCD05
:1040F00027303105A9F520919416309195162D7F22
:104100002115310519F571E2772E111102C07724BE
:10411000739490818923808360E08EE796E10E940A
:10412000840861E08EE796E10E948408E091AF1672
:10413000F091B01680819091B816892B8083672DFD
:104140008EE796E10E94840863E84DCD2130310569
:1041500001F762E2762E1111DCCF52E0752ED9CF35
:1041600090818923808361E211113DCD60E23BCDD6
:10417000B8016FD1372D3603C001379F900D112440
:10418000280E391E669EC001679E900D1124820D77
:10419000931D86CDCF93DF938091801590918115EB
:1041A00023D280917D1590917E1597FD03C060E02C
:1041B0000E9418058DE895E10E941412CEE7D6E121
:1041C0002697CE010E94141285E1CC3AD807C1F798
:1041D0008091D1169091D21607D28091CE169091EF
:1041E000CF1697FD05C060E0DF91CF910C941805C4
:1041F000DF91CF9108958F929F92AF92BF92CF920D
:10420000DF92EF92FF92CF93DF93EC016881798187
:104210008A819B81611571058105910521F464E214
:1042200079ED8BE597E02DE133EF41E050E0B4D03C
:1042300049015A019B01AC01A7EAB1E4C9D06B0165
:104240007C01ACEEB4EFA5019401CED0C60ED71E12
:10425000E81EF91EF7FE06C081E0C81AD108E10881
:1042600080E8F80AC882D982EA82FB82C701B601D7
:104270009F77DF91CF91FF90EF90DF90CF90BF902D
:10428000AF909F908F9008958F929F92AF92BF9220
:10429000CF92DF92EF92FF92609100027091010243
:1042A00080910202909103026115710581059105CB
:1042B00021F464E279ED8BE597E02DE133EF41E005
:1042C00050E06AD049015A019B01AC01A7EAB1E470
:1042D0007FD06B017C01ACEEB4EFA501940184D0DA
:1042E000C60ED71EE81EF91EF7FE06C081E0C81AEA
:1042F000D108E10880E8F80AC0920002D0920102D9
:10430000E0920202F0920302C701B6019F77FF908C
:10431000EF90DF90CF90BF90AF909F908F900895D7
:104320006093000270930102809302029093030253
:104330000895BB274A3031F4992322F4BDE29095C9
:1043400081959F4F01C0BB27FB015527AA27880FE6
:10435000991FAA1FA41710F0A41B83955051B9F7F9
:10436000A05DAA3308F0A95DA193009779F7B11178
:10437000B1931192CB0100C0DC01FC01672F719158
:104380007723E1F7329704C07C916D93708362913B
:10439000AE17BF07C8F30895052E97FB16F40094D7
:1043A0000FD057FD05D024D007FC02D046F408C03A
:1043B00050954095309521953F4F4F4F5F4F089551
:1043C00090958095709561957F4F8F4F9F4F089581
:1043D00031D0A59F900DB49F900DA49F800D911D8D
:1043E00011240895B7FFF4CFF3DF821B930B0895D8
:1043F000A1E21A2EAA1BBB1BFD010DC0AA1FBB1FE9
:10440000EE1FFF1FA217B307E407F50720F0A21B5A
:10441000B30BE40BF50B661F771F881F991F1A94C7
:1044200069F760957095809590959B01AC01BD01F1
:10443000CF010895A29FB001B39FC001A39F700D4B
:10444000811D1124911DB29F700D811D1124911D9C
:10445000089597FB072E16F4009406D077FD08D038
:1044600013D007FC05D03EF4909581959F4F089599
:10447000709561957F4F0895EE0FFF1F881F8BBFCA
:104480000790F691E02D1994AA1BBB1B51E107C0C0
:10449000AA1FBB1FA617B70710F0A61BB70B881FD4
:1044A000991F5A95A9F780959095BC01CD01089563
:1044B0000F931F93CF93DF938230910510F482E026
:1044C00090E0E091E016F091E11630E020E0B0E0FD
:1044D000A0E0309799F42115310509F44AC0281B52
:1044E000390B24303105D8F58A819B81611571051E
:1044F00089F1FB0193838283FE0111C040815181C8
:104500000281138148175907E0F04817590799F4B9
:10451000109761F012960C93129713961C93329693
:10452000CF01DF91CF911F910F9108950093E01675
:104530001093E116F4CF2115310551F042175307BE
:1045400038F0A901DB019A01BD01DF01F801C1CFFB
:10455000EF01F9CF9093E1168093E016CDCFFE01E5
:10456000E20FF31F819391932250310939832883FD
:10457000D7CF2091DE163091DF16232B41F4209106
:104580000602309107023093DF162093DE16209149
:104590000402309105022115310541F42DB73EB7D3
:1045A0004091080250910902241B350BE091DE1660
:1045B000F091DF16E217F307A0F42E1B3F0B28172C
:1045C000390778F0AC014E5F5F4F2417350748F08C
:1045D0004E0F5F1F5093DF164093DE168193919329
:1045E0009FCFF0E0E0E09CCFCF93DF930097E9F01E
:1045F000FC01329713821282A091E016B091E1166D
:10460000ED0130E020E01097A1F420813181820F8C
:10461000931F2091DE163091DF162817390709F015
:1046200061C0F093DF16E093DE16DF91CF9108951D
:10463000EA01CE17DF07E8F54A815B819E0141154B
:104640005105B1F7E901FB83EA8349915991C40F00
:10465000D51FEC17FD0761F4808191810296840FCC
:10466000951FE90199838883828193819B838A8343
:10467000F0E0E0E012968D919C9113970097B9F5C8
:104680002D913C911197CD010296820F931F20919D
:10469000DE163091DF162817390739F6309751F5B5
:1046A0001092E1161092E016B093DF16A093DE167A
:1046B000BCCFD383C28340815181840F951FC8171B
:1046C000D90761F44E5F5F4F88819981480F591F68
:1046D000518340838A819B81938382832115310595
:1046E00009F0B0CFF093E116E093E0169ECFFD0104
:1046F000DC01C0CF13821282D7CF4F925F926F92AC
:104700007F928F929F92AF92BF92CF92DF92EF9261
:10471000FF920F931F93CF93DF938C01009791F437
:10472000CB01DF91CF911F910F91FF90EF90DF9020
:10473000CF90BF90AF909F908F907F906F905F9041
:104740004F90B6CEFC01E60FF71F9C0122503109B5
:10475000E217F30708F4AAC0D901CD91DC911197B3
:10476000C617D70718F1C530D10570F0CE010497F0
:104770008617970748F0C61BD70B2297C193D19392
:104780006D937C93CF0130DFC801DF91CF911F91F2
:104790000F91FF90EF90DF90CF90BF90AF909F90E0
:1047A0008F907F906F905F904F9008955B01AC1A4F
:1047B000BD0A4C018C0E9D1EA091E016B091E11631
:1047C000512C412CF12CE12C109731F58091DE1603
:1047D0009091DF168815990509F05CC046165706BA
:1047E00008F058C08091040290910502009741F4AE
:1047F0008DB79EB74091080250910902841B950B1A
:10480000E817F90708F052C0F093DF16E093DE16C0
:10481000F90171836083B8CF8D919C9111971296A5
:104820006C90129713967C901397A815B90559F5BB
:104830006C0142E0C40ED11CCA14DB0420F1AC01AF
:104840004A195B09DA011296159780F06282738229
:1048500051834083D9016D937C93E114F10471F08D
:10486000D7011396FC93EE9312978ECF22968C0F5E
:104870009D1FF90191838083F301EFCFF093E1163F
:10488000E093E01681CF4816590608F42C017D010B
:10489000D3019ACFCB010CDE7C01009739F0AE0139
:1048A000B8010BD0C801A0DE87016ECF10E000E098
:1048B0006BCF81E090E0F89426C0FB01DC0102C0E0
:1048C00001900D9241505040D8F70895DC0101C08D
:1048D0006D9341505040E0F70895FB01DC010190D9
:1048E0000D920020E1F70895FB01DC01415050409A
:1048F00048F001900D920020C9F701C01D9241506F
:104900005040E0F7089512E0CDE8D2E000E005C0A5
:10491000802FFE01B1DD2196011DCE38D10780E048
:084920000807B1F7F894FFCF7E
:10492800010000000000E21680000040145400401E
:104938001050FF83570600070008001600170024D0
:1049480000FFFF08001700FFFFFFFFFFFFFFFFFF4B
:10495800FF06000800150016002400FFFFFFFF06F1
:10496800000800150017002400FFFFFFFFFFFF07E6
:104978000008001500FFFF1700FFFF06000700FFF3
:10498800FF1500FFFF1700240006000700FFFF15B2
:10499800001600170024000600FFFF0800FFFFFFB5
:1049A800FF1700FFFF060007000800150016001794
:1049B8000024000600070008001500FFFF17002468
:1049C80000040009000A00180019002200FFFF0A6D
:1049D800001900FFFFFFFFFFFFFFFFFFFF04000AB2
:1049E80000130018002200FFFFFFFF04000A001355
:1049F8000019002200FFFFFFFFFFFF09000A001354
:104A080000FFFF1900FFFF04000900FFFF1300FF6C
:104A1800FF1900220004000900FFFF130018001905
:104A28000022000400FFFF0A00FFFFFFFF1900FF3C
:104A3800FF040009000A00130018001900220004EE
:104A48000009000A001300FFFF1900220002000BF2
:104A5800000C001A001B002000FFFF0C001B00FFC9
:104A6800FFFFFFFFFFFFFFFFFF02000C0011001A0E
:104A7800002000FFFFFFFF02000C0011001B0020B8
:104A880000FFFFFFFFFFFF0B000C001100FFFF1BE3
:104A980000FFFF02000B00FFFF1100FFFF1B0020BB
:104AA8000002000B00FFFF11001A001B002000028B
:104AB80000FFFF0C00FFFFFFFF1B00FFFF02000BC2
:104AC800000C0011001A001B00200002000B000C53
:104AD800001100FFFF1B00200000000D000E001C4D
:104AE800001D001E00FFFF0E001D00FFFFFFFFFF5F
:104AF800FFFFFFFFFF00000E000F001C001E00FF5D
:104B0800FFFFFF00000E000F001D001E00FFFFFF4B
:104B1800FFFFFF0D000E000F00FFFF1D00FFFF004D
:104B2800000D00FFFF0F00FFFF1D001E0000000D1D
:104B380000FFFF0F001C001D001E000000FFFF0EFD
:104B480000FFFFFFFF1D00FFFF00000D000E000F1C
:104B5800001C001D001E0000000D000E000F00FFCD
:104B6800FF1D001E0000F81F0000FE7F008007E008
:104B780001C003C003E00000077000000C18F00338
:104B8800181CFC1F380CBC3F300E0E7870060EF057
:104B980060060CF0610300E0C10300C0C30300E03D
:104BA800C10300C0C30300C0C30300C0C30300C0E7
:104BB800C10300E0C1070EE0E1060CF0600E0C78BE
:104BC800700C3E7E3018FC1F3838FC071830000087
:104BD8000CE0000007C001C003800FE00100FE7F69
:104BE8000000F00F0010000000F0FF0300F0FF3F8E
:104BF80000F0FFFF0080EEFF010000F0010000E080
:104C0800030000C0070070C30700FC9F0700FFBF38
:104C18000780FFFF0FC00FF00FC007E00FE003C0D1
:104C28000FE001800FF001800FF001000FF001008C
:104C38000FF001000FF000000FF000000FF001006E
:104C48000FF001800FE0018007E003C007E007C014
:104C580003C00FF003807FFE0100FFFF0000FE3F4E
:104C68000000F80F0000F0000000F8000000F80154
:104C78000000F8010000F0000000600000000000E3
:104C88000000000000000000000070000000E000CC
:104C980000006000000060000000F0000000E0007C
:104CA8000000E0070000800F0000001F0000003E29
:104CB8000000007C000000F8000000F8000000F888
:104CC800000000F8000000F8000007F800800FF866
:104CD80000800F7C00800F3E00009F3F0000FE1FF9
:104CE8000000FC0300C0FF0700C0FF3F0000C77FB3
:104CF8000000C6FF0000C6FF000087FF0100C6FFD6
:104D08000100C6FF0100C7FF0100C6FF0100C6FF82
:104D1800010087FF0100C6FF0000C67F0000C67FB4
:104D28000000C61F00004601000006000000060043
:104D38000000060000000600000007000000060052
:104D48000000060000000700000006000000060042
:104D58000000070000000600000006000000060032
:104D6800000006000000FF0700E0FF0F00F0FF3F13
:104D780000F8E77F007800FC003800F8010800E040
:104D8800030000E0030000C0070000C00700008027
:104D9800070000800F0000800F0000800F003C001B
:104DA8000F003C800F003C000F007C800F003C800F
:104DB8000F0028800F0000800F000080070000C04F
:104DC800070000C0070000E0030800E0033800F80F
:104DD800017800FC00F8ABFF00F8FF3F00C0FF0FB0
:104DE8000000FF030000E07F0000F8FF0100FEFF65
:104DF8000700FFFA0F801F000FC00F000EE003002E
:104E080008E0030000F0010000F0010000F00000DD
:104E180000F8000000F8000000F800000078001E0C
:104E280000F8001E0078001E00F8003F0078001E01
:104E380000F8000800F8000000F0000000F0010091
:104E480000F0010000E0030000E0030008C00F00CC
:104E58000C801F000F00FFF50F00FEFF0F00F8FF8A
:104E68000100E07F000000000000000000000000DA
:104E78000004F81F201CC007383CC0033C38C0039E
:104E88001C78C0031E7880031E38C0031E78C00338
:104E98001E78C0031C78C0031E78C0031E788003E8
:104EA8001E78C0031EF0C0030FF0C0030FE0C183DB
:104EB80007C0C7D30300FEFF0000E00B0000C003DB
:104EC8000000C0030000C0030000C0030000C003CE
:104ED8000000E0070000F81F0000000000000000CC
:104EE80000000000000000000000003E000000FE7E
:104EF80000000EF003807FC007E0FB800FF0E101A7
:104F08001FF0E0033EF8C0033E78C0077C78C00776
:104F18007C7C8007FC7CC007F87C800FFC7C800FC1
:104F2800F83C800FF87CC00FF83C800FF87C800FAD
:104F3800F87CC007FCFCC0077CF8E0077CF8E007B9
:104F48007CF0E1033EF0F1031EE0FB011FE0FF806F
:104F58000F82FFC007CF7FF401FCFFFF00F8F71FA7
:104F680000000000000002000080070000C00F18C9
:104F780000E00F1E00C09F3F00C0FF3F0080FF7F82
:104F88000080FF7F0000FF1F00C0FF0700E0FF0157
:104F980000F8FF0100FEFF0300FCFF0306FCFB070F
:104FA8000FF8F1C70F78F0FF1F10E0FF3F00C0FFB8
:104FB8001F00C0FF0F00E0FF0300F8FF0000FCFF28
:104FC8000000FFFF0000FFFF0000FEFD01007EFC67
:104FD80003003CF8030008F0070000F0030000E0BD
:104FE800000000200000F80F0000FC1F0000FF7FF9
:104FF80000800FF800C007F001C003E001E001C025
:1050080003E0008003F0008007F0008007F00080D4
:105018000770000007F000800770008007F00000AC
:1050280007F0008007F0008007E000C007E001C03B
:1050380003E001C003C003E001800FF800807FFE99
:105048000000FE3F0000F80F0000E0030000C00170
:105058000000C0010000C0010000E0010000C00124
:105068000000C001000000000000000000008001F6
:105078000000800100008001000080030000C003E0
:1050880000004002000060060000600600002004E6
:105098000000300C006C359C79BE1FF87F1C0000A6
:1050A800183000000CC0000007C00180010007E0B4
:1050B80000000C600000046000000660000002416F
:1050C8000000C3C3000073C60000319C00800DF8C7
:1050D80001800FE0018003C00180010003C00000CF
:1050E80002000000000000C00F00C0F01F0080F3A5
:1050F8003F00807F3E00003F3C00001E3C00003C1B
:105108001C0000FE000000FE000000CE0300008727
:105118000300000F0300800F0000801F0000801FA5
:105128000000C03F0000C03D0000E07C0000E078C7
:105138000000F0F8000070F0000070F0010038E0A6
:10514800030038E003003CC0030C1CC0071E1C8091
:105158000F1E0E000F3E0F000FFE07001FFC03007E
:105168003EF801001C0000C0070000F0070000F82E
:10517800070000F8070000F80000007C0000003C71
:1051880000000078001000780070007800E003F854
:1051980000E007F000C01FF000C0FFF000C0FFE310
:1051A80000C0F7FF0180C7FF018007FF018007FCEF
:1051B80001000FF003000FC003000F0007001E00DE
:1051C80000001E0000003E0000001C0000001E0041
:1051D80000003F0000E01F0000E01F0000E00F009B
:1051E80000E001000000F0FF0700E0FF0700E0FF1B
:1051F8000300007E0000007E0000087E0400FEFF21
:105208007F00FCFF7F001E7E78001C7E70001E7EE3
:1052180070000E7E700000FE0000687E0080FF7F38
:1052280000E0FF7F00F8DF7F00FC017E00FE00FE4B
:10523800007E007E007F007E007F007E003F007EB3
:10524800007F007E003F007E007F007E007F007EA2
:1052580000FE007E00FC037E00F8FFFF07E0FFFF72
:105268000780FFFF070000000000000000000000AA
:1052780000000000000000000000E01C0000E01C2E
:105288000002E01C000F000020070000780F00005B
:10529800F00F0000F00F0000F01E0000F03E0000CC
:1052A800F07E000078FC07007EF0FFD57FE0FFFF6E
:1052B8001F00FFFF0F00E0FF0100E01F0000F01CCF
:1052C8000000601C000070180000E01D0000C00F06
:1052D8000000C007000000000000000000000000FF
:1052E80000000000003ED80A3E7FF80F7F7FE003F1
:1052F8007FCEC08139C0E0810180C1C10080E1C397
:105308000080C1C10000E3610000C3610000C771F3
:105318000000E63B0000FC1F0000FE3F0000EF7BA2
:105328000080C7F100C0E3F101C0C3E101E0E1C3BF
:1053380003E0C0C103F0C0810778E0010F7CE003FF
:105348000F3FF80F7E1F58066C0F00000007000083
:105358000007000000030000000300000003000035
:10536800000300000000F83F00005FF800C007E0FD
:1053780003F003800FF800001FF800001F7C0000F6
:105388003E3E00007C3E00007C1F0000F81F00002D
:10539800F81F0000F81F0000F81F0000F81F0000A9
:1053A800F81F0000F81F0000F83E00007C3E0000D7
:1053B8007C7C00003EF800001FF801801FE003C05D
:1053C80007C00FF003001EFC000230084003300C39
:1053D800C00E300C70FF3FF8FFFE1FFC7FFF3FFC44
:1053E800FFFE3FFC7F0000000000000000000000FE
:1053F80000FEFFFFF0FCFF7FF0FCFF7FE078003E3F
:10540800F0F8001EF0F0001EF0E0010FF0E0810F50
:10541800F0E08307E0C0C307F080C703F080E7FF30
:10542800FF00EFFFFF00FFFFFFC0FF07F0E0FF0FE7
:10543800F0F07D1FF0F8383EF07C7C7CF03C3C7846
:10544800E01E38F0F01E78F0F01E38F0E00F38F06B
:10545800F10F3CE0F00F78E0E10F38E0F1000000D8
:105468000000000000000000000000000000E00351
:105478000000F8070000381E00000C3C0000C001C6
:105488000000C0030000C0010000C000000080014F
:10549800007880031E3800001C1C0000381C000027
:1054A800381E0000780E0000700E0000700F00001B
:1054B800F0070000E0070000E0070000E007000038
:1054C800E0070000E007F00FE00FF81FF01FFE7F75
:1054D800F8FE3FF87FFE0FF07FFC03C03FF001802D
:1054E8000F000000006000C001F000FC03F001FCA8
:1054F80003F003FE07E0071E02C00F0E00C00F0FE7
:1055080000801F0F00001F0E00007E0F0000FC0F20
:105518000000FC0F0000F81F0000B81F0000783ED4
:105528000000387C000038F8000038F8012038F80E
:1055380003203CF003E01FE007E01FC007E00F80F6
:1055480007E0010002C0010000C0010000C0030024
:1055580000C003000080EF000000FF000000FE0014
:1055680000007C00000000000000000000000000B7
:105578000000C0030000E0070000E0070000F00F93
:105588000000F01F0000781E00007C1E00003C3C5C
:1055980000003C7C00001E7800001F7800000FF01F
:1055A80000000FF0008007E001C0FFFF03C0FFFF0D
:1055B80003E0FFFF07E0C99307F0C1830FF0C003C2
:1055C8000FF8C0031F78C0031E3CC0033E3CC00355
:1055D8003C3EC003781EC003780FC003F8000000EB
:1055E80000000000000000000000000000000000B3
:1055F8000000000000E00FFC01F81FFF0FFCFD9FFA
:105608001F7CF00F3C3EE0073E1EE0077C1FE003D6
:105618007C1FC003141FC003009FD10700FFFF7F3A
:1056280000FFFFFB0100C0C30F00C0033F00E00301
:105638007C00C0077800C003F800C003F800E0034E
:10564800F801E003F803F80FFC1FFF1FFCFEFFF84A
:105658007FFC3FF03FE00F801F00000000000000CB
:10566800000000000000807F0000E0FF0300F0E180
:10567800030078800300780003003C8003003C00AE
:105688000300780000007800000070000000E001CE
:105698000000800F0000C01F0000F8000000780024
:1056A80000003C0000001C0000001E0000001C0060
:1056B80000001E0000001C0000001E0000001F006B
:1056C80000C01F0000C01F0000C0030000C0010090
:1056D80000C0010000C0000000C0000000C00000C1
:1056E80000C000000000381C0000383C0000381CD6
:1056F800000030180000000000000000000000005A
:105708000000804F0000F0FF01007CE001003CC079
:1057180001000F80010007800180078001800700D9
:1057280000C0030000C0030000C0030000C05B0607
:1057380000C0FF0700C0530200C0030000C0030000
:1057480000C0030000800700008007800100078078
:1057580001000E8001001EC001007CC00100F0FFA6
:105768000100C07F000030060000380E0000180C51
:105778000000B0060000A0010000000000000000CA
:1057880000C01FFE01800F780000077800000F702E
:1057980000001F7000001F7000003F780000777045
:1057A8000000C7700000C771000087710000077B08
:1057B800000007760000077E0000077C00000778DD
:1057C80000000F700000077000C00FFC00C03FFE13
:1057D80001C00100008001000080010000000300FA
:1057E8000000060000000C0C00001E0C0000300633
:1057F8000000300600006007000060030000E003BE
:105808000000F81F0000FC3F00003E1900000F00D8
:1058180000000F0000000E0000001E000000FC0742
:105828000000F8030000FC0300001E0000000F0049
:10583800000007000000070000000F0000001E0025
:105848000000FE1F0000F83F0000A07A0000007072
:1058580000000070000000700000FC3D0000FC3FEC
:105868000000DC0F00000000000000000000000045
:105878000000800100008001000080010000C003DA
:105888000000C0030000E0070000E0070000E00798
:105898000000E00F00A4F95F55FEFFFF3FF8FFFF8F
:1058A8003FF0FFFF0FC0FFFF0780FFFF0100FFFF72
:1058B8000000FC3F0000FC3F0000FE7F0000FE7F70
:1058C8000000FEFF00007FFE00003FFC00800FF09C
:1058D800010007E0018003C00180000001400000D2
:1058E800020000000000000000000000000C000B97
:1058F800000A00090008000700060005000400036C
:10590800000D00160017001800190000000000E93B
:1059180003540381033504B2039003A40300000079
:10592800002A07FE064408D406F706E406D5060052
:10593800000000C00554034408A206E007AA05C8F1
:1059480007AB07000000004708B50A8609390D3E75
:105958000C800B3E033A030D0A0050617373776F96
:10596800726420427574746F6E20646F776E2C2099
:105978006E756D6265723A200043757272205374B9
:105988006174653A004452415720494D4147453AB0
:1059980020004B657970616420646F776E2C206EEF
:1059A800756D6265723A200061626F757400616698
:1059B80074657200616761696E0062656C6F77007B
:1059C800636F756C640065766572790066697273D9
:1059D8007400666F756E6400677265617400686F45
:1059E800757365006C61726765006C6561726E0045
:1059F8006E65766572006F7468657200706C6163BD
:105A08006500706C616E7400706F696E7400726905
:105A180067687400736D616C6C00736F756E6400F9
:105A28007370656C6C007374696C6C007374756466
:105A380079007468656972007468657265007468D5
:105A4800657365007468696E67007468696E6B00D9
:105A5800746872656500776174657200776865724D
:105A68006500776869636800776F726C6400776FA8
:105A7800756C640077726974650061626364656659
:105A88006768696A6B6C6D6E6F7071727374757626
:065A98007778797A000026
:00000001FF
