:100000008DC20000BCC20000BAC20000B8C200002D
:10001000B6C20000B4C20000B2C20000B0C200000C
:10002000AEC20000ACC20000AAC20000A8C200001C
:10003000A6C20000A4C20000A2C20000A0C200002C
:100040009EC200009CC200009AC2000098C200003C
:1000500096C2000094C2000092C200000C942F14BB
:100060008EC200000C94F9130C94CF1388C20000C8
:1000700086C2000084C2000082C2000080C200006C
:100080007EC200007CC200007AC2000078C200007C
:1000900076C2000074C2000072C200000C94791491
:1000A0006EC200006CC200006AC2000068C200009C
:1000B00066C2000064C2000062C2000060C20000AC
:1000C0005EC200005CC200005AC2000058C20000BC
:1000D00056C2000054C2000052C2000050C20000CC
:1000E0004EC2000000002100240027002A002D003D
:1000F0003000330001010000040107010A01000083
:1001000020002300260029002C002F0032000001CF
:10011000000003010601090100000A0B02090C0D91
:100120000E080703040100000000000000000000AA
:1001300000000000000000000000000000000000BF
:10014000000000001211100000000000000000007C
:10015000000000000000000000000000000010008F
:100160008E2F11000C000700210028000600280037
:10017000050027007F052900A18900000100FFFF7D
:1001800064002900B080FFFF1E002900FEFF070069
:100190002302FFFF1E00070033020100832103003A
:1001A00030682F00FFFF2C00008027007005020040
:1001B00000030B000C581200090613000031110057
:1001C0007F78B103053C3CB203053C3CB306053CDB
:1001D0003C053C3CB40103C003280804C101C0C273
:1001E000020D00C3028D2AC4028DEEC5011A17014B
:1001F00005360100E0100322070A2E30252A2826A2
:100200002E3A00010313E1100416060D2D262327B4
:1002100027252D3B000104133A0105290001007F29
:100220009628003A0155C0020D0DC1024300C201DB
:1002300000C50400480048B40100B60302023BE0D8
:100240000F0F241C0A0F084388320F10060F0700F7
:10025000E10F0F3830090F0F4E773C071005231BB5
:100260000011007F9629002E018929018F2B0102A0
:10027000E20100E40101E50110E60101E70110E8F7
:100280000170F20100EA0100EB0120EC013CED01FC
:10029000C8E90138F101011B011A1A0101240161A9
:1002A00025015C2301881801361901011F01887F8F
:1002B000051F01807F051F01907F051F01D47F0569
:1002C0001701053601002801387F2828013C02016A
:1002D000000301000401000501EF06010007010011
:1002E00008010109013F0100B903FF83577FFAB3F9
:1002F0000400000606B60125B00168CC0105B10670
:1003000000151C1C83AAC0065050013C1E08B407EF
:100310000240002A2A0D783A01553601C035010005
:100320004402000211007F9629007F3201007F32D3
:100330002800F603010100CF03008130ED046403BF
:100340001281E803851078CB05392C003402F701BF
:1003500020EA020000B00100B40100C00121C10187
:1003600011C5023F3CC701B53601883A0155B102BB
:10037000001B360148F20100260101E00F0F262480
:100380000B0E0954A8460C17090F0700E10F0019BE
:100390001B0410072A473903060630380FB7010738
:1003A00011007F96290000000100FFFF32000100CC
:1003B00000010200000703003010040000000800E4
:1003C0000202090000000A0000000C0000000D00FD
:1003D00000000F00000010000000110007001200D4
:1003E000000013000000FFFFC8001000901611006D
:1003F0002702FFFF320012001A00FFFF3200130035
:10040000001829002A00FFFF3200300000003100F0
:1004100000003200000035000602360008083700F0
:10042000070038000102390000003C0000003D00D8
:1004300000002000000021000000500000005100DA
:10044000EF005200000053003F01600000A7610070
:1004500003006A000000900010009200000093006A
:1004600003009500001197000000980000000700AD
:100470003301010210202008081020401020408085
:100480000201020108040201010204081020408058
:1004900080402010080402018004020180402010E6
:1004A000080402010804020101020408102040802F
:1004B00001020408102040800000220025002800CE
:1004C0002B002E003100340002010000050108015C
:1004D0000B010505050507050808080802020202C8
:1004E0000A0A0808040404040101010101010101D0
:1004F0000303030303030303040707070C0C0C0C9B
:100500000C0C0C0C02020202060606060606060683
:100510000B0B0B0B0B0B0B0BF715B02111241FBE94
:10052000CFEFD1E2DEBFCDBF00E00CBF13E1A0E012
:10053000B2E0EAE4FBE400E00BBF02C007900D92DA
:10054000A637B107D9F726E1A6E7B3E101C01D92AE
:10055000A439B207E1F712E0CDE8D2E000E006C02E
:1005600021970109802FFE010E942223CC38D10758
:1005700080E00807A9F70E94DD170C94942540CD70
:1005800020917F142223C1F0880F991FFC01EB58A2
:10059000FB4E80819181680F791F653071051CF0D9
:1005A00011821082089577FD03C0718360830895DE
:1005B00084E090E09183808308952091741481E019
:1005C000213208F044C0809150148111FCCF8091F9
:1005D000731492E09093501491E090934F149FEF16
:1005E00090934E1410924D1420934C14A3E5B4E153
:1005F000ECE2F4E190E0291331C010922B149091B9
:100600002B14880F892B80932B1480912A1481300E
:1006100049F510922A1480912B148093BB0080918D
:10062000BC0083FDF8CF85EC8093BC008091501412
:100630008230E1F380914E148F3FB1F080914E14DF
:100640008032A1F080914E14803391F084E01092BA
:100650005214109274141092511408953D913193D4
:100660009F5FC9CF85EEE0CF80E0F1CF82E0EFCF92
:1006700083E0EDCFFC01828993890895FC01848990
:1006800095890895AF92BF92CF92DF92EF92FF9239
:100690000F931F93CF93DF936C017B018B01040FAA
:1006A000151FEB015E01AE18BF08C017D10759F046
:1006B0006991D601ED91FC910190F081E02DC60188
:1006C0001995892B79F7C501DF91CF911F910F9172
:1006D000FF90EF90DF90CF90BF90AF900895FC0116
:1006E000538D448D252F30E0842F90E0821B930B97
:1006F000541710F0CF96089501970895FC01918D3D
:10070000828D981761F0A28DAE0FBF2FB11D5D963F
:100710008C91928D9F5F9F73928F90E008958FEFE1
:100720009FEF0895FC01918D828D981731F0828D95
:10073000E80FF11D858D90E008958FEF9FEF0895EC
:10074000FC01918D228D892F90E0805C9F4F821B50
:1007500091098F739927089580E894E1F1DF21E0F2
:10076000892B09F420E0822F0895FC01A48DA80FA5
:10077000B92FB11DA35ABF4F2C91848D90E00196E3
:100780008F739927848FA689B7892C93A089B18903
:100790008C91837080648C93938D848D981306C0A4
:1007A0000288F389E02D80818F7D80830895EF9208
:1007B000FF920F931F93CF93DF93EC0181E0888F1B
:1007C0009B8D8C8D98131AC0E889F989808185FFEB
:1007D00015C09FB7F894EE89FF896083E889F9898D
:1007E00080818370806480839FBF81E090E0DF918F
:1007F000CF911F910F91FF90EF900895F62E0B8DE2
:1008000010E00F5F1F4F0F731127E02E8C8D8E119C
:100810000BC00FB607FCFACFE889F989808185FF04
:10082000F5CFCE01A2DFF2CFEB8DEC0FFD2FF11D46
:10083000E35AFF4FF0829FB7F8940B8FEA89FB8948
:1008400080818062D0CFCF93DF93EC01888D8823A5
:10085000B1F0AA89BB89E889F9898C9185FD03C02B
:10086000808186FD0CC00FB607FCF7CF8C9185FF09
:10087000F2CF808185FFEDCFCE0177DFEACFDF9128
:10088000CF91089580E090E0892B21F065DF811100
:100890000E94000080E090E0892B49F080E090E029
:1008A000892B29F00E94000081110E94000080E045
:1008B00090E0892B49F080E090E0892B29F00E949C
:1008C000000081110E94000080E090E0892B49F037
:1008D00080E090E0892B29F00E94000081110C94A7
:1008E000000008958150823108F05AC0E82FF0E0EE
:1008F0008827E258FB4F8F4F0C9422239E04A204BA
:10090000900496049A04D004A504AB04AF04B50483
:10091000B904BD04C304C704D004CB04D104D50476
:10092000809180008F77809380000895809180006F
:100930008F7DF9CF80918000877FF5CF84B58F7749
:1009400084BD089584B58F7DFBCF8091B0008F77F3
:100950008093B00008958091B0008F7DF9CF809191
:1009600090008F77809390000895809190008F7D04
:10097000F9CF80919000877FF5CF8091A0008F778D
:100980008093A00008958091A0008F7DF9CF809181
:10099000A000877FF5CF809120018F778093200181
:1009A0000895809120018F7DF9CF80912001877F6C
:1009B000F5CFCF93DF93282F30E0F901E85EFE4FAB
:1009C0008491F901EE58FB4FD491F901EE52FB4F9F
:1009D000C491CC2399F0811185DFEC2FF0E0EE0F6C
:1009E000FF1FE250FF4FA591B491EC91ED2381E000
:1009F00090E009F480E0DF91CF91089580E090E0ED
:100A0000FACF1F93CF93DF93282F30E0F901E85EF0
:100A1000FE4F8491F901EE58FB4FD491F901EE524B
:100A2000FB4FC491CC23A1F0162F81115BDFEC2F7B
:100A3000F0E0EE0FFF1FE854FB4FA591B4918FB784
:100A4000F894EC91111108C0D095DE23DC938FBF90
:100A5000DF91CF911F910895DE2BF8CFCF93DF93D5
:100A600090E0FC01EE58FB4F24918E529B4FFC010D
:100A700084918823C9F090E0880F991FFC01EC5104
:100A8000FF4FA591B491FC01E854FB4FC591D4915F
:100A900061110DC09FB7F8948C91209582238C939F
:100AA0008881282328839FBFDF91CF9108956230EA
:100AB00051F49FB7F8943C91822F809583238C93B7
:100AC000E8812E2BEFCF8FB7F894EC912E2B2C933F
:100AD0008FBFEACF3FB7F8948091E0139091E11374
:100AE000A091E213B091E31326B5A89B05C02F3F58
:100AF00019F00196A11DB11D3FBFBA2FA92F982F44
:100B00008827BC01CD01620F711D811D911D42E03E
:100B1000660F771F881F991F4A95D1F708958F9206
:100B20009F92AF92BF92CF92DF92EF92FF926B01B2
:100B30007C01D0DF4B015C01C114D104E104F1045C
:100B4000B1F0C8DF681979098A099B09683E7340CA
:100B50008105910588F321E0C21AD108E108F10866
:100B600088EE880E83E0981EA11CB11CE5CFFF9093
:100B7000EF90DF90CF90BF90AF909F908F900895AF
:100B800021E001C0220F6A95EAF7DC011C962C9344
:100B90001C971A965C934E931997ED91FC910484DF
:100BA000F585E02D60E0199408950895DC01ED913C
:100BB000FC910684F785E02D41E0199581E090E0F5
:100BC0000895DC01ED91FC910684F785E02D40E06D
:100BD0001994CF93DF9300D000D01F921F92CDB70E
:100BE000DEB740910A0250910B0260910C027091A5
:100BF0000D024D835E836F83788740910E02509182
:100C00000F02609110027091110249835A836B8325
:100C10007C8320914C15821710F08FEF820F90E0AB
:100C200030914D158C0F9D1FFC01303179F424302B
:100C300069F46181606885E495E128960FB6F894BF
:100C4000DEBF0FBECDBFDF91CF91BBCF6581F2CFAD
:100C50000F931F93CF93DF93EC01423018F08C81F8
:100C600088608C834F836887222329F0413019F4F0
:100C70008C8184608C8364E670E080E090E04FDFDC
:100C80006C8164FD58C0E881F9810684F785E02D08
:100C900042E063E0CE0119958BE496E40197F1F709
:100CA000E881F9810684F785E02D42E063E0CE011A
:100CB000199503E512E0C8010197F1F7E881F98180
:100CC0000684F785E02D42E063E0CE011995C80166
:100CD0000197F1F7E881F9810684F785E02D42E07C
:100CE00062E0CE011995C8010197F1F76C8160624D
:100CF000CE0167DF8BEE90E00197F1F784E08D8302
:100D00006CE0CE015EDF61E0CE015BDF8BE39FE153
:100D10000197F1F782E08E8366E0CE0152DFE88131
:100D2000F9810484F585E02D6FEFCE01DF91CF913D
:100D30001F910F9119946062CE0143DF8BE496E41A
:100D40000197F1F76C816062CE013BDF03E512E0B1
:100D5000C8010197F1F76C816062CE0132DFC3CF29
:100D600008950895089585ED8093BC008091BC009E
:100D700084FDFCCF1092501408952091B613260FD5
:100D80003327331F21323105ECF420915014FC013C
:100D900090E080E0243069F082E00895A091B613DD
:100DA0002191AC014A565C4EA40FB52FB11D2C9376
:100DB0000196861798F38091B613680F6093B61367
:100DC00080E0089581E008950895E091DE13809118
:100DD000DD13E81730F4F0E0EA58FC4E808190E033
:100DE00008958FEF9FEF08959091DE138091DD13AA
:100DF0002FEF3FEF981748F4E92FF0E0EA58FC4E48
:100E0000208130E09F5F9093DE13C90108958091A7
:100E1000DD139091DE13891B990B0895CF92DF9219
:100E2000EF92FF920F931F93CF93DF937C01CB013F
:100E30008A0120915114222389F0EB016B01C40E29
:100E4000D51ECC15DD0561F06991D701ED91FC91BE
:100E50000190F081E02DC7011995F3CF642F8DDF4C
:100E6000C801DF91CF911F910F91FF90EF90DF901C
:100E7000CF900895CF93DF931F92CDB7DEB76983EC
:100E8000209151142223F9F020917414203258F04B
:100E900021E030E0FC013383228390E080E00F907A
:100EA000DF91CF91089580915214E82FF0E0ED5A30
:100EB000FB4E998190838F5F8093521480937414BA
:100EC00081E090E0ECCF61E0CE01019656DFF8CFF3
:100ED000FC0123812223D1F08181682B60838281F0
:100EE00091E09093511480937314109252141092C5
:100EF00074148DE195E1BEDF60DB282F30E081E0E6
:100F000090E0232B11F090E080E0089530E020E0A5
:100F1000F6CFEF92FF920F931F93CF938C01FC01BA
:100F200084E0C0E0262F30E060FF02C09589C92B25
:100F3000B90175956795815031968111F3CF413094
:100F400011F4F8014489F8016585C62BC42B78019A
:100F5000FEE0EF0EF11CF80162896C2BC701B8DFCF
:100F6000F801628960956C23C701CF911F910F91A1
:100F7000FF90EF90ADCF0F931F93CF93DF93062F8A
:100F80000F70423039F440E0602FDF91CF911F9114
:100F90000F91BFCF142FEC0170E084E07595679539
:100FA0008A95E1F7CE01B5DF412F602FCE01EDCF5D
:100FB000FC018485882399F021853285211531052E
:100FC00021F4611107C0158606C021303105D9F71B
:100FD0006111F9CF85876585CF010E9679CF089588
:100FE000EF92FF920F931F93CF93DF93EC01062FA5
:100FF000F42EE22E8B85888B1092DE131092DD1377
:1010000010925214109274141092501411E0109314
:101010004F1410922A1461E084E1F3DC61E085E171
:10102000F0DC8091B9008E7F8093B9008091B90087
:101030008D7F8093B90088E48093B80085E4809325
:10104000BC0084ED95E09093DC138093DB1385ED79
:1010500095E09093DA138093D913888910935114F3
:10106000809373141092521410927414A6DA8111A2
:1010700019C0198B8DE195E1B7DE8E8789898823A8
:1010800031F01F861C8260E0CE010E9621DF2E2DEE
:101090004F2D602FCE01DF91CF911F910F91FF90C7
:1010A000EF90D6CD198AEACF90E080E0089538E03D
:1010B000439FC0011124807E977026952695269522
:1010C000822B70E0762F66276627787F862B972BFA
:1010D0000895CF93DF93FC01848D882351F01EBCCB
:1010E00000000DB407FEFDCF2EB5822FDF91CF910A
:1010F000089588E0EF01CE5BDF4FA7A9B0AD9C91CA
:10110000388193239C93A7A9B0AD9C9135AD932BC7
:101110009C93220FA3A9B4A99C9133AD932309F00A
:101120002160815051F7E1CF0F931F93CF93DF934D
:10113000FC01848D882359F06EBD00000DB407FEBC
:10114000FDCF8EB5DF91CF911F910F91089588E06B
:1011500090E020E8AF014F5B5F4F8F010E5B1F4FA8
:10116000A5A9B6A9362F3223A9F03C9174AD372B2F
:101170003C93A7A9B0AD3C91E801788137233C931B
:10118000A7A9B0AD3C9175AD372B3C93269501973F
:1011900039F7D8CF3C91EA0178813723E9CFFF9224
:1011A0000F931F93CF93DF93F82E162F072FC0E3D3
:1011B000D6E1EFA5F8A980812EAD82238083E9A92D
:1011C000FAA980812FAD82238083692FCE01ACDF05
:1011D0006F2DCE01A9DFE9A9FAA980819AAD892BEB
:1011E0008083602FCE01A0DF612FCE019DDFEFA5B0
:1011F000F8A9808199AD892B8083DF91CF911F91D0
:101200000F91FF9008950F931F93CF93DF93EC01FD
:101210008B01FE0185919491FE0132962496659191
:1012200074918F3F980769F490E080E078DC045077
:101230001109101611066CF3DF91CF911F910F91D8
:101240000895ADDFF4CFE0915F16F09160168081D4
:1012500090916916892B80838091781687FD0BC049
:1012600060E0CFDB62E070E080E090E058DC61E0BD
:1012700080917816C6DBE0915F16F0916016808150
:1012800090916E1689238083E0916116F091621629
:10129000808190916F168923808360E080E396E1DE
:1012A00043DFE0915F16F09160168081909169169E
:1012B000892B80830895CF93DF93D82FC62FE09199
:1012C0005F16F0916016808190916E16892380835D
:1012D000E0916116F0916216808190916F168923DA
:1012E000808360E080E396E11FDF6D2F80E396E16D
:1012F0001BDF61E070E080E090E011DC80E396E1CC
:10130000E8DED82F80E396E1E4DEC13069F0E091B9
:101310005F16F0916016908120916916922B908350
:101320009D2FDF91CF910895C0E0E8CF4F925F925B
:101330006F927F928F929F92AF92BF92CF92DF92E5
:10134000EF92FF920F931F93CF93DF93EC015A011B
:10135000270137FF05C0620F731F319521953109B1
:101360007B01E20EF31E6B0177FF02C0D12CC12C72
:10137000E881F9810684F785E02DCE0119958E1557
:101380009F0544F4E881F9810684F785E02DCE01BC
:1013900019957C0147018C189D0817FF05C0A00E08
:1013A000B11E1195019511090A0D1B1DB7FE02C052
:1013B000B12CA12CE881F9810484F585E02DCE01C2
:1013C00019958017910744F4E881F9810484F58523
:1013D000E02DCE0119958C0138016A187B08015067
:1013E0001109970121503109E881F9810680F781BF
:1013F000E02DA501B601CE011995EFA5F8A98081D0
:101400009EAD89238083888D998D892B49F4E9A924
:10141000FAA980819FAD8923808360E0CE0184DEBC
:10142000E9A9FAA980819FAD8923808369A1CE01B2
:101430007BDE861497042CF0962D872D3401892E9F
:10144000982E18141904A4F48301E9A9FAA980813B
:101450009AAD892B8083652DCE0166DE642DCE0189
:1014600063DE0150110989F781E0881A9108E9CFFC
:10147000888D998D009751F50C891D8901501109AE
:101480002A893B8921503109E881F9810680F78159
:10149000E02D50E040E070E060E0CE011995EFA54E
:1014A000F8A9808199AD892B8083DF91CF911F911D
:1014B0000F91FF90EF90DF90CF90BF90AF909F90F3
:1014C0008F907F906F905F904F900895019739F7BC
:1014D000EFA5F8A980819EAD89238083E9A9FAA9A7
:1014E00080819FAD8923808364E0CE011DDEE9A960
:1014F000FAA980819AAD892B80838A899B8901977B
:10150000692FCE0111DEE9A9FAA980819FAD892357
:10151000808365E0CE0108DEE9A9FAA980819AAD51
:10152000892B80836A896150CE01FEDDE9A9FAA981
:1015300080819FAD8923808368E0CE01F5DDE9A934
:10154000FAA980819AAD892B80838C899D89019726
:10155000692FCE01E9DDE9A9FAA980819FAD892330
:10156000808369E0CE01E0DDE9A9FAA980819AAD26
:10157000892B80836C896150CE01D6DDEFA5F8A957
:10158000808199AD892B80838ACFAF92BF92CF9211
:10159000DF92EF92FF920F931F93CF93DF9377FD2C
:1015A00041C057FD3FC0C32ED22E5A017B01EC0132
:1015B000E881F9810684F785E02D19958E159F0540
:1015C0008CF1E881F9810484F585E02DCE0119952F
:1015D0008A159B053CF1E881F9810680F781E02DB1
:1015E00085019701A501B701CE011995EFA5F8A9CD
:1015F00080819EAD89238083888D998DE9A9FAA980
:101600000797D9F480819AAD892B80836C2DCE0108
:101610008BDD6D2DCE0188DDEFA5F8A9808199AD18
:10162000892B8083DF91CF911F910F91FF90EF90D5
:10163000DF90CF90BF90AF90089580819FAD8923B8
:1016400080836AA1CE0170DD69A1CE016DDDE9A9BB
:10165000FAA9D8CF2F923F924F925F926F927F92CA
:101660008F929F92AF92BF92CF92DF92EF92FF92B2
:101670000F931F93CF93DF93EC018B017901390115
:10168000661A770A5A01A81AB90AA614B70444F0D0
:101690008F2D7A01422F582F812F8E01C62FD82FE0
:1016A0004701801A910A1A012C1A3D0A6401D59447
:1016B000C79444244A94542CC417D5071CF44424DA
:1016C0004394512C20913A1630913B16A801BE014B
:1016D000A614B70414F0AE01B80180E396E155DF1B
:1016E000C218D308D7FE04C0C40DD51DC80CD91C20
:1016F0000F5F1F4FE016F1062CF7DF91CF911F917E
:101700000F91FF90EF90DF90CF90BF90AF909F90A0
:101710008F907F906F905F904F903F902F900895A3
:101720007F928F929F92AF92BF92CF92DF92EF9271
:10173000FF920F931F93CF93DF93EC015901980110
:101740000E9D60010F9DD00C1E9DD00C11248701B1
:10175000040F151F01501109260F371F21503109A1
:10176000E881F9810680F781E02D19951C141D048C
:101770000CF084C0EFA5F8A980819EAD89238083F9
:10178000E9A9FAA980819FAD892380836CA1CE014C
:10179000CBDC6BA1CE01C8DC888D998D892B09F03B
:1017A0003BC075018601CE0194DCCE0192DCCE01F6
:1017B00090DCCE018EDCCE018CDCCE018ADCCE0149
:1017C00088DC782ECE0185DC972DF70181939193EB
:1017D0007F010150110939F7CC0CDD1CAC0CBD1C8C
:1017E0000C891D89015011092A893B892150310931
:1017F000E881F9810680F781E02D50E040E070E05B
:1018000060E0CE011995EFA5F8A9808199AD892BEB
:101810008083D12CC12CAACFCE015BDC750186015F
:101820008DA59EA581309105F9F4CE0152DC982E4C
:10183000CE014FDC882ECE014CDCE881F98101908D
:10184000F081E02D282F482D692DCE0119954C01EE
:10185000F701819291927F010150110909F7CC0C97
:10186000DD1CAC0CBD1CCFCF892B91F7CE0131DC38
:10187000882ECE012EDC982C882EEACF90E080E0D6
:10188000DF91CF911F910F91FF90EF90DF90CF905C
:10189000BF90AF909F908F907F900895BF92CF920E
:1018A000DF92EF92FF920F931F93CF93DF93EC01A0
:1018B0006B01B42E152F0170EFA5F8A980819EADA4
:1018C000892380832223B1F0888D998D892B49F457
:1018D000E9A9FAA980819FAD8923808360E0CE01C8
:1018E00023DCE9A9FAA980819FAD8923808369A1BE
:1018F000CE011ADC7601CB2CD12E1C141D04E4F48D
:10190000F7010023B1F085919491182F692FE9A96F
:10191000FAA980819AAD892B8083CE0105DC612FE5
:10192000CE0102DCF2E0EF0EF11C81E0C81AD10812
:10193000E4CF10816181EBCFEFA5F8A9808199AD4B
:10194000892B8083DF91CF911F910F91FF90EF90B2
:10195000DF90CF90BF900895CF92DF92EF92FF92E9
:101960000F931F93CF93DF93EC01162F6A01022F81
:10197000EFA5F8A980819EAD89238083E9A9FAA902
:1019800080819FAD8923808360E0CE01CDDB612F14
:10199000CE01CADB7601DD24DA94D00E101604F5F0
:1019A000F70161917F01E9A9FAA980819AAD892B9C
:1019B0008083CE01B9DBDD2089F0888D998D019778
:1019C00069F41F5FE9A9FAA980819FAD892380830B
:1019D00060E0CE01A9DB612FCE01A6DB0D2DDBCFB0
:1019E000EFA5F8A9808199AD892B8083DF91CF91F4
:1019F0001F910F91FF90EF90DF90CF900895DF92AD
:101A0000EF92FF920F931F93CF93DF93CDB7DEB783
:101A100068970FB6F894DEBF0FBECDBF8C017B0177
:101A2000F80164913196D4900E5F1F4F6F3771F0BB
:101A3000DE01119690E080E0AD018D1518F5F801FA
:101A4000E80FF91FE491ED930196F7CF6D2D70E04B
:101A500090E080E064D8D12CED2DF0E03296EE1AC3
:101A6000FF0A1E141F04E4F268960FB6F894DEBF56
:101A70000FBECDBFDF91CF911F910F91FF90EF90DF
:101A8000DF9008950D0D111D2D2D80E396E164DF8B
:101A9000E3CF4F925F926F927F928F929F92AF921D
:101AA000BF92CF92DF92EF92FF920F931F93CF934B
:101AB000DF9300D000D01F921F92CDB7DEB77C011C
:101AC0004B016A015901DC019F96ED91FC91D09781
:101AD0008081DE969C91DE978923808358968D9134
:101AE0009C915997009709F034C156968D919C911D
:101AF00057978230910509F4FBC08330910509F4B2
:101B000015C12A013B01019791F41E968D919C917C
:101B1000980120953095C094D0943601680E791EB6
:101B20002B018501530164014901880E991ED701DB
:101B3000D196ED91FC91D2978081DF969C9189237B
:101B4000808360E0C701F0DA60E5C701EDDAD70114
:101B5000D196ED91FC91D2978081DA969C91892B58
:101B60008083692DC701E0DA682DC701DDDAD7016E
:101B7000D196ED91FC91D2978081DF969C9189233B
:101B8000808360E0C701D0DA61E5C701CDDAD70113
:101B9000D196ED91FC91D2978081DA969C91892B18
:101BA00080836B2DC701C0DA6A2DC701BDDAD7016A
:101BB000D196ED91FC91D2978081DF969C918923FB
:101BC000808360E0C701B0DA62E5C701ADDAD70112
:101BD000D196ED91FC91D2978081DA969C91892BD8
:101BE00080836D2DC701A0DA6C2DC7019DDAD70166
:101BF000D196ED91FC91D2978081DF969C918923BB
:101C0000808360E0C70190DA63E5C7018DDAD70110
:101C1000D196ED91FC91D2978081DA969C91892B97
:101C20008083612FC70180DA602FC7017DDAD70179
:101C3000D196ED91FC91D2978081DF969C9189237A
:101C4000808360E0C70170DA60E2C7016DDAD70116
:101C5000D196ED91FC91D2978081DA969C91892B57
:101C60008083672DC70160DA662DC7015DDAD70171
:101C7000D196ED91FC91D2978081DF969C9189233A
:101C8000808360E0C70150DA61E2C7014DDAD70115
:101C9000D196ED91FC91D2978081DA969C91892B17
:101CA0008083652DC70140DA642DC7013DDAD70175
:101CB0009F96ED91FC91D0978081D9969C91892B2C
:101CC000808328960FB6F894DEBF0FBECDBFDF919C
:101CD000CF911F910F91FF90EF90DF90CF90BF9029
:101CE000AF909F908F907F906F905F904F900895EE
:101CF000F70186859785A901409550955C01A61A44
:101D0000B70AF1E0AF1AB10850962D913C91B80195
:101D100060957095860100951095020F131F28019C
:101D200035016B01C20ED31E4A01FFCEF701808937
:101D30009189209530952C01461A570AF1E04F1AE7
:101D400051083A015801820146016901C80ED91EA5
:101D5000EECE8130910509F0CEC0D196ED91FC9187
:101D6000D2978081DF969C918923808362E0C701AE
:101D7000DBD9D701D196ED91FC91D2978081DA968B
:101D80009C91892B8083692DC701CED9D701D1962B
:101D9000ED91FC91D2978081DF969C91892380837D
:101DA00063E0C701C1D9D701D196ED91FC91D297DB
:101DB0008081DA969C91892B8083682DC701B4D9E4
:101DC000D701D196ED91FC91D2978081DF969C91BD
:101DD0008923808366E0C701A7D9D701D196ED9109
:101DE000FC91D2978081DA969C91892B80836D2D0E
:101DF000C7019AD9D701D196ED91FC91D2978081F4
:101E0000DF969C918923808367E0C7018DD9D70134
:101E1000D196ED91FC91D2978081DA969C91892B95
:101E200080836C2DC70180D9D701D196ED91FC91AB
:101E3000D2978081DF969C918923808364E0C701DB
:101E400073D9D701D196ED91FC91D2978081DA9622
:101E50009C91892B80836B2DC70166D9D701D196C0
:101E6000ED91FC91D2978081DF969C9189238083AC
:101E700065E0C70159D9D701D196ED91FC91D29770
:101E80008081DA969C91892B80836A2DC7014CD979
:101E9000D701D196ED91FC91D2978081DF969C91EC
:101EA0008923808368E0C7013FD9D701D196ED919E
:101EB000FC91D2978081DA969C91892B8083612F47
:101EC000C70132D9D701D196ED91FC91D29780818B
:101ED000DF969C918923808369E0C70125D9D701CA
:101EE000D196ED91FC91D2978081DA969C91892BC5
:101EF0008083602FDACE079709F0A7C0F7018689A3
:101F000097898130910531F058F08230910541F088
:101F10000397A1F422E0C20ED11C0E5F1F4F0EC02A
:101F2000C601029698012E5F3F4F6401F2E0CF0E8A
:101F3000D11C85010E5F1F4F59014C01D701D1966D
:101F4000ED91FC91D2978081DF969C91DF97892358
:101F500080835D966C91C701E7D8D701D196ED914A
:101F6000FC91D2978081DA969C91892B80836A2D8F
:101F7000C701DAD8D701D196ED91FC91D297808133
:101F8000DA969C91892B8083682DC701CDD8D70123
:101F9000D196ED91FC91D2978081DF969C91DF974D
:101FA000892380835F966C91C701BED8D701D196F3
:101FB000ED91FC91D2978081DA969C91892B808358
:101FC000602FC701B1D8D701D196ED91FC91D2977E
:101FD0008081DA969C91892B80836C2DC701A4D8CF
:101FE000D701D196ED91FC91D2978081DF969C919B
:101FF0008923808361E2C70197D8D701D196ED91FB
:10200000FC91D2978081DA969C91892B8083682DF0
:10201000C7018AD8D701D196ED91FC91D2978081E2
:10202000DA969C91892B80836C2DC7017DD8D701CE
:10203000D196ED91FC91D2978081DF969C91DF97AC
:102040008923808391966C9130CE9D826E83BF826E
:102050002887D9824A831B830C8324E0AE014B5F1F
:102060005F4FF701658DC70177DC24E0AE014F5F5C
:102070005F4FD7015F966C91C7016EDC18CEFC01F3
:102080009A01442755278085882349F090E0829F54
:10209000D001839FB00D929FB00D11242B2FA685E8
:1020A000418552858385A81317C0CB01880F991FDE
:1020B000680F791F640F751FA385A60FB72FB11D79
:1020C0002C93A485A60FB72FB11D1C928585680F90
:1020D000711DFB0110820895660F771F660F771F31
:1020E000640F751FA60FB72FB11D1C92E5CFCF92BD
:1020F000DF92EF92FF920F931F93CF93DF9300D065
:1021000000D000D0CDB7DEB78C01DC0119968D91DF
:102110009C91892B09F465C00E946A05F801C78467
:10212000D088E188F2886C197D098E099F096C328C
:1021300071408105910580F3F894D80114968D9132
:102140009C9115979A8389831996ED91FC917F0153
:10215000BFEFEB1AFB0A80818987F8019081038821
:10216000F489E02DD80155968C91992309F448C043
:102170009081982B98879081809589238F838F8178
:102180008C8388E08B8358856F8149853B812C81C6
:1021900089819A81D701508347FD252F3A95208365
:1021A000262F39F0441F00C000006083000000C0EB
:1021B000F2CF38E04D9160830000019761F7D801BC
:1021C0005496FC93EE93539749873B832C839A83D1
:1021D000898378940E946A05F8016787708B818BE8
:1021E000928B29960FB6F894DEBF0FBECDBFDF915C
:1021F000CF911F910F91FF90EF90DF90CF900895B6
:102200009081982B98879081809589238F838F81E7
:102210008E8388E08D8358856F8149853D812E812D
:1022200089819A81D701508347FD252F00C000C0C6
:10223000208300C000C000C000C000C06083000058
:10224000262F3A9541F0441F000000C000C000C096
:1022500000C000C0E8CF38E04D9100C0608300C0EE
:10226000019709F7D8015496FC93EE935397498749
:102270003D832E83ACCFCF93DF93EC018E819F8182
:1022800097FD07C061E00E942E0560E08E810E94EC
:10229000010581E08983DF91CF9108950F931F930A
:1022A000CF93DF932CE8289F8001299F100D1124E4
:1022B0008EE0869F9001879F300D1124020F131F1F
:1022C000D0E0C0E0FE01EE0FFF1FE00FF11FEB5E5C
:1022D000FD4F6081718177FD0EC080917C169091D9
:1022E0007D166817790738F420E030E044E650E0C6
:1022F0008AE796E1C4DE2196C730D10519F7DF9150
:10230000CF911F910F910895FC014481558170E098
:1023100060E0818592850C945D250F931F93CF9388
:10232000DF938C018AE796E1EFDFC80168EE73E086
:102330000E940F2390E080E0B1DFC80164E670E006
:102340000E940F23CB01CAE0D0E0BE010E940F2300
:10235000BC0181E090E0A2DFC801BE010E940F2312
:102360008C01CB01BE010E940F23BC0182E090E0F2
:1023700095DFB80183E090E091DF8AE796E1DF9195
:10238000CF911F910F91B3CECF93DF93EC01888152
:102390009981009711F00E94DA23198218821D8218
:1023A0001C821B821A82DF91CF910895FC018081EB
:1023B00091810C94DA2342E050E067E372E180E817
:1023C00094E10C944203CF93DF93FC014481558147
:1023D0006081718180E894E10E944203EC01EBDFAF
:1023E0008C0F9D1FDF91CF9108950F931F93CF9373
:1023F000DF93EC0188819981009759F02A813B8114
:102400002617370730F081E0DF91CF911F910F91B0
:1024100008958B016F5F7F4F0E946324009759F0EE
:10242000998388831B830A832C813D81232B59F751
:10243000FC011082E8CF80E0E7CFEF92FF920F938C
:102440001F93CF93DF93EC01FB01E080F180E11457
:10245000F10409F10481158101151105A1F08C81A8
:102460009D81080F191FB801CE01BFDF882399F0A5
:10247000288139818C819D81B701820F931F0E9431
:1024800064251D830C83CE01DF91CF911F910F91A5
:10249000FF90EF900895CE0177DFF5CFEF92FF9296
:1024A0000F931F93CF93DF93EC017B018A01BA0155
:1024B0009CDF81110AC0CE0167DFCE01DF91CF9191
:1024C0001F910F91FF90EF9008951D830C83B7012A
:1024D000888199810E946425F0CFEF92FF920F933B
:1024E0001F93CF93DF93CDB7DEB762970FB6F89403
:1024F000DEBF0FBECDBF8C01CB01F801118210826F
:1025000013821282158214824AE09E012F5F3F4F90
:102510007901B9010E947F22F70101900020E9F7BB
:102520003197AF014E195F09B701C801B7DF629655
:102530000FB6F894DEBF0FBECDBFDF91CF911F91D4
:102540000F91FF90EF900895FC0111821082138289
:10255000128215821482FB0101900020E9F7319765
:10256000AF01461B570B9ACF2F923F924F925F922B
:102570006F927F928F929F92AF92BF92CF92DF9293
:10258000EF92FF920F931F93CF93DF93CDB7DEB7F8
:102590006A970FB6F894DEBF0FBECDBF10923B1600
:1025A00010923A1620E430E041E850E060E470E038
:1025B00090E080E04FD821E830E040E450E070E067
:1025C00060E080E490E046D835EC632E31E1732E74
:1025D00046E1842E44E1942E87E190E0988B8F872A
:1025E000E7E3F0E0FE87ED8753E0452E512C6DE0E8
:1025F000C62ED12CC601841995099C012F5F3F4F2F
:102600008095909537FFC3C0CD8ADE8A37FDC2C062
:102610002F8B388F9A8A898A7C8A6B8A26E1A22E30
:10262000B12C10923B1610923A16EB89FC8921903E
:102630003190FC8BEB8BB101CE0101964EDF6AE34A
:1026400072E1CE01079680DFBE016F5F7F4FCE0142
:102650000796F3DEB8DECE010796A8DECE0101961E
:10266000A5DE3694322C222437942794C1018B5B4B
:102670009B4F1C01EF84F888F5017A96FA8FE98F59
:1026800000E210E0F10180819181A281B381002EEE
:1026900004C0B595A795979587950A94D2F780FFC2
:1026A0000DC020913A1630913B16A701698D7A8DA5
:1026B000601B710B80E396E10E94C50A015011096D
:1026C00009F7F4E02F0E311C8FEFE81AF80AED85B8
:1026D000FE85EE16FF06A1F6E989FA8981919191AE
:1026E000FA8BE98BF12CE12C019721F480E8E82E9C
:1026F0008FE0F82EF0923B16E0923A160F89188D73
:1027000025E130E04D895E89B50180E396E10E94C4
:102710009609F0E4AF0EB11C86E9A816B10409F0E1
:1027200080CF90E4C90ED11CE0E44E0E511C8D8583
:102730009E85805C9F4F9E878D87EF85F889E05C42
:10274000FF4FF88BEF87F4E06F0E711C84E0880E6A
:10275000911C9DE8C916D10409F04CCF6A960FB6BA
:10276000F894DEBF0FBECDBFDF91CF911F910F91C7
:10277000FF90EF90DF90CF90BF90AF909F908F90A1
:102780007F906F905F904F903F902F9008954D8A6B
:102790005E8A3CCF8F8B988F3DCF0E943F251F9242
:1027A0000F920FB60F9211240BB60F922F933F93F7
:1027B0004F935F936F937F938F939F93AF93BF9349
:1027C000EF93FF9380E894E10E94B503FF91EF91AE
:1027D000BF91AF919F918F917F916F915F914F9139
:1027E0003F912F910F900BBE0F900FBE0F901F9037
:1027F00018951F920F920FB60F9211240BB60F92DD
:102800002F938F939F93EF93FF93E0919014F09108
:1028100091148081E0919614F091971482FD1DC06F
:102820009081809199148F5F8F7320919A148217F1
:1028300041F0E0919914F0E0E058FB4E958F8093C1
:102840009914FF91EF919F918F912F910F900BBE53
:102850000F900FBE0F901F9018958081F2CF1F929E
:102860000F920FB60F9211242F933F938F939F9344
:10287000AF93BF938091261490912714A0912814B0
:10288000B09129143091DF1323E0230F2D3758F531
:102890000196A11DB11D2093DF1380932614909300
:1028A0002714A0932814B09329148091E0139091D9
:1028B000E113A091E213B091E3130196A11DB11DA4
:1028C0008093E0139093E113A093E213B093E3138A
:1028D000BF91AF919F918F913F912F910F900FBE1C
:1028E0000F901F90189526E8230F0296A11DB11D89
:1028F000D2CF1F920F920FB60F9211240BB60F92E8
:102900002F933F934F935F936F937F938F939F93F7
:10291000AF93BF93EF93FF938091B900887F803688
:1029200009F44DC008F040C0883209F4A9C028F568
:10293000803109F49DC0C8F4882309F4FBC08830B5
:1029400009F496C0FF91EF91BF91AF919F918F9144
:102950007F916F915F914F913F912F910F900BBE9F
:102960000F900FBE0F901F901895883109F488C002
:10297000803241F780934E1414C0803409F49DC016
:1029800040F48033B9F38833E9F680934E1485EC34
:10299000B0C0803509F485C0883509F496C0883404
:1029A00089F60E94B306CECF883909F48CC038F579
:1029B000883729F050F4883611F0803719F683E013
:1029C000809350141092D81357C0883809F47BC0F4
:1029D000803919F0803809F0B5CF8091D813803252
:1029E00008F071C0E091D81381E08E0F8093D81366
:1029F0008091BB00F0E0E854FC4E80833DC0803BFA
:102A000039F0E0F4803A09F479C0883A09F09ACFB5
:102A100084E0809350141092B7131092B613E09193
:102A2000DB13F091DC1319958091B61381110FC05F
:102A300081E08093B6131092961309C0803C09F48C
:102A4000A6CF883C09F4A3CF883B09F07BCFE09167
:102A5000B71381E08E0F8093B713F0E0EA56FC4E77
:102A600080818093BB009091B7138091B61329C0E9
:102A700080912B148093BB0085EC8093BC0062CFC7
:102A800090914D1480914C14981758F5E0914D1485
:102A900081E08E0F80934D14F0E0E45DFB4E808169
:102AA000E9CFE0914D1481E08E0F80934D14809119
:102AB000BB00F0E0E45DFB4E808390914D1480916B
:102AC0004C149817C8F285E8D8CFE0914D1481E0F6
:102AD0008E0F80934D148091BB00F0E0E45DFB4EBF
:102AE000808380914F1481115CCF81E080932A1400
:102AF00084EA8093BC001092501424CF85EC80931C
:102B0000BC00109250148091D813803230F4E091C0
:102B1000D813F0E0E854FC4E10826091D81370E0B6
:102B2000E091D913F091DA1388EB93E119951092A3
:102B3000D81308CF10924E1434CFCF92DF92EF9279
:102B4000FF920F931F93CF93DF93EC016B018A01E8
:102B5000198218861F86188A198A1A8A81E08E8738
:102B60008B871C8692E09D8788837B01EE0CFF1C7F
:102B7000E60EF71EFD82EC82C7010E943E239A8773
:102B80008987009779F1A70170E060E00E945D25D8
:102B9000DB82CA821F830E838981882341F061E032
:102BA000802F0E942E0560E0802F0E940105F80111
:102BB000EE52FB4FE491F0E0EE0FFF1FE854FB4FA5
:102BC000859194919C8B8B8BF801EE58FB4FE4918F
:102BD000ED8BDF91CF911F910F91FF90EF90DF90E0
:102BE000CF9008951D821C821B821A82D3CF0F932F
:102BF0001F93CF93DF93E0E8F4E11382128288EE13
:102C000093E0A0E0B0E084839583A683B7832FEEA2
:102C100031E13183208325EC30E03587248724ECB3
:102C200030E03787268720EC30E0318B208B21EC99
:102C300030E0338B228B22EC30E0358B248B26EC7A
:102C400030E0378B268B118E128E138E148EEDE1B1
:102C5000F5E11382128284839583A683B78381E092
:102C600092E19183808344E350E065E270E08AE77B
:102C700096E163DFC0E3D6E180E098EF998788872B
:102C800020EE37E03F832E839B878A8701E00C8705
:102C90001D8687E292E1998388838AE18093731687
:102CA0008CE1809374161FEF109375168DE180935D
:102CB00076168EE1809377168BE1809378161093C9
:102CC00079161C8EECEEF4E0E491F0E0EE0FFF1FBD
:102CD000E854FB4FA591B491B8ABAFA7ECE8F4E092
:102CE000849189AF982F90959EAFEEEEF4E0E49139
:102CF000F0E0EE0FFF1FE854FB4F259134913AAB03
:102D000029ABEEE8F4E0E491EAAFE095EFAF1CAA5E
:102D10001BAA1BAE10927016EFEEF4E0E491F0E007
:102D2000EE0FFF1FE854FB4F259134913EAB2DABC6
:102D3000EFE8F4E0E491ECAFE095E0937116E0EF9A
:102D4000F4E0E491F0E0EE0FFF1FE854FB4F259113
:102D5000349138AF2FABE0E9F4E0E491EDAFE095CA
:102D6000E0937216EC918E2B8C93E9A9FAA98081DD
:102D70009AAD892B8083EBA9FCA980819BAD892B1F
:102D80008083EDA9FEA980819CAD892B8083EFA96A
:102D9000F8AD80819DAD892B808361E08AE10E943E
:102DA0002E0561E08CE10E942E0560E08FEF0E940D
:102DB0002E0561E08DE10E942E0561E08EE10E940A
:102DC0002E0561E08BE10E94010561E08BE10E942C
:102DD0002E051F8A1E8A83E892E19B8F8A8F82E8E4
:102DE00090E09F878E87998B888B9B8B8A8B9D8B9E
:102DF0008C8B67E472E18EE595E1A6DB6DE472E110
:102E000084E695E1A1DB63E572E18AE695E19CDB6E
:102E100069E572E180E795E197DB6FE572E186E7AE
:102E200095E192DB65E672E18CE795E18DDB6BE67F
:102E300072E182E895E188DB61E772E188E895E17B
:102E400083DB67E772E18EE895E17EDB6DE772E197
:102E500084E995E179DB63E872E18AE995E174DB65
:102E600069E872E180EA95E16FDB6FE872E186EA7A
:102E700095E16ADB65E972E18CEA95E165DB6BE976
:102E800072E182EB95E160DB61EA72E188EB95E14A
:102E90005BDB67EA72E18EEB95E156DB6DEA72E18E
:102EA00084EC95E151DB63EB72E18AEC95E14CDB5C
:102EB00069EB72E180ED95E147DB6FEB72E186ED46
:102EC00095E142DB65EC72E18CED95E13DDB6BEC6D
:102ED00072E182EE95E138DB61ED72E188EE95E119
:102EE00033DB67ED72E18EEE95E12EDB6DED72E185
:102EF00084EF95E129DB63EE72E18AEF95E124DB53
:102F000069EE72E180E096E11FDB6FEE72E186E030
:102F100096E11ADB65EF72E18CE096E115DB6BEF71
:102F200072E182E196E110DB61E073E188E196E114
:102F30000BDB67E073E18EE196E106DB6DE073E1A8
:102F400084E296E101DB63E173E18AE296E1FCDA77
:102F5000E5E4F5E11382128283E192E191838083BB
:102F6000108A17871686118A87E28387148615864A
:102F70001286118684E0828B82E0838B048B80E151
:102F8000858B80E2868B80E4878B80E8808F50E0A1
:102F900040E063E0CF010E94C00569E372E18FE386
:102FA00095E1D2DA42E350E063E070E089E295E136
:102FB000DF91CF911F910F91C0CDCF93DF93CDB70C
:102FC000DEB76D970FB6F894DEBF0FBECDBF789415
:102FD00084B5826084BD84B5816084BD85B582601E
:102FE00085BD85B5816085BD80916E0081608093CF
:102FF0006E00109281008091810082608093810038
:103000008091810081608093810080918000816047
:10301000809380008091B10084608093B1008091A2
:10302000B00081608093B0008091910082608093B5
:103030009100809191008160809391008091900037
:103040008160809390008091A10082608093A100B4
:103050008091A10081608093A1008091A000816097
:103060008093A00080912101826080932101809152
:1030700021018160809321018091200181608093F2
:10308000200180917A00846080937A0080917A0098
:10309000826080937A0080917A00816080937A00C8
:1030A00080917A00806880937A001092C1008091AC
:1030B0007B00877F80937B0080E480937C008091FD
:1030C0007A00806480937A0080917A0086FDFCCF3C
:1030D0008091780060917900762F682F072E000C80
:1030E000880B990B611571058105910511F00E94FE
:1030F0007622E0919014F091911482E08083E09127
:103100008C14F0918D141082E0918E14F0918F1434
:103110008FEC808310929814E0919414F0919514A0
:1031200086E08083E0919214F09193148081806115
:103130008083E0919214F091931480818860808361
:10314000E0919214F0919314808180688083E091E3
:103150009214F091931480818F7D80838AE796E1A9
:103160008AD88AE796E1D0D88AE796E10E9477105C
:1031700089E295E180D889E295E1C6D889E295E1B6
:103180000E9477100DEC11E1F80180810E5F1F4F56
:1031900062E00E942E05F1E1033E1F07A9F720E03F
:1031A00042E060E185E495E10E94F0076FEF85E47D
:1031B00095E10E94D80780E00E94E9050E942A223A
:1031C00023E230E040E050E00E94B22226E0269F59
:1031D000F001279FF00D1124E25AFA4E60817181AF
:1031E0006115710509F4C3C0448155818FE395E1F0
:1031F00055D9409143155091441560913F157091F8
:10320000401585E495E10E94420381E00E94E905B2
:1032100005E714E1B5E0CB2ED12CE12CF12C0E9476
:103220002A22A70196010E94B222F80161937193AC
:103230008F01F4E10F371F0791F769E173E1CE01C8
:103240000D9682D9B12CA12C1E0123E1220E311C36
:103250008091431590914415A816B90608F48BC0C7
:10326000A7EEEA2EA3E1FA2E10E000E080914315CC
:10327000909144150817190708F09CC11A82198209
:103280001C821B821E821D826D857E8561157105E3
:1032900029F049895A89CE01019600D9D12CC12C37
:1032A0008D809E80B12CA12C81149104A104B104C5
:1032B00039F00E942A22A50194010E94B2224B01FA
:1032C000082C000C99084D815E818416950628F41F
:1032D000E981FA81309709F067C11092E413E4EEB6
:1032E000F3E1B08084169506C0F489819A8141503B
:1032F00051095E834D8348195909B4016F5F7F4FAF
:10330000680F791F880D991D0E946B25E981FA814C
:103310008D819E81E80FF91F1082F701EC0DFD1DD4
:10332000B0822FEFC21AD20A35E0C316D10409F0D9
:10333000B7CF80914315909144150817190738F4B9
:10334000E0913F15F0914015309709F030C110928F
:10335000E413E4EEF3E18081F7018083CE0101966E
:1033600025D80F5F1F4FF5E0EF0EF11C7FCF8FE3E5
:1033700095E10AD83ECF69E372E1CE010196E4D827
:103380008091431590914415A816B90638F4E09140
:103390003F15F0914015309709F042C01092E413A8
:1033A000E4EEF3E1808118861F821A8619861C8656
:1033B0001B868B8B1C8AF10101900020E9F7319765
:1033C000AF0142195309B101CE01079667D8698848
:1033D0007A886114710409F463C08B849C8481141D
:1033E000910409F45DC0ED80FE80E818F9080D85B0
:1033F0001E85E114F104B9F46F817885C8010E943B
:103400007A258C01009709F44BC069817A814D813E
:103410005E810E9443258D819E81080F191FECCF8C
:10342000EA0DFB1DBFCFF7FC0EC04F80588463012F
:10343000C801B2010E947A250097F1F1880D991D0B
:10344000CE0CDF1CF6CF68016F817885C8010E9421
:103450007A253C01009701F14C01801A910AA401E0
:10346000B801C6010E944325C80CD91C69817A8124
:103470004D815E81C6010E9443258D819E81C80ECB
:10348000D91E0B851C85060D171D89899A898E0DFD
:103490009F1D9A8B898BD8CFB801C6010E946425E5
:1034A000CE0107960E94D611CE0101960E94D61138
:1034B000FFEFAF1ABF0ACCCE6C147D0489F38F8561
:1034C00098898C159D0560F4B6016F5F7F4FC80128
:1034D0000E946324009721F39E878D87D88ACF8628
:1034E00009891A890150110917FDDACF4B845C84D0
:1034F00041145104A9F2C988DA88C114D10481F2B7
:10350000C414D50468F248010C151D0520F04601CD
:1035100031E0831A91086D847E844F8158855B8FDA
:103520004A8FC3010FEF1FEFF301E80DF91DFD8F67
:10353000EC8F2C8D3D8D2817390780F06A8D7B8D9F
:103540000E947A25009751F09C01261937098216AE
:10355000930608F4980101968901EBCF17FDA0CFDF
:10356000400E511EC301840D951DA6014419550935
:10357000BC018E0D9F1D0E944C2589899A898E0D54
:103580009F1D9A8B898B2D853E85820F931FFC0191
:1035900010828D859E8569817A814D815E81800F43
:1035A000911F0E9443259ECFE80DF91D9ACEE00F92
:1035B000F11FD1CECE010D960E94D611DE011796D5
:1035C00025E734E190E080E0DA2ECB2E65E0F901CA
:1035D000419151919F01689FF001699FF00D112465
:1035E000E951FC4EE40FF51F40814D930196853063
:1035F000910569F76D2D7C2DCE0101960E94A412D4
:103600004D815E8169817A8185E495E10E94420362
:10361000CE0101960E94D61181E080937F14AD2DDA
:10362000BC2D25E734E190E080E065E0F9014191AF
:1036300051919F01689FF001699FF00D1124E9519C
:10364000FC4EE40FF51F40814D93019685309105A6
:1036500069F76D2D7C2DCE0101960E94A412CE013A
:1036600001960E94E311CE0101960E94D6118FE3CC
:1036700095E10E94E311F3EFEF2EF1E1FF2E03EE4F
:1036800011E1E016F10641F0F80180810E5F1F4F55
:1036900062E00E942E05F5CF0E94230980917916E1
:1036A00087FD03C061E00E94010580914A16909158
:1036B0004B16019609F041C060E084E090E00E9462
:1036C0005B09892B21F561E084E090E00E945B09B1
:1036D00081159048E1F48091120290911302A0911B
:1036E000140289839A83AB8323E0AE014F5F5F4F5F
:1036F00069EB80E396E10E94AC0C60E080ED90E025
:103700000E945B0961E080ED90E00E945B0961E04E
:1037100083ED90E00E945B09813433E9930749F01F
:10372000863844E9940729F060E090E080E00E9448
:103730005B0990934B1680934A1600914A1610919C
:103740004B160E94230968EC70E080E090E00E9434
:103750008F05053253E9150709F464C008F058C015
:10376000053785E7180709F49FC058F4033812415C
:1037700009F4D6C28FEF90E09093491680934816D3
:103780000AC10533F7E71F0709F48DC20039104954
:1037900089F783E090E090934916809348168AE277
:1037A00090E090934E1680934D168BE290E09093AC
:1037B000501680934F168CE290E0909352168093AF
:1037C00051168EE290E0909354168093531683E343
:1037D00090E0909356168093551687E390E090936F
:1037E00058168093571686E390E090935A1680936C
:1037F000591681E090E090935C1680935B1690934D
:103800005E1680935D1666E470E086EE92E0C1C0BD
:10381000013433E9130709F47EC0E8F5083213498F
:1038200009F0A8CF109249161092481610924E1621
:1038300010924D161092501610924F1682E290E0A0
:10384000909352168093511690935416809353166A
:1038500081E690E090935616809355168AE690E0A4
:10386000909358168093571683E090E090935A16E1
:103870008093591681E090E090935C1680935B16DC
:1038800010925E1610925D166CEC70E086EA93E082
:103890000E94030980C0063864E9160709F4C6C10E
:1038A0000539154909F066CF81E090E090934916FB
:1038B0008093481610924E1610924D161092501684
:1038C00010924F1622E230E0309352162093511698
:1038D00030935416209353162EE030E03093561652
:1038E0002093551624E130E0309358162093571654
:1038F00026E130E030935A162093591690935C16C7
:1039000080935B1690935E1680935D166FE770E070
:1039100087E692E03EC082E090E090934916809363
:1039200048168AE290E090934E1680934D168BE2F3
:1039300090E09093501680934F168CE290E0909315
:103940005216809351168EE290E090935416809315
:10395000531683E390E0909356168093551687E3B1
:1039600090E0909358168093571686E390E09093DA
:103970005A168093591610925C1610925B1681E0CD
:1039800090E090935E1680935D166AE770E08CE29B
:1039900093E00E94FF0C80914616282F237030E0A0
:1039A0003093471620934616282F217080FFF7C1C9
:1039B0008091401690914116909343168093421641
:1039C00080913E1690913F16211104C080914016BF
:1039D000909141169093451680934416E0915F169E
:1039E000F0916016808190916E16892380832091DA
:1039F0004816309149168091461690914716211528
:103A0000310509F0DCC18130910509F4CDC108F41C
:103A1000D3C18230910509F4CAC1039709F4C9C121
:103A2000E0916116F0916216808190916F16892362
:103A3000808360915A1680E396E10E949408609119
:103A4000591680E396E10E949408E0916116F09186
:103A50006216808190916A16892B808360E180E3F1
:103A600096E10E949408698D80E396E10E94940893
:103A700000914416109145160150110920914216EB
:103A8000309143162150310950E040E070E060E091
:103A900080E396E10E94490D209148163091491625
:103AA0002115310509F08DC263E070E08091551653
:103AB000909156160E94CF0870E060E080915716F2
:103AC000909158160E94CF08E0915F16F091601611
:103AD000808190916916892B8083E0915F16F09127
:103AE0006016808190916E168923808310915B16F9
:103AF0002091481630914916E0916116F0916216B6
:103B000080916F162115310509F09AC290818923A1
:103B1000808361E680E396E10E949408E09161165B
:103B2000F0916216808190916A16892B8083612FB3
:103B300080E396E10E949408E0915F16F091601690
:103B4000808190916916892B808300914416109191
:103B500045162091421630914316EE24EA94FE2C2D
:103B600050E040E070E060E080E396E10E9496095A
:103B70000E94B412E8EE4E2EE3E05E2E612C712C12
:103B800080E094E19E8B8D8B6DEC262E61E1362ECC
:103B9000F12CE12CF1018081F2E02F0E311C0E940A
:103BA000D90488248394912C009711F0912C812CB6
:103BB000ED89FE8921913191FE8BED8B2815390518
:103BC00009F4D8C2892B09F4D0C2B701CE010196FD
:103BD0000E946D1264E373E18D2D9C2D0E94A4124E
:103BE000BE016F5F7F4F8D2D9C2D0E941D120E9484
:103BF000E3118D2D9C2D0E94D611CE0101960E94BD
:103C0000D611F7013197EA30F10508F074C2882720
:103C1000E45FF14E8F4F16C537213A213F214221F3
:103C200047214A214F2152215221572185E090E01E
:103C300090934916809348168AE290E090934E162E
:103C400080934D168BE290E09093501680934F1620
:103C50008CE290E090935216809351168EE290E0A1
:103C6000909354168093531683E390E090935616E6
:103C70008093551687E390E09093581680935716DB
:103C800086E390E090935A168093591610925C1632
:103C900010925B1610925E1610925D166AE470E048
:103CA0008DE192E076CE86E090E090934916809385
:103CB00048168AE290E090934E1680934D168BE260
:103CC00090E09093501680934F168CE290E0909382
:103CD0005216809351168EE290E090935416809382
:103CE000531683E390E0909356168093551687E31E
:103CF00090E0909358168093571686E390E0909347
:103D00005A168093591610925C1610925B161092F8
:103D10005E1610925D166FE570E08EEB91E039CE85
:103D200087E090E0909349168093481685E490E0F0
:103D300090934E1680934D1684E490E09093501625
:103D400080934F1682E290E0909352168093511622
:103D50008EE290E0909354168093531681E490E0A5
:103D6000909356168093551682E490E090935816DF
:103D70008093571683E090E090935A1680935916DB
:103D800081E090E090935C1680935B1610925E1633
:103D900010925D1660E670E08EE591E079CD80913D
:103DA0003E1690913F1608CE98E2998F39CE198E23
:103DB00037CEE8E1E98F34CEF0E3F98F31CE26300B
:103DC000310571F58130910501F138F182309105AD
:103DD000F9F00397F9F0E0916116F0916216808195
:103DE00090916F16892380836091591680E396E144
:103DF0000E949408E0916116F09162168081909182
:103E00006A16892B80836D892FCE20EA2D8BE3CF14
:103E10001D8AE1CF30E63D8BDECF40ED4D8BDBCF11
:103E20002730310509F09EC08130910549F008F432
:103E300050C08230910509F44CC0039709F018CEA8
:103E4000E0916116F0916216808190916F1689233E
:103E5000808360E080E396E10E94940861E080E363
:103E600096E10E949408E0916116F09162168081BB
:103E700090916A16892B808362E280E396E10E942A
:103E8000940863E880E396E10E949408E09161164B
:103E9000F0916216808190916F168923808360E093
:103EA00080E396E10E94940863E080E396E10E943B
:103EB0009408E0916116F0916216808190916A16E3
:103EC000892B808368E680E396E10E94940868E38A
:103ED000CBCDE0916116F0916216808190916F16C2
:103EE0008923808360E080E396E10E94940861E08A
:103EF00080E396E10E949408E0916116F0916216C9
:103F0000808190916A16892B808361E280E396E13B
:103F10000E94940863E880E396E10E949408E0918F
:103F20006116F0916216808190916F1689238083CB
:103F300060E080E396E10E94940863E080E396E10C
:103F40000E949408E0916116F09162168081909130
:103F50006A16892B808368E680E396E10E949408C4
:103F600060E382CD8130910501F140F1823091050D
:103F7000F9F0039701F1E0916116F09162168081EA
:103F800090916F16892380836091591680E396E1A2
:103F90000E949408E0916116F091621680819091E0
:103FA0006A16892B80836F895FCD58E25F8BE3CFE0
:103FB00068E96F8BE0CF88EF8F8BDDCF98E49F8B24
:103FC000DACF80915516909156162730310519F4A5
:103FD00070E060E077CD90914016209141161982F3
:103FE0001A822B839C831D821E8226E0AE014F5FC6
:103FF0005F4F682F80E396E10E94AC0C19821A8211
:1040000022E0AE014F5F5F4F6091571680E396E16B
:104010000E94AC0C8091481690914916019759F472
:10402000198221E0AE014F5F5F4F61E080E396E1CE
:104030000E94AC0C49CD20E050E040E063E1F6CFB7
:1040400021303105B1F490818923808361E080E3E0
:1040500096E10E949408E0916116F09162168081C9
:1040600090916A16892B808368E0111161CD6AE016
:104070005FCD27303105B9F52091461630914716AE
:104080002D7F2115310509F5112339F121E2288F02
:1040900090818923808360E080E396E10E94940808
:1040A00061E080E396E10E949408E0916116F0914E
:1040B0006216808190916A16892B8083688D80E3D7
:1040C00096E10E94940863E833CD2130310501F771
:1040D000112331F032E2388FDBCF41E0488FD8CF67
:1040E00052E0588FD5CF90818923808361E21111EE
:1040F0001FCD60E21DCD61E070E090E080E00E94A5
:10410000C0024BE050E063E573E180E894E10E9477
:1041100042030E94DB110D2D1C2DA5E7B4E130E018
:1041200020E04D915D9165E0629FC001639F900D1D
:10413000112489519C4E840F951FFC018081F80148
:1041400081938F012F5F3F4F2530310551F76D2D42
:104150007C2DCE0101960E94A412CE0101960E94F0
:10416000E311CE0101960E94D611ED89FE893297A6
:1041700091828082FFEFEF1AFF0A2BE0E216F10432
:1041800009F008CD3EE1E32E34E1F32E43EEA42EF8
:1041900041E1B42E10E000E0F5018081F2E0AF0EC5
:1041A000B11C0E94D90488248394912C009711F0AB
:1041B000912C812CF701219131917F01281539052E
:1041C00069F1892B39F5B801CE0101960E946D1273
:1041D0006FE573E18D2D9C2D0E94A412BE016F5FCF
:1041E0007F4F8D2D9C2D0E941D120E94E3118D2D5D
:1041F0009C2D0E94D611CE0101960E94D611F80185
:10420000EE0FFF1FEA5EFB4E21E030E0318320839A
:104210000E94B412F7013297918280820F5F1F4F84
:104220000430110509F0B8CF2FB7F8948091261407
:1042300090912714A0912814B09129142FBF20EE3B
:1042400033E944E050E0281B390B4A0B5B0BCA01F1
:10425000B901A3019201B2D18901C90137FF34C06C
:1042600090E080E00E948D110E94420489CC6FEFA3
:104270007FEF43CF61E070E081E090E040CF6FEFEF
:104280007FEFFACF61E070E082E090E038CF6FEF2F
:104290007FEFFACF61E070E083E090E030CF6FEF26
:1042A0007FEFFACF6FEF7FEF84E090E028CF10929E
:1042B0007F14E5E7F4E181919191892BC9F424E120
:1042C000EF37F207C1F71DCF6CE370E0A8D144ECE3
:1042D0004603C001479F900D1124080F191F54E693
:1042E000569FC001579F900D1124800F911FBACF88
:1042F0000091E5131091E6130F5F1F4F1093E61323
:104300000093E51389E295E10E948411A0902B159A
:10431000B0902C15A114B104F1F00115110521F094
:104320000A151B0508F4580110E000E080912B15D8
:1043300090912C150817190748F420E030E046E961
:1043400050E0B80189E295E10E943F100F5F1F4FD6
:10435000A016B10659F789E295E10E947710D1CEF7
:10436000CF93DF93809132159091331523D28091B2
:104370002F159091301597FD03C060E00E942E0527
:104380008FE395E10E94D611C0E3D6E12697CE01D6
:104390000E94D61185E1CE35D807C1F780918316EA
:1043A0009091841607D2809180169091811697FD86
:1043B00005C060E0DF91CF910C942E05DF91CF9185
:1043C00008958F929F92AF92BF92CF92DF92EF9219
:1043D000FF92CF93DF93EC01688179818A819B8181
:1043E000611571058105910521F464E279ED8BE594
:1043F00097E02DE133EF41E050E0B4D049015A019C
:104400009B01AC01A7EAB1E4C9D06B017C01ACEE21
:10441000B4EFA5019401CED0C60ED71EE81EF91E3A
:10442000F7FE06C081E0C81AD108E10880E8F80A62
:10443000C882D982EA82FB82C701B6019F77DF91E9
:10444000CF91FF90EF90DF90CF90BF90AF909F9073
:104450008F9008958F929F92AF92BF92CF92DF92EA
:10446000EF92FF926091000270910102809102022E
:1044700090910302611571058105910521F464E2B3
:1044800079ED8BE597E02DE133EF41E050E06AD024
:1044900049015A019B01AC01A7EAB1E47FD06B014D
:1044A0007C01ACEEB4EFA501940184D0C60ED71EFA
:1044B000E81EF91EF7FE06C081E0C81AD108E1081F
:1044C00080E8F80AC0920002D0920102E092020253
:1044D000F0920302C701B6019F77FF90EF90DF9043
:1044E000CF90BF90AF909F908F90089560930002FF
:1044F0007093010280930202909303020895BB27F8
:104500004A3031F4992322F4BDE2909581959F4F72
:1045100001C0BB27FB015527AA27880F991FAA1F97
:10452000A41710F0A41B83955051B9F7A05DAA33CE
:1045300008F0A95DA193009779F7B111B193119299
:10454000CB0100C0DC01FC01672F71917723E1F7FB
:10455000329704C07C916D9370836291AE17BF0750
:10456000C8F30895052E97FB16F400940FD057FD5D
:1045700005D024D007FC02D046F408C050954095E1
:10458000309521953F4F4F4F5F4F089590958095FF
:10459000709561957F4F8F4F9F4F089531D0A59FA4
:1045A000900DB49F900DA49F800D911D112408952E
:1045B000B7FFF4CFF3DF821B930B0895A1E21A2E0D
:1045C000AA1BBB1BFD010DC0AA1FBB1FEE1FFF1FB7
:1045D000A217B307E407F50720F0A21BB30BE40B07
:1045E000F50B661F771F881F991F1A9469F760954E
:1045F0007095809590959B01AC01BD01CF01089508
:10460000A29FB001B39FC001A39F700D811D112413
:10461000911DB29F700D811D1124911D089597FB6E
:10462000072E16F4009406D077FD08D013D007FCAF
:1046300005D03EF4909581959F4F089570956195B2
:104640007F4F0895EE0FFF1F881F8BBF0790F691D5
:10465000E02D1994AA1BBB1B51E107C0AA1FBB1F69
:10466000A617B70710F0A61BB70B881F991F5A95FE
:10467000A9F780959095BC01CD0108950F931F93E4
:10468000CF93DF938230910510F482E090E0E091C7
:104690009216F091931630E020E0B0E0A0E0309761
:1046A00099F42115310509F44AC0281B390B24302F
:1046B0003105D8F58A819B816115710589F1FB016E
:1046C00093838283FE0111C0408151810281138155
:1046D00048175907E0F04817590799F4109761F007
:1046E00012960C93129713961C933296CF01DF917A
:1046F000CF911F910F9108950093921610939316E6
:10470000F4CF2115310551F04217530738F0A901B4
:10471000DB019A01BD01DF01F801C1CFEF01F9CF43
:104720009093931680939216CDCFFE01E20FF31F64
:10473000819391932250310939832883D7CF2091D7
:10474000901630919116232B41F42091060230915E
:104750000702309391162093901620910402309115
:1047600005022115310541F42DB73EB740910802ED
:1047700050910902241B350BE0919016F09191168F
:10478000E217F307A0F42E1B3F0B2817390778F028
:10479000AC014E5F5F4F2417350748F04E0F5F1F87
:1047A0005093911640939016819391939FCFF0E090
:1047B000E0E09CCFCF93DF930097E9F0FC013297C4
:1047C00013821282A0919216B0919316ED0130E0FF
:1047D00020E01097A1F420813181820F931F209156
:1047E0009016309191162817390709F061C0F0939F
:1047F0009116E0939016DF91CF910895EA01CE17BC
:10480000DF07E8F54A815B819E0141155105B1F74B
:10481000E901FB83EA8349915991C40FD51FEC1735
:10482000FD0761F4808191810296840F951FE90153
:1048300099838883828193819B838A83F0E0E0E07F
:1048400012968D919C9113970097B9F52D913C91FB
:104850001197CD010296820F931F209190163091EF
:1048600091162817390739F6309751F5109293169B
:1048700010929216B0939116A0939016BCCFD3834A
:10488000C28340815181840F951FC817D90761F4F5
:104890004E5F5F4F88819981480F591F5183408334
:1048A0008A819B81938382832115310509F0B0CFE2
:1048B000F0939316E09392169ECFFD01DC01C0CFDA
:1048C00013821282D7CF4F925F926F927F928F9214
:1048D0009F92AF92BF92CF92DF92EF92FF920F938F
:1048E0001F93CF93DF938C01009791F4CB01DF915D
:1048F000CF911F910F91FF90EF90DF90CF90BF90DD
:10490000AF909F908F907F906F905F904F90B6CEBA
:10491000FC01E60FF71F9C0122503109E217F30753
:1049200008F4AAC0D901CD91DC911197C617D70719
:1049300018F1C530D10570F0CE010497861797079E
:1049400048F0C61BD70B2297C193D1936D937C93EC
:10495000CF0130DFC801DF91CF911F910F91FF9000
:10496000EF90DF90CF90BF90AF909F908F907F900F
:104970006F905F904F9008955B01AC1ABD0A4C0197
:104980008C0E9D1EA0919216B0919316512C412C25
:10499000F12CE12C109731F58091901690919116A1
:1049A0008815990509F05CC04616570608F058C0EE
:1049B0008091040290910502009741F48DB79EB753
:1049C0004091080250910902841B950BE817F907E2
:1049D00008F052C0F0939116E0939016F90171839C
:1049E0006083B8CF8D919C91119712966C9012971D
:1049F00013967C901397A815B90559F56C0142E000
:104A0000C40ED11CCA14DB0420F1AC014A195B09A5
:104A1000DA011296159780F0628273825183408387
:104A2000D9016D937C93E114F10471F0D7011396D1
:104A3000FC93EE9312978ECF22968C0F9D1FF90157
:104A400091838083F301EFCFF0939316E093921656
:104A500081CF4816590608F42C017D01D3019ACF65
:104A6000CB010CDE7C01009739F0AE01B8010BD010
:104A7000C801A0DE87016ECF10E000E06BCF81E0BF
:104A800090E0F89451C0FB01DC0102C001900D924E
:104A900041505040D8F708956817790768F4FB0132
:104AA000DC01E40FF51FA40FB51F02C002900E92A7
:104AB00041505040D8F70895E6CFDC0101C06D9316
:104AC00041505040E0F70895FB01DC0101900D9248
:104AD0000020E1F70895FB01DC014150504048F00F
:104AE00001900D920020C9F701C01D924150504025
:104AF000E0F70895FB0151915523A9F0BF01DC01B6
:104B00004D9145174111E1F759F4CD010190002075
:104B100049F04D9140154111C9F3FB014111EFCF0F
:104B200081E090E00197089512E0CDE8D2E000E046
:104B300005C0802FFE0186DD2196011DCE38D107EC
:0A4B400080E00807B1F7F894FFCFFA
:104B4A000100000000009416800000401454004048
:104B5A001050FF83570600070008001600170024AC
:104B6A0000FFFF08001700FFFFFFFFFFFFFFFFFF27
:104B7A00FF06000800150016002400FFFFFFFF06CD
:104B8A00000800150017002400FFFFFFFFFFFF07C2
:104B9A000008001500FFFF1700FFFF06000700FFCF
:104BAA00FF1500FFFF1700240006000700FFFF158E
:104BBA00001600170024000600FFFF0800FFFFFF91
:104BCA00FF1700FFFF060007000800150016001770
:104BDA000024000600070008001500FFFF17002444
:104BEA0000040009000A00180019002200FFFF0A49
:104BFA00001900FFFFFFFFFFFFFFFFFFFF04000A8E
:104C0A0000130018002200FFFFFFFF04000A001330
:104C1A000019002200FFFFFFFFFFFF09000A00132F
:104C2A0000FFFF1900FFFF04000900FFFF1300FF48
:104C3A00FF1900220004000900FFFF1300180019E1
:104C4A000022000400FFFF0A00FFFFFFFF1900FF18
:104C5A00FF040009000A00130018001900220004CA
:104C6A000009000A001300FFFF1900220002000BCE
:104C7A00000C001A001B002000FFFF0C001B00FFA5
:104C8A00FFFFFFFFFFFFFFFFFF02000C0011001AEA
:104C9A00002000FFFFFFFF02000C0011001B002094
:104CAA0000FFFFFFFFFFFF0B000C001100FFFF1BBF
:104CBA0000FFFF02000B00FFFF1100FFFF1B002097
:104CCA000002000B00FFFF11001A001B0020000267
:104CDA0000FFFF0C00FFFFFFFF1B00FFFF02000B9E
:104CEA00000C0011001A001B00200002000B000C2F
:104CFA00001100FFFF1B00200000000D000E001C29
:104D0A00001D001E00FFFF0E001D00FFFFFFFFFF3A
:104D1A00FFFFFFFFFF00000E000F001C001E00FF38
:104D2A00FFFFFF00000E000F001D001E00FFFFFF27
:104D3A00FFFFFF0D000E000F00FFFF1D00FFFF0029
:104D4A00000D00FFFF0F00FFFF1D001E0000000DF9
:104D5A0000FFFF0F001C001D001E000000FFFF0ED9
:104D6A0000FFFFFFFF1D00FFFF00000D000E000FF8
:104D7A00001C001D001E0000000D000E000F00FFA9
:104D8A00FF1D001E0000F81F0000FE7F008007E0E4
:104D9A0001C003C003E00000077000000C18F00314
:104DAA00181CFC1F380CBC3F300E0E7870060EF033
:104DBA0060060CF0610300E0C10300C0C30300E019
:104DCA00C10300C0C30300C0C30300C0C30300C0C3
:104DDA00C10300E0C1070EE0E1060CF0600E0C789A
:104DEA00700C3E7E3018FC1F3838FC071830000063
:104DFA000CE0000007C001C003800FE00100FE7F45
:104E0A000000F00F0010000000F0FF0300F0FF3F69
:104E1A0000F0FFFF0080EEFF010000F0010000E05B
:104E2A00030000C0070070C30700FC9F0700FFBF14
:104E3A000780FFFF0FC00FF00FC007E00FE003C0AD
:104E4A000FE001800FF001800FF001000FF0010068
:104E5A000FF001000FF000000FF000000FF001004A
:104E6A000FF001800FE0018007E003C007E007C0F0
:104E7A0003C00FF003807FFE0100FFFF0000FE3F2A
:104E8A000000F80F0000F0000000F8000000F80130
:104E9A000000F8010000F0000000600000000000BF
:104EAA000000000000000000000070000000E000A8
:104EBA0000006000000060000000F0000000E00058
:104ECA000000E0070000800F0000001F0000003E05
:104EDA000000007C000000F8000000F8000000F864
:104EEA00000000F8000000F8000007F800800FF842
:104EFA0000800F7C00800F3E00009F3F0000FE1FD5
:104F0A000000FC0300C0FF0700C0FF3F0000C77F8E
:104F1A000000C6FF0000C6FF000087FF0100C6FFB1
:104F2A000100C6FF0100C7FF0100C6FF0100C6FF5E
:104F3A00010087FF0100C6FF0000C67F0000C67F90
:104F4A000000C61F0000460100000600000006001F
:104F5A00000006000000060000000700000006002E
:104F6A00000006000000070000000600000006001E
:104F7A00000007000000060000000600000006000E
:104F8A00000006000000FF0700E0FF0F00F0FF3FEF
:104F9A0000F8E77F007800FC003800F8010800E01C
:104FAA00030000E0030000C0070000C00700008003
:104FBA00070000800F0000800F0000800F003C00F7
:104FCA000F003C800F003C000F007C800F003C80EB
:104FDA000F0028800F0000800F000080070000C02B
:104FEA00070000C0070000E0030800E0033800F8EB
:104FFA00017800FC00F8ABFF00F8FF3F00C0FF0F8C
:10500A000000FF030000E07F0000F8FF0100FEFF40
:10501A000700FFFA0F801F000FC00F000EE0030009
:10502A0008E0030000F0010000F0010000F00000B9
:10503A0000F8000000F8000000F800000078001EE8
:10504A0000F8001E0078001E00F8003F0078001EDD
:10505A0000F8000800F8000000F0000000F001006D
:10506A0000F0010000E0030000E0030008C00F00A8
:10507A000C801F000F00FFF50F00FEFF0F00F8FF66
:10508A000100E07F000000000000000000000000B6
:10509A000004F81F201CC007383CC0033C38C0037A
:1050AA001C78C0031E7880031E38C0031E78C00314
:1050BA001E78C0031C78C0031E78C0031E788003C4
:1050CA001E78C0031EF0C0030FF0C0030FE0C183B7
:1050DA0007C0C7D30300FEFF0000E00B0000C003B7
:1050EA000000C0030000C0030000C0030000C003AA
:1050FA000000E0070000F81F0000000000000000A8
:10510A0000000000000000000000003E000000FE59
:10511A0000000EF003807FC007E0FB800FF0E10182
:10512A001FF0E0033EF8C0033E78C0077C78C00752
:10513A007C7C8007FC7CC007F87C800FFC7C800F9D
:10514A00F83C800FF87CC00FF83C800FF87C800F89
:10515A00F87CC007FCFCC0077CF8E0077CF8E00795
:10516A007CF0E1033EF0F1031EE0FB011FE0FF804B
:10517A000F82FFC007CF7FF401FCFFFF00F8F71F83
:10518A0000000000000002000080070000C00F18A5
:10519A0000E00F1E00C09F3F00C0FF3F0080FF7F5E
:1051AA000080FF7F0000FF1F00C0FF0700E0FF0133
:1051BA0000F8FF0100FEFF0300FCFF0306FCFB07EB
:1051CA000FF8F1C70F78F0FF1F10E0FF3F00C0FF94
:1051DA001F00C0FF0F00E0FF0300F8FF0000FCFF04
:1051EA000000FFFF0000FFFF0000FEFD01007EFC43
:1051FA0003003CF8030008F0070000F0030000E099
:10520A00000000200000F80F0000FC1F0000FF7FD4
:10521A0000800FF800C007F001C003E001E001C000
:10522A0003E0008003F0008007F0008007F00080B0
:10523A000770000007F000800770008007F0000088
:10524A0007F0008007F0008007E000C007E001C017
:10525A0003E001C003C003E001800FF800807FFE75
:10526A000000FE3F0000F80F0000E0030000C0014C
:10527A000000C0010000C0010000E0010000C00100
:10528A000000C001000000000000000000008001D2
:10529A000000800100008001000080030000C003BC
:1052AA0000004002000060060000600600002004C2
:1052BA000000300C006C359C79BE1FF87F1C000082
:1052CA00183000000CC0000007C00180010007E090
:1052DA0000000C600000046000000660000002414B
:1052EA000000C3C3000073C60000319C00800DF8A3
:1052FA0001800FE0018003C00180010003C00000AB
:10530A0002000000000000C00F00C0F01F0080F380
:10531A003F00807F3E00003F3C00001E3C00003CF6
:10532A001C0000FE000000FE000000CE0300008703
:10533A000300000F0300800F0000801F0000801F81
:10534A000000C03F0000C03D0000E07C0000E078A3
:10535A000000F0F8000070F0000070F0010038E082
:10536A00030038E003003CC0030C1CC0071E1C806D
:10537A000F1E0E000F3E0F000FFE07001FFC03005A
:10538A003EF801001C0000C0070000F0070000F80A
:10539A00070000F8070000F80000007C0000003C4D
:1053AA0000000078001000780070007800E003F830
:1053BA0000E007F000C01FF000C0FFF000C0FFE3EC
:1053CA0000C0F7FF0180C7FF018007FF018007FCCB
:1053DA0001000FF003000FC003000F0007001E00BA
:1053EA0000001E0000003E0000001C0000001E001D
:1053FA0000003F0000E01F0000E01F0000E00F0077
:10540A0000E001000000F0FF0700E0FF0700E0FFF6
:10541A000300007E0000007E0000087E0400FEFFFC
:10542A007F00FCFF7F001E7E78001C7E70001E7EBF
:10543A0070000E7E700000FE0000687E0080FF7F14
:10544A0000E0FF7F00F8DF7F00FC017E00FE00FE27
:10545A00007E007E007F007E007F007E003F007E8F
:10546A00007F007E003F007E007F007E007F007E7E
:10547A0000FE007E00FC037E00F8FFFF07E0FFFF4E
:10548A000780FFFF07000000000000000000000086
:10549A0000000000000000000000E01C0000E01C0A
:1054AA000002E01C000F000020070000780F000037
:1054BA00F00F0000F00F0000F01E0000F03E0000A8
:1054CA00F07E000078FC07007EF0FFD57FE0FFFF4A
:1054DA001F00FFFF0F00E0FF0100E01F0000F01CAB
:1054EA000000601C000070180000E01D0000C00FE2
:1054FA000000C007000000000000000000000000DB
:10550A0000000000003ED80A3E7FF80F7F7FE003CC
:10551A007FCEC08139C0E0810180C1C10080E1C372
:10552A000080C1C10000E3610000C3610000C771CF
:10553A000000E63B0000FC1F0000FE3F0000EF7B7E
:10554A000080C7F100C0E3F101C0C3E101E0E1C39B
:10555A0003E0C0C103F0C0810778E0010F7CE003DB
:10556A000F3FF80F7E1F58066C0F0000000700005F
:10557A000007000000030000000300000003000011
:10558A00000300000000F83F00005FF800C007E0D9
:10559A0003F003800FF800001FF800001F7C0000D2
:1055AA003E3E00007C3E00007C1F0000F81F000009
:1055BA00F81F0000F81F0000F81F0000F81F000085
:1055CA00F81F0000F81F0000F83E00007C3E0000B3
:1055DA007C7C00003EF800001FF801801FE003C039
:1055EA0007C00FF003001EFC000230084003300C15
:1055FA00C00E300C70FF3FF8FFFE1FFC7FFF3FFC20
:10560A00FFFE3FFC7F0000000000000000000000D9
:10561A0000FEFFFFF0FCFF7FF0FCFF7FE078003E1A
:10562A00F0F8001EF0F0001EF0E0010FF0E0810F2C
:10563A00F0E08307E0C0C307F080C703F080E7FF0C
:10564A00FF00EFFFFF00FFFFFFC0FF07F0E0FF0FC3
:10565A00F0F07D1FF0F8383EF07C7C7CF03C3C7822
:10566A00E01E38F0F01E78F0F01E38F0E00F38F047
:10567A00F10F3CE0F00F78E0E10F38E0F1000000B4
:10568A000000000000000000000000000000E0032D
:10569A000000F8070000381E00000C3C0000C001A2
:1056AA000000C0030000C0010000C000000080012B
:1056BA00007880031E3800001C1C0000381C000003
:1056CA00381E0000780E0000700E0000700F0000F7
:1056DA00F0070000E0070000E0070000E007000014
:1056EA00E0070000E007F00FE00FF81FF01FFE7F51
:1056FA00F8FE3FF87FFE0FF07FFC03C03FF0018009
:10570A000F000000006000C001F000FC03F001FC83
:10571A0003F003FE07E0071E02C00F0E00C00F0FC2
:10572A0000801F0F00001F0E00007E0F0000FC0FFC
:10573A000000FC0F0000F81F0000B81F0000783EB0
:10574A000000387C000038F8000038F8012038F8EA
:10575A0003203CF003E01FE007E01FC007E00F80D2
:10576A0007E0010002C0010000C0010000C0030000
:10577A0000C003000080EF000000FF000000FE00F0
:10578A0000007C0000000000000000000000000093
:10579A000000C0030000E0070000E0070000F00F6F
:1057AA000000F01F0000781E00007C1E00003C3C38
:1057BA0000003C7C00001E7800001F7800000FF0FB
:1057CA0000000FF0008007E001C0FFFF03C0FFFFE9
:1057DA0003E0FFFF07E0C99307F0C1830FF0C0039E
:1057EA000FF8C0031F78C0031E3CC0033E3CC00331
:1057FA003C3EC003781EC003780FC003F8000000C7
:10580A00000000000000000000000000000000008E
:10581A000000000000E00FFC01F81FFF0FFCFD9FD5
:10582A001F7CF00F3C3EE0073E1EE0077C1FE003B2
:10583A007C1FC003141FC003009FD10700FFFF7F16
:10584A0000FFFFFB0100C0C30F00C0033F00E003DD
:10585A007C00C0077800C003F800C003F800E0032A
:10586A00F801E003F803F80FFC1FFF1FFCFEFFF826
:10587A007FFC3FF03FE00F801F00000000000000A7
:10588A00000000000000807F0000E0FF0300F0E15C
:10589A00030078800300780003003C8003003C008A
:1058AA000300780000007800000070000000E001AA
:1058BA000000800F0000C01F0000F8000000780000
:1058CA0000003C0000001C0000001E0000001C003C
:1058DA0000001E0000001C0000001E0000001F0047
:1058EA0000C01F0000C01F0000C0030000C001006C
:1058FA0000C0010000C0000000C0000000C000009D
:10590A0000C000000000381C0000383C0000381CB1
:10591A000000301800000000000000000000000035
:10592A000000804F0000F0FF01007CE001003CC055
:10593A0001000F80010007800180078001800700B5
:10594A0000C0030000C0030000C0030000C05B06E3
:10595A0000C0FF0700C0530200C0030000C00300DC
:10596A0000C0030000800700008007800100078054
:10597A0001000E8001001EC001007CC00100F0FF82
:10598A000100C07F000030060000380E0000180C2D
:10599A000000B0060000A0010000000000000000A6
:1059AA0000C01FFE01800F780000077800000F700A
:1059BA0000001F7000001F7000003F780000777021
:1059CA000000C7700000C771000087710000077BE4
:1059DA00000007760000077E0000077C00000778B9
:1059EA0000000F700000077000C00FFC00C03FFEEF
:1059FA0001C00100008001000080010000000300D6
:105A0A000000060000000C0C00001E0C000030060E
:105A1A000000300600006007000060030000E00399
:105A2A000000F81F0000FC3F00003E1900000F00B4
:105A3A0000000F0000000E0000001E000000FC071E
:105A4A000000F8030000FC0300001E0000000F0025
:105A5A00000007000000070000000F0000001E0001
:105A6A000000FE1F0000F83F0000A07A000000704E
:105A7A0000000070000000700000FC3D0000FC3FC8
:105A8A000000DC0F00000000000000000000000021
:105A9A000000800100008001000080010000C003B6
:105AAA000000C0030000E0070000E0070000E00774
:105ABA000000E00F00A4F95F55FEFFFF3FF8FFFF6B
:105ACA003FF0FFFF0FC0FFFF0780FFFF0100FFFF4E
