:1000000003C1000032C1000030C100002EC1000059
:100010002CC100002AC1000028C1000026C1000038
:1000200024C1000022C1000020C100001EC1000048
:100030001CC100001AC1000018C1000016C1000058
:1000400014C1000012C1000010C100000EC1000068
:100050000CC100000AC1000008C100000C94E809AE
:1000600004C100000C94B2090C948909FEC0000080
:10007000FCC00000FAC00000F8C00000F6C000009C
:10008000F4C00000F2C00000F0C00000EEC00000AC
:10009000ECC00000EAC00000E8C000000C94320A86
:1000A000E4C00000E2C00000E0C00000DEC00000CC
:1000B000DCC00000DAC00000D8C00000D6C00000DC
:1000C000D4C00000D2C00000D0C00000CEC00000EC
:1000D000CCC00000CAC00000C8C00000C6C00000FC
:1000E000C4C0000000002100240027002A002D00C9
:1000F0003000330001010000040107010A01000083
:1001000020002300260029002C002F0032000001CF
:10011000000003010601090100000A0B02090C0D91
:100120000E080703040100000000000000000000AA
:1001300000000000000000000000000000000000BF
:10014000000000001211100000000000000000007C
:10015000000000000000000000000000000001029C
:1001600010202008081020401020408002010201C9
:100170000804020101020408102040808040201081
:1001800008040201800402018040201008040201DA
:100190000804020101020408102040800102040842
:1001A0001020408000002200250028002B002E0097
:1001B0003100340002010000050108010B010505B2
:1001C0000505070508080808020202020A0A0808CD
:1001D00004040404010101010101010103030303FB
:1001E00003030303040707070C0C0C0C0C0C0C0C8A
:1001F0000202020206060606060606060B0B0B0B9B
:100200000B0B0B0BAD0B490E11241FBECFEFD1E230
:10021000DEBFCDBF00E00CBF26E0AEEEB4E001C013
:100220001D92A33BB207E1F714E0A0E0B2E0EEE2DA
:10023000F2E200E00BBF02C007900D92AE3EB107A4
:10024000D9F711E0C3E0D1E000E006C02197010931
:10025000802FFE010E94CE0EC230D10780E0080739
:10026000A9F70E941A0C0C940611CACE2091C00561
:1002700081E0213208F044C080919C058111FCCFBF
:100280008091BF0592E090939C0591E090939B052F
:100290009FEF90939A051092990520939805AFE9E6
:1002A000B5E0E8E7F5E090E0291331C0109277055A
:1002B00090917705880F892B80937705809176053B
:1002C000813049F510927605809177058093BB00C7
:1002D0008091BC0083FDF8CF85EC8093BC008091B9
:1002E0009C058230E1F380919A058F3FB1F08091B7
:1002F0009A058032A1F080919A05803391F084E0D4
:1003000010929E051092C00510929D0508953D9192
:1003100031939F5FC9CF85EEE0CF80E0F1CF82E0DF
:10032000EFCF83E0EDCFAF92BF92CF92DF92EF920B
:10033000FF920F931F93CF93DF936C017B018B018F
:10034000040F151FEB015E01AE18BF08C017D107DF
:1003500059F06991D601ED91FC910190F081E02D69
:10036000C6011995892B79F7C501DF91CF911F91AE
:100370000F91FF90EF90DF90CF90BF90AF900895D6
:10038000FC01538D448D252F30E0842F90E0821B9B
:10039000930B541710F0CF96089501970895FC0120
:1003A000918D828D981761F0A28DAE0FBF2FB11D78
:1003B0005D968C91928D9F5F9F73928F90E00895D0
:1003C0008FEF9FEF0895FC01918D828D981731F08A
:1003D000828DE80FF11D858D90E008958FEF9FEFDE
:1003E0000895FC01918D228D892F90E0805C9F4FB4
:1003F000821B91098F739927089581EC95E0F1DFB5
:1004000021E0892B09F420E0822F0895FC01A48DBE
:10041000A80FB92FB11DA35ABF4F2C91848D90E026
:1004200001968F739927848FA689B7892C93A08909
:10043000B1898C91837080648C93938D848D981393
:1004400006C00288F389E02D80818F7D8083089526
:10045000EF92FF920F931F93CF93DF93EC0181E014
:10046000888F9B8D8C8D98131AC0E889F9898081BB
:1004700085FF15C09FB7F894EE89FF896083E889EE
:10048000F98980818370806480839FBF81E090E0E0
:10049000DF91CF911F910F91FF90EF900895F62E6D
:1004A0000B8D10E00F5F1F4F0F731127E02E8C8D07
:1004B0008E110BC00FB607FCFACFE889F98980814D
:1004C00085FFF5CFCE01A2DFF2CFEB8DEC0FFD2F34
:1004D000F11DE35AFF4FF0829FB7F8940B8FEA8922
:1004E000FB8980818062D0CFCF93DF93EC01888D30
:1004F0008823B1F0AA89BB89E889F9898C9185FDA7
:1005000003C0808186FD0CC00FB607FCF7CF8C912D
:1005100085FFF2CF808185FFEDCFCE0177DFEACF77
:10052000DF91CF91089580E090E0892B21F065DF85
:1005300081110E94000080E090E0892B49F080E06A
:1005400090E0892B29F00E94000081110E94000098
:1005500080E090E0892B49F080E090E0892B29F041
:100560000E94000081110E94000080E090E0892B31
:1005700049F080E090E0892B29F00E940000811171
:100580000C94000008958150823108F05AC0E82F81
:10059000F0E08827E153FD4F8F4F0C94CE0EEF0211
:1005A000F302E102E702EB022103F602FC02000380
:1005B00006030A030E031403180321031C0322037A
:1005C0002603809180008F7780938000089580912A
:1005D00080008F7DF9CF80918000877FF5CF84B533
:1005E0008F7784BD089584B58F7DFBCF8091B00057
:1005F0008F778093B00008958091B0008F7DF9CF00
:10060000809190008F778093900008958091900062
:100610008F7DF9CF80919000877FF5CF8091A000EA
:100620008F778093A00008958091A0008F7DF9CFEF
:100630008091A000877FF5CF809120018F778093F4
:1006400020010895809120018F7DF9CF80912001B4
:10065000877FF5CF1F93CF93DF93282F30E0F901E9
:10066000E85EFE4F8491F901E25AFE4FD491F90100
:10067000E254FE4FC491CC23A1F0162F811183DFE9
:10068000EC2FF0E0EE0FFF1FEC55FE4FA591B4915B
:100690008FB7F894EC91111108C0D095DE23DC934C
:1006A0008FBFDF91CF911F910895DE2BF8CFCF93AD
:1006B000DF9390E0FC01E25AFE4F249182549E4F5A
:1006C000FC0184918823D1F090E0880F991FFC01F0
:1006D000EC51FF4FA591B491FC01EC55FE4FC59133
:1006E000D49161110EC09FB7F8948C91E22FE095E0
:1006F0008E238C932881E223E8839FBFDF91CF91E3
:1007000008958FB7F894EC91E22BEC938FBFF6CF5E
:100710003FB7F8948091580590915905A0915A05DA
:10072000B0915B0526B5A89B05C02F3F19F0019637
:10073000A11DB11D3FBFBA2FA92F982F8827BC013B
:10074000CD01620F711D811D911D42E0660F771F63
:10075000881F991F4A95D1F7089521E001C0220F03
:100760006A95EAF7DC011C962C931C971A965C9309
:100770004E931997ED91FC910484F585E02D60E08E
:10078000199408950895DC01ED91FC910684F78594
:10079000E02D41E0199581E090E00895DC01ED91B4
:1007A000FC910684F785E02D40E019940F931F9388
:1007B000CF93DF9300D000D01F921F92CDB7DEB74A
:1007C000009146021091470220914802309149025F
:1007D0000D831E832F83388700914A0210914B02AC
:1007E00020914C0230914D0209831A832B833C8364
:1007F00090918706691710F06FEF690F262F30E090
:10080000409188062C0F3D1FF901403191F494303E
:1008100081F46181680F606880E896E028960FB6E1
:10082000F894DEBF0FBECDBFDF91CF911F910F9126
:10083000B5CF6581EFCFEF92FF920F931F93CF93C8
:10084000DF938B01877098E0899FB0011124606469
:1008500080E896E0A3DF83E790E00197F1F7E801F5
:10086000085F1F4F8BE9E82EF12C699180E896E034
:100870008ADFC7010197F1F7C017D107B1F7DF9100
:10088000CF911F910F91FF90EF9008958F929F92BB
:10089000AF92BF92CF92DF92EF92FF920F931F938E
:1008A000CF93DF93EC01423018F08C8188608C8309
:1008B0004F836887222329F0413019F48C818460AA
:1008C0008C8326DF4B015C0184E6C82ED12CE12C01
:1008D000F12C1EDF681979098A099B09683E73406B
:1008E00081059105B0F321E0C21AD108E108F108B1
:1008F00088EE880E83E0981EA11CB11CC114D1049F
:10090000E104F10431F76C8164FD60C0E881F98194
:100910000684F785E02D42E063E0CE0119958BE473
:1009200096E40197F1F7E881F9810684F785E02DD7
:1009300042E063E0CE01199503E512E0C80101979A
:10094000F1F7E881F9810684F785E02D42E063E064
:10095000CE011995C8010197F1F7E881F981068464
:10096000F785E02D42E062E0CE011995C8010197BC
:10097000F1F76C816062CE0111DF8BEE90E00197A0
:10098000F1F784E08D836CE0CE0108DF61E0CE01F9
:1009900005DF8BE39FE10197F1F782E08E8366E04C
:1009A000CE01FCDEE881F9810484F585E02D6FEF4E
:1009B000CE01DF91CF911F910F91FF90EF90DF90CB
:1009C000CF90BF90AF909F908F9019946062CE01AE
:1009D000E5DE8BE496E40197F1F76C816062CE016D
:1009E000DDDE03E512E0C8010197F1F76C8160627A
:1009F000CE01D4DEBBCF08950895089585ED809390
:100A0000BC008091BC0084FDFCCF10929C05089531
:100A100020912E05260F3327331F21323105ECF4A8
:100A200020919C05FC0190E080E0243069F082E098
:100A30000895A0912E052191AC01425F5A4FA40F59
:100A4000B52FB11D2C930196861798F380912E0532
:100A5000680F60932E0580E0089581E00895089561
:100A6000E091560580915505E81730F4F0E0E25129
:100A7000FB4F808190E008958FEF9FEF0895909154
:100A80005605809155052FEF3FEF981748F4E92F51
:100A9000F0E0E251FB4F208130E09F5F90935605DC
:100AA000C90108958091550590915605891B990BB0
:100AB0000895CF92DF92EF92FF920F931F93CF93FF
:100AC000DF937C01CB018A0120919D05222389F0CF
:100AD000EB016B01C40ED51ECC15DD0561F06991EB
:100AE000D701ED91FC910190F081E02DC70119959E
:100AF000F3CF642F8DDFC801DF91CF911F910F914C
:100B0000FF90EF90DF90CF900895CF93DF931F92E7
:100B1000CDB7DEB7698320919D052223F9F020919E
:100B2000C005203258F021E030E0FC0133832283FD
:100B300090E080E00F90DF91CF91089580919E0525
:100B4000E82FF0E0E156FA4F998190838F5F809310
:100B50009E058093C00581E090E0ECCF61E0CE017E
:100B6000019656DFF8CFFC0123812223D1F0818149
:100B7000682B6083828191E090939D058093BF05EF
:100B800010929E051092C0058EE596E0BEDF6EDBEA
:100B9000282F30E081E090E0232B11F090E080E0FE
:100BA000089530E020E0F6CFEF92FF920F931F936D
:100BB000CF938C01FC0184E0C0E0262F30E060FF81
:100BC00002C09589C92BB9017595679581503196F9
:100BD0008111F3CF413011F4F8014489F8016585A2
:100BE000C62BC42B7801FEE0EF0EF11CF8016289E0
:100BF0006C2BC701B8DFF801628960956C23C701CF
:100C0000CF911F910F91FF90EF90ADCF0F931F9356
:100C1000CF93DF93062F0F70423039F440E0602FFE
:100C2000DF91CF911F910F91BFCF142FEC0170E096
:100C300084E0759567958A95E1F7CE01B5DF412F80
:100C4000602FCE01EDCFFC018485882399F02185AA
:100C500032852115310521F4611107C0158606C0C2
:100C600021303105D9F76111F9CF85876585CF012D
:100C70000E9679CF0895EF92FF920F931F93CF9323
:100C8000DF93EC01062FF42EE22E8B85888B1092D9
:100C900056051092550510929E051092C0051092AF
:100CA0009C0511E010939B051092760561E084E1AC
:100CB000D1DC61E085E1CEDC8091B9008E7F80934C
:100CC000B9008091B9008D7F8093B90088E480934A
:100CD000B80085E48093BC0081EC93E090935405C8
:100CE0008093530582EC93E09093520580935105D5
:100CF000888910939D058093BF0510929E051092E0
:100D0000C005B4DA811119C0198B8EE596E0B7DE03
:100D10008E878989882331F01F861C8260E0CE018E
:100D20000E9621DF2E2D4F2D602FCE01DF91CF911A
:100D30001F910F91FF90EF90A9CD198AEACF90E013
:100D400080E00895CF92DF92EF92FF920F931F936E
:100D5000CF93DF9300D000D000D0CDB7DEB78C01A9
:100D6000DC0119968D919C91892B09F463C0D0DC2C
:100D7000F801C784D088E188F2886C197D098E0952
:100D80009F096C3271408105910588F3F894D80170
:100D900014968D919C9115979A8389831996ED915C
:100DA000FC917F01BFEFEB1AFB0A80818987F80174
:100DB00090810388F489E02DD80155968C91992370
:100DC00009F447C09081982B98879081809589235A
:100DD0008F838F818C8388E08B8358856F814985D1
:100DE0003B812C8189819A81D701508347FD252F32
:100DF0003A952083262F39F0441F00C000006083FD
:100E0000000000C0F2CF38E04D91608300000197F0
:100E100061F7D8015496FC93EE93539749873B832F
:100E20002C839A838983789473DCF8016787708BAD
:100E3000818B928B29960FB6F894DEBF0FBECDBF83
:100E4000DF91CF911F910F91FF90EF90DF90CF90A6
:100E500008959081982B98879081809589238F831E
:100E60008F818E8388E08D8358856F8149853D8190
:100E70002E8189819A81D701508347FD252F00C09B
:100E800000C0208300C000C000C000C000C060835C
:100E90000000262F3A9541F0441F000000C000C01A
:100EA00000C000C000C0E8CF38E04D9100C06083B2
:100EB00000C0019709F7D8015496FC93EE9353971D
:100EC00049873D832E83ADCFCF93DF93EC018E8195
:100ED0009F8197FD05C061E0EADB60E08E81BADBAF
:100EE00081E08983DF91CF910895CF93C62F8C56EF
:100EF0008C30A8F4E82F880FFF0B60E08827ED57AF
:100F0000F84F8F4F4BC7AB07C107E30706081D0813
:100F100030084B0857086E0880088C08A80860E065
:100F20008C2F44DC6FEF80E896E02DDC64E080E8F5
:100F300096E029DC65E080E896E025DC61E08C2F16
:100F400035DC6FEF80E896E01EDC6EEF80E896E01F
:100F50001ADC62E012C08C2F29DC6FEF80E896E08B
:100F600012DC61E08C2F22DC6FEF80E896E00BDC76
:100F700064E080E896E007DC64E080E896E0CF91EA
:100F800002CC8C2F13DC68E080E896E0FCDB63E0A9
:100F900080E896E0F8DB65E080E896E0F4DB62E06C
:100FA00080E896E0F0DB61E08C2F00DC6FEF80E8FA
:100FB00096E0E9DB6EEF80E896E0E5DB6EEF80E837
:100FC00096E0E1DB4BC08C2FF1DB68E080E896E037
:100FD000DADB62E080E896E0D6DB6EEF80E896E050
:100FE000D2DB6FEF80E896E0CEDB61E08C2FDEDBBA
:100FF0006FEF80E896E0C7DB6EEF80E896E0C3DB3A
:1010000063E080E896E0BFDB65E0B7CF8C2FCEDBF6
:1010100068E080E896E0B7DB61E080E896E0B3DB6B
:1010200062E080E896E0AFDB61E08C2FBFDB63E03D
:1010300080E896E0A8DB64E0E4CF8C2FB7DB6FEFAD
:1010400080E896E0A0DB66E080E896E09CDB62E06A
:1010500080E896E098DB61E08C2FA8DB6FEF8DCF06
:101060008C2FA4DB68E080E896E08DDB61E080E80F
:1010700096E089DB62E080E896E085DB61E08C2F1A
:1010800095DB63E080E896E07EDB64E080E896E054
:101090007ADB6FEF6ECF8C2F89DB6FEF80E896E005
:1010A00072DB66E080E896E06EDB62E044CF8C2F76
:1010B0007DDB68E080E896E066DB66E080E896E04D
:1010C00062DB66E080E896E05EDB61E08C2F6EDB41
:1010D00067E080E896E057DB67E093CF8C2F66DB14
:1010E00061E080E896E04FDB6FEF80E896E04BDB55
:1010F00061E080E896E047DB61E08C2F57DB5ECF54
:101100008C2F54DB6FEF80E896E03DDB6EEF80E8DC
:1011100096E039DB6FEF85CF8C2F48DB63E080E80A
:1011200096E031DB6EEF80E896E02DDB6EEF80E835
:1011300096E029DB65E080E896E025DB61E081E070
:101140008C0F34DB62E080E896E01DDB68E015CFB1
:101150008C2F2CDB6FEF80E896E015DB6EEF80E8DC
:1011600096E011DB6EEF80E896E00DDB6FEF80E834
:1011700096E009DB61E08C2F19DB63E080E896E004
:1011800002DB68E080E896E0FEDA62E03ACF2CE825
:10119000AC01249FC001259F900D11244EE0469F75
:1011A0009001479F300D1124820F931F70E060E083
:1011B000A4E6FB01EE0FFF1FE80FF91FE25BFD4FF6
:1011C0004081518157FD33C020919B0630919C0690
:1011D0004217530760F52091A106B4E6222321F0BF
:1011E0002A9F90011124B32FE091A7062091A20617
:1011F0003091A306F091A406EF1320C0FA01EE0F80
:10120000FF1F4E0F5F1F240F351FE091A406E20F52
:10121000F32FF11DB083E091A506E20FF32FF11D2E
:1012200010824091A606240F311DF90110826F5FD4
:101230007F4F6730710509F0BCCF0895440F551FEB
:10124000440F551F240F351FE20FF32FF11D10829D
:10125000DCCF0F931F93CF93DF938C01E9E9F6E086
:101260004481558170E060E081859285C1D7C801D5
:1012700068EE73E05ED590E080E089DFC80164E647
:1012800070E057D5CB01CAE0D0E0BE0152D5BC0119
:1012900081E090E07CDFC801BE014BD58C01CB0121
:1012A000BE0147D5BC0182E090E071DFB80183E068
:1012B00090E06DDF89E996E0DF91CF911F910F916A
:1012C00041CD89D70F931F93CF93DF93EC01888192
:1012D0009981009759F02A813B812617370730F012
:1012E00081E0DF91CF911F910F9108958B016F5F86
:1012F0007F4F95D6009759F0998388831B830A8383
:101300002C813D81232B61F7FC011082E9CF80E025
:10131000E8CF1F920F920FB60F9211240BB60F92C7
:101320002F933F934F935F936F937F938F939F93ED
:10133000AF93BF93EF93FF9381EC95E067D8FF9154
:10134000EF91BF91AF919F918F917F916F915F913D
:101350004F913F912F910F900BBE0F900FBE0F90AA
:101360001F9018951F920F920FB60F9211240BB673
:101370000F922F938F939F93EF93FF93E091D1055B
:10138000F091D2058081E091D705F091D80582FDDA
:101390001DC090818091DA058F5F8F732091DB05EE
:1013A000821741F0E091DA05F0E0EF53FA4F958FA4
:1013B0008093DA05FF91EF919F918F912F910F907C
:1013C0000BBE0F900FBE0F901F9018958081F2CF2B
:1013D0001F920F920FB60F9211242F933F938F936A
:1013E0009F93AF93BF938091720590917305A091E5
:1013F0007405B09175053091570523E0230F2D3703
:1014000058F50196A11DB11D2093570580937205D3
:1014100090937305A0937405B0937505809158055A
:1014200090915905A0915A05B0915B050196A11DB7
:10143000B11D8093580590935905A0935A05B09318
:101440005B05BF91AF919F918F913F912F910F902D
:101450000FBE0F901F90189526E8230F0296A11D2E
:10146000B11DD2CF1F920F920FB60F9211240BB65F
:101470000F922F933F934F935F936F937F938F932D
:101480009F93AF93BF93EF93FF938091B900887FB1
:10149000803609F44CC008F03FC0883209F4A8C077
:1014A00028F5803109F49CC0C8F4882309F4FAC0F7
:1014B000883009F495C0FF91EF91BF91AF919F9152
:1014C0008F917F916F915F914F913F912F910F90ED
:1014D0000BBE0F900FBE0F901F901895883109F426
:1014E00087C0803241F780939A0514C0803409F494
:1014F0009CC040F48033B9F38833E9F680939A05B1
:1015000085ECAFC0803509F484C0883509F495C0F6
:10151000883489F673DACFCF883909F48CC038F56E
:10152000883729F050F4883611F0803721F683E0AF
:1015300080939C051092500557C0883809F47BC0F1
:10154000803919F0803809F0B6CF8091500580328B
:1015500008F071C0E091500581E08E0F8093500536
:101560008091BB00F0E0E05DFA4F80833DC0803B9E
:1015700039F0E0F4803A09F479C0883A09F09BCF59
:1015800084E080939C0510922F0510922E05E09127
:101590005305F0915405199580912E0581110FC0C6
:1015A00081E080932E0510920E0509C0803C09F45D
:1015B000A7CF883C09F4A4CF883B09F07CCFE09109
:1015C0002F0581E08E0F80932F05F0E0E25FFA4F48
:1015D00080818093BB0090912F0580912E0529C0BA
:1015E000809177058093BB0085EC8093BC0063CF2E
:1015F0009091990580919805981758F5E091990573
:1016000081E08E0F80939905F0E0E858FA4F8081D1
:10161000E9CFE091990581E08E0F80939905809143
:10162000BB00F0E0E858FA4F8083909199058091D3
:1016300098059817C8F285E8D8CFE091990581E020
:101640008E0F809399058091BB00F0E0E858FA4F27
:10165000808380919B0581115DCF81E08093760529
:1016600084EA8093BC0010929C0525CF85EC809382
:10167000BC0010929C0580915005803230F4E091BE
:101680005005F0E0E05DFA4F10826091500570E087
:10169000E0915105F091520580E395E01995109283
:1016A000500509CF10929A0535CFCF92DF92EF9275
:1016B000FF920F931F93CF93DF93EC016B018A018D
:1016C000198218861F86188A198A1A8A81E08E87DD
:1016D0008B871C8692E09D8788837B01EE0CFF1C24
:1016E000E60EF71EFD82EC82C70174D39A878987C4
:1016F000009771F1A70170E060E07AD5DB82CA82C1
:101700001F830E838981882341F061E0802F0E942E
:10171000570360E0802F0E942A03F801E254FE4F35
:10172000E491F0E0EE0FFF1FEC55FE4F8591949190
:101730009C8B8B8BF801E25AFE4FE491ED8BDF918D
:10174000CF911F910F91FF90EF90DF90CF90089570
:101750001D821C821B821A82D3CFE1ECF5E013823A
:10176000128288EE93E0A0E0B0E084839583A683A4
:10177000B78328E934E03183208325EC30E03587D6
:10178000248724EC30E03787268720EC30E0318B4B
:10179000208B21EC30E0338B228B22EC30E0358B38
:1017A000248B26EC30E0378B268B118E128E138E15
:1017B000148EEEE5F6E01382128284839583A6836D
:1017C000B7838AEA94E09183808346E150E065E242
:1017D00070E089E996E069DFE0E8F6E013821282C2
:1017E0008CEB94E091838083108A8FEF8787168635
:1017F000118A87E28387148615861286118684E013
:10180000828B82E0838B81E0848B80E1858B80E218
:10181000868B80E4878B80E8808F50E040E063E037
:10182000CF010E94AD0347E150E063E070E08AE63B
:1018300096E03BCFCF93DF93CDB7DEB76A970FB675
:10184000F894DEBF0FBECDBF789484B5826084BDAE
:1018500084B5816084BD85B5826085BD85B58160B4
:1018600085BD80916E00816080936E001092810032
:1018700080918100826080938100809181008160ED
:1018800080938100809180008160809380008091AE
:10189000B10084608093B1008091B000816080933A
:1018A000B0008091910082608093910080919100BE
:1018B000816080939100809190008160809390007E
:1018C0008091A10082608093A1008091A10081603D
:1018D0008093A1008091A00081608093A0008091FE
:1018E0002101826080932101809121018160809398
:1018F00021018091200181608093200180917A00F4
:10190000846080937A0080917A00826080937A006C
:1019100080917A00816080937A0080917A0080685B
:1019200080937A001092C100E091D105F091D20528
:1019300082E08083E091CD05F091CE051082E091A8
:10194000CF05F091D0058FEC80831092D905E091FE
:10195000D505F091D60586E08083E091D305F0911E
:10196000D405808180618083E091D305F091D40516
:10197000808188608083E091D305F091D4058081D7
:1019800080688083E091D305F091D40580818F7DBC
:10199000808389E996E098DA40919D0650919E06F1
:1019A00070E060E08091A2069091A30621D489E9BD
:1019B00096E0C8D98AE696E087DA40916E065091A3
:1019C0006F0670E060E0809173069091740610D409
:1019D0008AE696E0B7D920E042E060E180E896E050
:1019E0004AD968E372E088E00E941B0460E372E079
:1019F00081E00E941B0468E272E082E00E941B0406
:101A000060E272E083E00E941B0468E172E084E01F
:101A10000E941B0460E172E085E00E941B0468E004
:101A200072E086E00E941B0460E072E087E00E94A2
:101A30001B0470E060E087E758DA64E070E08BE652
:101A400054DA68E070E08FE650DA6BE070E080E72F
:101A50004CDA6EE070E081E748DA8E010F5F1F4FCD
:101A600038EE432E33E0532E612C712C2EE734E0F8
:101A70003A8F298F2CE5222E25E0322EB12CA12C75
:101A8000E98DFA8D21913191FA8FE98F3327F90190
:101A9000E85EFE4F8491F901E25AFE4FE490F901AD
:101AA000E254FE4FF490FF2009F4C0C081110E945F
:101AB000C302EF2DF0E0EE0FFF1FE250FF4FA591A4
:101AC000B491EC91EE2291E080E009F090E0E92EF3
:101AD000F82EF101819191911F018E159F0509F456
:101AE0007BC0E114F10409F073C01C8A1B8A1E8AB2
:101AF0001D8A188E1F8A4AE0B801C501E7D0F80197
:101B000001900020E9F731976F01C01AD10AB601A0
:101B1000CE014396D7DB2B893C8981118BC02115DF
:101B2000310511F0C901F2D11C8A1B8A188E1F8A57
:101B30001E8A1D8A1A8219821C821B821E821D82A5
:101B40006EE170E0C801BEDB29813A81811178C065
:101B50002115310511F0C901D9D11A8219821E82CD
:101B60001D821C821B828B889C888114910409F43D
:101B700070C0CF88D88CC114D104A1F08D819E8112
:101B8000C80ED91EB601C8019DDB882309F461C0C7
:101B900029813A818D819E81B401820F931F2FD3B9
:101BA000DE82CD824D815E8169817A8181EC95E012
:101BB0000E94930142E050E06BEE74E081EC95E00E
:101BC0000E94930189819A81A1D18B899C899ED1A0
:101BD000F1013297F182E082FFEFAF1ABF0A2BE0EA
:101BE000A216B10409F04CCF2FB7F894809172057A
:101BF00090917305A0917405B09175052FBF20EEEB
:101C000033E944E050E0281B390B4A0B5B0BCA0157
:101C1000B901A3019201A0D06901C90137FF25C014
:101C200090E080E016DB0E94930220CFEE24E39444
:101C3000F12C4FCFD88ECF8AB801C901E0D27ACF2C
:101C40008EE190E09E838D836CEC74E0C901D7D265
:101C50008ACF89819A81009709F058D11A82198216
:101C60001E821D821C821B829DCF6CE370E061D0BE
:101C700044EC46039001479F300D11242C0D3D1D6F
:101C800054E6569FC001579F900D1124820F931F59
:101C9000C9CF809173069091740638D180917006F7
:101CA0009091710697FD03C060E00E9457038091F8
:101CB000A2069091A3062AD180919F069091A0063A
:101CC00097FD03C060E00C9457030895BB274A308A
:101CD00031F4992322F4BDE2909581959F4F01C084
:101CE000BB27FB015527AA27880F991FAA1FA417F6
:101CF00010F0A41B83955051B9F7A05DAA3308F0EA
:101D0000A95DA193009779F7B111B1931192CB011D
:101D100000C0DC01FC01672F71917723E1F7329756
:101D200004C07C916D9370836291AE17BF07C8F3B6
:101D3000089597FB072E16F4009406D077FD08D07F
:101D400035D007FC05D03EF4909581959F4F0895BE
:101D5000709561957F4F0895A1E21A2EAA1BBB1BB7
:101D6000FD010DC0AA1FBB1FEE1FFF1FA217B30767
:101D7000E407F50720F0A21BB30BE40BF50B661F7D
:101D8000771F881F991F1A9469F760957095809541
:101D900090959B01AC01BD01CF010895EE0FFF1F8F
:101DA000881F8BBF0790F691E02D1994AA1BBB1BCF
:101DB00051E107C0AA1FBB1FA617B70710F0A61B4B
:101DC000B70B881F991F5A95A9F780959095BC016C
:101DD000CD0108950F931F93CF93DF938230910528
:101DE00010F482E090E0E091B106F091B20630E0AC
:101DF00020E0B0E0A0E0309799F42115310509F416
:101E00004AC0281B390B24303105D8F58A819B81C3
:101E10006115710589F1FB0193838283FE0111C075
:101E2000408151810281138148175907E0F048171A
:101E3000590799F4109761F012960C931297139624
:101E40001C933296CF01DF91CF911F910F9108958E
:101E50000093B1061093B206F4CF2115310551F06D
:101E60004217530738F0A901DB019A01BD01DF01D8
:101E7000F801C1CFEF01F9CF9093B2068093B1067C
:101E8000CDCFFE01E20FF31F8193919322503109D0
:101E900039832883D7CF2091AF063091B006232B0A
:101EA00041F420914202309143023093B0062093D6
:101EB000AF0620914002309141022115310541F4D5
:101EC0002DB73EB74091440250914502241B350B7B
:101ED000E091AF06F091B006E217F307A0F42E1BD5
:101EE0003F0B2817390778F0AC014E5F5F4F24177E
:101EF000350748F04E0F5F1F5093B0064093AF0672
:101F0000819391939FCFF0E0E0E09CCFCF93DF935C
:101F10000097E9F0FC01329713821282A091B1067A
:101F2000B091B206ED0130E020E01097A1F42081DD
:101F30003181820F931F2091AF063091B006281790
:101F4000390709F061C0F093B006E093AF06DF9166
:101F5000CF910895EA01CE17DF07E8F54A815B814A
:101F60009E0141155105B1F7E901FB83EA834991CF
:101F70005991C40FD51FEC17FD0761F48081918141
:101F80000296840F951FE90199838883828193814A
:101F90009B838A83F0E0E0E012968D919C911397E9
:101FA0000097B9F52D913C911197CD010296820FC2
:101FB000931F2091AF063091B0062817390739F6E4
:101FC000309751F51092B2061092B106B093B00658
:101FD000A093AF06BCCFD383C28340815181840FCD
:101FE000951FC817D90761F44E5F5F4F88819981AB
:101FF000480F591F518340838A819B819383828339
:102000002115310509F0B0CFF093B206E093B10687
:102010009ECFFD01DC01C0CF13821282D7CF4F9239
:102020005F926F927F928F929F92AF92BF92CF9268
:10203000DF92EF92FF920F931F93CF93DF938C0168
:10204000009791F4CB01DF91CF911F910F91FF90F9
:10205000EF90DF90CF90BF90AF909F908F907F9048
:102060006F905F904F90B6CEFC01E60FF71F9C017A
:1020700022503109E217F30708F4AAC0D901CD9123
:10208000DC911197C617D70718F1C530D10570F04C
:10209000CE0104978617970748F0C61BD70B2297E7
:1020A000C193D1936D937C93CF0130DFC801DF9151
:1020B000CF911F910F91FF90EF90DF90CF90BF9045
:1020C000AF909F908F907F906F905F904F9008950A
:1020D0005B01AC1ABD0A4C018C0E9D1EA091B1068D
:1020E000B091B206512C412CF12CE12C109731F516
:1020F0008091AF069091B0068815990509F05CC0F3
:102100004616570608F058C080914002909141024F
:10211000009741F48DB79EB740914402509145021B
:10212000841B950BE817F90708F052C0F093B0062E
:10213000E093AF06F90171836083B8CF8D919C91D4
:10214000119712966C90129713967C901397A8157E
:10215000B90559F56C0142E0C40ED11CCA14DB0468
:1021600020F1AC014A195B09DA011296159780F04B
:102170006282738251834083D9016D937C93E11411
:10218000F10471F0D7011396FC93EE9312978ECF62
:1021900022968C0F9D1FF90191838083F301EFCF6D
:1021A000F093B206E093B10681CF4816590608F4C1
:1021B0002C017D01D3019ACFCB010CDE7C0100976D
:1021C00039F0AE01B8010BD0C801A0DE87016ECF97
:1021D00010E000E06BCF81E090E0F89417C0FB01C5
:1021E000DC0102C001900D9241505040D8F7089593
:1021F000DC0101C06D9341505040E0F70895FB01B0
:10220000DC0101900D920020E1F7089511E0C3E098
:10221000D1E000E005C0802FFE01C0DD2196011D48
:0E222000C430D10780E00807B1F7F894FFCF73
:10222E001F000000001F1F1F1F1F1F0000001F1F89
:10223E001F1F1F1F1F1F1E1C00000000001F1F1F3F
:10224E001F1F1F1F1F1F0F071C1E1F1F1F1F1F1FBC
:10225E001F1F1F0000000000070F1F1F1F1F1F1F43
:10226E000000B306800000401454004010500600D9
:10227E0007000800160017002400FFFF08001700D3
:10228E00FFFFFFFFFFFFFFFFFFFF06000800150027
:10229E0016002400FFFFFFFF0600080015001700C0
:1022AE002400FFFFFFFFFFFF070008001500FFFFE0
:1022BE001700FFFF06000700FFFF1500FFFF1700C6
:1022CE00240006000700FFFF15001600170024006B
:1022DE000600FFFF0800FFFFFFFF1700FFFF0600CD
:1022EE00070008001500160017002400060007005E
:1022FE0008001500FFFF17002400040009000A0063
:10230E00180019002200FFFF0A001900FFFFFFFF4F
:10231E00FFFFFFFFFFFF04000A001300180022005A
:10232E00FFFFFFFF04000A00130019002200FFFF49
:10233E00FFFFFFFF09000A001300FFFF1900FFFF58
:10234E0004000900FFFF1300FFFF19002200040024
:10235E000900FFFF13001800190022000400FFFF00
:10236E000A00FFFFFFFF1900FFFF040009000A002B
:10237E001300180019002200040009000A001300BF
:10238E00FFFF1900220002000B000C001A001B00B8
:10239E002000FFFF0C001B00FFFFFFFFFFFFFFFFF2
:1023AE00FFFF02000C0011001A002000FFFFFFFFCC
:1023BE0002000C0011001B002000FFFFFFFFFFFFBB
:1023CE000B000C001100FFFF1B00FFFF02000B00B3
:1023DE00FFFF1100FFFF1B00200002000B00FFFF9C
:1023EE0011001A001B0020000200FFFF0C00FFFF6F
:1023FE00FFFF1B00FFFF02000B000C0011001A0074
:10240E001B00200002000B000C001100FFFF1B0040
:10241E00200000000D000E001C001D001E00FFFF1E
:10242E000E001D00FFFFFFFFFFFFFFFFFFFF00007D
:10243E000E000F001C001E00FFFFFFFF00000E002D
:10244E000F001D001E00FFFFFFFFFFFF0D000E001F
:10245E000F00FFFF1D00FFFF00000D00FFFF0F002C
:10246E00FFFF1D001E0000000D00FFFF0F001C00EF
:10247E001D001E000000FFFF0E00FFFFFFFF1D00EE
:10248E00FFFF00000D000E000F001C001D001E00BF
:10249E0000000D000E000F00FFFF1D001E000C00BF
:1024AE000B000A00090008000700060005000400E2
:1024BE0003000D000000000028029301C001740209
:1024CE00F101CF01E30100000000850559059F06CB
:1024DE002F0552053F05300500000000C303930190
:1024EE009F06FD043B06AD0323060606506173737B
:1024FE00776F726420427574746F6E20646F776E9E
:0E250E002C206E756D6265723A20000D0A0079
:00000001FF
