:100000008EC20000BDC20000BBC20000B9C2000029
:10001000B7C20000B5C20000B3C20000B1C2000008
:10002000AFC20000ADC20000ABC20000A9C2000018
:10003000A7C200000C949318A3C20000A1C2000044
:100040009FC200009DC200009BC2000099C2000038
:1000500097C2000095C2000093C200000C9453198F
:100060008FC200000C941D190C94F31889C2000073
:1000700087C2000085C2000083C2000081C2000068
:100080007FC200007DC200007BC2000079C2000078
:1000900077C2000075C2000073C200000C949D1965
:1000A0006FC200006DC200006BC2000069C2000098
:1000B00067C2000065C2000063C2000061C20000A8
:1000C0005FC200005DC200005BC2000059C20000B8
:1000D00057C2000055C2000053C2000051C20000C8
:1000E0004FC2000000002100240027002A002D003C
:1000F0003000330001010000040107010A01000083
:1001000020002300260029002C002F0032000001CF
:10011000000003010601090100000A0B02090C0D91
:100120000E080703040100000000000000000000AA
:1001300000000000000000000000000000000000BF
:10014000000000001211100000000000000000007C
:10015000000000000000000000000000000002108D
:10016000008E2F11000C0007002100280006002837
:1001700000050027007F052900A18900000100FF7C
:10018000FF64002900B080FFFF1E002900FEFF076A
:10019000002302FFFF1E000700330201008321033A
:1001A0000030682F00FFFF2C000080270070050240
:1001B0000000030B000C5812000906130000311157
:1001C000007F78B103053C3CB203053C3CB3060517
:1001D0003C3C053C3CB40103C003280804C101C0F9
:1001E000C2020D00C3028D2AC4028DEEC5011A178A
:1001F0000105360100E0100322070A2E30252A28C7
:10020000262E3A00010313E1100416060D2D2623B5
:100210002727252D3B000104133A01052900010081
:100220007F9628003A0155C0020D0DC1024300C25D
:100230000100C50400480048B40100B60302023BB7
:10024000E00F0F241C0A0F084388320F10060F0717
:1002500000E10F0F3830090F0F4E773C07100523D0
:100260001B0011007F9629002E018929018F2B0187
:1002700002E20100E40101E50110E60101E70110DD
:10028000E80170F20100EA0100EB0120EC013CED15
:1002900001C8E90138F101011B011A1A0101240109
:1002A0006125015C2301881801361901011F0188AD
:1002B0007F051F01807F051F01907F051F01D47FEF
:1002C000051701053601002801387F2828013C0266
:1002D00001000301000401000501EF060100070110
:1002E0000008010109013F0100B903FF83577FFAAC
:1002F000B30400000606B60125B00168CC0105B1C3
:100300000600151C1C83AAC0065050013C1E08B4F0
:10031000070240002A2A0D783A01553601C03501FE
:10032000004402000211007F9629007F3201007F05
:10033000322800F603010100CF03008130ED046490
:10034000031281E803851078CB05392C003402F7BD
:100350000120EA020000B00100B40100C00121C187
:100360000111C5023F3CC701B53601883A0155B1BC
:1003700002001B360148F20100260101E00F0F26A2
:10038000240B0E0954A8460C17090F0700E10F00B3
:10039000191B0410072A473903060630380FB70126
:1003A0000711007F96290000000100FFFF320001C5
:1003B00000000102000007030030100400000008E4
:1003C000000202090000000A0000000C0000000DFD
:1003D0000000000F000000100000001100070012D4
:1003E00000000013000000FFFFC80010009016116D
:1003F000002702FFFF320012001A00FFFF32001335
:1004000000001829002A00FFFF32003000000031F0
:1004100000000032000000350006023600080837F0
:1004200000070038000102390000003C0000003DD8
:1004300000000020000000210000005000000051DA
:1004400000EF005200000053003F01600000A76170
:100450000003006A0000009000100092000000936A
:1004600000030095000011970000009800000007AD
:100470000033010102102020080810204010204005
:100480008002010201080402010102040810204058
:100490008080402010080402018004020180402076
:1004A000100804020108040201010204081020409F
:1004B000800102040810204080000022002500284E
:1004C000002B002E0031003400020100000501085D
:1004D000010B0105050505070508080808020202C9
:1004E000020A0A08080404040401010101010101CF
:1004F000010303030303030303040707070C0C0CA6
:100500000C0C0C0C0C02020202060606060606067D
:10051000060B0B0B0B0B0B0B0B001B1B0C291124DD
:100520001FBECFEFD1E2DEBFCDBF00E00CBF13E1B5
:10053000A0E0B2E0E6EDF9E500E00BBF02C00790F5
:100540000D92A43DB107D9F727E1A4EDB3E101C0B5
:100550001D92A834B207E1F712E0CEE8D2E000E045
:1005600006C021970109802FFE010E94682ACD381C
:10057000D10780E00807A9F70E940A1D0C94DA2C25
:100580003FCD20911D152223C1F0880F991FFC013A
:10059000ED5EFA4E80819181680F791F653071059B
:1005A0001CF011821082089577FD03C0718360836F
:1005B000089584E090E0918380830895209112153E
:1005C00081E0213208F044C08091EE148111FCCF0B
:1005D0008091111592E09093EE1491E09093ED14B8
:1005E0009FEF9093EC141092EB142093EA14A1EF78
:1005F000B4E1EAECF4E190E0291331C01092C9149F
:100600009091C914880F892B8093C9148091C814C4
:10061000813049F51092C8148091C9148093BB00B1
:100620008091BC0083FDF8CF85EC8093BC00809165
:10063000EE148230E1F38091EC148F3FB1F08091A1
:10064000EC148032A1F08091EC14803391F084E0BE
:100650001092F014109212151092EF1408953D911B
:1006600031939F5FC9CF85EEE0CF80E0F1CF82E08C
:10067000EFCF83E0EDCFFC01828993890895FC01DF
:10068000848995890895AF92BF92CF92DF92EF92BD
:10069000FF920F931F93CF93DF936C017B018B012C
:1006A000040F151FEB015E01AE18BF08C017D1077C
:1006B00059F06991D601ED91FC910190F081E02D06
:1006C000C6011995892B79F7C501DF91CF911F914B
:1006D0000F91FF90EF90DF90CF90BF90AF90089573
:1006E000FC01538D448D252F30E0842F90E0821B38
:1006F000930B541710F0CF96089501970895FC01BD
:10070000918D828D981761F0A28DAE0FBF2FB11D14
:100710005D968C91928D9F5F9F73928F90E008956C
:100720008FEF9FEF0895FC01918D828D981731F026
:10073000828DE80FF11D858D90E008958FEF9FEF7A
:100740000895FC01918D228D892F90E0805C9F4F50
:10075000821B91098F73992708958EE195E1F1DF4E
:1007600021E0892B09F420E0822F0895FC01A48D5B
:10077000A80FB92FB11DA35ABF4F2C91848D90E0C3
:1007800001968F739927848FA689B7892C93A089A6
:10079000B1898C91837080648C93938D848D981330
:1007A00006C00288F389E02D80818F7D80830895C3
:1007B000EF92FF920F931F93CF93DF93EC0181E0B1
:1007C000888F9B8D8C8D98131AC0E889F989808158
:1007D00085FF15C09FB7F894EE89FF896083E8898B
:1007E000F98980818370806480839FBF81E090E07D
:1007F000DF91CF911F910F91FF90EF900895F62E0A
:100800000B8D10E00F5F1F4F0F731127E02E8C8DA3
:100810008E110BC00FB607FCFACFE889F9898081E9
:1008200085FFF5CFCE01A2DFF2CFEB8DEC0FFD2FD0
:10083000F11DE35AFF4FF0829FB7F8940B8FEA89BE
:10084000FB8980818062D0CFCF93DF93EC01888DCC
:100850008823B1F0AA89BB89E889F9898C9185FD43
:1008600003C0808186FD0CC00FB607FCF7CF8C91CA
:1008700085FFF2CF808185FFEDCFCE0177DFEACF14
:10088000DF91CF91089580E090E0892B21F065DF22
:1008900081110E94000080E090E0892B49F080E007
:1008A00090E0892B29F00E94000081110E94000035
:1008B00080E090E0892B49F080E090E0892B29F0DE
:1008C0000E94000081110E94000080E090E0892BCE
:1008D00049F080E090E0892B29F00E94000081110E
:1008E0000C94000008958150823108F05AC0E82F1E
:1008F000F0E08827E158FB4F8F4F0C94682A9F0443
:10090000A304910497049B04D104A604AC04B0048E
:10091000B604BA04BE04C404C804D104CC04D2048E
:10092000D604809180008F77809380000895809115
:1009300080008F7DF9CF80918000877FF5CF84B5CF
:100940008F7784BD089584B58F7DFBCF8091B000F3
:100950008F778093B00008958091B0008F7DF9CF9C
:10096000809190008F7780939000089580919000FF
:100970008F7DF9CF80919000877FF5CF8091A00087
:100980008F778093A00008958091A0008F7DF9CF8C
:100990008091A000877FF5CF809120018F77809391
:1009A00020010895809120018F7DF9CF8091200151
:1009B000877FF5CFCF93DF93282F30E0F901E85EF2
:1009C000FE4F8491F901ED58FB4FD491F901ED529E
:1009D000FB4FC491CC2399F0811185DFEC2FF0E01F
:1009E000EE0FFF1FE250FF4FA591B491EC91ED2364
:1009F00081E090E009F480E0DF91CF91089580E0FC
:100A000090E0FACF1F93CF93DF93282F30E0F901C6
:100A1000E85EFE4F8491F901ED58FB4FD491F90146
:100A2000ED52FB4FC491CC23A1F0162F81115BDF57
:100A3000EC2FF0E0EE0FFF1FE754FB4FA591B491B0
:100A40008FB7F894EC91111108C0D095DE23DC9398
:100A50008FBFDF91CF911F910895DE2BF8CF90913A
:100A6000000289130DC0EEE5F1E0E4919FEF909351
:100A70000002E230D9F030F4EE2379F0E13081F079
:100A800060E0C0CFE43049F110F1E530C9F7909152
:100A900073009D7F90937300F3CF10926E00F0CFA0
:100AA00090916F009D7F90936F00EACF90917000BE
:100AB0009D7F9093700091E09093B0009091B10071
:100AC000987F94609093B1001092B300D9CF909129
:100AD00071009D7F90937100D3CF909172009D7FA4
:100AE00090937200CDCFCF93DF9390E0FC01ED584F
:100AF000FB4F24918D529B4FFC0184918823C9F0B8
:100B000090E0880F991FFC01EC51FF4FA591B49123
:100B1000FC01E754FB4FC591D49161110DC09FB703
:100B2000F8948C91209582238C93888128232883A4
:100B30009FBFDF91CF910895623051F49FB7F89431
:100B40003C91822F809583238C93E8812E2BEFCFCD
:100B50008FB7F894EC912E2B2C938FBFEACF4F9246
:100B60005F926F927F928F929F92AF92BF92CF923D
:100B7000DF92EF92FF920F931F93CF93DF9300D0FA
:100B80001F921F92CDB7DEB78B0129833A834B8327
:100B90005C83909100028917C9F09F3F09F4B0C0AF
:100BA0000F900F900F900F900F90DF91CF911F91AA
:100BB0000F91FF90EF90DF90CF90BF90AF909F90FC
:100BC0008F907F906F905F904F900895EEE5F1E0E9
:100BD00024912D8327FDE4CF61E085DF2D8148013D
:100BE000B12CA12C222301F1F12CE12C8D8182303A
:100BF00009F071C14801570160E970ED83E090E0B0
:100C0000A70198010E94F82969017A0191E0C91AA7
:100C1000D108E108F10883E02FEFC216D104E10406
:100C2000F10409F00CF465C060E072E18AE790E03D
:100C3000A50194010E94F82929013A0168E478EE9F
:100C400081E090E0A50194010E94F82969017A01F0
:100C500081E0C81AD108E108F1089D81992309F4BF
:100C6000F6C1923009F0F1C184E02FEFC216D10431
:100C7000E104F104F1F1ECF164E274EF80E090E062
:100C8000A50194010E94F82969017A0181E0C81A3E
:100C9000D108E108F10885E02FEFC216D104E10484
:100CA000F10439F130F162E17AE780E090E0A501EA
:100CB00094010E94F82969017A0181E0C81AD108DB
:100CC000E108F10886E09FEFC916D104E104F104C0
:100CD00081F07CF0730162019AE0F594E794D79477
:100CE000C7949A95D1F721E0C21AD108E108F1081A
:100CF00087E09091B100987F892B8093B100CBC1A0
:100D000080930002EEE5F1E094919D839F3F09F40A
:100D100047CF923009F473C050F4992391F1913088
:100D200009F44BC097FD3CCF61E0DDDE5DCF2D8146
:100D3000243009F4AEC008F488C0253099F7109229
:100D4000200110922101909121019860909321013E
:100D500090912101916090932101282F30E0F901B9
:100D6000ED52FB4FE491F0E0EE0FFF1FE754FB4F15
:100D700045915491F901ED58FB4FE491E0934214F1
:100D80002BCF14BC15BC94B5926094BD95B5916001
:100D900095BD282F30E0F901ED52FB4FE491F0E0D2
:100DA000EE0FFF1FE754FB4F45915491F901ED58A9
:100DB000FB4FE491E09346140FCF10928000109205
:100DC00081009091810098609093810090918100C2
:100DD000916090938100282F30E0F901ED52FB4F94
:100DE000E491F0E0EE0FFF1FE754FB4F4591549163
:100DF000F901ED58FB4FE491E0934514EDCE1092CC
:100E0000B0001092B1009091B00092609093B00049
:100E10009091B10091609093B100282F30E0F901DA
:100E2000ED52FB4FE491F0E0EE0FFF1FE754FB4F54
:100E30004591549150935C1440935B14F901ED5823
:100E4000FB4FE491E0935D14C7CE10929000109296
:100E500091009091910098609093910090919100F1
:100E6000916090939100282F30E0F901ED52FB4FF3
:100E7000E491F0E0EE0FFF1FE754FB4F45915491D2
:100E8000F901ED58FB4FE491E093441493E09D8306
:100E9000A3CE1092A0001092A1009091A1009860A2
:100EA0009093A1009091A10091609093A100282FB0
:100EB00030E0F901ED52FB4FE491F0E0EE0FFF1F3F
:100EC000E754FB4F45915491F901ED58FB4FE491E4
:100ED000E093431481CE60E072E18AE790E0A701DD
:100EE00098010E94F829DA01C9010197A109B10905
:100EF000009721E0A207B10564F46C0191E02D8117
:100F00002130C1F480918100887F892B80938100FA
:100F1000C2C068E478EE81E090E0A70198010E94E9
:100F2000F82969017A0181E0C81AD108E108F108BD
:100F300093E0E5CF8D81833039F480919100887FF3
:100F4000892B80939100A7C02D81243039F48091A2
:100F5000A100887F892B8093A1009DC08D81853061
:100F600009F099C080912101887F892B809321010C
:100F700092C0C7BC2093571430935814409359140F
:100F800050935A1480916E00826080936E0008CE58
:100F9000C092B30020935E1430935F1440936014AA
:100FA0005093611480917000826080937000F8CD3E
:100FB000D0929900C092980020934F14309350140F
:100FC0004093511450935214809171008260809329
:100FD0007100E6CDD092A900C092A80020934B14D6
:100FE00030934C1440934D1450934E1480917200E2
:100FF000826080937200D4CD730162012AE0F5947F
:10100000E794D794C7942A95D1F791E0C91AD108EB
:10101000E108F10895E03BC09D819430D9F244F29B
:10102000953009F0BDCDD0922901C09228012093BE
:101030004714309348144093491450934A148091B4
:101040007300826080937300ABCD84E025CE93E083
:101050008FEFC816D104E104F104C9F0C4F062E1D5
:101060007AE780E090E0A50194010E94F8296901E7
:101070007A0191E0C91AD108E108F1082FEFC216F0
:10108000D104E104F10411F00CF0B6CF94E085B581
:10109000887F892B85BDD801AA0FBB1F29813A8182
:1010A0004B815C810E94142A28EE33E040E050E03E
:1010B0000E94242A8D81823009F46ACF0CF0ACCFD3
:1010C000882309F456CF813009F06ACDD092890087
:1010D000C0928800209353143093541440935514B5
:1010E0005093561480916F00826080936F0058CDAA
:1010F0003FB7F89480913E1490913F14A091401412
:10110000B091411426B5A89B05C02F3F19F0019658
:10111000A11DB11D3FBFBA2FA92F982F8827BC0151
:10112000CD01620F711D811D911D42E0660F771F79
:10113000881F991F4A95D1F708958F929F92AF9279
:10114000BF92CF92DF92EF92FF926B017C01D0DFD2
:101150004B015C01C114D104E104F104B1F0C8DF1A
:10116000681979098A099B09683E734081059105D0
:1011700088F321E0C21AD108E108F10888EE880E50
:1011800083E0981EA11CB11CE5CFFF90EF90DF908B
:10119000CF90BF90AF909F908F90089521E001C0B5
:1011A000220F6A95EAF7DC011C962C931C971A967D
:1011B0005C934E931997ED91FC910484F585E02D95
:1011C00060E0199408950895DC01ED91FC91068486
:1011D000F785E02D41E0199581E090E00895DC016C
:1011E000ED91FC910684F785E02D40E019940F9372
:1011F0001F93CF93DF93EC01423018F08C8188600D
:101200008C834F836887222329F0413019F48C8125
:1012100084608C8364E670E080E090E08EDF6C8117
:1012200064FD58C0E881F9810684F785E02D42E02D
:1012300063E0CE0119958BE496E40197F1F7E8811C
:10124000F9810684F785E02D42E063E0CE0119952F
:1012500003E512E0C8010197F1F7E881F9810684FE
:10126000F785E02D42E063E0CE011995C8010197B2
:10127000F1F7E881F9810684F785E02D42E062E02C
:10128000CE011995C8010197F1F76C816062CE011A
:10129000A6DF8BEE90E00197F1F784E08D836CE0A0
:1012A000CE019DDF61E0CE019ADF8BE39FE10197E4
:1012B000F1F782E08E8366E0CE0191DFE881F9816B
:1012C0000484F585E02D6FEFCE01DF91CF911F9162
:1012D0000F9119946062CE0182DF8BE496E401974E
:1012E000F1F76C816062CE017ADF03E512E0C8019C
:1012F0000197F1F76C816062CE0171DFC3CF089571
:101300000895089585ED8093BC008091BC0084FD14
:10131000FCCF1092EE14089520911414260F332759
:10132000331F21323105ECF42091EE14FC0190E0E2
:1013300080E0243069F082E00895A0911414219196
:10134000AC014C505C4EA40FB52FB11D2C930196EF
:10135000861798F380911414680F6093141480E03A
:10136000089581E008950895E0913C1480913B1424
:10137000E81730F4F0E0EC52FC4E808190E00895E4
:101380008FEF9FEF089590913C1480913B142FEFC5
:101390003FEF981748F4E92FF0E0EC52FC4E208123
:1013A00030E09F5F90933C14C901089580913B14F5
:1013B00090913C14891B990B0895CF92DF92EF9284
:1013C000FF920F931F93CF93DF937C01CB018A0190
:1013D0002091EF14222389F0EB016B01C40ED51E7E
:1013E000CC15DD0561F06991D701ED91FC9101907B
:1013F000F081E02DC7011995F3CF642F8DDFC8016F
:10140000DF91CF911F910F91FF90EF90DF90CF90E0
:101410000895CF93DF931F92CDB7DEB769832091F4
:10142000EF142223F9F020911215203258F021E018
:1014300030E0FC013383228390E080E00F90DF9165
:10144000CF9108958091F014E82FF0E0EF50FB4E1B
:10145000998190838F5F8093F0148093121581E0BF
:1014600090E0ECCF61E0CE01019656DFF8CFFC01B1
:1014700023812223D1F08181682B6083828191E0D6
:101480009093EF14809311151092F014109212158E
:101490008BEB95E1BEDF92D8282F30E081E090E021
:1014A000232B11F090E080E0089530E020E0F6CFAB
:1014B000EF92FF920F931F93CF938C01FC0184E076
:1014C000C0E0262F30E060FF02C09589C92BB9012A
:1014D00075956795815031968111F3CF413011F4A4
:1014E000F8014489F8016585C62BC42B7801FEE01C
:1014F000EF0EF11CF80162896C2BC701B8DFF8010F
:10150000628960956C23C701CF911F910F91FF9065
:10151000EF90ADCF0F931F93CF93DF93062F0F70F4
:10152000423039F440E0602FDF91CF911F910F914D
:10153000BFCF142FEC0170E084E0759567958A9514
:10154000E1F7CE01B5DF412F602FCE01EDCFFC01D9
:101550008485882399F0218532852115310521F470
:10156000611107C0158606C021303105D9F7611118
:10157000F9CF85876585CF010E9679CF0895EF92D3
:10158000FF920F931F93CF93DF93EC01062FF42E5E
:10159000E22E8B85888B10923C1410923B14109293
:1015A000F014109212151092EE1411E01093ED1435
:1015B0001092C81461E084E125DA61E085E122DA65
:1015C0008091B9008E7F8093B9008091B9008D7FA2
:1015D0008093B90088E48093B80085E48093BC00D0
:1015E00082EE98E090933A148093391483EE98E059
:1015F000909338148093371488891093EF14809354
:1016000011151092F014109212150E94DE02811131
:1016100019C0198B8BEB95E1B6DE8E8789898823FB
:1016200031F01F861C8260E0CE010E9620DF2E2D49
:101630004F2D602FCE01DF91CF911F910F91FF9021
:10164000EF90D5CD198AEACF90E080E0089538E098
:10165000439FC0011124807E97702695269526957C
:10166000822B70E0762F66276627787F862B972B54
:101670000895CF93DF93FC01848D882351F01EBC25
:1016800000000DB407FEFDCF2EB5822FDF91CF9164
:10169000089588E0EF01CE5BDF4FA7A9B0AD9C9124
:1016A000388193239C93A7A9B0AD9C9135AD932B22
:1016B0009C93220FA3A9B4A99C9133AD932309F065
:1016C0002160815051F7E1CF0F931F93CF93DF93A8
:1016D000FC01848D882359F06EBD00000DB407FE17
:1016E000FDCF8EB5DF91CF911F910F91089588E0C6
:1016F00090E020E8AF014F5B5F4F8F010E5B1F4F03
:10170000A5A9B6A9362F3223A9F03C9174AD372B89
:101710003C93A7A9B0AD3C91E801788137233C9375
:10172000A7A9B0AD3C9175AD372B3C932695019799
:1017300039F7D8CF3C91EA0178813723E9CFFF927E
:101740000F931F93CF93DF93F82E162F072FC4EE1E
:10175000D6E1EFA5F8A980812EAD82238083E9A987
:10176000FAA980812FAD82238083692FCE01ACDF5F
:101770006F2DCE01A9DFE9A9FAA980819AAD892B45
:101780008083602FCE01A0DF612FCE019DDFEFA50A
:10179000F8A9808199AD892B8083DF91CF911F912A
:1017A0000F91FF9008950F931F93CF93DF93EC0158
:1017B0008B01FE0185919491FE01329624966591EC
:1017C00074918F3F980769F490E080E0B6DC045094
:1017D0001109101611066CF3DF91CF911F910F9133
:1017E0000895ADDFF4CFE0911317F09114178081C5
:1017F00090911D17892B808380912C1787FD0BC03A
:1018000060E000D962E070E080E090E096DC61E0AA
:1018100080912C17F7D8E0911317F091141780815D
:101820009091221789238083E0911517F091161764
:101830008081909123178923808360E084EE96E174
:1018400043DFE0911317F0911417808190911D17D9
:10185000892B80830895CF93DF93D82FC62FE091F3
:101860001317F09114178081909122178923808398
:10187000E0911517F0911617808190912317892315
:10188000808360E084EE96E11FDF6D2F84EE96E1A9
:101890001BDF61E070E080E090E04FDC84EE96E1D9
:1018A000E8DED82F84EE96E1E4DEC13069F0E09105
:1018B0001317F0911417908120911D17922B90838C
:1018C0009D2FDF91CF910895C0E0E8CF4F925F92B6
:1018D0006F927F928F929F92AF92BF92CF92DF9240
:1018E000EF92FF920F931F93CF93DF93EC015A0176
:1018F000270137FF05C0620F731F3195219531090C
:101900007B01E20EF31E6B0177FF02C0D12CC12CCC
:10191000E881F9810684F785E02DCE0119958E15B1
:101920009F0544F4E881F9810684F785E02DCE0116
:1019300019957C0147018C189D0817FF05C0A00E62
:10194000B11E1195019511090A0D1B1DB7FE02C0AC
:10195000B12CA12CE881F9810484F585E02DCE011C
:1019600019958017910744F4E881F9810484F5857D
:10197000E02DCE0119958C0138016A187B080150C1
:101980001109970121503109E881F9810680F78119
:10199000E02DA501B601CE011995EFA5F8A980812A
:1019A0009EAD89238083888D998D892B49F4E9A97F
:1019B000FAA980819FAD8923808360E0CE0184DE17
:1019C000E9A9FAA980819FAD8923808369A1CE010D
:1019D0007BDE861497042CF0962D872D3401892EFA
:1019E000982E18141904A4F48301E9A9FAA9808196
:1019F0009AAD892B8083652DCE0166DE642DCE01E4
:101A000063DE0150110989F781E0881A9108E9CF56
:101A1000888D998D009751F50C891D890150110908
:101A20002A893B8921503109E881F9810680F781B3
:101A3000E02D50E040E070E060E0CE011995EFA5A8
:101A4000F8A9808199AD892B8083DF91CF911F9177
:101A50000F91FF90EF90DF90CF90BF90AF909F904D
:101A60008F907F906F905F904F900895019739F716
:101A7000EFA5F8A980819EAD89238083E9A9FAA901
:101A800080819FAD8923808364E0CE011DDEE9A9BA
:101A9000FAA980819AAD892B80838A899B890197D5
:101AA000692FCE0111DEE9A9FAA980819FAD8923B2
:101AB000808365E0CE0108DEE9A9FAA980819AADAC
:101AC000892B80836A896150CE01FEDDE9A9FAA9DC
:101AD00080819FAD8923808368E0CE01F5DDE9A98F
:101AE000FAA980819AAD892B80838C899D89019781
:101AF000692FCE01E9DDE9A9FAA980819FAD89238B
:101B0000808369E0CE01E0DDE9A9FAA980819AAD80
:101B1000892B80836C896150CE01D6DDEFA5F8A9B1
:101B2000808199AD892B80838ACFAF92BF92CF926B
:101B3000DF92EF92FF920F931F93CF93DF9377FD86
:101B400041C057FD3FC0C32ED22E5A017B01EC018C
:101B5000E881F9810684F785E02D19958E159F059A
:101B60008CF1E881F9810484F585E02DCE01199589
:101B70008A159B053CF1E881F9810680F781E02D0B
:101B800085019701A501B701CE011995EFA5F8A927
:101B900080819EAD89238083888D998DE9A9FAA9DA
:101BA0000797D9F480819AAD892B80836C2DCE0163
:101BB0008BDD6D2DCE0188DDEFA5F8A9808199AD73
:101BC000892B8083DF91CF911F910F91FF90EF9030
:101BD000DF90CF90BF90AF90089580819FAD892313
:101BE00080836AA1CE0170DD69A1CE016DDDE9A916
:101BF000FAA9D8CF2F923F924F925F926F927F9225
:101C00008F929F92AF92BF92CF92DF92EF92FF920C
:101C10000F931F93CF93DF93EC018B01790139016F
:101C2000661A770A5A01A81AB90AA614B70444F02A
:101C30008F2D7A01422F582F812F8E01C62FD82F3A
:101C40004701801A910A1A012C1A3D0A6401D594A1
:101C5000C79444244A94542CC417D5071CF4442434
:101C60004394512C2091EE163091EF16A801BE013D
:101C7000A614B70414F0AE01B80184EE96E155DF66
:101C8000C218D308D7FE04C0C40DD51DC80CD91C7A
:101C90000F5F1F4FE016F1062CF7DF91CF911F91D8
:101CA0000F91FF90EF90DF90CF90BF90AF909F90FB
:101CB0008F907F906F905F904F903F902F900895FE
:101CC0007F928F929F92AF92BF92CF92DF92EF92CC
:101CD000FF920F931F93CF93DF93EC01590198016B
:101CE0000E9D60010F9DD00C1E9DD00C112487010C
:101CF000040F151F01501109260F371F21503109FC
:101D0000E881F9810680F781E02D19951C141D04E6
:101D10000CF084C0EFA5F8A980819EAD8923808353
:101D2000E9A9FAA980819FAD892380836CA1CE01A6
:101D3000CBDC6BA1CE01C8DC888D998D892B09F095
:101D40003BC075018601CE0194DCCE0192DCCE0150
:101D500090DCCE018EDCCE018CDCCE018ADCCE01A3
:101D600088DC782ECE0185DC972DF7018193919345
:101D70007F010150110939F7CC0CDD1CAC0CBD1CE6
:101D80000C891D89015011092A893B89215031098B
:101D9000E881F9810680F781E02D50E040E070E0B5
:101DA00060E0CE011995EFA5F8A9808199AD892B46
:101DB0008083D12CC12CAACFCE015BDC75018601BA
:101DC0008DA59EA581309105F9F4CE0152DC982EA7
:101DD000CE014FDC882ECE014CDCE881F9810190E8
:101DE000F081E02D282F482D692DCE0119954C0149
:101DF000F701819291927F010150110909F7CC0CF2
:101E0000DD1CAC0CBD1CCFCF892B91F7CE0131DC92
:101E1000882ECE012EDC982C882EEACF90E080E030
:101E2000DF91CF911F910F91FF90EF90DF90CF90B6
:101E3000BF90AF909F908F907F900895BF92CF9268
:101E4000DF92EF92FF920F931F93CF93DF93EC01FA
:101E50006B01B42E152F0170EFA5F8A980819EADFE
:101E6000892380832223B1F0888D998D892B49F4B1
:101E7000E9A9FAA980819FAD8923808360E0CE0122
:101E800023DCE9A9FAA980819FAD8923808369A118
:101E9000CE011ADC7601CB2CD12E1C141D04E4F4E7
:101EA000F7010023B1F085919491182F692FE9A9CA
:101EB000FAA980819AAD892B8083CE0105DC612F40
:101EC000CE0102DCF2E0EF0EF11C81E0C81AD1086D
:101ED000E4CF10816181EBCFEFA5F8A9808199ADA6
:101EE000892B8083DF91CF911F910F91FF90EF900D
:101EF000DF90CF90BF900895CF92DF92EF92FF9244
:101F00000F931F93CF93DF93EC01162F6A01022FDB
:101F1000EFA5F8A980819EAD89238083E9A9FAA95C
:101F200080819FAD8923808360E0CE01CDDB612F6E
:101F3000CE01CADB7601DD24DA94D00E101604F54A
:101F4000F70161917F01E9A9FAA980819AAD892BF6
:101F50008083CE01B9DBDD2089F0888D998D0197D2
:101F600069F41F5FE9A9FAA980819FAD8923808365
:101F700060E0CE01A9DB612FCE01A6DB0D2DDBCF0A
:101F8000EFA5F8A9808199AD892B8083DF91CF914E
:101F90001F910F91FF90EF90DF90CF900895DF9207
:101FA000EF92FF920F931F93CF93DF93CDB7DEB7DE
:101FB00068970FB6F894DEBF0FBECDBF8C017B01D2
:101FC000F80164913196D4900E5F1F4F6F3771F016
:101FD000DE01119690E080E0AD018D1518F5F80155
:101FE000E80FF91FE491ED930196F7CF6D2D70E0A6
:101FF00090E080E0A2D8D12CED2DF0E03296EE1AE0
:10200000FF0A1E141F04E4F268960FB6F894DEBFB0
:102010000FBECDBFDF91CF911F910F91FF90EF9039
:10202000DF9008950D0D111D2D2D84EE96E164DFD6
:10203000E3CF4F925F926F927F928F929F92AF9277
:10204000BF92CF92DF92EF92FF920F931F93CF93A5
:10205000DF9300D000D01F921F92CDB7DEB77C0176
:102060004B016A015901DC019F96ED91FC91D097DB
:102070008081DE969C91DE978923808358968D918E
:102080009C915997009709F034C156968D919C9177
:1020900057978230910509F4FBC08330910509F40C
:1020A00015C12A013B01019791F41E968D919C91D7
:1020B000980120953095C094D0943601680E791E11
:1020C0002B018501530164014901880E991ED70136
:1020D000D196ED91FC91D2978081DF969C918923D6
:1020E000808360E0C701F0DA60E5C701EDDAD7016F
:1020F000D196ED91FC91D2978081DA969C91892BB3
:102100008083692DC701E0DA682DC701DDDAD701C8
:10211000D196ED91FC91D2978081DF969C91892395
:10212000808360E0C701D0DA61E5C701CDDAD7016D
:10213000D196ED91FC91D2978081DA969C91892B72
:1021400080836B2DC701C0DA6A2DC701BDDAD701C4
:10215000D196ED91FC91D2978081DF969C91892355
:10216000808360E0C701B0DA62E5C701ADDAD7016C
:10217000D196ED91FC91D2978081DA969C91892B32
:1021800080836D2DC701A0DA6C2DC7019DDAD701C0
:10219000D196ED91FC91D2978081DF969C91892315
:1021A000808360E0C70190DA63E5C7018DDAD7016B
:1021B000D196ED91FC91D2978081DA969C91892BF2
:1021C0008083612FC70180DA602FC7017DDAD701D4
:1021D000D196ED91FC91D2978081DF969C918923D5
:1021E000808360E0C70170DA60E2C7016DDAD70171
:1021F000D196ED91FC91D2978081DA969C91892BB2
:102200008083672DC70160DA662DC7015DDAD701CB
:10221000D196ED91FC91D2978081DF969C91892394
:10222000808360E0C70150DA61E2C7014DDAD7016F
:10223000D196ED91FC91D2978081DA969C91892B71
:102240008083652DC70140DA642DC7013DDAD701CF
:102250009F96ED91FC91D0978081D9969C91892B86
:10226000808328960FB6F894DEBF0FBECDBFDF91F6
:10227000CF911F910F91FF90EF90DF90CF90BF9083
:10228000AF909F908F907F906F905F904F90089548
:10229000F70186859785A901409550955C01A61A9E
:1022A000B70AF1E0AF1AB10850962D913C91B801F0
:1022B00060957095860100951095020F131F2801F7
:1022C00035016B01C20ED31E4A01FFCEF701808992
:1022D0009189209530952C01461A570AF1E04F1A42
:1022E00051083A015801820146016901C80ED91E00
:1022F000EECE8130910509F0CEC0D196ED91FC91E2
:10230000D2978081DF969C918923808362E0C70108
:10231000DBD9D701D196ED91FC91D2978081DA96E5
:102320009C91892B8083692DC701CED9D701D19685
:10233000ED91FC91D2978081DF969C9189238083D7
:1023400063E0C701C1D9D701D196ED91FC91D29735
:102350008081DA969C91892B8083682DC701B4D93E
:10236000D701D196ED91FC91D2978081DF969C9117
:102370008923808366E0C701A7D9D701D196ED9163
:10238000FC91D2978081DA969C91892B80836D2D68
:10239000C7019AD9D701D196ED91FC91D29780814E
:1023A000DF969C918923808367E0C7018DD9D7018F
:1023B000D196ED91FC91D2978081DA969C91892BF0
:1023C00080836C2DC70180D9D701D196ED91FC9106
:1023D000D2978081DF969C918923808364E0C70136
:1023E00073D9D701D196ED91FC91D2978081DA967D
:1023F0009C91892B80836B2DC70166D9D701D1961B
:10240000ED91FC91D2978081DF969C918923808306
:1024100065E0C70159D9D701D196ED91FC91D297CA
:102420008081DA969C91892B80836A2DC7014CD9D3
:10243000D701D196ED91FC91D2978081DF969C9146
:102440008923808368E0C7013FD9D701D196ED91F8
:10245000FC91D2978081DA969C91892B8083612FA1
:10246000C70132D9D701D196ED91FC91D2978081E5
:10247000DF969C918923808369E0C70125D9D70124
:10248000D196ED91FC91D2978081DA969C91892B1F
:102490008083602FDACE079709F0A7C0F7018689FD
:1024A00097898130910531F058F08230910541F0E3
:1024B0000397A1F422E0C20ED11C0E5F1F4F0EC085
:1024C000C601029698012E5F3F4F6401F2E0CF0EE5
:1024D000D11C85010E5F1F4F59014C01D701D196C8
:1024E000ED91FC91D2978081DF969C91DF978923B3
:1024F00080835D966C91C701E7D8D701D196ED91A5
:10250000FC91D2978081DA969C91892B80836A2DE9
:10251000C701DAD8D701D196ED91FC91D29780818D
:10252000DA969C91892B8083682DC701CDD8D7017D
:10253000D196ED91FC91D2978081DF969C91DF97A7
:10254000892380835F966C91C701BED8D701D1964D
:10255000ED91FC91D2978081DA969C91892B8083B2
:10256000602FC701B1D8D701D196ED91FC91D297D8
:102570008081DA969C91892B80836C2DC701A4D829
:10258000D701D196ED91FC91D2978081DF969C91F5
:102590008923808361E2C70197D8D701D196ED9155
:1025A000FC91D2978081DA969C91892B8083682D4B
:1025B000C7018AD8D701D196ED91FC91D29780813D
:1025C000DA969C91892B80836C2DC7017DD8D70129
:1025D000D196ED91FC91D2978081DF969C91DF9707
:1025E0008923808391966C9130CE9D826E83BF82C9
:1025F0002887D9824A831B830C8324E0AE014B5F7A
:102600005F4FF701658DC70177DC24E0AE014F5FB6
:102610005F4FD7015F966C91C7016EDC18CECF92E9
:10262000DF92EF92FF92CF93DF93FC01CA01AA27BA
:10263000BB27C32ED42EE52EFF244C2D308533230B
:1026400071F0C32FD0E0C89FA001C99F500DD89F43
:10265000500D1124852F3C9D600111244D2DA68520
:10266000218532859385A9131DC0DB01AA0FBB1FED
:102670006A0F7B1F620F731FA385A60FB72FB11DB3
:102680008C93A485A60FB72FB11D4C938585680F39
:10269000711DFB011082DF91CF91FF90EF90DF90D1
:1026A000CF900895660F771F660F771F620F731F15
:1026B000A60FB72FB11D1C92DFCF8F929F92AF92C2
:1026C000BF92CF92DF92EF92FF920F931F93CF931F
:1026D000DF936C014A015B01E901FC01E280F380B8
:1026E0002E153F05C8F40115110531F0020F131F17
:1026F0000E151F0508F47801CE15DF0568F4F60104
:1027000082819381C817D90728F4A5019401BE01DD
:10271000C60185DF2196F0CFDF91CF911F910F91F8
:10272000FF90EF90DF90CF90BF90AF909F908F90F1
:102730000895CF92DF92EF92FF920F931F93CF9362
:10274000DF9300D000D000D0CDB7DEB78C01DC0124
:1027500019968D919C91892B09F465C00E94780887
:10276000F801C784D088E188F2886C197D098E0948
:102770009F096C3271408105910580F3F894D8016E
:1027800014968D919C9115979A8389831996ED9152
:10279000FC917F01BFEFEB1AFB0A80818987F8016A
:1027A00090810388F489E02DD80155968C91992366
:1027B00009F448C09081982B98879081809589234F
:1027C0008F838F818C8388E08B8358856F814985C7
:1027D0003B812C8189819A81D701508347FD252F28
:1027E0003A952083262F39F0441F00C000006083F3
:1027F000000000C0F2CF38E04D91608300000197E7
:1028000061F7D8015496FC93EE93539749873B8325
:102810002C839A83898378940E947808F8016787CB
:10282000708B818B928B29960FB6F894DEBF0FBE0A
:10283000CDBFDF91CF911F910F91FF90EF90DF906F
:10284000CF9008959081982B9887908180958923C7
:102850008F838F818E8388E08D8358856F81498532
:102860003D812E8189819A81D701508347FD252F93
:1028700000C000C0208300C000C000C000C000C075
:1028800060830000262F3A9541F0441F000000C0ED
:1028900000C000C000C000C0E8CF38E04D9100C0CB
:1028A000608300C0019709F7D8015496FC93EE931A
:1028B000539749873D832E83ACCFCF93DF93EC01B1
:1028C0008E819F8197FD07C061E00E94730560E0E3
:1028D0008E810E94020581E08983DF91CF91089566
:1028E0004F925F926F927F928F929F92AF92BF9220
:1028F000CF92DF92EF92FF920F931F93CF93DF93CC
:1029000000D000D01F921F92CDB7DEB761E089EFF3
:1029100095E10E94EF088BE39FE10197F1F783E1D6
:10292000E82E85E1F82ED12C10E000E080906902BD
:1029300090906A02A0906B02B0906C0240906D0281
:1029400050906E0260906F027090700295E0C92EF8
:102950008D829E82AF82B88649825A826B827C8247
:102960002091001681E0211180E0819590E0309166
:102970000116303109F040C02430F1F521E030E09B
:102980002C0F3D1F820F931FFC0160816D0D60684D
:1029900089EF95E10E94EF08F701819191917F0104
:1029A000C09EF001C19EF00D1124EC56FB4EE80FC5
:1029B000F91F608189EF95E10E94E4080F5F1F4FC6
:1029C000F3E0DF0E2FE0D212C3CF28960FB6F894B3
:1029D000DEBF0FBECDBFDF91CF911F910F91FF9052
:1029E000EF90DF90CF90BF90AF909F908F907F90AF
:1029F0006F905F904F90089525E030E0C1CF0F9326
:102A00001F93CF93DF932CE8289F8001299F100DFF
:102A100011248EE0869F9001879F300D1124020FB4
:102A2000131FD0E0C0E0FE01EE0FFF1FE00FF11F0B
:102A3000EC58FD4F6081718177FD0EC08091301799
:102A4000909131176817790738F420E030E044E6B8
:102A500050E08EE297E1E3DD2196C730D10519F70A
:102A6000DF91CF911F910F91089528EE33E040E060
:102A700050E064E670E085E30E94AF0528EE33E0A5
:102A800040E050E064E670E08CE20E94AF0561E057
:102A900080E30E94020561E081E30E94020568EE86
:102AA00073E080E090E00E949D0860E080E30E9477
:102AB000020560E081E30C940205FC01448155812C
:102AC00070E060E0818592850C94A32C0F931F9396
:102AD00087EC95E1F2DF05E810E023E030E040E02C
:102AE00050E066E970E087EC95E1E7DD87EC95E181
:102AF0001F910F911ECE0F931F93CF93DF93C09121
:102B0000C314D091C4142196D093C414C093C31499
:102B10008DED95E1D2DF8E0130E020E040E050E025
:102B200066E970E08DED95E1C8DD8DED95E101DEA2
:102B300085E30E942F0599DF239744F081E080937D
:102B4000C714DF91CF911F910F91C0CFDF91CF912B
:102B50001F910F910895CF93DF93EC0188819981A4
:102B6000009711F00E94202B198218821D821C826E
:102B70001B821A82DF91CF910895FC01808191819F
:102B80000C94202B42E050E06EE872E18EE195E17A
:102B90000C944303CF93DF93FC0101900020E9F7ED
:102BA0003197AF01481B590BBC018EE195E10E94A2
:102BB0004303EC01E7DF8C0F9D1FDF91CF91089558
:102BC000CF92DF92EF92FF920F931F93CF93DF93F9
:102BD00081E992E1DFDF1092EF161092EE1620E409
:102BE00030E041E850E060E470E090E080E002D83E
:102BF00021E830E040E450E070E060E080E490E004
:102C00000E94FA0D1092EF161092EE16C091631406
:102C1000D0916414D695DC2FCC27D795C795CC5589
:102C2000DB4FA7E1EA2EF12CB0E3CB2ED12C00E252
:102C300010E088819981AA81BB81002E04C0B595DE
:102C4000A795979587950A94D2F780FF0CC020919D
:102C5000EE163091EF16A701B601601B710B84EEE2
:102C600096E10E94950D0150110919F724962FEF56
:102C7000E21AF20A87E3E816F104C9F680917814A3
:102C8000909179148130910509F42BC1019609F4D2
:102C90002BC190E080E09093EF168093EE167C01BC
:102CA0000BE010E025E130E043E050E066E170E049
:102CB00084EE96E10E94660C1092EF161092EE16CA
:102CC000C0916514D0916614D695DC2FCC27D7958A
:102CD000C795CC55DB4F77E1E72EF12CE0E7CE2E00
:102CE000D12C00E210E088819981AA81BB81002E5D
:102CF00004C0B595A795979587950A94D2F780FF5C
:102D00000CC02091EE163091EF16A701B601601BA2
:102D1000710B84EE96E10E94950D0150110919F78F
:102D200024968FEFE81AF80A27E3E216F104C9F6B1
:102D300080917A1490917B148130910509F4D7C069
:102D4000019609F4D7C090E080E09093EF1680934D
:102D5000EE167C010BE010E025E130E043E050E0AE
:102D600066E570E084EE96E10E94660C1092EF1624
:102D70001092EE16C0916714D0916814D695DC2F8E
:102D8000CC27D795C795CC55DB4F47E5E42EF12CE2
:102D900050E3C52ED12C00E210E088819981AA81F0
:102DA000BB81002E04C0B595A795979587950A9489
:102DB000D2F780FF0CC02091EE163091EF16A701DC
:102DC000B601601B710B84EE96E10E94950D0150D7
:102DD000110919F724968FEFE81AF80A27E7E21687
:102DE000F104C9F680917C1490917D148130910595
:102DF00009F483C0019609F483C090E080E09093C9
:102E0000EF168093EE167C010BE010E025E130E038
:102E100043E450E066E170E084EE96E10E94660CC7
:102E20001092EF161092EE16C0916914D0916A14A8
:102E3000D695DC2FCC27D795C795CC55DB4F97E59A
:102E4000E92EF12C20E7C22ED12C00E210E088817F
:102E50009981AA81BB81002E04C0B595A79597954D
:102E600087950A94D2F780FF0CC02091EE1630911E
:102E7000EF16A701B601601B710B84EE96E10E946C
:102E8000950D0150110919F724968FEFE81AF80AE9
:102E900027E7E216F104C9F680917E1490917F1421
:102EA0008130910581F1019689F190E080E0909365
:102EB000EF168093EE167C010BE010E025E130E088
:102EC00043E450E066E570E084EE96E10E94660C13
:102ED000DF91CF911F910F91FF90EF90DF90CF90F6
:102EE000089580E89FE0D7CE80E098EFD4CE80E8C8
:102EF0009FE02BCF80E098EF28CF80E89FE07FCF46
:102F000080E098EF7CCF80E89FE0D1CF80E098EF21
:102F1000CECFCF93DF93FC014481558160817181D5
:102F20008EE195E10E944303EC012CDE8C0F9D1F86
:102F3000DF91CF9108950F931F93CF93DF93EC010F
:102F400088819981009759F02A813B81261737079C
:102F500030F081E0DF91CF911F910F9108958B01A7
:102F60006F5F7F4F0E94A92B009759F09983888348
:102F70001B830A832C813D81232B59F7FC0110828E
:102F8000E8CF80E0E7CF0F931F93CF93DF93EC015F
:102F90000C811D810F5F1F4FB801CDDF882391F099
:102FA000288139818C819D8164EA72E1820F931FAF
:102FB0000E94AA2C1D830C83CE01DF91CF911F911B
:102FC0000F910895CE01C7DDF7CFEF92FF920F93D7
:102FD0001F93CF93DF93EC01FB01E080F180E114BC
:102FE000F10409F10481158101151105A1F08C810D
:102FF0009D81080F191FB801CE019DDF882399F02C
:10300000288139818C819D81B701820F931F0E9495
:10301000AA2C1D830C83CE01DF91CF911F910F91BC
:10302000FF90EF900895CE0196DDF5CFEF92FF92DD
:103030000F931F93CF93DF93EC017B018A01BA01B9
:103040007ADF81110AC0CE0186DDCE01DF91CF91FA
:103050001F910F91FF90EF9008951D830C83B7018E
:10306000888199810E94AA2CF0CFEF92FF920F9352
:103070001F93CF93DF93CDB7DEB762970FB6F89467
:10308000DEBF0FBECDBF8C01CB01F80111821082D3
:1030900013821282158214824AE09E012F5F3F4FF5
:1030A0007901B9010E94C529F70101900020E9F7D3
:1030B0003197AF014E195F09B701C801B7DF6296BA
:1030C0000FB6F894DEBF0FBECDBFDF91CF911F9139
:1030D0000F91FF90EF900895CF93DF93EC01FB01E8
:1030E0008617970741F0608171816115710539F08C
:1030F000448155819BDFCE01DF91CF9108952BDD77
:10310000FACFFC011182108213821282158214827E
:10311000FB0101900020E9F73197AF01461B570BE7
:1031200085CF0E94852C1F920F920FB60F9211240B
:103130000BB60F922F933F934F935F936F937F93B1
:103140008F939F93AF93BF93EF93FF9380915E1400
:1031500090915F14A0916014B0916114892B8A2B17
:103160008B2BE1F190915D14E0915B14F0915C1474
:1031700080818927808380915E1490915F14A09153
:103180006014B0916114181619061A061B069CF4F7
:1031900080915E1490915F14A0916014B0916114BD
:1031A0000197A109B10980935E1490935F14A093D5
:1031B0006014B0936114FF91EF91BF91AF919F9113
:1031C0008F917F916F915F914F913F912F910F90D0
:1031D0000BBE0F900FBE0F901F90189580910002AC
:1031E0000E942F05E8CF1F920F920FB60F92112465
:1031F0000BB60F922F933F934F935F936F937F93F1
:103200008F939F93AF93BF93EF93FF938EE195E1DD
:103210000E94B603FF91EF91BF91AF919F918F9163
:103220007F916F915F914F913F912F910F900BBEC6
:103230000F900FBE0F901F9018951F920F920FB610
:103240000F9211240BB60F922F938F939F93EF93AE
:10325000FF93E0912E15F0912F158081E0913415A8
:10326000F091351582FD1DC09081809137158F5FDB
:103270008F7320913815821741F0E0913715F0E0F7
:10328000E25EFA4E958F80933715FF91EF919F91F3
:103290008F912F910F900BBE0F900FBE0F901F902C
:1032A00018958081F2CF1F920F920FB60F921124C2
:1032B0002F933F938F939F93AF93BF9380916C1401
:1032C00090916D14A0916E14B0916F1430913D14D3
:1032D00023E0230F2D3758F50196A11DB11D209332
:1032E0003D1480936C1490936D14A0936E14B0935E
:1032F0006F1480913E1490913F14A0914014B091AE
:1033000041140196A11DB11D80933E1490933F146A
:10331000A0934014B0934114BF91AF919F918F91AE
:103320003F912F910F900FBE0F901F90189526E898
:10333000230F0296A11DB11DD2CF1F920F920FB67F
:103340000F9211240BB60F922F933F934F935F93DD
:103350006F937F938F939F93AF93BF93EF93FF935D
:103360008091B900887F803609F44DC008F040C0D4
:10337000883209F4A9C028F5803109F49DC0C8F449
:10338000882309F4FBC0883009F496C0FF91EF91BF
:10339000BF91AF919F918F917F916F915F914F916D
:1033A0003F912F910F900BBE0F900FBE0F901F906B
:1033B0001895883109F488C0803241F78093EC1465
:1033C00014C0803409F49DC040F48033B9F38833CD
:1033D000E9F68093EC1485ECB0C0803509F485C023
:1033E000883509F496C0883489F60E948209CECFC8
:1033F000883909F48CC038F5883729F050F48836BC
:1034000011F0803719F683E08093EE141092361491
:1034100057C0883809F47BC0803919F0803809F02A
:10342000B5CF80913614803208F071C0E091361427
:1034300081E08E0F809336148091BB00F0E0EA5E4D
:10344000FB4E80833DC0803B39F0E0F4803A09F4C4
:1034500079C0883A09F09ACF84E08093EE141092F4
:10346000151410921414E0913914F0913A1419952E
:103470008091141481110FC081E080931414109274
:10348000F41309C0803C09F4A6CF883C09F4A3CF0B
:10349000883B09F07BCFE091151481E08E0F80937B
:1034A0001514F0E0EC50FC4E80818093BB009091AD
:1034B00015148091141429C08091C9148093BB0005
:1034C00085EC8093BC0062CF9091EB148091EA145C
:1034D000981758F5E091EB1481E08E0F8093EB1470
:1034E000F0E0E653FB4E8081E9CFE091EB1481E000
:1034F0008E0F8093EB148091BB00F0E0E653FB4EFF
:1035000080839091EB148091EA149817C8F285E8B3
:10351000D8CFE091EB1481E08E0F8093EB14809173
:10352000BB00F0E0E653FB4E80838091ED148111E7
:103530005CCF81E08093C81484EA8093BC00109231
:10354000EE1424CF85EC8093BC001092EE14809191
:103550003614803230F4E0913614F0E0EA5EFB4E2F
:1035600010826091361470E0E0913714F0913814B5
:1035700086E194E119951092361408CF1092EC145C
:1035800034CFCF92DF92EF92FF920F931F93CF939E
:10359000DF93EC016B018A01198218861F86188A55
:1035A000198A1A8A81E08E878B871C8692E09D8714
:1035B00088837B01EE0CFF1CE60EF71EFD82EC8279
:1035C000C7010E94842A9A878987009779F1A70109
:1035D00070E060E00E94A32CDB82CA821F830E830E
:1035E0008981882341F061E0802F0E94730560E0AB
:1035F000802F0E940205F801ED52FB4FE491F0E0AC
:10360000EE0FFF1FE754FB4F859194919C8B8B8BA2
:10361000F801ED58FB4FE491ED8BDF91CF911F91B5
:103620000F91FF90EF90DF90CF9008951D821C8244
:103630001B821A82D3CFFF920F931F93CF93DF93F6
:10364000EEE1F5E11382128288EE93E0A0E0B0E0B3
:1036500084839583A683B78326E432E13183208374
:1036600025EC30E03587248724EC30E03787268747
:1036700020EC30E0318B208B21EC30E0338B228B3F
:1036800022EC30E0358B248B26EC30E0378B268B18
:10369000118E128E138E148EEBEBF5E113821282D3
:1036A00084839583A683B78388E592E191838083A1
:1036B00044E350E065E270E08EE297E162DFC4EE41
:1036C000D6E180E098EF9987888720EE37E03F8346
:1036D0002E839B878A8701E00C871D868EE792E107
:1036E0009983888383E08093271785E08093281748
:1036F0001FEF1093291786E080932A1787E08093A5
:103700002B1784E0F82EF0922C1710932D171C8E97
:10371000E6EDF4E0E491F0E0EE0FFF1FE754FB4F1D
:10372000A591B491B8ABAFA7E6E7F4E0849189AF77
:10373000982F90959EAFE8EDF4E0E491F0E0EE0F65
:10374000FF1FE754FB4F259134913AAB29ABE8E7D3
:10375000F4E0E491EAAFE095EFAF1CAA1BAA1BAE20
:1037600010922417E9EDF4E0E491F0E0EE0FFF1F72
:10377000E754FB4F259134913EAB2DABE9E7F4E0E4
:10378000E491ECAFE095E0932517EAEDF4E0E491E5
:10379000F0E0EE0FFF1FE754FB4F2591349138AF57
:1037A0002FABEAE7F4E0E491EDAFE095E093261764
:1037B000EC918E2B8C93E9A9FAA980819AAD892B83
:1037C0008083EBA9FCA980819BAD892B8083EDA927
:1037D000FEA980819CAD892B8083EFA9F8AD808103
:1037E0009DAD892B808361E083E00E94730561E0D9
:1037F00085E00E94730560E08FEF0E94730561E031
:1038000086E00E94730561E087E00E94730561E035
:1038100084E00E94020561E084E00E9473051F8A33
:103820001E8A83E892E19B8F8A8F82E890E09F87CF
:103830008E87998B888B9B8B8A8B9D8B8C8B66EA72
:1038400072E182E196E15DDC6CEA72E188E196E189
:1038500058DC62EB72E18EE196E153DC68EB72E1D9
:1038600084E296E14EDC6EEB72E18AE296E149DC9D
:1038700064EC72E180E396E144DC6AEC72E186E399
:1038800096E13FDC60ED72E18CE396E13ADC66EDB7
:1038900072E182E496E135DC6CED72E188E496E158
:1038A00030DC62EE72E18EE496E12BDC68EE72E1D0
:1038B00084E596E126DC6EEE72E18AE596E121DC94
:1038C00064EF72E180E696E11CDC6AEF72E186E665
:1038D00096E117DC60E073E18CE696E112DC66E0CD
:1038E00073E182E796E10DDC6CE073E188E796E135
:1038F00008DC62E173E18EE796E103DC68E173E1E5
:1039000084E896E1FEDB6EE173E18AE896E1F9DB9B
:1039100064E273E180E996E1F4DB6AE273E186E94F
:1039200096E1EFDB60E373E18CE996E1EADB66E3C5
:1039300073E182EA96E1E5DB6CE373E188EA96E104
:10394000E0DB62E473E18EEA96E1DBDB68E473E1DD
:1039500084EB96E1D6DB6EE473E18AEB96E1D1DB92
:1039600064E573E180EC96E1CCDB6AE573E186EC1B
:1039700096E1C7DB60E673E18CEC96E1C2DB66E6BC
:1039800073E182ED96E1BDDB6CE673E188ED96E1D3
:10399000B8DB62E773E18EED96E1B3DBE9EFF5E1C9
:1039A000138212828AE692E191838083108A1787BC
:1039B0001686118A87E283871486158612861186F9
:1039C000F28A82E0838B048B80E1858B80E2868B98
:1039D00080E4878B80E8808F50E040E063E0CF0197
:1039E0000E94CE0860E972E183EF95E18ADB42E351
:1039F00050E063E070E08DED95E1C3DD43E350E01E
:103A000065E870E087EC95E1DF91CF911F910F9110
:103A1000FF90B7CDCF93DF93CDB7DEB7CC57D109A9
:103A20000FB6F894DEBF0FBECDBF789484B5826028
:103A300084BD84B5816084BD85B5826085BD85B552
:103A4000816085BD80916E00816080936E001092D0
:103A5000810080918100826080938100809181004B
:103A600081608093810080918000816080938000DC
:103A70008091B10084608093B1008091B00081603A
:103A80008093B0008091910082608093910080913A
:103A9000910081608093910080919000816080937B
:103AA00090008091A10082608093A1008091A1008C
:103AB00081608093A1008091A00081608093A0002C
:103AC0008091210182608093210180912101816098
:103AD0008093210180912001816080932001809159
:103AE0007A00846080937A0080917A00826080936B
:103AF0007A0080917A00816080937A0080917A00C8
:103B0000806880937A001092C10080917B00877F4B
:103B100080937B0080E480937C0080917A008064B5
:103B200080937A0080917A0086FDFCCF80917800A6
:103B300060917900762F682F072E000C880B990B67
:103B4000611571058105910511F00E94BC29E09174
:103B50002E15F0912F1582E08083E0912A15F091C7
:103B60002B151082E0912C15F0912D158FEC808390
:103B700010923615E0913215F091331586E080836E
:103B8000E0913015F0913115808180618083E09162
:103B90003015F0913115808188608083E091301577
:103BA000F0913115808180688083E0913015F0912B
:103BB000311580818F7D808361E080E30E947305F1
:103BC00061E081E30E9473058EE297E10E945D143B
:103BD0008EE297E10E945D158EE297E10E949913B3
:103BE0008DED95E10E945D148DED95E10E945D15CE
:103BF0008DED95E10E94991387EC95E10E945D148B
:103C000087EC95E10E945D1587EC95E10E94991380
:103C100042E4E42E42E1F42E0CE212E1D8018C9150
:103C20000E5F1F4F62E00E947305E016F106B1F7C8
:103C300020E042E060E189EF95E10E94BF0A6FEF6A
:103C400089EF95E10E94A70A0E94702923E230E0E3
:103C500040E050E00E94F82926E0269FA001279F1F
:103C6000500D1124BA016E5E794E83EF95E134DA7E
:103C70000DE115E1E3E1F5E1E796FFAFEEAFE79780
:103C800035E0C32ED12CE12CF12C0E947029A70124
:103C900096010E94F829E796AEADBFADE7976D9308
:103CA0007D93E796BFAFAEAFE7970A171B0769F79B
:103CB00068E773E1CE01855A9F4F23DAB12CA12C1E
:103CC0002E01B1E64B0E511C8091F7159091F8151D
:103CD000A816B90608F484C024E9E22E24E1F22EE5
:103CE00010E000E08091F7159091F815081719077A
:103CF00008F0D2C11A8219821C821B821E821D8288
:103D0000BE01655A7F4FCE010196E6D9D12CC12C58
:103D10008D809E80B12CA12C81149104A104B1044A
:103D200039F00E947029A50194010E94F8294B01E5
:103D3000082C000C99084D815E818416950628F4A4
:103D4000E981FA81309709F0A1C110926214E2E68C
:103D5000F4E1B08084169506C0F489819A814150BF
:103D600051095E834D8348195909B4016F5F7F4F34
:103D7000680F791F880D991D0E94B12CE981FA8185
:103D80008D819E81E80FF91F1082F701EC0DFD1D5A
:103D9000B0822FEFC21AD20A35E0C316D10409F05F
:103DA000B7CF8091F7159091F8150817190738F4D7
:103DB000E091F315F091F415309709F06AC1109273
:103DC0006214E2E6F4E18081D7018C93CE01019682
:103DD0000E94BD150F5F1F4FB5E0EB0EF11C82CFA7
:103DE00060E972E1CE0101968CD98091F71590912E
:103DF000F815A816B90638F4E091F315F091F4150A
:103E0000309709F055C010926214E2E6F4E1808127
:103E100067961FAE1EAE679769961FAE1EAE699776
:103E20006B961FAE1EAE6B97F201808311820190DC
:103E30000020E9F73197AF0144195509B201CE01CD
:103E40008B5A9F4FF3D8A1966EAC7FACA1976114AB
:103E5000710409F469C06B968EAC9FAC6B978114AA
:103E6000910409F461C0ED80FE80E818F9086D96B0
:103E70000EAD1FAD6D9767962EAC3FAC6797E11402
:103E8000F104C9F467966EAD7FAD6797C8010E94D3
:103E9000C02C8C01009709F447C069817A814D815B
:103EA0005E810E94892C8D819E81080F191FEACFA7
:103EB000EA0DFB1DACCF6301C801F7FE42C06801EB
:103EC00067966EAD7FAD6797C8010E94C02C3C011C
:103ED000009731F14C01801A910AA401B801C60182
:103EE0000E94892CC80CD91C69817A814D815E8120
:103EF000C6010E94892C8D819E81C80ED91E6B96A9
:103F00000EAD1FAD6B97060D171DA1968EAD9FAD23
:103F1000A1978E0D9F1DA1969FAF8EAFA197D0CF79
:103F2000B801C6010E94AA2CCE018B5A9F4F0E9455
:103F3000BD15CE0101960E94BD15FFEFAF1ABF0A55
:103F4000C3CEB1010E94C02C009729F0880D991DA5
:103F5000CE0CDF1CF6CF6C147D0431F36F968EAD62
:103F60009FAD6F978C159D0580F4B6016F5F7F4FF5
:103F7000C8010E94A92B0097B9F26D969FAF8EAF32
:103F80006D976F96DFAECEAE6F97A1960EAD1FAD5B
:103F9000A1970150110917FDC7CF48016B962EACB0
:103FA0003FAC6B972114310409F4BECFA196CEAC7F
:103FB000DFACA197C114D10409F4B6CFC214D30465
:103FC00008F4B2CF0C151D0520F04601F1E08F1A60
:103FD00091086D966EAC7FAC6D9767962EAD3FAD38
:103FE0006797EB963FAF2EAFEB97C3010FEF1FEF35
:103FF000A301480D591DED965FAF4EAFED97ED96BD
:10400000AEADBFADED97A817B90790F0EB966EADCA
:104010007FADEB970E94C02C009751F09C012619B0
:1040200037098216930608F4980101968901E7CFB3
:1040300017FD7ACF200E311EC301820D931DA601FC
:1040400042195309BC018E0D9F1D0E94922CA1960E
:104050008EAD9FADA1978E0D9F1DA1969FAF8EAF88
:10406000A1976D962EAD3FAD6D97820F931FFC010A
:1040700010826D968EAD9FAD6D9769817A814D816D
:104080005E81800F911F0E94892C83CFE80DF91D5E
:1040900060CEE00FF11F97CECE01855A9F4F0E9450
:1040A000BD150E94701481E080931D15FE01EB5A2E
:1040B000FF4F03E115E130E020E0DE2ECF2E65E07A
:1040C000D8014D915D918D01629FC001639F900D5C
:1040D00011248C569B4E840F951FDC018C9181938B
:1040E0002F5F3F4F2530310559F76D2D7C2DCE01C7
:1040F000019607D8CE0101960E948917CE0101963C
:104100000E94BD1583EF95E10E94891704E212E138
:10411000B2E104331B0741F0F80180810E5F1F4FAD
:1041200062E00E947305F4CF0E94F30B80912D177B
:1041300087FD03C061E00E9402058091FE16909108
:10414000FF16019609F041C060E084E090E00E9413
:104150002B0C892B21F561E084E090E00E942B0C70
:1041600081159048E1F48091710290917202A091C2
:10417000730289839A83AB8323E0AE014F5F5F4F65
:1041800069EB84EE96E10E947C0F60E080ED90E0A8
:104190000E942B0C61E080ED90E00E942B0C61E00E
:1041A00083ED90E00E942B0C813433E9930749F0B2
:1041B000863844E9940729F060E090E080E00E94AE
:1041C0002B0C9093FF168093FE160091FE16109113
:1041D000FF160E94F30B68EC70E080E090E00E9414
:1041E0009D08053253E9150709F464C008F058C06A
:1041F000053795E7190709F49FC058F403381241B1
:1042000009F451C38FEF90E09093FD168093FC1654
:104210000AC10533E7E71E0709F408C3003910494E
:1042200089F783E090E09093FD168093FC168AE274
:1042300090E090930217809301178BE290E09093A7
:104240000417809303178CE290E0909306178093F5
:1042500005178EE290E0909308178093071783E389
:1042600090E090930A178093091787E390E090936A
:104270000C1780930B1786E390E090930E178093B2
:104280000D1781E090E09093101780930F17909393
:1042900012178093111766E470E087EE92E0C1C0B8
:1042A000013423E9120709F47EC0E8F50832134906
:1042B00009F0A8CF1092FD161092FC16109202176A
:1042C00010920117109204171092031782E290E0E7
:1042D00090930617809305179093081780930717FC
:1042E00081E690E090930A17809309178AE690E0A0
:1042F00090930C1780930B1783E090E090930E1728
:1043000080930D1781E090E09093101780930F1722
:1043100010921217109211176CEC70E087EA93E07C
:104320000E94D30B80C0063854E9150709F441C236
:104330000539154909F066CF81E090E09093FD16AC
:104340008093FC1610920217109201171092041716
:104350001092031722E230E03093061720930517DE
:1043600030930817209307172EE030E030930A1798
:104370002093091724E130E030930C1720930B179A
:1043800026E130E030930E1720930D17909310170D
:1043900080930F1790931217809311176FE770E0B7
:1043A00088E692E03EC082E090E09093FD16809314
:1043B000FC168AE290E090930217809301178BE23B
:1043C00090E090930417809303178CE290E0909311
:1043D0000617809305178EE290E09093081780935C
:1043E000071783E390E090930A178093091787E3F8
:1043F00090E090930C1780930B1786E390E09093D6
:104400000E1780930D171092101710920F1781E05E
:1044100090E090931217809311176AE770E08DE295
:1044200093E00E94CF0F8091FA16282F237030E07E
:104430003093FB162093FA16282F217080FF72C24A
:104440008091F4169091F5169093F7168093F616D6
:104450008091F2169091F316211104C08091F41608
:104460009091F5169093F9168093F816E091131732
:10447000F0911417808190912217892380832091D5
:10448000FC163091FD168091FA169091FB162115BD
:10449000310509F05FC28130910509F448C208F482
:1044A00054C28230910509F447C2039709F448C207
:1044B000E0911517F09116178081909123178923A9
:1044C000808360910E1784EE96E10E94640B6091E8
:1044D0000D1784EE96E10E94640BE0911517F091A0
:1044E0001617808190911E17892B808360E184EEDE
:1044F00096E10E94640BE9966FADE99784EE96E130
:104500000E94640B0091F8161091F91601501109E0
:104510002091F6163091F7162150310950E040E015
:1045200070E060E084EE96E10E9419102091FC1684
:104530003091FD162115310509F022C363E070E0CA
:104540008091091790910A170E949F0B70E060E01C
:1045500080910B1790910C170E949F0BE0911317FD
:10456000F0911417808190911D17892B8083E09121
:104570001317F0911417808190912217892380835B
:1045800010910F172091FC163091FD16E091151730
:10459000F0911617809123172115310509F02FC3CB
:1045A00090818923808361E684EE96E10E94640B0A
:1045B000E0911517F0911617808190911E17892BA5
:1045C0008083612F84EE96E10E94640BE0911317C3
:1045D000F0911417808190911D17892B8083009191
:1045E000F8161091F9162091F6163091F716EE2470
:1045F000EA94FE2C50E040E070E060E084EE96E14A
:104600000E94660C88EAE1E0F2E0DE01119601907A
:104610000D928A95E1F764D62BE130E040E050E05E
:10462000E7D610E000E097E0892E912CA12CB12C68
:1046300087E0869F7001879FF00C112451D6A50159
:104640009401D6D6F701E60FF71FEE0FFF1F41E0EA
:1046500050E04C0F5D1FE40FF51F208131812115C3
:10466000310509F032C3015011090F5F1F4F0430AB
:10467000110521F780E1E0E7F4E1A0E8B4E1019061
:104680000D928A95E1F76091691470916A148D2DED
:104690009C2D0E9435186091671470916814CE01AA
:1046A000855A9F4F0E943518609165147091661469
:1046B000CE018F599F4F0E943518609163147091FD
:1046C0006414CE0183599F4F0E943518A9961FAEDE
:1046D0001EAEA997AB961FAE1EAEAB97AD961FAEA2
:1046E0001EAEAD97BE0163597F4FCE0189599F4FD2
:1046F0000E946C18CE0189599F4F0E94C317BE01BA
:104700006F597F4F0E94E5170E94C317BE01655A7B
:104710007F4F0E94E5170E94C3176D2D7C2D0E94CC
:10472000E5170E948917CE0189599F4F0E94BD1538
:10473000CE0183599F4F0E94BD15CE018F599F4FC7
:104740000E94BD15CE01855A9F4F0E94BD158D2D2B
:104750009C2D0E94BD150E94E01594E6292E312C57
:104760008091C714811137C58091C5149091C614EA
:104770008330910509F0B9C287EC95E10E945D157F
:1047800005E810E023E030E040E056E960E070E04A
:1047900087EC95E10E945D1387EC95E10E949913E7
:1047A00084E090E09093C6148093C5140E94430463
:1047B000D7CF85E090E09093FD168093FC168AE2B7
:1047C00090E090930217809301178BE290E0909312
:1047D0000417809303178CE290E090930617809360
:1047E00005178EE290E0909308178093071783E3F4
:1047F00090E090930A178093091787E390E09093D5
:104800000C1780930B1786E390E090930E1780931C
:104810000D171092101710920F1710921217109276
:1048200011176AE470E08EE192E0FBCD86E090E043
:104830009093FD168093FC168AE290E09093021705
:10484000809301178BE290E09093041780930317F5
:104850008CE290E090930617809305178EE290E02B
:10486000909308178093071783E390E090930A17BB
:104870008093091787E390E090930C1780930B17B0
:1048800086E390E090930E1780930D171092101707
:1048900010920F1710921217109211176FE570E017
:1048A0008FEB91E0BECD87E090E09093FD16809372
:1048B000FC1685E490E0909302178093011784E43E
:1048C00090E0909304178093031782E290E0909316
:1048D0000617809305178EE290E090930817809357
:1048E000071781E490E090930A178093091782E4F8
:1048F00090E090930C1780930B1783E090E09093D7
:104900000E1780930D1781E090E09093101780931D
:104910000F17109212171092111760E670E08FE5D2
:1049200091E0FECC8091F2169091F3168DCD98E235
:10493000E9969FAFE997BCCDE9961FAEE997B8CD50
:10494000A8E1E996AFAFE997B3CDB0E3E996BFAF81
:10495000E997AECD26303105C1F58130910511F1D1
:1049600078F18230910519F1039729F1E09115173B
:10497000F09116178081909123178923808360918D
:104980000D1784EE96E10E94640BE0911517F091EB
:104990001617808190911E17892B8083E4966FAD46
:1049A000E497ACCDE0EAE496EFAFE497DFCFE4968E
:1049B0001FAEE497DBCFF0E6E496FFAFE497D6CFE7
:1049C00020EDE4962FAFE497D1CF2730310509F0E1
:1049D0009EC08130910549F008F450C082309105A5
:1049E00009F44CC0039709F08DCDE0911517F091B3
:1049F00016178081909123178923808360E084EECD
:104A000096E10E94640B61E084EE96E10E94640BE3
:104A1000E0911517F0911617808190911E17892B40
:104A2000808362E284EE96E10E94640B63E884EE88
:104A300096E10E94640BE0911517F09116178081A2
:104A4000909123178923808360E084EE96E10E9491
:104A5000640B63E084EE96E10E94640BE09115170D
:104A6000F0911617808190911E17892B808368E63C
:104A700084EE96E10E94640B68E340CDE091151747
:104A8000F09116178081909123178923808360E02D
:104A900084EE96E10E94640B61E084EE96E10E9450
:104AA000640BE0911517F0911617808190911E17F5
:104AB000892B808361E284EE96E10E94640B63E8B7
:104AC00084EE96E10E94640BE0911517F0911617A1
:104AD0008081909123178923808360E084EE96E1A2
:104AE0000E94640B63E084EE96E10E94640BE09107
:104AF0001517F0911617808190911E17892B8083CE
:104B000068E684EE96E10E94640B60E3F7CC8130A6
:104B1000910511F180F18230910519F1039731F17E
:104B2000E0911517F0911617808190912317892332
:104B3000808360910D1784EE96E10E94640BE091F2
:104B40001517F0911617808190911E17892B80837D
:104B5000E5966FADE597D2CC38E2E5963FAFE597A5
:104B6000DFCF48E9E5964FAFE597DACF58EFE59606
:104B70005FAFE597D5CF88E4E5968FAFE597D0CFC7
:104B80008091091790910A172730310519F470E0C8
:104B900060E0E2CC9091F4162091F51619821A8209
:104BA0002B839C831D821E8226E0AE014F5F5F4FE8
:104BB000682F84EE96E10E947C0F19821A8222E00F
:104BC000AE014F5F5F4F60910B1784EE96E10E943C
:104BD0007C0F8091FC169091FD16019759F4198273
:104BE00021E0AE014F5F5F4F61E084EE96E10E94ED
:104BF0007C0FB4CC20E050E040E063E1F6CF213000
:104C00003105B1F490818923808361E084EE96E1DF
:104C10000E94640BE0911517F09116178081909116
:104C20001E17892B808368E01111CCCC6AE0CACCB6
:104C30002730310509F041C02091FA163091FB165A
:104C40002D7F2115310529F5112369F191E2E896AF
:104C50009FAFE89790818923808360E084EE96E19E
:104C60000E94640B61E084EE96E10E94640BE09187
:104C70001517F0911617808190911E17892B80834C
:104C8000E8966FADE89784EE96E10E94640B63E8C6
:104C900099CC21303105F1F6112351F0A2E2E896CA
:104CA000AFAFE897D7CFB1E0E896BFAFE897D2CFE4
:104CB00022E0E8962FAFE897CDCF908189238083BB
:104CC00061E211117FCC60E27DCCA801440F551F39
:104CD000DA01AD59BB4E2D933C93DA01A059BB4E7E
:104CE0006D937C9311821082C0CC03970CF05ECD43
:104CF0001DEA612E14E1712E0CE2802E02E1902E4D
:104D000010E000E085E0B82ED4018C91B2E08B0E6B
:104D1000911C0E94DA047C01F301819191913F0181
:104D2000E816F90609F46DC0E114F10409F065C054
:104D3000B801CE0101960E94351863E973E18D2D0B
:104D40009C2D0E948118BE016F5F7F4F8D2D9C2D81
:104D50000E94E5170E9489178D2D9C2D0E94BD157C
:104D6000CE0101960E94BD15F8013197EA30F10598
:104D700078F48827E254F94D8F4FAAC320282328BE
:104D800028282B283028332838283B283B2840283F
:104D900061E070E090E080E00E94C1020E94701427
:104DA00082EB93E10E94CA156D2D7C2DA3E1B5E144
:104DB00030E020E04D915D91B29EC001B39E900D18
:104DC00011248C569B4E840F951FFC018081FB01A2
:104DD0008193BF012F5F3F4F2530310559F76D2D6E
:104DE0007C2DCE0101960E948118CE0101960E9471
:104DF0008917CE0101960E94BD15F3013297F18209
:104E0000E0820F5F1F4F0B30110509F07DCFA8E83E
:104E10004A2EA4E15A2EB4E26B2EB2E17B2E10E0B2
:104E200000E0D3018C91B2E06B0E711C0E94DA0499
:104E3000AA24A394B12C009711F0B12CA12CF2015B
:104E4000219131912F012A153B0509F49EC0892B30
:104E500009F097C0B801CE0101960E9435186EEB9B
:104E600073E18D2D9C2D0E948118BE016F5F7F4FD5
:104E70008D2D9C2D0E94E5170E9489178D2D9C2D4C
:104E80000E94BD15CE0101960E94BD15209180148F
:104E900030918114809182149091831428173907DE
:104EA0000CF4C9018031F7E29F0714F08FE097E21C
:104EB0002091841430918514821793070CF49C017F
:104EC0006091861470918714261737070CF4B90186
:104ED000CE0101960E943518CE0101960E948917D5
:104EE000CE0101960E94BD157801EE0CFF1C9701C2
:104EF00020583B4E4901D9016D917C91CE0101961C
:104F00000E943518CE0101960E948917CE010196A4
:104F10000E94BD15F401208131814091801450918F
:104F200081148091821490918314481759070CF4CE
:104F3000CA018031F7E29F0714F08FE097E24091B9
:104F4000841450918514841795070CF4AC0180915A
:104F5000861490918714481759070CF4CA01281732
:104F6000390709F0ABC028513C4FD4012D933C9335
:104F7000F701E858FB4E21E030E0318320830E94A6
:104F8000E015F2013297B182A0820F5F1F4F063009
:104F9000110509F046CF75E5A72E72E0B72EF12C6A
:104FA000E12CD5018D919D915D01019759F401E0AE
:104FB00010E0970140E056E960E070E087EC95E191
:104FC0000E945D13BFEFEB1AFB0AE3E0EE16F1045B
:104FD00041F787EC95E10E9499138FB7F8942091DF
:104FE0006C1430916D1440916E1450916F148FBFFA
:104FF000A091C314B091C414AA0FBB1F1196205DD9
:105000003740410951091AD220EE33E944E050E01B
:10501000261B370B480B590BCA01B90128EE33E0A8
:1050200040E050E011D2290130935E0220935D02EE
:1050300037FF5CC081E08093C7140E946615B6CB31
:105040006FEF7FEFA7CE61E070E081E090E0A4CE4B
:105050006FEF7FEFFACF61E070E082E090E09CCEEE
:105060006FEF7FEFFACF61E070E083E090E094CEE5
:105070006FEF7FEFFACF6FEF7FEF84E090E08CCEA1
:10508000E3E1F5E181919191892B09F0B0C0E796B8
:105090002EAD3FADE797E217F307A1F741E050E0EF
:1050A00050935602409355028091C5149091C614B6
:1050B00001969093C6148093C51470CE0E947B1500
:1050C000E8E7F4E180E794E140E854E111921192BD
:1050D000DC012D913D91CD01DA012D933D93AD0180
:1050E00020E834E12E173F0789F749CFC2016CE36E
:1050F00070E0DBD124EC26038001279F100D1124E2
:10510000040D151D24E6269FC001279F900D112434
:10511000080F191F8EE297E10E945D15C80168EE25
:1051200073E0C3D190E080E00E94FF14C801B10198
:10513000BCD1CB012AE0A22EB12CB501B6D1BC0165
:1051400081E090E00E94FF14C801B501AED18C014E
:10515000CB01B501AAD1BC0182E090E00E94FF140E
:10516000B80183E090E00E94FF148EE297E10E9474
:10517000991380915B0290915C0248165906D1F018
:1051800080916B1491E024E630E040E050E0892704
:1051900080936B14882399F068EE73E085E30E9496
:1051A000AF0524E630E040E050E068EE73E08CE2CA
:1051B0000E94AF0550925C0240925B02F7CA64E81D
:1051C00073E085E30E94AF0524E630E040E050E064
:1051D00064E873E0ECCF0E94351560EB74E080E08A
:1051E00090E00E949D0885E30E942F05DFCA0E947F
:1051F0007B15D4CDCF93DF93EC0189859A8520D29E
:105200008E819F8197FD05C060E0DF91CF910C9466
:105210007305DF91CF910895CF93DF9387EC95E1EC
:10522000E9DF8DED95E1E6DF83EF95E10E94BD15A5
:10523000C4EED6E12697CE010E94BD1586E1C231AB
:10524000D807C1F78EE297E1DF91CF91D3CF8F924C
:105250009F92AF92BF92CF92DF92EF92FF92CF9345
:10526000DF93EC01688179818A819B8161157105E9
:105270008105910521F464E279ED8BE597E02DE15C
:1052800033EF41E050E0B4D049015A019B01AC0139
:10529000A7EAB1E4C9D06B017C01ACEEB4EFA50183
:1052A0009401CED0C60ED71EE81EF91EF7FE06C02A
:1052B00081E0C81AD108E10880E8F80AC882D982DA
:1052C000EA82FB82C701B6019F77DF91CF91FF9001
:1052D000EF90DF90CF90BF90AF909F908F90089508
:1052E0008F929F92AF92BF92CF92DF92EF92FF92F6
:1052F00060915F0270916002809161029091620200
:10530000611571058105910521F464E279ED8BE564
:1053100097E02DE133EF41E050E06AD049015A01B6
:105320009B01AC01A7EAB1E47FD06B017C01ACEE3C
:10533000B4EFA501940184D0C60ED71EE81EF91E55
:10534000F7FE06C081E0C81AD108E10880E8F80A33
:10535000C0925F02D0926002E0926102F09262021B
:10536000C701B6019F77FF90EF90DF90CF90BF907D
:10537000AF909F908F90089560935F02709360024A
:1053800080936102909362020895BB274A3031F402
:10539000992322F4BDE2909581959F4F01C0BB27D0
:1053A000FB015527AA27880F991FAA1FA41710F0E1
:1053B000A41B83955051B9F7A05DAA3308F0A95DED
:1053C000A193009779F7B111B1931192CB0100C06D
:1053D000DC01FC01672F71917723E1F7329704C05C
:1053E0007C916D9370836291AE17BF07C8F30895E7
:1053F000052E97FB16F400940FD057FD05D024D04E
:1054000007FC02D046F408C0509540953095219590
:105410003F4F4F4F5F4F08959095809570956195E0
:105420007F4F8F4F9F4F089531D0A59F900DB49F10
:10543000900DA49F800D911D11240895B7FFF4CF06
:10544000F3DF821B930B0895A1E21A2EAA1BBB1B4C
:10545000FD010DC0AA1FBB1FEE1FFF1FA217B30740
:10546000E407F50720F0A21BB30BE40BF50B661F56
:10547000771F881F991F1A9469F76095709580951A
:1054800090959B01AC01BD01CF010895A29FB00191
:10549000B39FC001A39F700D811D1124911DB29F68
:1054A000700D811D1124911D089597FB072E16F490
:1054B000009406D077FD08D013D007FC05D03EF449
:1054C000909581959F4F0895709561957F4F0895B0
:1054D000EE0FFF1F881F8BBF0790F691E02D1994E8
:1054E000AA1BBB1B51E107C0AA1FBB1FA617B7070A
:1054F00010F0A61BB70B881F991F5A95A9F7809526
:105500009095BC01CD0108950F931F93CF93DF9326
:105510008230910510F482E090E0E0914617F0911E
:10552000471730E020E0B0E0A0E0309799F4211573
:10553000310509F44AC0281B390B24303105D8F550
:105540008A819B816115710589F1FB0193838283B7
:10555000FE0111C040815181028113814817590712
:10556000E0F04817590799F4109761F012960C93E0
:10557000129713961C933296CF01DF91CF911F9112
:105580000F9108950093461710934717F4CF2115F4
:10559000310551F04217530738F0A901DB019A0198
:1055A000BD01DF01F801C1CFEF01F9CF909347179B
:1055B00080934617CDCFFE01E20FF31F81939193A5
:1055C0002250310939832883D7CF20914417309155
:1055D0004517232B41F420916502309166023093E8
:1055E00045172093441720916302309164022115DE
:1055F000310541F42DB73EB74091670250916802E2
:10560000241B350BE0914417F0914517E217F3077F
:10561000A0F42E1B3F0B2817390778F0AC014E5F22
:105620005F4F2417350748F04E0F5F1F5093451703
:1056300040934417819391939FCFF0E0E0E09CCF9B
:10564000CF93DF930097E9F0FC0132971382128227
:10565000A0914617B0914717ED0130E020E0109778
:10566000A1F420813181820F931F20914417309142
:1056700045172817390709F061C0F0934517E093E3
:105680004417DF91CF910895EA01CE17DF07E8F5BF
:105690004A815B819E0141155105B1F7E901FB8308
:1056A000EA8349915991C40FD51FEC17FD0761F4A6
:1056B000808191810296840F951FE90199838883E7
:1056C000828193819B838A83F0E0E0E012968D9142
:1056D0009C9113970097B9F52D913C911197CD01AD
:1056E0000296820F931F2091441730914517281777
:1056F000390739F6309751F510924717109246172F
:10570000B0934517A0934417BCCFD383C283408185
:105710005181840F951FC817D90761F44E5F5F4F01
:1057200088819981480F591F518340838A819B81C9
:10573000938382832115310509F0B0CFF093471789
:10574000E09346179ECFFD01DC01C0CF1382128289
:10575000D7CF4F925F926F927F928F929F92AF922C
:10576000BF92CF92DF92EF92FF920F931F93CF934E
:10577000DF938C01009791F4CB01DF91CF911F91C2
:105780000F91FF90EF90DF90CF90BF90AF909F90E0
:105790008F907F906F905F904F90B6CEFC01E60F98
:1057A000F71F9C0122503109E217F30708F4AAC041
:1057B000D901CD91DC911197C617D70718F1C530E3
:1057C000D10570F0CE0104978617970748F0C61BE5
:1057D000D70B2297C193D1936D937C93CF0130DF88
:1057E000C801DF91CF911F910F91FF90EF90DF9053
:1057F000CF90BF90AF909F908F907F906F905F9071
:105800004F9008955B01AC1ABD0A4C018C0E9D1E91
:10581000A0914617B0914717512C412CF12CE12C47
:10582000109731F580914417909145178815990587
:1058300009F05CC04616570608F058C08091630214
:1058400090916402009741F48DB79EB74091670232
:1058500050916802841B950BE817F90708F052C0B5
:10586000F0934517E0934417F90171836083B8CF33
:105870008D919C91119712966C90129713967C9033
:105880001397A815B90559F56C0142E0C40ED11C57
:10589000CA14DB0420F1AC014A195B09DA01129643
:1058A000159780F06282738251834083D9016D9392
:1058B0007C93E114F10471F0D7011396FC93EE93FD
:1058C00012978ECF22968C0F9D1FF90191838083B2
:1058D000F301EFCFF0934717E093461781CF4816B7
:1058E000590608F42C017D01D3019ACFCB010CDEBF
:1058F0007C01009739F0AE01B8010BD0C801A0DEE1
:1059000087016ECF10E000E06BCF81E090E0F8946B
:1059100051C0FB01DC0102C001900D92415050408A
:10592000D8F708956817790768F4FB01DC01E40FE4
:10593000F51FA40FB51F02C002900E9241505040B7
:10594000D8F70895E6CFDC0101C06D934150504077
:10595000E0F70895FB01DC0101900D920020E1F7D2
:105960000895FB01DC014150504048F001900D9238
:105970000020C9F701C01D9241505040E0F7089542
:10598000FB0151915523A9F0BF01DC014D91451751
:105990004111E1F759F4CD010190002049F04D91FA
:1059A00040154111C9F3FB014111EFCF81E090E0B7
:1059B0000197089512E0CEE8D2E000E005C0802F04
:1059C000FE0186DD2196011DCF38D10780E0080752
:0659D000B1F7F894FFCFCF
:1059D600FF090015000B000C00110013000500184C
:1059E600000900050007000A00130002000000126B
:1059F6000007000F0017000B000A00010003000D4E
:105A06000011000F0002000E0006000E000D00043B
:105A16000003001A001B000100180008001600060B
:105A26000019001000000001000000E093E093015F
:105A36000000000000481780000040145400401089
:105A460050FF8357060007000800160017002400C1
:105A5600FFFF08001700FFFFFFFFFFFFFFFFFFFF2D
:105A660006000800150016002400FFFFFFFF0600D1
:105A76000800150017002400FFFFFFFFFFFF0700C7
:105A860008001500FFFF1700FFFF06000700FFFFD5
:105A96001500FFFF1700240006000700FFFF150092
:105AA6001600170024000600FFFF0800FFFFFFFF97
:105AB6001700FFFF06000700080015001600170074
:105AC60024000600070008001500FFFF1700240049
:105AD600040009000A00180019002200FFFF0A004E
