:1000000003C1000032C1000030C100002EC1000059
:100010002CC100002AC1000028C1000026C1000038
:1000200024C1000022C1000020C100001EC1000048
:100030001CC100001AC1000018C1000016C1000058
:1000400014C1000012C1000010C100000EC1000068
:100050000CC100000AC1000008C100000C94D009C6
:1000600004C100000C949A090C947109FEC00000B0
:10007000FCC00000FAC00000F8C00000F6C000009C
:10008000F4C00000F2C00000F0C00000EEC00000AC
:10009000ECC00000EAC00000E8C000000C941A0A9E
:1000A000E4C00000E2C00000E0C00000DEC00000CC
:1000B000DCC00000DAC00000D8C00000D6C00000DC
:1000C000D4C00000D2C00000D0C00000CEC00000EC
:1000D000CCC00000CAC00000C8C00000C6C00000FC
:1000E000C4C0000000002100240027002A002D00C9
:1000F0003000330001010000040107010A01000083
:1001000020002300260029002C002F0032000001CF
:10011000000003010601090100000A0B02090C0D91
:100120000E080703040100000000000000000000AA
:1001300000000000000000000000000000000000BF
:10014000000000001211100000000000000000007C
:10015000000000000000000000000000000001029C
:1001600010202008081020401020408002010201C9
:100170000804020101020408102040808040201081
:1001800008040201800402018040201008040201DA
:100190000804020101020408102040800102040842
:1001A0001020408000002200250028002B002E0097
:1001B0003100340002010000050108010B010505B2
:1001C0000505070508080808020202020A0A0808CD
:1001D00004040404010101010101010103030303FB
:1001E00003030303040707070C0C0C0C0C0C0C0C8A
:1001F0000202020206060606060606060B0B0B0B9B
:100200000B0B0B0B960BF00F11241FBECFEFD1E29F
:10021000DEBFCDBF00E00CBF15E0A0E0B2E0E0E73C
:10022000F7E200E00BBF02C007900D92AC3AB107B5
:10023000D9F728E0ACEAB5E001C01D92AD36B207AF
:10024000E1F711E0C3E0D1E000E006C02197010929
:10025000802FFE010E946011C230D10780E00807A4
:10026000A9F70E94B70C0C94A713CACE2091980648
:1002700081E0213208F044C0809174068111FCCFE6
:100280008091970692E09093740691E090937306A4
:100290009FEF909372061092710620937006A7E765
:1002A000B6E0E0E5F6E090E0291331C010924F0689
:1002B00090914F06880F892B80934F0680914E06B0
:1002C000813049F510924E0680914F068093BB0015
:1002D0008091BC0083FDF8CF85EC8093BC008091B9
:1002E00074068230E1F3809172068F3FB1F0809105
:1002F00072068032A1F080917206803391F084E022
:1003000010927606109298061092750608953D9107
:1003100031939F5FC9CF85EEE0CF80E0F1CF82E0DF
:10032000EFCF83E0EDCFFC012481358162177307A5
:1003300020F480819181009729F410921A068AE1B5
:1003400096E00895860F971F0895AF92BF92CF92BF
:10035000DF92EF92FF920F931F93CF93DF936C0185
:100360007B018B01040F151FEB015E01AE18BF0866
:10037000C017D10759F06991D601ED91FC91019018
:10038000F081E02DC6011995892B79F7C501DF9120
:10039000CF911F910F91FF90EF90DF90CF90BF9082
:1003A000AF900895FC01538D448D252F30E0842FAC
:1003B00090E0821B930B541710F0CF96089501978D
:1003C0000895FC01918D828D981761F0A28DAE0F7A
:1003D000BF2FB11D5D968C91928D9F5F9F73928F01
:1003E00090E008958FEF9FEF0895FC01918D828D2D
:1003F000981731F0828DE80FF11D858D90E00895FA
:100400008FEF9FEF0895FC01918D228D892F90E051
:10041000805C9F4F821B91098F739927089583EA0F
:1004200096E0F1DF21E0892B09F420E0822F089586
:10043000FC01A48DA80FB92FB11DA35ABF4F2C9159
:10044000848D90E001968F739927848FA689B78950
:100450002C93A089B1898C91837080648C93938D47
:10046000848D981306C00288F389E02D80818F7DEA
:1004700080830895EF92FF920F931F93CF93DF93A2
:10048000EC0181E0888F9B8D8C8D98131AC0E889D0
:10049000F989808185FF15C09FB7F894EE89FF899F
:1004A0006083E889F98980818370806480839FBF3D
:1004B00081E090E0DF91CF911F910F91FF90EF903D
:1004C0000895F62E0B8D10E00F5F1F4F0F7311274D
:1004D000E02E8C8D8E110BC00FB607FCFACFE88989
:1004E000F989808185FFF5CFCE01A2DFF2CFEB8DB8
:1004F000EC0FFD2FF11DE35AFF4FF0829FB7F894E8
:100500000B8FEA89FB8980818062D0CFCF93DF9304
:10051000EC01888D8823B1F0AA89BB89E889F98923
:100520008C9185FD03C0808186FD0CC00FB607FC51
:10053000F7CF8C9185FFF2CF808185FFEDCFCE0183
:1005400077DFEACFDF91CF91089580E090E0892BAB
:1005500021F065DF81110E94000080E090E0892B8E
:1005600049F080E090E0892B29F00E940000811181
:100570000E94000080E090E0892B49F080E090E04C
:10058000892B29F00E94000081110E94000080E068
:1005900090E0892B49F080E090E0892B29F00E94BF
:1005A000000081110C94000008958150823108F000
:1005B0005AC0E82FF0E08827EF51FD4F8F4F0C9481
:1005C000601101030503F302F902FD02330308037E
:1005D0000E03120318031C03200326032A0333030C
:1005E0002E0334033803809180008F77809380003E
:1005F0000895809180008F7DF9CF80918000877F62
:10060000F5CF84B58F7784BD089584B58F7DFBCFFA
:100610008091B0008F778093B00008958091B000F2
:100620008F7DF9CF809190008F778093900008950F
:10063000809190008F7DF9CF80919000877FF5CFDA
:100640008091A0008F778093A00008958091A000F2
:100650008F7DF9CF8091A000877FF5CF8091200119
:100660008F77809320010895809120018F7DF9CFAD
:1006700080912001877FF5CF1F93CF93DF93282FA1
:1006800030E0F901E85EFE4F8491F901E25AFE4F35
:10069000D491F901E254FE4FC491CC23A1F0162F5E
:1006A000811183DFEC2FF0E0EE0FFF1FEC55FE4FC2
:1006B000A591B4918FB7F894EC91111108C0D09521
:1006C000DE23DC938FBFDF91CF911F910895DE2B46
:1006D000F8CFCF93DF9390E0FC01E25AFE4F2491D4
:1006E00082549E4FFC0184918823C9F090E0880FCA
:1006F000991FFC01EC51FF4FA591B491FC01EC5501
:10070000FE4FC591D49161110DC09FB7F8948C91A3
:10071000209582238C938881282328839FBFDF9193
:10072000CF910895623051F49FB7F8943C91822F95
:10073000809583238C93E8812E2BEFCF8FB7F8948D
:10074000EC912E2B2C938FBFEACF3FB7F89480917A
:10075000160690911706A0911806B091190626B5B5
:10076000A89B05C02F3F19F00196A11DB11D3FBFE9
:10077000BA2FA92F982F8827BC01CD01620F711DB8
:10078000811D911D42E0660F771F881F991F4A95B2
:10079000D1F7089521E001C0220F6A95EAF7DC0144
:1007A0001C962C931C971A965C934E931997ED9177
:1007B000FC910484F585E02D60E019940895089576
:1007C000DC01ED91FC910684F785E02D41E019955F
:1007D00081E090E00895DC01ED91FC910684F785BD
:1007E000E02D40E01994CF93DF9300D000D01F920A
:1007F0001F92CDB7DEB740910A0250910B02609173
:100800000C0270910D024D835E836F837887409157
:100810000E0250910F0260911002709111024983F3
:100820005A836B837C8320916F07821710F08FEFC0
:10083000820F90E0309170078C0F9D1FFC013031CA
:1008400079F4243069F46181606888E697E028963D
:100850000FB6F894DEBF0FBECDBFDF91CF91BBCFF7
:100860006581F2CF8F929F92AF92BF92CF92DF922B
:10087000EF92FF920F931F93CF93DF93EC014230DF
:1008800018F08C8188608C834F836887222329F03D
:10089000413019F48C8184608C8357DF4B015C01FB
:1008A00084E6C82ED12CE12CF12C4FDF6819790990
:1008B0008A099B09683E734081059105B0F321E0E8
:1008C000C21AD108E108F10888EE880E83E0981E6C
:1008D000A11CB11CC114D104E104F10431F76C81F5
:1008E00064FD60C0E881F9810684F785E02D42E06F
:1008F00063E0CE0119958BE496E40197F1F7E88166
:10090000F9810684F785E02D42E063E0CE01199578
:1009100003E512E0C8010197F1F7E881F981068447
:10092000F785E02D42E063E0CE011995C8010197FB
:10093000F1F7E881F9810684F785E02D42E062E075
:10094000CE011995C8010197F1F76C816062CE0163
:1009500042DF8BEE90E00197F1F784E08D836CE04D
:10096000CE0139DF61E0CE0136DF8BE39FE10197F5
:10097000F1F782E08E8366E0CE012DDFE881F98118
:100980000484F585E02D6FEFCE01DF91CF911F91AB
:100990000F91FF90EF90DF90CF90BF90AF909F901E
:1009A0008F9019946062CE0116DF8BE496E4019774
:1009B000F1F76C816062CE010EDF03E512E0C80141
:1009C0000197F1F76C816062CE0105DFBBCF08951E
:1009D0000895089585ED8093BC008091BC0084FD4E
:1009E000FCCF1092740608952091EC05260F332752
:1009F000331F21323105ECF420917406FC0190E0A4
:100A000080E0243069F082E00895A091EC05219106
:100A1000AC0144535A4FA40FB52FB11D2C9301962E
:100A2000861798F38091EC05680F6093EC0580E0E1
:100A3000089581E008950895E091140680911306C9
:100A4000E81730F4F0E0E455FA4F808190E0089523
:100A50008FEF9FEF089590911406809113062FEF6A
:100A60003FEF981748F4E92FF0E0E455FA4F208162
:100A700030E09F5F90931406C9010895809113069A
:100A800090911406891B990B0895CF92DF92EF92F3
:100A9000FF920F931F93CF93DF937C01CB018A01C9
:100AA00020917506222389F0EB016B01C40ED51E3F
:100AB000CC15DD0561F06991D701ED91FC910190B4
:100AC000F081E02DC7011995F3CF642F8DDFC801A8
:100AD000DF91CF911F910F91FF90EF90DF90CF901A
:100AE0000895CF93DF931F92CDB7DEB7698320912E
:100AF00075062223F9F020919806203258F021E063
:100B000030E0FC013383228390E080E00F90DF919E
:100B1000CF91089580917606E82FF0E0E958F94FDB
:100B2000998190838F5F809376068093980681E009
:100B300090E0ECCF61E0CE01019656DFF8CFFC01EA
:100B400023812223D1F08181682B6083828191E00F
:100B500090937506809397061092760610929806E9
:100B600080E497E0BEDF82DB282F30E081E090E078
:100B7000232B11F090E080E0089530E020E0F6CFE4
:100B8000EF92FF920F931F93CF938C01FC0184E0AF
:100B9000C0E0262F30E060FF02C09589C92BB90163
:100BA00075956795815031968111F3CF413011F4DD
:100BB000F8014489F8016585C62BC42B7801FEE055
:100BC000EF0EF11CF80162896C2BC701B8DFF80148
:100BD000628960956C23C701CF911F910F91FF909F
:100BE000EF90ADCF0F931F93CF93DF93062F0F702E
:100BF000423039F440E0602FDF91CF911F910F9187
:100C0000BFCF142FEC0170E084E0759567958A954D
:100C1000E1F7CE01B5DF412F602FCE01EDCFFC0112
:100C20008485882399F0218532852115310521F4A9
:100C3000611107C0158606C021303105D9F7611151
:100C4000F9CF85876585CF010E9679CF0895EF920C
:100C5000FF920F931F93CF93DF93EC01062FF42E97
:100C6000E22E8B85888B1092140610921306109238
:100C70007606109298061092740611E0109373068F
:100C800010924E0661E084E1F7DC61E085E1F4DC7E
:100C90008091B9008E7F8093B9008091B9008D7FDB
:100CA0008093B90088E48093B80085E48093BC0009
:100CB0008EED93E090931206809311068FED93E0F2
:100CC0009093100680930F06888910937506809381
:100CD00097061092760610929806C8DA811119C00C
:100CE000198B80E497E0B7DE8E878989882331F0FD
:100CF0001F861C8260E0CE010E9621DF2E2D4F2D27
:100D0000602FCE01DF91CF911F910F91FF90EF9057
:100D1000A9CD198AEACF90E080E00895CF92DF92C2
:100D2000EF92FF920F931F93CF93DF9300D000D0E9
:100D300000D0CDB7DEB78C01DC0119968D919C9166
:100D4000892B09F463C001DDF801C784D088E188EC
:100D5000F2886C197D098E099F096C3271408105FA
:100D6000910588F3F894D80114968D919C9115976C
:100D70009A8389831996ED91FC917F01BFEFEB1A5D
:100D8000FB0A80818987F80190810388F489E02D2E
:100D9000D80155968C91992309F447C09081982BDE
:100DA00098879081809589238F838F818C8388E0B9
:100DB0008B8358856F8149853B812C8189819A81FC
:100DC000D701508347FD252F3A952083262F39F0F0
:100DD000441F00C000006083000000C0F2CF38E074
:100DE0004D9160830000019761F7D8015496FC9300
:100DF000EE93539749873B832C839A838983789416
:100E0000A4DCF8016787708B818B928B29960FB6D3
:100E1000F894DEBF0FBECDBFDF91CF911F910F9130
:100E2000FF90EF90DF90CF9008959081982B988756
:100E30009081809589238F838F818E8388E08D8335
:100E400058856F8149853D812E8189819A81D7019D
:100E5000508347FD252F00C000C0208300C000C084
:100E600000C000C000C060830000262F3A9541F00A
:100E7000441F000000C000C000C000C000C0E8CF98
:100E800038E04D9100C0608300C0019709F7D80198
:100E90005496FC93EE93539749873D832E83ADCFB1
:100EA000CF93DF93EC018E819F8197FD05C061E0B8
:100EB00010DC60E08E81E0DB81E08983DF91CF91FF
:100EC00008952CE8AC01249FC001259F900D1124AA
:100ED0004EE0469F9001479F300D1124820F931FD3
:100EE00070E060E0A4E6FB01EE0FFF1FE80FF91FC2
:100EF000EE5EFD4F4081518157FD33C02091550872
:100F0000309156084217530760F520915B08B4E60C
:100F1000222321F02A9F90011124B32FE091610830
:100F200020915C0830915D08F0915E08EF1320C0BD
:100F3000FA01EE0FFF1F4E0F5F1F240F351FE091C8
:100F40005E08E20FF32FF11DB083E0915F08E20F1E
:100F5000F32FF11D108240916008240F311DF9011B
:100F600010826F5F7F4F6730710509F0BCCF089525
:100F7000440F551F440F551F240F351FE20FF32F49
:100F8000F11D1082DCCF0F931F93CF93DF938C0161
:100F9000E3E5F8E04481558170E060E08185928569
:100FA0000E948A13C80168EE73E00E944D1190E020
:100FB00080E087DFC80164E670E00E944D11CB013C
:100FC000CAE0D0E0BE010E944D11BC0181E090E07A
:100FD00078DFC801BE010E944D118C01CB01BE011A
:100FE0000E944D11BC0182E090E06BDFB80183E00C
:100FF00090E067DF83E598E0DF91CF911F910F913B
:101000008DCECF93DF93EC0188819981009711F009
:101010000E941812198218821D821C821B821A8259
:10102000DF91CF910895FC01808191810C94181279
:10103000CF93DF93FC014481558164177507C8F491
:101040009B01EC018081918141505109558344837A
:10105000461B570B6F5F7F4F680F791F820F931FDF
:101060000E949813E881F9818C819D81E80FF91F16
:101070001082DF91CF910895FC0101900020E9F7E3
:101080003197AF01481B590BBC0183EA96E05DC95B
:101090008F929F92AF92BF92CF92DF92EF92FF9288
:1010A0000F931F93CF93DF93CDB7DEB7A1970FB602
:1010B000F894DEBF0FBECDBF6C01990FEE08FF089C
:1010C000F7FE44C06DE283EA96E0D4D98C01222772
:1010D0003327A9012C193D094E095F0919A2CE0138
:1010E00081967C019AE0892E912CA12CB12CCA0109
:1010F000B901A50194010E941C11605DF701629382
:101100007F01211531054105510589F790E080E007
:10111000309711F0CF01B0DF080F191F80E994E07C
:10112000ABDF800F911FA1960FB6F894DEBF0FBE04
:10113000CDBFDF91CF911F910F91FF90EF90DF9086
:10114000CF90BF90AF909F908F900895A701960188
:1011500019A28E010F5D1F4F8AE0C82ED12CE12C01
:10116000F12CCA01B901A70196010E941C11605D12
:10117000F80162938F01211531054105510589F769
:10118000309721F0CF0178DF8C01C8CF10E000E06C
:10119000C5CFCF92DF92EF92FF920F931F93CF9321
:1011A000DF938B017C01EE0CFF1CE701C756D94F82
:1011B000888199816DDF88819981800F911F24E05A
:1011C000C22ED12CB6010E944D1162DF6881798157
:1011D000600F711F6530710584F019821882F70164
:1011E000E756F94F80819181DF91CF911F910F9147
:1011F000FF90EF90DF90CF904BCF77FD03C07983C6
:101200006883EDCFD982C882EACFCF93DF93FC0108
:10121000448155816081718183EA96E096D8EC0122
:1012200080E994E029DF8C0F9D1FDF91CF91089515
:101230000E947D130F931F93CF93DF93EC0188815E
:101240009981009759F02A813B812617370730F0A2
:1012500081E0DF91CF911F910F9108958B016F5F16
:101260007F4F0E94A112009759F0998388831B83B6
:101270000A832C813D81232B59F7FC011082E8CF92
:1012800080E0E7CFEF92FF920F931F93CF93DF930E
:10129000EC017B018A01BA01CDDF81110AC0CE01C8
:1012A000B0DECE01DF91CF911F910F91FF90EF90B3
:1012B00008951D830C83B701888199810E94911341
:1012C000F0CFFC01118210821382128215821482E7
:1012D000FB0101900020E9F73197AF01461B570B46
:1012E000D1CF1F920F920FB60F9211240BB60F920F
:1012F0002F933F934F935F936F937F938F939F931E
:10130000AF93BF93EF93FF9383EA96E091D8FF9159
:10131000EF91BF91AF919F918F917F916F915F916D
:101320004F913F912F910F900BBE0F900FBE0F90DA
:101330001F9018951F920F920FB60F9211240BB6A3
:101340000F922F938F939F93EF93FF93E091B306A8
:10135000F091B4068081E091B906F091BA0682FD61
:101360001DC090818091BC068F5F8F732091BD0658
:10137000821741F0E091BC06F0E0ED55F94F958FF2
:101380008093BC06FF91EF919F918F912F910F90C9
:101390000BBE0F900FBE0F901F9018958081F2CF5B
:1013A0001F920F920FB60F9211242F933F938F939A
:1013B0009F93AF93BF9380914A0690914B06A09163
:1013C0004C06B0914D063091150623E0230F2D37C2
:1013D00058F50196A11DB11D2093150680934A066C
:1013E00090934B06A0934C06B0934D068091160641
:1013F00090911706A0911806B09119060196A11DAB
:10140000B11D8093160690931706A0931806B0930B
:101410001906BF91AF919F918F913F912F910F909E
:101420000FBE0F901F90189526E8230F0296A11D5E
:10143000B11DD2CF1F920F920FB60F9211240BB68F
:101440000F922F933F934F935F936F937F938F935D
:101450009F93AF93BF93EF93FF938091B900887FE1
:10146000803609F44CC008F03FC0883209F4A8C0A7
:1014700028F5803109F49CC0C8F4882309F4FAC027
:10148000883009F495C0FF91EF91BF91AF919F9182
:101490008F917F916F915F914F913F912F910F901D
:1014A0000BBE0F900FBE0F901F901895883109F456
:1014B00087C0803241F78093720614C0803409F4EB
:1014C0009CC040F48033B9F38833E9F68093720608
:1014D00085ECAFC0803509F484C0883509F495C027
:1014E000883489F677DACFCF883909F48CC038F59B
:1014F000883729F050F4883611F0803721F683E0E0
:101500008093740610920E0657C0883809F47BC089
:10151000803919F0803809F0B6CF80910E068032FC
:1015200008F071C0E0910E0681E08E0F80930E06E8
:101530008091BB00F0E0E251FA4F80833DC0803BD8
:1015400039F0E0F4803A09F479C0883A09F09BCF89
:1015500084E0809374061092ED051092EC05E09102
:101560001106F091120619958091EC0581110FC0BA
:1015700081E08093EC051092CC0509C0803C09F411
:10158000A7CF883C09F4A4CF883B09F07CCFE09139
:10159000ED0581E08E0F8093ED05F0E0E453FA4F06
:1015A00080818093BB009091ED058091EC0529C06E
:1015B00080914F068093BB0085EC8093BC0063CF85
:1015C0009091710680917006981758F5E091710618
:1015D00081E08E0F80937106F0E0E05BF94F80812F
:1015E000E9CFE091710681E08E0F809371068091C2
:1015F000BB00F0E0E05BF94F808390917106809131
:1016000070069817C8F285E8D8CFE091710681E09E
:101610008E0F809371068091BB00F0E0E05BF94F84
:1016200080838091730681115DCF81E080934E06A7
:1016300084EA8093BC001092740625CF85EC8093D9
:10164000BC001092740680910E06803230F4E09156
:101650000E06F0E0E251FA4F108260910E0670E043
:10166000E0910F06F09110068EEE95E0199510921C
:101670000E0609CF1092720635CFCF92DF92EF920D
:10168000FF920F931F93CF93DF93EC016B018A01BD
:10169000198218861F86188A198A1A8A81E08E870D
:1016A0008B871C8692E09D8788837B01EE0CFF1C54
:1016B000E60EF71EFD82EC82C7011ED69A87898747
:1016C000009779F1A70170E060E00E948A13DB8245
:1016D000CA821F830E838981882341F061E0802FB5
:1016E0000E94690360E0802F0E943C03F801E254ED
:1016F000FE4FE491F0E0EE0FFF1FEC55FE4F859199
:1017000094919C8B8B8BF801E25AFE4FE491ED8B08
:10171000DF91CF911F910F91FF90EF90DF90CF90CD
:1017200008951D821C821B821A82D3CFE3EAF6E061
:101730001382128288EE93E0A0E0B0E08483958368
:10174000A683B7832CE534E03183208325EC30E099
:101750003587248724EC30E03787268720EC30E07B
:10176000318B208B21EC30E0338B228B22EC30E06C
:10177000358B248B26EC30E0378B268B118E128E26
:10178000138E148EE0E4F7E0138212828483958333
:10179000A683B7838EE694E09183808346E150E090
:1017A00065E270E083E598E068DF63E974E081E872
:1017B00097E087DD69E974E087E897E082DD6FE90B
:1017C00074E08DE897E07DDD65EA74E083E997E0F9
:1017D00078DD6BEA74E089E997E073DD61EB74E032
:1017E0008FE997E06EDD67EB74E085EA97E069DDED
:1017F0006DEB74E08BEA97E064DD63EC74E081EB01
:1018000097E05FDD69EC74E087EB97E05ADD6FEC01
:1018100074E08DEB97E055DD65ED74E083EC97E0C7
:1018200050DD6BED74E089EC97E04BDD61EE74E028
:101830008FEC97E046DD67EE74E085ED97E041DDE3
:101840006DEE74E08BED97E03CDD63EF74E081EECC
:1018500097E037DD69EF74E087EE97E032DD6FEFF8
:1018600074E08DEE97E02DDD65E075E083EF97E0A5
:1018700028DD6BE075E089EF97E023DD61E175E03D
:101880008FEF97E01EDD67E175E085E098E019DDF8
:101890006DE175E08BE098E014DD63E275E081E1D5
:1018A00098E00FDD69E275E087E198E00ADD6FE21C
:1018B00075E08DE198E005DD65E375E083E298E091
:1018C00000DD6BE375E089E298E0FBDC61E475E044
:1018D0008FE298E0F6DC67E475E085E398E0F1DC00
:1018E0006DE475E08BE398E0ECDC63E575E081E4A2
:1018F00098E0E7DC69E575E087E498E0E2DC6FE515
:1019000075E08DE498E0DDDCE8E6F7E01382128212
:1019100080E894E091838083108A8FEF8787168612
:10192000118A87E28387148615861286118684E0E1
:10193000828B82E0838B81E0848B80E1858B80E2E7
:10194000868B80E4878B80E8808F50E040E063E006
:10195000CF010E94CA0362E974E082E697E0B1DC3D
:1019600047E150E063E070E08CE497E086CECF93EF
:10197000DF93CDB7DEB76A970FB6F894DEBF0FBE20
:10198000CDBF789484B5826084BD84B5816084BD08
:1019900085B5826085BD85B5816085BD80916E000D
:1019A000816080936E00109281008091810082603E
:1019B000809381008091810081608093810080917B
:1019C00080008160809380008091B100846080936A
:1019D000B1008091B00081608093B000809191004F
:1019E000826080939100809191008160809391004A
:1019F000809190008160809390008091A10082602E
:101A00008093A1008091A10081608093A1008091CA
:101A1000A00081608093A00080912101826080936A
:101A20002101809121018160809321018091200119
:101A300081608093200180917A00846080937A0095
:101A400080917A00826080937A0080917A00816030
:101A500080937A0080917A00806880937A00109257
:101A6000C100E091B306F091B40682E08083E0917A
:101A7000AF06F091B0061082E091B106F091B20687
:101A80008FEC80831092BB06E091B706F091B80608
:101A900086E08083E091B506F091B6068081806192
:101AA0008083E091B506F091B606808188608083DE
:101AB000E091B506F091B606808180688083E09160
:101AC000B506F091B60680818F7D808383E598E02E
:101AD000E7D9409157085091580870E060E0809134
:101AE0005C0890915D0816D683E598E017D98CE4E0
:101AF00097E0D6D9409150075091510770E060E0CF
:101B0000809155079091560705D68CE497E006D949
:101B100080917B00877F80937B0080E480937C00B2
:101B200080917A00806480937A0080917A0086FDAB
:101B3000FCCF8091780060917900762F682F072E76
:101B4000000C880B990B611571058105910509F051
:101B50000BD302E414E0F80180810E5F1F4F62E0B6
:101B60000E946903F4E008351F07A9F720E042E06E
:101B700060E188E697E06BD86FEF88E697E04FD892
:101B800080E00E94F303A4D223E230E040E050E082
:101B900027D326E0269FF001279FF00D1124EF5751
:101BA000F84F608171816115710509F4A1C044810C
:101BB000558182E697E066DB4091660750916707A2
:101BC000609162077091630788E697E00E94A50123
:101BD00081E00E94F30353EAE52E56E0F52E09E971
:101BE00016E065E0862E912CA12CB12C71D2A501B6
:101BF0009401F6D2F801619371938F01EE16FF06FE
:101C0000A9F765E675E0CE0143965BDB10E000E0E6
:101C100080916607909167070817190708F46CC050
:101C20004BE1A42E46E0B42E10E000E08091660760
:101C3000909167070817190708F070C01A82198277
:101C40001C821B821E821D826B897C896115710535
:101C500029F04F89588DCE01019614DBB80182E638
:101C600097E00E949301FC016081062E000C770B27
:101C700061567109CE010196DBD9912C812CCD8062
:101C8000DE80F12CE12CC114D104E104F10429F02F
:101C90001FD2A7019601A4D26B010C2C000CDD0809
:101CA000B601CE0101960E949301FC01F080B601BD
:101CB000CE010196BDD9F501E80DF91DF082FFEFC7
:101CC0008F1A9F0A25E082169104C9F6B80182E6B0
:101CD00097E00E949301FC018081F5018083CE0191
:101CE0000196A1D90F5F1F4FF5E0AF0EB11C9ECF3B
:101CF00082E697E086D960CFB80182E697E00E943D
:101D00009301FC016081062E000C770B615671096E
:101D1000CE0143968DD90F5F1F4F7ACFCE014396E8
:101D200082D9DE01539629E936E090E080E065E053
:101D3000F901419151919F01689FF001699FF00D58
:101D40001124E55EF94FE40FF51F40814D93019694
:101D50008530910569F7BE016D5E7F4F8E010F5F83
:101D60001F4FC801AEDA4D815E8169817A8188E6B4
:101D700097E00E94A501C80156D938EE232E33E022
:101D8000332E412C512C24E3622E26E0722E22E4C5
:101D900034E03A8F298FF12CE12CE98DFA8D2191D5
:101DA0003191FA8FE98F3327F901E85EFE4F849174
:101DB000F901E25AFE4FC490F901E254FE4FD4906B
:101DC000DD2009F472C081110E94D502ED2DF0E0F2
:101DD000EE0FFF1FE250FF4FA591B491EC91CE2280
:101DE00091E080E009F090E0C92ED82EF3018191B6
:101DF00091913F018C159D0509F494C0C114D10443
:101E000009F08CC01C8A1B8A1E8A1D8A188E1F8AA4
:101E10004AE0B801C701B1D1F80101900020E9F70B
:101E20003197AF01401B510BB801CE0143962ADA1E
:101E300060E875E0C80145DA8B889C8881149104BC
:101E400009F437C0AF88B88CA114B10499F08D8122
:101E50009E81A80EB91EB501C801ECD9882349F1AD
:101E600029813A818D819E81B401820F931F59D4BB
:101E7000BE82AD82C801C9D9C801D5D8CE0143966A
:101E8000D2D8FAE0EF16F104E0F4F7018827E55B19
:101E9000F04F8F4F15C25C0FBC0FBF0FC40FC70FA1
:101EA000CC0FCF0FD40FD70FD70FCC24C394D12C86
:101EB0009DCFC801A6D8DECF61E070E090E080E061
:101EC00068D98FE995E0D8D880E994E0D5D89E010B
:101ED0002D5E3F4F5901A9E9B6E030E020E04D9179
:101EE0005D9165E0629FC001639F900D1124855E46
:101EF000994F840F951FFC018081F50181935F014B
:101F00002F5F3F4F2530310551F7BE016D5E7F4F8A
:101F1000C801D7D9C80179D9C80185D8F30132974A
:101F2000D182C082FFEFEF1AFF0A2BE0E216F10424
:101F300009F033CF2FB7F89480914A0690914B0661
:101F4000A0914C06B0914D062FBF20EE33E944E03E
:101F500050E0281B390B4A0B5B0BCA01B901A201E7
:101F600091016AD16901C90137FF26C090E080E084
:101F70000AD80E94A50207CF6FEF7FEF9FCF61E0E5
:101F800070E081E090E09CCF6FEF7FEFFACF61E0EF
:101F900070E082E090E094CF6FEF7FEFFACF61E0E6
:101FA00070E083E090E08CCF6FEF7FEFFACF6FEFC0
:101FB0007FEF84E090E084CF6CE370E06ED144EC7E
:101FC00046039001479F300D11242C0D3D1D54E612
:101FD000569FC001579F900D1124820F931FC8CFA9
:101FE000CF93DF93809155079091560721D280912E
:101FF00052079091530797FD03C060E00E94690368
:1020000082E697E010D8C3E5D8E02697CE010BD83A
:1020100087E0C138D807C9F780915C0890915D08C6
:1020200007D28091590890915A0897FD05C060E049
:10203000DF91CF910C946903DF91CF9108958F9236
:102040009F92AF92BF92CF92DF92EF92FF92CF9387
:10205000DF93EC01688179818A819B81611571052B
:102060008105910521F464E279ED8BE597E02DE19E
:1020700033EF41E050E0B4D049015A019B01AC017B
:10208000A7EAB1E4C9D06B017C01ACEEB4EFA501C5
:102090009401CED0C60ED71EE81EF91EF7FE06C06C
:1020A00081E0C81AD108E10880E8F80AC882D9821C
:1020B000EA82FB82C701B6019F77DF91CF91FF9043
:1020C000EF90DF90CF90BF90AF909F908F9008954A
:1020D0008F929F92AF92BF92CF92DF92EF92FF9238
:1020E00060910002709101028091020290910302BE
:1020F000611571058105910521F464E279ED8BE5A7
:1021000097E02DE133EF41E050E06AD049015A01F8
:102110009B01AC01A7EAB1E47FD06B017C01ACEE7E
:10212000B4EFA501940184D0C60ED71EE81EF91E97
:10213000F7FE06C081E0C81AD108E10880E8F80A75
:10214000C0920002D0920102E0920202F0920302D9
:10215000C701B6019F77FF90EF90DF90CF90BF90BF
:10216000AF909F908F90089560930002709301024A
:1021700080930202909303020895BB274A3031F402
:10218000992322F4BDE2909581959F4F01C0BB2712
:10219000FB015527AA27880F991FAA1FA41710F023
:1021A000A41B83955051B9F7A05DAA3308F0A95D2F
:1021B000A193009779F7B111B1931192CB0100C0AF
:1021C000DC01FC01672F71917723E1F7329704C09E
:1021D0007C916D9370836291AE17BF07C8F3089529
:1021E000052E97FB16F400940FD057FD05D024D090
:1021F00007FC02D046F408C05095409530952195D3
:102200003F4F4F4F5F4F0895909580957095619522
:102210007F4F8F4F9F4F089531D0A59F900DB49F52
:10222000900DA49F800D911D11240895B7FFF4CF48
:10223000F3DF821B930B0895A1E21A2EAA1BBB1B8E
:10224000FD010DC0AA1FBB1FEE1FFF1FA217B30782
:10225000E407F50720F0A21BB30BE40BF50B661F98
:10226000771F881F991F1A9469F76095709580955C
:1022700090959B01AC01BD01CF010895A29FB001D3
:10228000B39FC001A39F700D811D1124911DB29FAA
:10229000700D811D1124911D089597FB072E16F4D2
:1022A000009406D077FD08D013D007FC05D03EF48B
:1022B000909581959F4F0895709561957F4F0895F2
:1022C000EE0FFF1F881F8BBF0790F691E02D19942A
:1022D000AA1BBB1B51E107C0AA1FBB1FA617B7074C
:1022E00010F0A61BB70B881F991F5A95A9F7809568
:1022F0009095BC01CD0108950F931F93CF93DF9369
:102300008230910510F482E090E0E0916B08F0914A
:102310006C0830E020E0B0E0A0E0309799F421159F
:10232000310509F44AC0281B390B24303105D8F592
:102330008A819B816115710589F1FB0193838283F9
:10234000FE0111C040815181028113814817590754
:10235000E0F04817590799F4109761F012960C9322
:10236000129713961C933296CF01DF91CF911F9154
:102370000F91089500936B0810936C08F4CF21150A
:10238000310551F04217530738F0A901DB019A01DA
:10239000BD01DF01F801C1CFEF01F9CF90936C08C7
:1023A00080936B08CDCFFE01E20FF31F81939193D1
:1023B0002250310939832883D7CF20916908309181
:1023C0006A08232B41F420910602309107023093D2
:1023D0006A082093690820910402309105022115B2
:1023E000310541F42DB73EB74091080250910902E2
:1023F000241B350BE0916908F0916A08E217F30796
:10240000A0F42E1B3F0B2817390778F0AC014E5F64
:102410005F4F2417350748F04E0F5F1F50936A082F
:1024200040936908819391939FCFF0E0E0E09CCFC7
:10243000CF93DF930097E9F0FC0132971382128269
:10244000A0916B08B0916C08ED0130E020E010978E
:10245000A1F420813181820F931F2091690830916E
:102460006A082817390709F061C0F0936A08E093F9
:102470006908DF91CF910895EA01CE17DF07E8F5EB
:102480004A815B819E0141155105B1F7E901FB834A
:10249000EA8349915991C40FD51FEC17FD0761F4E8
:1024A000808191810296840F951FE9019983888329
:1024B000828193819B838A83F0E0E0E012968D9184
:1024C0009C9113970097B9F52D913C911197CD01EF
:1024D0000296820F931F2091690830916A0828178D
:1024E000390739F6309751F510926C0810926B0845
:1024F000B0936A08A0936908BCCFD383C28340819C
:102500005181840F951FC817D90761F44E5F5F4F43
:1025100088819981480F591F518340838A819B810B
:10252000938382832115310509F0B0CFF0936C08B5
:10253000E0936B089ECFFD01DC01C0CF13821282B5
:10254000D7CF4F925F926F927F928F929F92AF926E
:10255000BF92CF92DF92EF92FF920F931F93CF9390
:10256000DF938C01009791F4CB01DF91CF911F9104
:102570000F91FF90EF90DF90CF90BF90AF909F9022
:102580008F907F906F905F904F90B6CEFC01E60FDA
:10259000F71F9C0122503109E217F30708F4AAC083
:1025A000D901CD91DC911197C617D70718F1C53025
:1025B000D10570F0CE0104978617970748F0C61B27
:1025C000D70B2297C193D1936D937C93CF0130DFCA
:1025D000C801DF91CF911F910F91FF90EF90DF9095
:1025E000CF90BF90AF909F908F907F906F905F90B3
:1025F0004F9008955B01AC1ABD0A4C018C0E9D1ED4
:10260000A0916B08B0916C08512C412CF12CE12C5D
:10261000109731F58091690890916A08881599059D
:1026200009F05CC04616570608F058C080910402B5
:1026300090910502009741F48DB79EB74091080232
:1026400050910902841B950BE817F90708F052C056
:10265000F0936A08E0936908F90171836083B8CF49
:102660008D919C91119712966C90129713967C9075
:102670001397A815B90559F56C0142E0C40ED11C99
:10268000CA14DB0420F1AC014A195B09DA01129685
:10269000159780F06282738251834083D9016D93D4
:1026A0007C93E114F10471F0D7011396FC93EE933F
:1026B00012978ECF22968C0F9D1FF90191838083F4
:1026C000F301EFCFF0936C08E0936B0881CF4816CD
:1026D000590608F42C017D01D3019ACFCB010CDE01
:1026E0007C01009739F0AE01B8010BD0C801A0DE23
:1026F00087016ECF10E000E06BCF81E090E0F894AE
:1027000026C0FB01DC0102C001900D9241505040F7
:10271000D8F70895DC0101C06D9341505040E0F7B7
:102720000895FB01DC0101900D920020E1F708956E
:10273000FB01DC014150504048F001900D92002017
:10274000C9F701C01D9241505040E0F7089511E0D3
:10275000C3E0D1E000E005C0802FFE01B1DD21968D
:10276000011DC430D10780E00807B1F7F894FFCF0E
:102770000100000000006D0880000040145400407B
:102780001050060007000800160017002400FFFF85
:1027900008001700FFFFFFFFFFFFFFFFFFFF06001E
:1027A0000800150016002400FFFFFFFF06000800C8
:1027B000150017002400FFFFFFFFFFFF07000800C0
:1027C0001500FFFF1700FFFF06000700FFFF1500C1
:1027D000FFFF1700240006000700FFFF150016008A
:1027E000170024000600FFFF0800FFFFFFFF17008F
:1027F000FFFF060007000800150016001700240060
:102800000600070008001500FFFF17002400040061
:1028100009000A00180019002200FFFF0A00190031
:10282000FFFFFFFFFFFFFFFFFFFF04000A00130091
:1028300018002200FFFFFFFF04000A001300190028
:102840002200FFFFFFFFFFFF09000A001300FFFF48
:102850001900FFFF04000900FFFF1300FFFF19002C
:10286000220004000900FFFF1300180019002200D5
:102870000400FFFF0A00FFFFFFFF1900FFFF040035
:1028800009000A00130018001900220004000900C2
:102890000A001300FFFF1900220002000B000C00C9
:1028A0001A001B002000FFFF0C001B00FFFFFFFFB2
:1028B000FFFFFFFFFFFF02000C0011001A002000C5
:1028C000FFFFFFFF02000C0011001B002000FFFFB4
:1028D000FFFFFFFF0B000C001100FFFF1B00FFFFBD
:1028E00002000B00FFFF1100FFFF1B002000020091
:1028F0000B00FFFF11001A001B0020000200FFFF69
:102900000C00FFFFFFFF1B00FFFF02000B000C008D
:1029100011001A001B00200002000B000C00110027
:10292000FFFF1B00200000000D000E001C001D001A
:102930001E00FFFF0E001D00FFFFFFFFFFFFFFFF58
:10294000FFFF00000E000F001C001E00FFFFFFFF36
:1029500000000E000F001D001E00FFFFFFFFFFFF25
:102960000D000E000F00FFFF1D00FFFF00000D0017
:10297000FFFF0F00FFFF1D001E0000000D00FFFF06
:102980000F001C001D001E000000FFFF0E00FFFFD7
:10299000FFFF1D00FFFF00000D000E000F001C00D8
:1029A0001D001E0000000D000E000F00FFFF1D00A7
:1029B0001E000C000B000A000900080007000600BA
:1029C0000500040003000D00000000003A02A5010C
:1029D000D20186020302E101F50100000000710549
:1029E00045058B061B053E052B051C050000000058
:1029F000E003A5018B06E9042706CA030F06F205CA
:102A00000D0A0061626F7574006166746572006121
:102A10006761696E0062656C6F7700636F756C64E7
:102A200000657665727900666972737400666F7509
:102A30006E6400677265617400686F757365006C21
:102A400061726765006C6561726E006E65766572B5
:102A5000006F7468657200706C61636500706C6112
:102A60006E7400706F696E740072696768740073C9
:102A70006D616C6C00736F756E64007370656C6C67
:102A8000007374696C6C00737475647900746865A4
:102A900069720074686572650074686573650074B6
:102AA00068696E67007468696E6B0074687265654A
:102AB0000077617465720077686572650077686990
:102AC000636800776F726C6400776F756C64007771
:102AD00072697465006162636465666768696A6BE0
:102AE0006C6D6E6F707172737475767778797A0029
:102AF00050617373776F726420427574746F6E20C7
:102B0000646F776E2C206E756D6265723A2000439B
:0C2B10007572722053746174653A000005
:00000001FF
