:100000008EC20000BDC20000BBC20000B9C2000029
:10001000B7C20000B5C20000B3C20000B1C2000008
:10002000AFC20000ADC20000ABC20000A9C2000018
:10003000A7C200000C945818A3C20000A1C200007F
:100040009FC200009DC200009BC2000099C2000038
:1000500097C2000095C2000093C200000C941819CA
:100060008FC200000C94E2180C94B81889C20000EA
:1000700087C2000085C2000083C2000081C2000068
:100080007FC200007DC200007BC2000079C2000078
:1000900077C2000075C2000073C200000C946219A0
:1000A0006FC200006DC200006BC2000069C2000098
:1000B00067C2000065C2000063C2000061C20000A8
:1000C0005FC200005DC200005BC2000059C20000B8
:1000D00057C2000055C2000053C2000051C20000C8
:1000E0004FC2000000002100240027002A002D003C
:1000F0003000330001010000040107010A01000083
:1001000020002300260029002C002F0032000001CF
:10011000000003010601090100000A0B02090C0D91
:100120000E080703040100000000000000000000AA
:1001300000000000000000000000000000000000BF
:10014000000000001211100000000000000000007C
:10015000000000000000000000000000000010008F
:100160008E2F11000C000700210028000600280037
:10017000050027007F052900A18900000100FFFF7D
:1001800064002900B080FFFF1E002900FEFF070069
:100190002302FFFF1E00070033020100832103003A
:1001A00030682F00FFFF2C00008027007005020040
:1001B00000030B000C581200090613000031110057
:1001C0007F78B103053C3CB203053C3CB306053CDB
:1001D0003C053C3CB40103C003280804C101C0C273
:1001E000020D00C3028D2AC4028DEEC5011A17014B
:1001F00005360100E0100322070A2E30252A2826A2
:100200002E3A00010313E1100416060D2D262327B4
:1002100027252D3B000104133A0105290001007F29
:100220009628003A0155C0020D0DC1024300C201DB
:1002300000C50400480048B40100B60302023BE0D8
:100240000F0F241C0A0F084388320F10060F0700F7
:10025000E10F0F3830090F0F4E773C071005231BB5
:100260000011007F9629002E018929018F2B0102A0
:10027000E20100E40101E50110E60101E70110E8F7
:100280000170F20100EA0100EB0120EC013CED01FC
:10029000C8E90138F101011B011A1A0101240161A9
:1002A00025015C2301881801361901011F01887F8F
:1002B000051F01807F051F01907F051F01D47F0569
:1002C0001701053601002801387F2828013C02016A
:1002D000000301000401000501EF06010007010011
:1002E00008010109013F0100B903FF83577FFAB3F9
:1002F0000400000606B60125B00168CC0105B10670
:1003000000151C1C83AAC0065050013C1E08B407EF
:100310000240002A2A0D783A01553601C035010005
:100320004402000211007F9629007F3201007F32D3
:100330002800F603010100CF03008130ED046403BF
:100340001281E803851078CB05392C003402F701BF
:1003500020EA020000B00100B40100C00121C10187
:1003600011C5023F3CC701B53601883A0155B102BB
:10037000001B360148F20100260101E00F0F262480
:100380000B0E0954A8460C17090F0700E10F0019BE
:100390001B0410072A473903060630380FB7010738
:1003A00011007F96290000000100FFFF32000100CC
:1003B00000010200000703003010040000000800E4
:1003C0000202090000000A0000000C0000000D00FD
:1003D00000000F00000010000000110007001200D4
:1003E000000013000000FFFFC8001000901611006D
:1003F0002702FFFF320012001A00FFFF3200130035
:10040000001829002A00FFFF3200300000003100F0
:1004100000003200000035000602360008083700F0
:10042000070038000102390000003C0000003D00D8
:1004300000002000000021000000500000005100DA
:10044000EF005200000053003F01600000A7610070
:1004500003006A000000900010009200000093006A
:1004600003009500001197000000980000000700AD
:100470003301020102102020080810204010204003
:100480008002010201080402010102040810204058
:100490008080402010080402018004020180402076
:1004A000100804020108040201010204081020409F
:1004B000800102040810204080000022002500284E
:1004C000002B002E0031003400020100000501085D
:1004D000010B0105050505070508080808020202C9
:1004E000020A0A08080404040401010101010101CF
:1004F000010303030303030303040707070C0C0CA6
:100500000C0C0C0C0C02020202060606060606067D
:10051000060B0B0B0B0B0B0B0B00E01A59281124CD
:100520001FBECFEFD1E2DEBFCDBF00E00CBF13E1B5
:10053000A0E0B2E0E0E7F8E500E00BBF02C0079002
:100540000D92AE3CB107D9F727E1AEECB3E101C0A3
:100550001D92AA33B207E1F712E0CEE8D2E000E044
:1005600006C021970109802FFE010E94B529CD38D0
:10057000D10780E00807A9F70E94CD1C0C94272C16
:100580003FCD2091EF142223C1F0880F991FFC0169
:10059000EB51FB4E80819181680F791F65307105A9
:1005A0001CF011821082089577FD03C0718360836F
:1005B000089584E090E09183808308952091E4146D
:1005C00081E0213208F044C08091C0148111FCCF39
:1005D0008091E31492E09093C01491E09093BF1443
:1005E0009FEF9093BE141092BD142093BC14A3EC03
:1005F000B4E1ECE9F4E190E0291331C010929B14CE
:1006000090919B14880F892B80939B1480919A144E
:10061000813049F510929A1480919B148093BB000D
:100620008091BC0083FDF8CF85EC8093BC00809165
:10063000C0148230E1F38091BE148F3FB1F08091FD
:10064000BE148032A1F08091BE14803391F084E01A
:100650001092C2141092E4141092C11408953D91A6
:1006600031939F5FC9CF85EEE0CF80E0F1CF82E08C
:10067000EFCF83E0EDCFFC01828993890895FC01DF
:10068000848995890895AF92BF92CF92DF92EF92BD
:10069000FF920F931F93CF93DF936C017B018B012C
:1006A000040F151FEB015E01AE18BF08C017D1077C
:1006B00059F06991D601ED91FC910190F081E02D06
:1006C000C6011995892B79F7C501DF91CF911F914B
:1006D0000F91FF90EF90DF90CF90BF90AF90089573
:1006E000FC01538D448D252F30E0842F90E0821B38
:1006F000930B541710F0CF96089501970895FC01BD
:10070000918D828D981761F0A28DAE0FBF2FB11D14
:100710005D968C91928D9F5F9F73928F90E008956C
:100720008FEF9FEF0895FC01918D828D981731F026
:10073000828DE80FF11D858D90E008958FEF9FEF7A
:100740000895FC01918D228D892F90E0805C9F4F50
:10075000821B91098F739927089580E195E1F1DF5C
:1007600021E0892B09F420E0822F0895FC01A48D5B
:10077000A80FB92FB11DA35ABF4F2C91848D90E0C3
:1007800001968F739927848FA689B7892C93A089A6
:10079000B1898C91837080648C93938D848D981330
:1007A00006C00288F389E02D80818F7D80830895C3
:1007B000EF92FF920F931F93CF93DF93EC0181E0B1
:1007C000888F9B8D8C8D98131AC0E889F989808158
:1007D00085FF15C09FB7F894EE89FF896083E8898B
:1007E000F98980818370806480839FBF81E090E07D
:1007F000DF91CF911F910F91FF90EF900895F62E0A
:100800000B8D10E00F5F1F4F0F731127E02E8C8DA3
:100810008E110BC00FB607FCFACFE889F9898081E9
:1008200085FFF5CFCE01A2DFF2CFEB8DEC0FFD2FD0
:10083000F11DE35AFF4FF0829FB7F8940B8FEA89BE
:10084000FB8980818062D0CFCF93DF93EC01888DCC
:100850008823B1F0AA89BB89E889F9898C9185FD43
:1008600003C0808186FD0CC00FB607FCF7CF8C91CA
:1008700085FFF2CF808185FFEDCFCE0177DFEACF14
:10088000DF91CF91089580E090E0892B21F065DF22
:1008900081110E94000080E090E0892B49F080E007
:1008A00090E0892B29F00E94000081110E94000035
:1008B00080E090E0892B49F080E090E0892B29F0DE
:1008C0000E94000081110E94000080E090E0892BCE
:1008D00049F080E090E0892B29F00E94000081110E
:1008E0000C94000008958150823108F05AC0E82F1E
:1008F000F0E08827E158FB4F8F4F0C94B5299F04F7
:10090000A304910497049B04D104A604AC04B0048E
:10091000B604BA04BE04C404C804D104CC04D2048E
:10092000D604809180008F77809380000895809115
:1009300080008F7DF9CF80918000877FF5CF84B5CF
:100940008F7784BD089584B58F7DFBCF8091B000F3
:100950008F778093B00008958091B0008F7DF9CF9C
:10096000809190008F7780939000089580919000FF
:100970008F7DF9CF80919000877FF5CF8091A00087
:100980008F778093A00008958091A0008F7DF9CF8C
:100990008091A000877FF5CF809120018F77809391
:1009A00020010895809120018F7DF9CF8091200151
:1009B000877FF5CFCF93DF93282F30E0F901E85EF2
:1009C000FE4F8491F901ED58FB4FD491F901ED529E
:1009D000FB4FC491CC2399F0811185DFEC2FF0E01F
:1009E000EE0FFF1FE250FF4FA591B491EC91ED2364
:1009F00081E090E009F480E0DF91CF91089580E0FC
:100A000090E0FACF1F93CF93DF93282F30E0F901C6
:100A1000E85EFE4F8491F901ED58FB4FD491F90146
:100A2000ED52FB4FC491CC23A1F0162F81115BDF57
:100A3000EC2FF0E0EE0FFF1FE754FB4FA591B491B0
:100A40008FB7F894EC91111108C0D095DE23DC9398
:100A50008FBFDF91CF911F910895DE2BF8CF90913A
:100A6000580289130DC0E2E7F4E0E4919FEF909300
:100A70005802E230D9F030F4EE2379F0E13081F021
:100A800060E0C0CFE43049F110F1E530C9F7909152
:100A900073009D7F90937300F3CF10926E00F0CFA0
:100AA00090916F009D7F90936F00EACF90917000BE
:100AB0009D7F9093700091E09093B0009091B10071
:100AC000987F94609093B1001092B300D9CF909129
:100AD00071009D7F90937100D3CF909172009D7FA4
:100AE00090937200CDCFCF93DF9390E0FC01ED584F
:100AF000FB4F24918D529B4FFC0184918823C9F0B8
:100B000090E0880F991FFC01EC51FF4FA591B49123
:100B1000FC01E754FB4FC591D49161110DC09FB703
:100B2000F8948C91209582238C93888128232883A4
:100B30009FBFDF91CF910895623051F49FB7F89431
:100B40003C91822F809583238C93E8812E2BEFCFCD
:100B50008FB7F894EC912E2B2C938FBFEACF4F9246
:100B60005F926F927F928F929F92AF92BF92CF923D
:100B7000DF92EF92FF920F931F93CF93DF9300D0FA
:100B80001F921F92CDB7DEB78C0149835A836B83C6
:100B90007C83809158028533C9F08F3F09F4B1C03E
:100BA0000F900F900F900F900F90DF91CF911F91AA
:100BB0000F91FF90EF90DF90CF90BF90AF909F90FC
:100BC0008F907F906F905F904F900895E2E7F4E0F0
:100BD00024912D8327FDE4CF61E085E384DF8D81BF
:100BE0004801B12CA12C882301F1F12CE12C9D812D
:100BF000923009F05BC14801570160E970ED83E074
:100C000090E0A70198010E94452969017A0181E0DD
:100C1000C81AD108E108F10883E09FEFC916D10492
:100C2000E104F10409F00CF465C060E072E18AE7C8
:100C300090E0A50194010E94452929013A0168E448
:100C400078EE81E090E0A50194010E9445296901B8
:100C50007A0181E0C81AD108E108F1089D81992341
:100C600009F4E0C1923009F0DBC184E02FEFC21635
:100C7000D104E104F104F1F1ECF164E274EF80E0FD
:100C800090E0A50194010E94452969017A0181E063
:100C9000C81AD108E108F10885E02FEFC216D10487
:100CA000E104F10439F130F162E17AE780E090E0AB
:100CB000A50194010E94452969017A0181E0C81AC1
:100CC000D108E108F10886E09FEFC916D104E104DC
:100CD000F10481F07CF0730162019AE0F594E794ED
:100CE000D794C7949A95D1F721E0C21AD108E108A8
:100CF000F10887E09091B100987F892B8093B10033
:100D0000B5C185E380935802E2E7F4E084918D83D6
:100D10008F3F09F445CF823009F468C058F4882326
:100D200079F1813009F444C087FD3ACF61E085E371
:100D3000DADE5BCF9D81943009F49AC008F478C064
:100D4000953091F71092200110922101809121019C
:100D5000886080932101809121018160809321012D
:100D6000E8E0F5E0E491F0E0EE0FFF1FE754FB4F01
:100D700085919491E8EAF4E0E491E093F0142CCFAB
:100D800014BC15BC84B5826084BD85B5816085BD09
:100D9000E8E0F5E0E491F0E0EE0FFF1FE754FB4FD1
:100DA00085919491E8EAF4E0E491E093F71414CF8C
:100DB0001092800010928100809181008860809361
:100DC000810080918100816080938100E8E0F5E0FE
:100DD000E491F0E0EE0FFF1FE754FB4F85919491F3
:100DE000E8EAF4E0E491E093F614F6CE1092B00055
:100DF0001092B1008091B00082608093B000809129
:100E0000B10081608093B100E8E0F5E0E491F0E0AA
:100E1000EE0FFF1FE754FB4F859194919093F514CB
:100E20008093F414E8EAF4E0E491E093F314D4CE70
:100E300010929000109291008091910088608093B0
:100E4000910080919100816080939100E8E0F5E04D
:100E5000E491F0E0EE0FFF1FE754FB4F8591949172
:100E6000E8EAF4E0E491E093F21423E02D83B4CEB9
:100E70001092A0001092A1008091A1008860809340
:100E8000A1008091A10081608093A100E8E0F5E0DD
:100E9000E491F0E0EE0FFF1FE754FB4F8591949132
:100EA000E8EAF4E0E491E093F11496CE60E072E1B8
:100EB0008AE790E0A70198010E944529DA01C9015B
:100EC0000197A109B109009721E0A207B10564F4D7
:100ED0006C0191E02D812130C1F480918100887FE7
:100EE000892B80938100C2C068E478EE81E090E0B5
:100EF000A70198010E94452969017A0181E0C81A79
:100F0000D108E108F10893E0E5CF8D81833039F411
:100F100080919100887F892B80939100A7C02D81BB
:100F2000243039F48091A100887F892B8093A1001F
:100F30009DC08D81853009F099C080912101887F05
:100F4000892B8093210192C0C7BC20930C1530934C
:100F50000D1540930E1550930F1580916E00826011
:100F600080936E001DCEC092B30020930415309381
:100F70000515409306155093071580917000826007
:100F8000809370000DCED0929900C092980020936B
:100F9000001530930115409302155093031580916D
:100FA0007100826080937100FBCDD092A900C09245
:100FB000A8002093FC143093FD144093FE1450932A
:100FC000FF1480917200826080937200E9CD7301FA
:100FD00062012AE0F594E794D794C7942A95D1F753
:100FE00091E0C91AD108E108F10895E03BC09D8164
:100FF0009430D9F244F2953009F0D2CDD092290143
:10100000C09228012093F8143093F9144093FA14F5
:101010005093FB1480917300826080937300C0CD65
:1010200084E03BCE93E08FEFC816D104E104F104D5
:10103000C9F0C4F062E17AE780E090E0A501940194
:101040000E94452969017A0191E0C91AD108E10895
:10105000F1082FEFC216D104E104F10411F00CF0F5
:10106000B6CF94E085B5887F892B85BDD801AA0FBE
:10107000BB1F29813A814B815C810E94612928EE46
:1010800033E040E050E00E9471298D81823009F404
:101090006ACF0CF0ACCF882309F456CF813009F029
:1010A0007FCDD0928900C09288002093081530939C
:1010B000091540930A1550930B1580916F008260BB
:1010C00080936F006DCD3FB7F89480913814909164
:1010D0003914A0913A14B0913B1426B5A89B05C0D1
:1010E0002F3F19F00196A11DB11D3FBFBA2FA92FA7
:1010F000982F8827BC01CD01620F711D811D911DA4
:1011000042E0660F771F881F991F4A95D1F708950F
:101110008F929F92AF92BF92CF92DF92EF92FF9207
:101120006B017C01D0DF4B015C01C114D104E104EF
:10113000F104B1F0C8DF681979098A099B09683E92
:1011400073408105910588F321E0C21AD108E108B6
:10115000F10888EE880E83E0981EA11CB11CE5CF33
:10116000FF90EF90DF90CF90BF90AF909F908F90C7
:10117000089521E001C0220F6A95EAF7DC011C9670
:101180002C931C971A965C934E931997ED91FC91B2
:101190000484F585E02D60E0199408950895DC013C
:1011A000ED91FC910684F785E02D41E0199581E0F1
:1011B00090E00895DC01ED91FC910684F785E02D27
:1011C00040E019940F931F93CF93DF93EC014230CB
:1011D00018F08C8188608C834F836887222329F0E4
:1011E000413019F48C8184608C8364E670E080E087
:1011F00090E08EDF6C8164FD58C0E881F98106843F
:10120000F785E02D42E063E0CE0119958BE496E48A
:101210000197F1F7E881F9810684F785E02D42E036
:1012200063E0CE01199503E512E0C8010197F1F7DB
:10123000E881F9810684F785E02D42E063E0CE0184
:101240001995C8010197F1F7E881F9810684F785BE
:10125000E02D42E062E0CE011995C8010197F1F757
:101260006C816062CE01A6DF8BEE90E00197F1F712
:1012700084E08D836CE0CE019DDF61E0CE019ADFDA
:101280008BE39FE10197F1F782E08E8366E0CE0168
:1012900091DFE881F9810484F585E02D6FEFCE01BF
:1012A000DF91CF911F910F9119946062CE0182DF7F
:1012B0008BE496E40197F1F76C816062CE017ADFEE
:1012C00003E512E0C8010197F1F76C816062CE017D
:1012D00071DFC3CF08950895089585ED8093BC0014
:1012E0008091BC0084FDFCCF1092C0140895209121
:1012F0000E14260F3327331F21323105ECF42091D1
:10130000C014FC0190E080E0243069F082E0089590
:10131000A0910E142191AC0142515C4EA40FB52F47
:10132000B11D2C930196861798F380910E14680FC7
:1013300060930E1480E0089581E008950895E0918F
:10134000361480913514E81730F4F0E0E253FC4E87
:10135000808190E008958FEF9FEF0895909136146B
:10136000809135142FEF3FEF981748F4E92FF0E004
:10137000E253FC4E208130E09F5F90933614C90108
:1013800008958091351490913614891B990B089516
:10139000CF92DF92EF92FF920F931F93CF93DF9341
:1013A0007C01CB018A012091C114222389F0EB0139
:1013B0006B01C40ED51ECC15DD0561F06991D70116
:1013C000ED91FC910190F081E02DC7011995F3CFCB
:1013D000642F8DDFC801DF91CF911F910F91FF9096
:1013E000EF90DF90CF900895CF93DF931F92CDB70A
:1013F000DEB769832091C1142223F9F02091E4140F
:10140000203258F021E030E0FC013383228390E069
:1014100080E00F90DF91CF9108958091C214E82F62
:10142000F0E0ED53FB4E998190838F5F8093C2145F
:101430008093E41481E090E0ECCF61E0CE0101966E
:1014400056DFF8CFFC0123812223D1F08181682B64
:101450006083828191E09093C1148093E314109291
:10146000C2141092E4148DEA95E1BEDFA7D8282FAC
:1014700030E081E090E0232B11F090E080E00895CF
:1014800030E020E0F6CFEF92FF920F931F93CF93BF
:101490008C01FC0184E0C0E0262F30E060FF02C038
:1014A0009589C92BB9017595679581503196811140
:1014B000F3CF413011F4F8014489F8016585C62B5A
:1014C000C42B7801FEE0EF0EF11CF80162896C2B51
:1014D000C701B8DFF801628960956C23C701CF911D
:1014E0001F910F91FF90EF90ADCF0F931F93CF936C
:1014F000DF93062F0F70423039F440E0602FDF9108
:10150000CF911F910F91BFCF142FEC0170E084E0B9
:10151000759567958A95E1F7CE01B5DF412F602F6C
:10152000CE01EDCFFC018485882399F02185328599
:101530002115310521F4611107C0158606C021303F
:101540003105D9F76111F9CF85876585CF010E96F1
:1015500079CF0895EF92FF920F931F93CF93DF936C
:10156000EC01062FF42EE22E8B85888B1092361418
:10157000109235141092C2141092E4141092C014F8
:1015800011E01093BF1410929A1461E084E13ADAEA
:1015900061E085E137DA8091B9008E7F8093B900F0
:1015A0008091B9008D7F8093B90088E48093B80062
:1015B00085E48093BC008DEC98E090933414809384
:1015C00033148EEC98E09093321480933114888910
:1015D0001093C1148093E3141092C2141092E41477
:1015E0000E94DE02811119C0198B8DEA95E1B6DEE9
:1015F0008E878989882331F01F861C8260E0CE01A6
:101600000E9620DF2E2D4F2D602FCE01DF91CF9132
:101610001F910F91FF90EF90D5CD198AEACF90E0FE
:1016200080E0089538E0439FC0011124807E9770C8
:10163000269526952695822B70E0762F66276627BD
:10164000787F862B972B0895CF93DF93FC01848DB1
:10165000882351F01EBC00000DB407FEFDCF2EB54F
:10166000822FDF91CF91089588E0EF01CE5BDF4FAD
:10167000A7A9B0AD9C91388193239C93A7A9B0AD45
:101680009C9135AD932B9C93220FA3A9B4A99C9157
:1016900033AD932309F02160815051F7E1CF0F93CF
:1016A0001F93CF93DF93FC01848D882359F06EBD87
:1016B00000000DB407FEFDCF8EB5DF91CF911F91D5
:1016C0000F91089588E090E020E8AF014F5B5F4FF5
:1016D0008F010E5B1F4FA5A9B6A9362F3223A9F0A3
:1016E0003C9174AD372B3C93A7A9B0AD3C91E80178
:1016F000788137233C93A7A9B0AD3C9175AD372BCA
:101700003C932695019739F7D8CF3C91EA0178812F
:101710003723E9CFFF920F931F93CF93DF93F82ED8
:10172000162F072FC6EDD6E1EFA5F8A980812EADC3
:1017300082238083E9A9FAA980812FAD8223808347
:10174000692FCE01ACDF6F2DCE01A9DFE9A9FAA97F
:1017500080819AAD892B8083602FCE01A0DF612F1D
:10176000CE019DDFEFA5F8A9808199AD892B8083FB
:10177000DF91CF911F910F91FF9008950F931F93C9
:10178000CF93DF93EC018B01FE0185919491FE01D3
:1017900032962496659174918F3F980769F490E092
:1017A00080E0B6DC04501109101611066CF3DF91CD
:1017B000CF911F910F910895ADDFF4CFE091051700
:1017C000F0910617808190910F17892B808380916B
:1017D0001E1787FD0BC060E015D962E070E080E065
:1017E00090E096DC61E080911E170CD9E09105171E
:1017F000F091061780819091141789238083E091DE
:101800000717F0910817808190911517892380831D
:1018100060E086ED96E143DFE0910517F091061751
:10182000808190910F17892B80830895CF93DF9348
:10183000D82FC62FE0910517F0910617808190915F
:10184000141789238083E0910717F091081780818E
:10185000909115178923808360E086ED96E11FDF64
:101860006D2F86ED96E11BDF61E070E080E090E097
:101870004FDC86ED96E1E8DED82F86ED96E1E4DEDA
:10188000C13069F0E0910517F09106179081209121
:101890000F17922B90839D2FDF91CF910895C0E079
:1018A000E8CF4F925F926F927F928F929F92AF920A
:1018B000BF92CF92DF92EF92FF920F931F93CF933D
:1018C000DF93EC015A01270137FF05C0620F731F38
:1018D0003195219531097B01E20EF31E6B0177FFF3
:1018E00002C0D12CC12CE881F9810684F785E02D56
:1018F000CE0119958E159F0544F4E881F98106847F
:10190000F785E02DCE0119957C0147018C189D08C3
:1019100017FF05C0A00EB11E1195019511090A0D02
:101920001B1DB7FE02C0B12CA12CE881F9810484F3
:10193000F585E02DCE0119958017910744F4E881D3
:10194000F9810484F585E02DCE0119958C013801CB
:101950006A187B0801501109970121503109E8816B
:10196000F9810680F781E02DA501B601CE01199518
:10197000EFA5F8A980819EAD89238083888D998DFC
:10198000892B49F4E9A9FAA980819FAD8923808335
:1019900060E0CE0184DEE9A9FAA980819FAD8923A8
:1019A000808369A1CE017BDE861497042CF0962DEE
:1019B000872D3401892E982E18141904A4F483015C
:1019C000E9A9FAA980819AAD892B8083652DCE0182
:1019D00066DE642DCE0163DE0150110989F781E0D6
:1019E000881A9108E9CF888D998D009751F50C8957
:1019F0001D89015011092A893B8921503109E8814B
:101A0000F9810680F781E02D50E040E070E060E071
:101A1000CE011995EFA5F8A9808199AD892B808316
:101A2000DF91CF911F910F91FF90EF90DF90CF90BA
:101A3000BF90AF909F908F907F906F905F904F90EE
:101A40000895019739F7EFA5F8A980819EAD892304
:101A50008083E9A9FAA980819FAD8923808364E00E
:101A6000CE011DDEE9A9FAA980819AAD892B808378
:101A70008A899B890197692FCE0111DEE9A9FAA90C
:101A800080819FAD8923808365E0CE0108DEE9A9CE
:101A9000FAA980819AAD892B80836A896150CE0131
:101AA000FEDDE9A9FAA980819FAD8923808368E0E2
:101AB000CE01F5DDE9A9FAA980819AAD892B808351
:101AC0008C899D890197692FCE01E9DDE9A9FAA9E1
:101AD00080819FAD8923808369E0CE01E0DDE9A9A3
:101AE000FAA980819AAD892B80836C896150CE01DF
:101AF000D6DDEFA5F8A9808199AD892B80838ACFA7
:101B0000AF92BF92CF92DF92EF92FF920F931F930B
:101B1000CF93DF9377FD41C057FD3FC0C32ED22E38
:101B20005A017B01EC01E881F9810684F785E02DFB
:101B300019958E159F058CF1E881F9810484F5854E
:101B4000E02DCE0119958A159B053CF1E881F981BC
:101B50000680F781E02D85019701A501B701CE012F
:101B60001995EFA5F8A980819EAD89238083888D82
:101B7000998DE9A9FAA90797D9F480819AAD892BA3
:101B800080836C2DCE018BDD6D2DCE0188DDEFA520
:101B9000F8A9808199AD892B8083DF91CF911F9126
:101BA0000F91FF90EF90DF90CF90BF90AF9008958E
:101BB00080819FAD892380836AA1CE0170DD69A1F8
:101BC000CE016DDDE9A9FAA9D8CF2F923F924F92AD
:101BD0005F926F927F928F929F92AF92BF92CF92BD
:101BE000DF92EF92FF920F931F93CF93DF93EC015D
:101BF0008B0179013901661A770A5A01A81AB90AC4
:101C0000A614B70444F08F2D7A01422F582F812F4C
:101C10008E01C62FD82F4701801A910A1A012C1A5B
:101C20003D0A6401D594C79444244A94542CC417A3
:101C3000D5071CF444244394512C2091E016309194
:101C4000E116A801BE01A614B70414F0AE01B80154
:101C500086ED96E155DFC218D308D7FE04C0C40D47
:101C6000D51DC80CD91C0F5F1F4FE016F1062CF7CD
:101C7000DF91CF911F910F91FF90EF90DF90CF9068
:101C8000BF90AF909F908F907F906F905F904F909C
:101C90003F902F9008957F928F929F92AF92BF9224
:101CA000CF92DF92EF92FF920F931F93CF93DF9328
:101CB000EC01590198010E9D60010F9DD00C1E9DF5
:101CC000D00C11248701040F151F01501109260F94
:101CD000371F21503109E881F9810680F781E02D15
:101CE00019951C141D040CF084C0EFA5F8A980817F
:101CF0009EAD89238083E9A9FAA980819FAD8923BC
:101D000080836CA1CE01CBDC6BA1CE01C8DC888DB9
:101D1000998D892B09F03BC075018601CE0194DCB9
:101D2000CE0192DCCE0190DCCE018EDCCE018CDCCB
:101D3000CE018ADCCE0188DC782ECE0185DC972DA1
:101D4000F701819391937F010150110939F7CC0C70
:101D5000DD1CAC0CBD1C0C891D89015011092A89A0
:101D60003B8921503109E881F9810680F781E02D16
:101D700050E040E070E060E0CE011995EFA5F8A9D1
:101D8000808199AD892B8083D12CC12CAACFCE0123
:101D90005BDC750186018DA59EA581309105F9F466
:101DA000CE0152DC982ECE014FDC882ECE014CDCC9
:101DB000E881F9810190F081E02D282F482D692DCF
:101DC000CE0119954C01F701819291927F0101504A
:101DD000110909F7CC0CDD1CAC0CBD1CCFCF892B35
:101DE00091F7CE0131DC882ECE012EDC982C882E86
:101DF000EACF90E080E0DF91CF911F910F91FF90AB
:101E0000EF90DF90CF90BF90AF909F908F907F909A
:101E10000895BF92CF92DF92EF92FF920F931F939C
:101E2000CF93DF93EC016B01B42E152F0170EFA55A
:101E3000F8A980819EAD892380832223B1F0888D0B
:101E4000998D892B49F4E9A9FAA980819FAD89234D
:101E5000808360E0CE0123DCE9A9FAA980819FADEF
:101E60008923808369A1CE011ADC7601CB2CD12E87
:101E70001C141D04E4F4F7010023B1F08591949142
:101E8000182F692FE9A9FAA980819AAD892B80833F
:101E9000CE0105DC612FCE0102DCF2E0EF0EF11C79
:101EA00081E0C81AD108E4CF10816181EBCFEFA5A2
:101EB000F8A9808199AD892B8083DF91CF911F9103
:101EC0000F91FF90EF90DF90CF90BF900895CF9249
:101ED000DF92EF92FF920F931F93CF93DF93EC016A
:101EE000162F6A01022FEFA5F8A980819EAD8923E4
:101EF0008083E9A9FAA980819FAD8923808360E06E
:101F0000CE01CDDB612FCE01CADB7601DD24DA9470
:101F1000D00E101604F5F70161917F01E9A9FAA925
:101F200080819AAD892B8083CE01B9DBDD2089F0D9
:101F3000888D998D019769F41F5FE9A9FAA98081BD
:101F40009FAD8923808360E0CE01A9DB612FCE01A4
:101F5000A6DB0D2DDBCFEFA5F8A9808199AD892BEC
:101F60008083DF91CF911F910F91FF90EF90DF90D1
:101F7000CF900895DF92EF92FF920F931F93CF932C
:101F8000DF93CDB7DEB768970FB6F894DEBF0FBE0C
:101F9000CDBF8C017B01F80164913196D4900E5F26
:101FA0001F4F6F3771F0DE01119690E080E0AD01B8
:101FB0008D1518F5F801E80FF91FE491ED930196DE
:101FC000F7CF6D2D70E090E080E0A2D8D12CED2D00
:101FD000F0E03296EE1AFF0A1E141F04E4F268962F
:101FE0000FB6F894DEBF0FBECDBFDF91CF911F912A
:101FF0000F91FF90EF90DF9008950D0D111D2D2D85
:1020000086ED96E164DFE3CF4F925F926F927F920D
:102010008F929F92AF92BF92CF92DF92EF92FF92F8
:102020000F931F93CF93DF9300D000D01F921F9286
:10203000CDB7DEB77C014B016A015901DC019F96E7
:10204000ED91FC91D0978081DE969C91DE9789235B
:10205000808358968D919C915997009709F034C1CF
:1020600056968D919C9157978230910509F4FBC04B
:102070008330910509F415C12A013B01019791F4C0
:102080001E968D919C91980120953095C094D09486
:102090003601680E791E2B01850153016401490147
:1020A000880E991ED701D196ED91FC91D29780812F
:1020B000DF969C918923808360E0C701F0DA60E5B8
:1020C000C701EDDAD701D196ED91FC91D2978081CD
:1020D000DA969C91892B8083692DC701E0DA682DFF
:1020E000C701DDDAD701D196ED91FC91D2978081BD
:1020F000DF969C918923808360E0C701D0DA61E597
:10210000C701CDDAD701D196ED91FC91D2978081AC
:10211000DA969C91892B80836B2DC701C0DA6A2DDA
:10212000C701BDDAD701D196ED91FC91D29780819C
:10213000DF969C918923808360E0C701B0DA62E575
:10214000C701ADDAD701D196ED91FC91D29780818C
:10215000DA969C91892B80836D2DC701A0DA6C2DB6
:10216000C7019DDAD701D196ED91FC91D29780817C
:10217000DF969C918923808360E0C70190DA63E554
:10218000C7018DDAD701D196ED91FC91D29780816C
:10219000DA969C91892B8083612FC70180DA602FAA
:1021A000C7017DDAD701D196ED91FC91D29780815C
:1021B000DF969C918923808360E0C70170DA60E23A
:1021C000C7016DDAD701D196ED91FC91D29780814C
:1021D000DA969C91892B8083672DC70160DA662D82
:1021E000C7015DDAD701D196ED91FC91D29780813C
:1021F000DF969C918923808360E0C70150DA61E219
:10220000C7014DDAD701D196ED91FC91D29780812B
:10221000DA969C91892B8083652DC70140DA642D65
:10222000C7013DDAD7019F96ED91FC91D09780814F
:10223000D9969C91892B808328960FB6F894DEBF9F
:102240000FBECDBFDF91CF911F910F91FF90EF9007
:10225000DF90CF90BF90AF909F908F907F906F90C6
:102260005F904F900895F70186859785A901409565
:1022700050955C01A61AB70AF1E0AF1AB108509662
:102280002D913C91B801609570958601009510954F
:10229000020F131F280135016B01C20ED31E4A0124
:1022A000FFCEF70180899189209530952C01461A3F
:1022B000570AF1E04F1A51083A01580182014601CC
:1022C0006901C80ED91EEECE8130910509F0CEC04D
:1022D000D196ED91FC91D2978081DF969C918923D4
:1022E000808362E0C701DBD9D701D196ED91FC91E3
:1022F000D2978081DA969C91892B8083692DC701C2
:10230000CED9D701D196ED91FC91D2978081DF96FD
:102310009C918923808363E0C701C1D9D701D196FD
:10232000ED91FC91D2978081DA969C91892B8083E4
:10233000682DC701B4D9D701D196ED91FC91D29700
:102340008081DF969C918923808366E0C701A7D9AD
:10235000D701D196ED91FC91D2978081DA969C912C
:10236000892B80836D2DC7019AD9D701D196ED9124
:10237000FC91D2978081DF969C918923808367E0CE
:10238000C7018DD9D701D196ED91FC91D29780816B
:10239000DA969C91892B80836C2DC70180D9D70157
:1023A000D196ED91FC91D2978081DF969C91892303
:1023B000808364E0C70173D9D701D196ED91FC9178
:1023C000D2978081DA969C91892B80836B2DC701EF
:1023D00066D9D701D196ED91FC91D2978081DF9695
:1023E0009C918923808365E0C70159D9D701D19693
:1023F000ED91FC91D2978081DA969C91892B808314
:102400006A2DC7014CD9D701D196ED91FC91D29795
:102410008081DF969C918923808368E0C7013FD942
:10242000D701D196ED91FC91D2978081DA969C915B
:10243000892B8083612FC70132D9D701D196ED91C5
:10244000FC91D2978081DF969C918923808369E0FB
:10245000C70125D9D701D196ED91FC91D297808102
:10246000DA969C91892B8083602FDACE079709F04A
:10247000A7C0F701868997898130910531F058F01E
:102480008230910541F00397A1F422E0C20ED11CE5
:102490000E5F1F4F0EC0C601029698012E5F3F4F80
:1024A0006401F2E0CF0ED11C85010E5F1F4F590170
:1024B0004C01D701D196ED91FC91D2978081DF96A6
:1024C0009C91DF97892380835D966C91C701E7D843
:1024D000D701D196ED91FC91D2978081DA969C91AB
:1024E000892B80836A2DC701DAD8D701D196ED9167
:1024F000FC91D2978081DA969C91892B8083682DFC
:10250000C701CDD8D701D196ED91FC91D2978081AA
:10251000DF969C91DF97892380835F966C91C7013A
:10252000BED8D701D196ED91FC91D2978081DA96F1
:102530009C91892B8083602FC701B1D8D701D19698
:10254000ED91FC91D2978081DA969C91892B8083C2
:102550006C2DC701A4D8D701D196ED91FC91D297EB
:102560008081DF969C918923808361E2C70197D89F
:10257000D701D196ED91FC91D2978081DA969C910A
:10258000892B8083682DC7018AD8D701D196ED9118
:10259000FC91D2978081DA969C91892B80836C2D57
:1025A000C7017DD8D701D196ED91FC91D29780815A
:1025B000DF969C91DF978923808391966C9130CE32
:1025C0009D826E83BF822887D9824A831B830C83B6
:1025D00024E0AE014B5F5F4FF701658DC70177DCEB
:1025E00024E0AE014F5F5F4FD7015F966C91C7014A
:1025F0006EDC18CECF92DF92EF92FF92CF93DF93F3
:10260000FC01CA01AA27BB27C32ED42EE52EFF2426
:102610004C2D3085332371F0C32FD0E0C89FA0012B
:10262000C99F500DD89F500D1124852F3C9D6001EE
:1026300011244D2DA685218532859385A9131DC0B2
:10264000DB01AA0FBB1F6A0F7B1F620F731FA385DD
:10265000A60FB72FB11D8C93A485A60FB72FB11D60
:102660004C938585680F711DFB011082DF91CF911E
:10267000FF90EF90DF90CF900895660F771F660F61
:10268000771F620F731FA60FB72FB11D1C92DFCFEC
:102690008F929F92AF92BF92EF92FF920F931F93F0
:1026A000CF93DF93FC01E280F380E114F104D9F0D1
:1026B0002115310521F02E153F0508F479014A0155
:1026C0005B018C01D0E0C0E0F80182819381C817E2
:1026D000D90728F4A5019401BE01C8018BDF21961A
:1026E000EC16FD0689F7DF91CF911F910F91FF90B6
:1026F000EF90BF90AF909F908F900895CF92DF9210
:10270000EF92FF920F931F93CF93DF9300D000D0EF
:1027100000D0CDB7DEB78C01DC0119968D919C916C
:10272000892B09F465C00E946308F801C784D0882A
:10273000E188F2886C197D098E099F096C3271401D
:102740008105910580F3F894D80114968D919C91A0
:1027500015979A8389831996ED91FC917F01BFEFBC
:10276000EB1AFB0A80818987F80190810388F4893C
:10277000E02DD80155968C91992309F448C0908199
:10278000982B98879081809589238F838F818C8364
:1027900088E08B8358856F8149853B812C818981B5
:1027A0009A81D701508347FD252F3A952083262F04
:1027B00039F0441F00C000006083000000C0F2CF69
:1027C00038E04D9160830000019761F7D80154967D
:1027D000FC93EE93539749873B832C839A83898399
:1027E00078940E946308F8016787708B818B928BC5
:1027F00029960FB6F894DEBF0FBECDBFDF91CF9103
:102800001F910F91FF90EF90DF90CF9008959081EE
:10281000982B98879081809589238F838F818E83D1
:1028200088E08D8358856F8149853D812E8189811E
:102830009A81D701508347FD252F00C000C0208317
:1028400000C000C000C000C000C060830000262F90
:102850003A9541F0441F000000C000C000C000C015
:1028600000C0E8CF38E04D9100C0608300C0019700
:1028700009F7D8015496FC93EE93539749873D830B
:102880002E83ACCFCF93DF93EC018E819F8197FD98
:1028900007C061E00E94730560E08E810E9402051E
:1028A00081E08983DF91CF9108954F925F926F927B
:1028B0007F928F929F92AF92BF92CF92DF92EF92D0
:1028C000FF920F931F93CF93DF9300D000D01F92FE
:1028D0001F92CDB7DEB761E08BEE95E10E94DA087A
:1028E0008BE39FE10197F1F785EEE82E84E1F82E66
:1028F000DD24D39410E000E08090630290906402A5
:10290000A0906502B0906602409067025090680205
:102910006090690270906A0295E0C92E8D829E8255
:10292000AF82B88649825A826B827C822091F215EE
:1029300081E0211180E0819590E03091F3153031F4
:1029400009F040C02430F1F521E030E02C0F3D1FAC
:10295000820F931FFC0160816D0D60688BEE95E125
:102960000E94DA08F701819191917F01C09EF001E8
:10297000C19EF00D1124EA59FB4EE80FF91F60814A
:102980008BEE95E10E94CF080F5F1F4FD394D39435
:10299000FBE0DF12C3CF28960FB6F894DEBF0FBE60
:1029A000CDBFDF91CF911F910F91FF90EF90DF90FE
:1029B000CF90BF90AF909F908F907F906F905F90DF
:1029C0004F90089525E030E0C1CF0F931F93CF9330
:1029D000DF932CE8289F8001299F100D11248EE0A1
:1029E000869F9001879F300D1124020F131FD0E0A6
:1029F000C0E0FE01EE0FFF1FE00FF11FE259FD4F97
:102A00006081718177FD0EC080912217909123170C
:102A10006817790738F420E030E044E650E080E2BF
:102A200097E1E8DD2196C730D10519F7DF91CF9105
:102A30001F910F910895FC014481558170E060E081
:102A4000818592850C94F02B89EB95E1F4DF25E8E4
:102A500030E040E056E960E070E089EB95E118DE97
:102A600089EB95E14BCE89EB95E1E5DF25E830E098
:102A700040E050E066E970E089EB95E109DE89EB22
:102A800095E13CCECF93DF93C0919514D0919614ED
:102A90002196D0939614C09395148FEC95E1CBDFDB
:102AA0009E0140E050E066E970E08FEC95E1F0DDDA
:102AB0008FEC95E123DE85E30E942F0548EE53E07D
:102AC00060E070E084E690E00E94AF05239734F068
:102AD00081E080939914DF91CF91C5CFDF91CF91A1
:102AE0000895CF93DF93EC0188819981009711F0CD
:102AF0000E946D2A198218821D821C821B821A82F2
:102B0000DF91CF910895FC01808191810C946D2A11
:102B100042E050E068E872E180E195E10C94430303
:102B2000CF93DF93FC0101900020E9F73197AF01CB
:102B3000481B590BBC0180E195E10E944303EC0165
:102B4000E7DF8C0F9D1FDF91CF910895CF92DF9229
:102B5000EF92FF920F931F93CF93DF938BE892E155
:102B6000DFDF1092E1161092E01620E430E041E839
:102B700050E060E470E090E080E027D821E830E0A9
:102B800040E450E070E060E080E490E01ED81092F5
:102B9000E1161092E016C0913D14D0913E14D695E6
:102BA000DC2FCC27D795C795C256DB4FA7E1EA2E7D
:102BB000F12CB0E3CB2ED12C00E210E0888199817A
:102BC000AA81BB81002E04C0B595A79597958795DE
:102BD0000A94D2F780FF0CC02091E0163091E116E4
:102BE000A701B601601B710B86ED96E10E94800D76
:102BF0000150110919F724962FEFE21AF20A87E320
:102C0000E816F104C9F680914A1490914B14813072
:102C1000910509F42BC1019609F42BC190E080E0E5
:102C20009093E1168093E0167C010BE010E025E123
:102C300030E043E050E066E170E086ED96E10E940E
:102C4000510C1092E1161092E016C0913F14D091F1
:102C50004014D695DC2FCC27D795C795C256DB4FAD
:102C600077E1E72EF12CE0E7CE2ED12C00E210E048
:102C700088819981AA81BB81002E04C0B595A79552
:102C8000979587950A94D2F780FF0CC02091E016A3
:102C90003091E116A701B601601B710B86ED96E13C
:102CA0000E94800D0150110919F724968FEFE81A40
:102CB000F80A27E3E216F104C9F680914C149091CA
:102CC0004D148130910509F4D7C0019609F4D7C09D
:102CD00090E080E09093E1168093E0167C010BE099
:102CE00010E025E130E043E050E066E570E086ED7D
:102CF00096E10E94510C1092E1161092E016C091DC
:102D00004114D0914214D695DC2FCC27D795C79586
:102D1000C256DB4F47E5E42EF12C50E3C52ED12CF3
:102D200000E210E088819981AA81BB81002E04C055
:102D3000B595A795979587950A94D2F780FF0CC013
:102D40002091E0163091E116A701B601601B710BCE
:102D500086ED96E10E94800D0150110919F7249625
:102D60008FEFE81AF80A27E7E216F104C9F6809116
:102D70004E1490914F148130910509F483C001964F
:102D800009F483C090E080E09093E1168093E01610
:102D90007C010BE010E025E130E043E450E066E127
:102DA00070E086ED96E10E94510C1092E1161092AF
:102DB000E016C0914314D0914414D695DC2FCC2753
:102DC000D795C795C256DB4F97E5E92EF12C20E742
:102DD000C22ED12C00E210E088819981AA81BB81AA
:102DE000002E04C0B595A795979587950A94D2F7BC
:102DF00080FF0CC02091E0163091E116A701B601CA
:102E0000601B710B86ED96E10E94800D0150110947
:102E100019F724968FEFE81AF80A27E7E216F1046B
:102E2000C9F680915014909151148130910581F12F
:102E3000019689F190E080E09093E1168093E0168E
:102E40007C010BE010E025E130E043E450E066E572
:102E500070E086ED96E10E94510CDF91CF911F91B9
:102E60000F91FF90EF90DF90CF90089580E89FE062
:102E7000D7CE80E098EFD4CE80E89FE02BCF80E0E3
:102E800098EF28CF80E89FE07FCF80E098EF7CCF5D
:102E900080E89FE0D1CF80E098EFCECFCF93DF9353
:102EA000FC01448155816081718180E195E10E943E
:102EB0004303EC012DDE8C0F9D1FDF91CF91089510
:102EC0000F931F93CF93DF93EC0188819981009733
:102ED00059F02A813B812617370730F081E0DF91D6
:102EE000CF911F910F9108958B016F5F7F4F0E94CB
:102EF000F62A009759F0998388831B830A832C81D3
:102F00003D81232B59F7FC011082E8CF80E0E7CF09
:102F10000F931F93CF93DF93EC010C811D810F5F03
:102F20001F4FB801CDDF882391F0288139818C8132
:102F30009D816EE972E1820F931F0E94F72B1D8322
:102F40000C83CE01DF91CF911F910F910895CE0197
:102F5000C8DDF7CFEF92FF920F931F93CF93DF93CC
:102F6000EC01FB01E080F180E114F10409F104813E
:102F7000158101151105A1F08C819D81080F191F84
:102F8000B801CE019DDF882399F0288139818C8199
:102F90009D81B701820F931F0E94F72B1D830C8325
:102FA000CE01DF91CF911F910F91FF90EF90089587
:102FB000CE0197DDF5CFEF92FF920F931F93CF9342
:102FC000DF93EC017B018A01BA017ADF81110AC02B
:102FD000CE0187DDCE01DF91CF911F910F91FF9040
:102FE000EF9008951D830C83B701888199810E9419
:102FF000F72BF0CFEF92FF920F931F93CF93DF93B6
:10300000CDB7DEB762970FB6F894DEBF0FBECDBF67
:103010008C01CB01F8011182108213821282158279
:1030200014824AE09E012F5F3F4F7901B9010E944F
:103030001229F70101900020E9F73197AF014E19ED
:103040005F09B701C801B7DF62960FB6F894DEBF1B
:103050000FBECDBFDF91CF911F910F91FF90EF90E9
:103060000895CF93DF93EC01FB018617970741F09A
:10307000608171816115710539F0448155819BDF53
:10308000CE01DF91CF9108952CDDFACFFC011182A2
:1030900010821382128215821482FB01019000209B
:1030A000E9F73197AF01461B570B85CF0E94D22B12
:1030B0001F920F920FB60F9211240BB60F922F93FF
:1030C0003F934F935F936F937F938F939F93AF93B0
:1030D000BF93EF93FF938091041590910515A091F4
:1030E0000615B0910715892B8A2B8B2BE1F1909156
:1030F000F314E091F414F091F51480818927808312
:103100008091041590910515A0910615B0910715B1
:10311000181619061A061B069CF480910415909146
:103120000515A0910615B09107150197A109B109E0
:103130008093041590930515A0930615B093071579
:10314000FF91EF91BF91AF919F918F917F916F917F
:103150005F914F913F912F910F900BBE0F900FBE3B
:103160000F901F901895809158020E942F05E8CF6C
:103170001F920F920FB60F9211240BB60F922F933E
:103180003F934F935F936F937F938F939F93AF93EF
:10319000BF93EF93FF9380E195E10E94B603FF9107
:1031A000EF91BF91AF919F918F917F916F915F91BF
:1031B0004F913F912F910F900BBE0F900FBE0F902C
:1031C0001F9018951F920F920FB60F9211240BB6F5
:1031D0000F922F938F939F93EF93FF93E09120157E
:1031E000F09121158081E0912615F091271582FD3F
:1031F0001DC09081809129158F5F8F7320912A15B2
:10320000821741F0E0912915F0E0E05FFA4E958FCA
:1032100080932915FF91EF919F918F912F910F909E
:103220000BBE0F900FBE0F901F9018958081F2CFAC
:103230001F920F920FB60F9211242F933F938F93EB
:103240009F93AF93BF938091461490914714A091A0
:103250004814B09149143091371423E0230F2D37CF
:1032600058F50196A11DB11D209337148093461483
:1032700090934714A0934814B09349148091381444
:1032800090913914A0913A14B0913B140196A11D6C
:10329000B11D8093381490933914A0933A14B093CD
:1032A0003B14BF91AF919F918F913F912F910F90C0
:1032B0000FBE0F901F90189526E8230F0296A11DB0
:1032C000B11DD2CF1F920F920FB60F9211240BB6E1
:1032D0000F922F933F934F935F936F937F938F93AF
:1032E0009F93AF93BF93EF93FF938091B900887F33
:1032F000803609F44DC008F040C0883209F4A9C0F6
:1033000028F5803109F49DC0C8F4882309F4FBC076
:10331000883009F496C0FF91EF91BF91AF919F91D2
:103320008F917F916F915F914F913F912F910F906E
:103330000BBE0F900FBE0F901F901895883109F4A7
:1033400088C0803241F78093BE1414C0803409F4E1
:103350009DC040F48033B9F38833E9F68093BE14FE
:1033600085ECB0C0803509F485C0883509F496C075
:10337000883489F60E946D09CECF883909F48CC053
:1033800038F5883729F050F4883611F0803719F66F
:1033900083E08093C0141092301457C0883809F429
:1033A0007BC0803919F0803809F0B5CF8091301496
:1033B000803208F071C0E091301481E08E0F80936C
:1033C00030148091BB00F0E0E05FFB4E80833DC095
:1033D000803B39F0E0F4803A09F479C0883A09F08A
:1033E0009ACF84E08093C01410920F1410920E14A0
:1033F000E0913314F0913414199580910E148111D9
:103400000FC081E080930E141092EE1309C0803C2F
:1034100009F4A6CF883C09F4A3CF883B09F07BCF01
:10342000E0910F1481E08E0F80930F14F0E0E251D1
:10343000FC4E80818093BB0090910F1480910E14FC
:1034400029C080919B148093BB0085EC8093BC00C5
:1034500062CF9091BD148091BC14981758F5E091FB
:10346000BD1481E08E0F8093BD14F0E0E456FB4E56
:103470008081E9CFE091BD1481E08E0F8093BD146F
:103480008091BB00F0E0E456FB4E80839091BD1428
:103490008091BC149817C8F285E8D8CFE091BD148C
:1034A00081E08E0F8093BD148091BB00F0E0E45664
:1034B000FB4E80838091BF1481115CCF81E08093AB
:1034C0009A1484EA8093BC001092C01424CF85EC37
:1034D0008093BC001092C01480913014803230F47C
:1034E000E0913014F0E0E05FFB4E10826091301408
:1034F00070E0E0913114F091321480E194E119957B
:103500001092301408CF1092BE1434CFCF92DF92B5
:10351000EF92FF920F931F93CF93DF93EC016B0118
:103520008A01198218861F86188A198A1A8A81E0E8
:103530008E878B871C8692E09D8788837B01EE0CAB
:10354000FF1CE60EF71EFD82EC82C7010E94D12906
:103550009A878987009779F1A70170E060E00E945F
:10356000F02BDB82CA821F830E838981882341F07E
:1035700061E0802F0E94730560E0802F0E940205A9
:10358000F801ED52FB4FE491F0E0EE0FFF1FE7541E
:10359000FB4F859194919C8B8B8BF801ED58FB4FE1
:1035A000E491ED8BDF91CF911F910F91FF90EF9000
:1035B000DF90CF9008951D821C821B821A82D3CF88
:1035C0000F931F93CF93DF93E0E1F5E11382128213
:1035D00088EE93E0A0E0B0E084839583A683B78370
:1035E00020E432E13183208325EC30E035872487E5
:1035F00024EC30E03787268720EC30E0318B208BBD
:1036000021EC30E0338B228B22EC30E0358B248BA5
:1036100026EC30E0378B268B118E128E138E148E93
:10362000EDEAF5E11382128284839583A683B78342
:1036300082E592E19183808344E350E065E270E0AB
:1036400080E297E163DFC6EDD6E180E098EF9987ED
:10365000888720EE37E03F832E839B878A8701E0AF
:103660000C871D8688E792E1998388838AE180939D
:1036700019178CE180931A171FEF10931B178DE118
:1036800080931C178EE180931D178BE180931E178A
:1036900010931F171C8EEDEEF4E0E491F0E0EE0FB6
:1036A000FF1FE754FB4FA591B491B8ABAFA7EDE86E
:1036B000F4E0849189AF982F90959EAFEFEEF4E0FF
:1036C000E491F0E0EE0FFF1FE754FB4F259134919A
:1036D0003AAB29ABEFE8F4E0E491EAAFE095EFAF65
:1036E0001CAA1BAA1BAE10921617E0EFF4E0E4919F
:1036F000F0E0EE0FFF1FE754FB4F259134913EABF6
:103700002DABE0E9F4E0E491ECAFE095E09317171E
:10371000E1EFF4E0E491F0E0EE0FFF1FE754FB4F20
:103720002591349138AF2FABE1E9F4E0E491EDAFAE
:10373000E095E0931817EC918E2B8C93E9A9FAA9E8
:1037400080819AAD892B8083EBA9FCA980819BADF8
:10375000892B8083EDA9FEA980819CAD892B808374
:10376000EFA9F8AD80819DAD892B808361E08AE16E
:103770000E94730561E08CE10E94730560E08FEFA9
:103780000E94730561E08DE10E94730561E08EE1A6
:103790000E94730561E08BE10E94020561E08BE10C
:1037A0000E9473051F8A1E8A83E892E19B8F8A8F8D
:1037B00082E890E09F878E87998B888B9B8B8A8B82
:1037C0009D8B8C8B60EA72E184E096E15FDC66EAB7
:1037D00072E18AE096E15ADC6CEA72E180E196E1FE
:1037E00055DC62EB72E186E196E150DC68EB72E158
:1037F0008CE196E14BDC6EEB72E182E296E146DC15
:1038000064EC72E188E296E141DC6AEC72E18EE2FE
:1038100096E13CDC60ED72E184E396E137DC66ED35
:1038200072E18AE396E132DC6CED72E180E496E1CC
:103830002DDC62EE72E186E496E128DC68EE72E14E
:103840008CE496E123DC6EEE72E182E596E11EDC0B
:1038500064EF72E188E596E119DC6AEF72E18EE5CA
:1038600096E114DC60E073E184E696E10FDC66E04B
:1038700073E18AE696E10ADC6CE073E180E796E1A9
:1038800005DC62E173E186E796E100DC68E173E163
:103890008CE796E1FBDB6EE173E182E896E1F6DB13
:1038A00064E273E188E896E1F1DB6AE273E18EE8B5
:1038B00096E1ECDB60E373E184E996E1E7DB66E344
:1038C00073E18AE996E1E2DB6CE373E180EA96E179
:1038D000DDDB62E473E186EA96E1D8DB68E473E15C
:1038E0008CEA96E1D3DB6EE473E182EB96E1CEDB0A
:1038F00064E573E188EB96E1C9DB6AE573E18EEB81
:1039000096E1C4DB60E673E184EC96E1BFDB66E63A
:1039100073E18AEC96E1BADB6CE673E180ED96E147
:10392000B5DBEBEEF5E11382128284E692E191833E
:103930008083108A17871686118A87E28387148608
:1039400015861286118684E0828B82E0838B048B3D
:1039500080E1858B80E2868B80E4878B80E8808F96
:1039600050E040E063E0CF010E94B9086AE872E1EC
:1039700085EE95E18BDB42E350E063E070E08FEC95
:1039800095E1C4DD43E350E065E870E089EB95E143
:10399000DF91CF911F910F91B9CDCF93DF93CDB729
:1039A000DEB7CA57D1090FB6F894DEBF0FBECDBF40
:1039B000789484B5826084BD84B5816084BD85B50A
:1039C000826085BD85B5816085BD80916E00816016
:1039D00080936E00109281008091810082608093BC
:1039E00081008091810081608093810080918000BE
:1039F0008160809380008091B10084608093B100E9
:103A00008091B00081608093B000809191008260CD
:103A100080939100809191008160809391008091CA
:103A200090008160809390008091A10082608093DB
:103A3000A1008091A10081608093A1008091A000ED
:103A400081608093A0008091210182608093210198
:103A5000809121018160809321018091200181600A
:103A60008093200180917A00846080937A00809115
:103A70007A00826080937A0080917A0081608093DE
:103A80007A0080917A00806880937A001092C10059
:103A900080917B00877F80937B0080E480937C0013
:103AA00080917A00806480937A0080917A0086FD0C
:103AB000FCCF8091780060917900762F682F072ED7
:103AC000000C880B990B611571058105910511F0AA
:103AD0000E940929E0912015F091211582E0808350
:103AE000E0911C15F0911D151082E0911E15F091CA
:103AF0001F158FEC808310922815E0912415F0910A
:103B0000251586E08083E0912215F09123158081B0
:103B100080618083E0912215F09123158081886077
:103B20008083E0912215F091231580818068808345
:103B3000E0912215F091231580818F7D808380E2B2
:103B400097E10E94421480E297E10E941B1580E2F7
:103B500097E10E947E138FEC95E10E9442148FEC56
:103B600095E10E941B158FEC95E10E947E1389EB75
:103B700095E10E94421489EB95E10E941B1589EBA7
:103B800095E10E947E1306E212E1F80180810E5F4A
:103B90001F4F62E00E947305F2E10C331F07A9F783
:103BA00020E042E060E18BEE95E10E94AA0A6FEF0F
:103BB0008BEE95E10E94920A0E94BD2823E230E03C
:103BC00040E050E00E94452926E0269FA001279F63
:103BD000500D1124BA016C5F794E85EE95E141DA02
:103BE00005EE14E145E0C42ED12CE12CF12C0E940D
:103BF000BD28A70196010E944529F80161937193A0
:103C00008F01F4E10F3E1F0791F762E773E1CE01E8
:103C1000855A9F4F3BDAB12CA12C2E0121E6420E92
:103C2000511C8091E9159091EA15A816B90608F47F
:103C300084C036E6E32E34E1F32E10E000E08091FC
:103C4000E9159091EA150817190708F0D1C11A82F1
:103C500019821C821B821E821D82BE01655A7F4F03
:103C6000CE010196FED9D12CC12C8D809E80B12C25
:103C7000A12C81149104A104B10439F00E94BD2843
:103C8000A50194010E9445294B01082C000C9908BC
:103C90004D815E818416950628F4E981FA8130977A
:103CA00009F0A0C110923C14ECE3F4E1B08084165A
:103CB0009506C0F489819A81415051095E834D83F4
:103CC00048195909B4016F5F7F4F680F791F880D3C
:103CD000991D0E94FE2BE981FA818D819E81E80F5A
:103CE000F91F1082F701EC0DFD1DB0822FEFC21AF3
:103CF000D20A35E0C316D10409F0B7CF8091E91597
:103D00009091EA150817190738F4E091E515F0913C
:103D1000E615309709F069C110923C14ECE3F4E128
:103D20008081F7018083CE0101960E9483150F5F89
:103D30001F4FF5E0EF0EF11C82CF6AE872E1CE0171
:103D40000196A4D98091E9159091EA15A816B906B3
:103D500038F4E091E515F091E615309709F051C07F
:103D600010923C14ECE3F4E1808167961FAE1EAE26
:103D7000679769961FAE1EAE69976B961FAE1EAE13
:103D80006B97F2018083118201900020E9F731974F
:103D9000AF0144195509B201CE018B5A9F4F0BD97F
:103DA000A1966EAC7FACA1976114710409F474C044
:103DB0006B968EAC9FAC6B978114910409F46CC028
:103DC000ED80FE80E818F9086D960EAD1FAD6D9779
:103DD000E114F104C9F467966EAD7FAD6797C80131
:103DE0000E940D2C8C01009709F456C069817A81DC
:103DF0004D815E810E94D62B8D819E81080F191FF7
:103E0000EACFEA0DFB1DB0CFF7FC11C067962EACD0
:103E10003FAC67976301C801B1010E940D2C009768
:103E200009F447C0880D991DCE0CDF1CF5CF680141
:103E300067966EAD7FAD6797C8010E940D2C3C015F
:103E4000009731F14C01801A910AA401B801C60112
:103E50000E94D62BC80CD91C69817A814D815E8164
:103E6000C6010E94D62B8D819E81C80ED91E6B96ED
:103E70000EAD1FAD6B97060D171DA1968EAD9FADB4
:103E8000A1978E0D9F1DA1969FAF8EAFA197D0CF0A
:103E9000B801C6010E94F72BCE018B5A9F4F0E949A
:103EA0008315CE0101960E948315FFEFAF1ABF0A5A
:103EB000B8CE6C147D0481F36F968EAD9FAD6F9775
:103EC0008C159D0580F4B6016F5F7F4FC8010E947D
:103ED000F62A009709F36D969FAF8EAF6D976F9698
:103EE000DFAECEAE6F97A1960EAD1FADA19701507C
:103EF000110917FDD1CF48016B962EAC3FAC6B97E3
:103F00002114310449F2A196CEACDFACA197C114C3
:103F1000D10411F2C214D30408F4BECF0C151D0550
:103F200020F04601F1E08F1A91086D966EAC7FACDF
:103F30006D9767962EAD3FAD6797E9963FAF2EAF71
:103F4000E997C3010FEF1FEFA301480D591DEB9631
:103F50005FAF4EAFEB97EB96EEADFFADEB97E8178B
:103F6000F90790F0E9966EAD7FADE9970E940D2CB0
:103F7000009751F09C01261937098216930608F420
:103F8000980101968901E7CF17FD86CF200E311EDB
:103F9000C301820D931DA60142195309BC018E0D68
:103FA0009F1D0E94DF2BA1968EAD9FADA1978E0D18
:103FB0009F1DA1969FAF8EAFA1976D962EAD3FAD81
:103FC0006D97820F931FFC0110826D968EAD9FAD91
:103FD0006D9769817A814D815E81800F911F0E946A
:103FE000D62B85CFE80DF91D61CEE00FF11F98CEDD
:103FF000CE01855A9F4F0E9483150E94551481E07F
:104000008093EF14DE01AB5ABF4F25EE34E190E010
:1040100080E0DA2ECB2E65E0F901419151919F01AC
:10402000689FF001699FF00D1124EA59FB4EE40FDF
:10403000F51F40814D9301968530910569F76D2DEF
:104040007C2DCE01019622D8CE0101960E944E17FA
:10405000CE0101960E94831585EE95E10E944E17D0
:104060002EE2E22E22E1F22E0EE112E1E016F1063E
:1040700041F0F80180810E5F1F4F62E00E947305DE
:10408000F5CF0E94DE0B80911F1787FD03C061E012
:104090000E9402058091F0169091F116019609F0A8
:1040A00041C060E084E090E00E94160C892B21F56D
:1040B00061E084E090E00E94160C81159048E1F4E4
:1040C00080916B0290916C02A0916D0289839A831A
:1040D000AB8323E0AE014F5F5F4F69EB86ED96E166
:1040E0000E94670F60E080ED90E00E94160C61E096
:1040F00080ED90E00E94160C61E083ED90E00E945C
:10410000160C813433E9930749F0863844E9940763
:1041100029F060E090E080E00E94160C9093F11688
:104120008093F0160091F0161091F1160E94DE0BAC
:1041300068EC70E080E090E00E948808053253E966
:10414000150709F464C008F058C0053795E719074A
:1041500009F49FC058F40338124109F43CC38FEFAF
:1041600090E09093EF168093EE160AC1053327E78F
:10417000120709F4F3C20039104989F783E090E08F
:104180009093EF168093EE168AE290E09093F416E7
:104190008093F3168BE290E09093F6168093F516D9
:1041A0008CE290E09093F8168093F7168EE290E000
:1041B0009093FA168093F91683E390E09093FC169F
:1041C0008093FB1687E390E09093FE168093FD1694
:1041D00086E390E0909300178093FF1681E090E0D3
:1041E00090930217809301179093041780930317FD
:1041F00066E470E086EE92E0C1C0013443E9140742
:1042000009F47EC0E8F50832134909F0A8CF1092EE
:10421000EF161092EE161092F4161092F3161092FA
:10422000F6161092F51682E290E09093F8168093BD
:10423000F7169093FA168093F91681E690E0909322
:10424000FC168093FB168AE690E09093FE1680930E
:10425000FD1683E090E0909300178093FF1681E0B5
:1042600090E0909302178093011710920417109218
:1042700003176CEC70E086EA93E00E94BE0B80C0EE
:10428000063894E9190709F42CC20539154909F0D3
:1042900066CF81E090E09093EF168093EE16109237
:1042A000F4161092F3161092F6161092F51622E2FA
:1042B00030E03093F8162093F7163093FA162093D7
:1042C000F9162EE030E03093FC162093FB1624E123
:1042D00030E03093FE162093FD1626E130E0309357
:1042E00000172093FF169093021780930117909365
:1042F0000417809303176FE770E087E692E03EC0F3
:1043000082E090E09093EF168093EE168AE290E0C0
:104310009093F4168093F3168BE290E09093F61648
:104320008093F5168CE290E09093F8168093F71640
:104330008EE290E09093FA168093F91683E390E072
:104340009093FC168093FB1687E390E09093FE1603
:104350008093FD1686E390E0909300178093FF16FC
:10436000109202171092011781E090E090930417C9
:10437000809303176AE770E08CE293E00E94BA0F23
:104380008091EC16282F237030E03093ED162093A7
:10439000EC16282F217080FF5DC28091E616909167
:1043A000E7169093E9168093E8168091E4169091B1
:1043B000E516211104C08091E6169091E7169093BE
:1043C000EB168093EA16E0910517F09106178081AD
:1043D00090911417892380832091EE163091EF1667
:1043E0008091EC169091ED162115310509F04AC225
:1043F0008130910509F433C208F43FC2823091053F
:1044000009F432C2039709F433C2E0910717F0911F
:104410000817808190911517892380836091001778
:1044200086ED96E10E944F0B6091FF1686ED96E1B6
:104430000E944F0BE0910717F0910817808190912F
:104440001017892B808360E186ED96E10E944F0B67
:10445000E7966FADE79786ED96E10E944F0B0091CE
:10446000EA161091EB16015011092091E8163091CF
:10447000E9162150310950E040E070E060E086ED3F
:1044800096E10E9404104091E6165091E7162091A3
:10449000EE163091EF162115310509F009C363E0DE
:1044A00070E08091FB169091FC160E948A0B70E0E0
:1044B00060E08091FD169091FE160E948A0BE091BB
:1044C0000517F0910617808190910F17892B808333
:1044D000E0910517F09106178081909114178923B8
:1044E0008083109101172091EE163091EF16E09124
:1044F0000717F0910817809115172115310509F05C
:1045000012C390818923808361E686ED96E10E9443
:104510004F0BE0910717F0910817808190911017C9
:10452000892B8083612F86ED96E10E944F0BE091ED
:104530000517F0910617808190910F17892B8083C2
:104540000091EA161091EB162091E8163091E916C9
:10455000EE24EA94FE2C50E040E070E060E086ED4E
:1045600096E10E94510C88EAE0E0F2E0DE0111964B
:1045700001900D928A95E1F700D62BE130E040E002
:1045800050E083D610E000E097E0892E912CA12C1A
:10459000B12C87E0869F7001879FF00C1124EDD528
:1045A000A501940172D6F701E60FF71FEE0FFF1F6A
:1045B00021E030E02C0F3D1FE20FF31F20813181FD
:1045C0002115310509F015C3015011090F5F1F4F67
:1045D0000430110521F760914314709144148D2D1E
:1045E0009C2D0E94FA176091411470914214CE01E3
:1045F000855A9F4F0E94FA1760913F1470914014A2
:10460000CE018F599F4F0E94FA1760913D1470910F
:104610003E14CE0183599F4F0E94FA17A9961FAEF0
:104620001EAEA997AB961FAE1EAEAB97AD961FAE52
:104630001EAEAD97BE0163597F4FCE0189599F4F82
:104640000E943118CE0189599F4F0E948817BE01E0
:104650006F597F4F0E94AA170E948817BE01655AA2
:104660007F4F0E94AA170E9488176D2D7C2D0E94F3
:10467000AA170E944E17CE0189599F4F0E94831599
:10468000CE0183599F4F0E948315CE018F599F4FB2
:104690000E948315CE01855A9F4F0E9483158D2D50
:1046A0009C2D0E9483150E94A6150E942415EAE005
:1046B0002E2E312C809199148111D7C4809197149A
:1046C000909198148330910509F0A3C20E9424159B
:1046D00084E090E090939814809397140E94430490
:1046E000E9CF85E090E09093EF168093EE168AE292
:1046F00090E09093F4168093F3168BE290E0909301
:10470000F6168093F5168CE290E09093F81680935D
:10471000F7168EE290E09093FA168093F91683E3F1
:1047200090E09093FC168093FB1687E390E09093C3
:10473000FE168093FD1686E390E090930017809319
:10474000FF16109202171092011710920417109280
:1047500003176AE470E08DE192E010CE86E090E00D
:104760009093EF168093EE168AE290E09093F41601
:104770008093F3168BE290E09093F6168093F516F3
:104780008CE290E09093F8168093F7168EE290E01A
:104790009093FA168093F91683E390E09093FC16B9
:1047A0008093FB1687E390E09093FE168093FD16AE
:1047B00086E390E0909300178093FF161092021703
:1047C0001092011710920417109203176FE570E012
:1047D0008EEB91E0D3CD87E090E09093EF1680933D
:1047E000EE1685E490E09093F4168093F31684E43B
:1047F00090E09093F6168093F51682E290E0909305
:10480000F8168093F7168EE290E09093FA16809354
:10481000F91681E490E09093FC168093FB1682E4F5
:1048200090E09093FE168093FD1683E090E09093C5
:1048300000178093FF1681E090E090930217809319
:104840000117109204171092031760E670E08EE5CE
:1048500091E013CD8091E4169091E516A2CDF8E297
:10486000E796FFAFE797D1CDE7961FAEE797CDCD9F
:1048700028E1E7962FAFE797C8CD30E3E7963FAF43
:10488000E797C3CD26303105C1F58130910511F18F
:1048900078F18230910519F1039729F1E09107171A
:1048A000F09108178081909115178923808360917A
:1048B000FF1686ED96E10E944F0BE0910717F091ED
:1048C0000817808190911017892B8083E4966FAD33
:1048D000E497C1CD40EAE4964FAFE497DFCFE4968A
:1048E0001FAEE497DBCF50E6E4965FAFE497D6CFF8
:1048F00080EDE4968FAFE497D1CF2730310509F0F2
:104900009EC08130910549F008F450C08230910575
:1049100009F44CC0039709F0A2CDE0910717F0917C
:1049200008178081909115178923808360E086EDB8
:1049300096E10E944F0B61E086ED96E10E944F0BDD
:10494000E0910717F0910817808190911017892B3B
:10495000808362E286ED96E10E944F0B63E886ED6C
:1049600096E10E944F0BE0910717F09108178081A4
:10497000909115178923808360E086ED96E10E946F
:104980004F0B63E086ED96E10E944F0BE091071715
:10499000F0910817808190911017892B808368E629
:1049A00086ED96E10E944F0B68E355CDE091071725
:1049B000F09108178081909115178923808360E01A
:1049C00086ED96E10E944F0B61E086ED96E10E9434
:1049D0004F0BE0910717F091081780819091101705
:1049E000892B808361E286ED96E10E944F0B63E89C
:1049F00086ED96E10E944F0BE0910717F0910817A2
:104A00008081909115178923808360E086ED96E17F
:104A10000E944F0B63E086ED96E10E944F0BE09100
:104A20000717F0910817808190911017892B8083C8
:104A300068E686ED96E10E944F0B60E30CCD813075
:104A4000910511F180F18230910519F1039731F14F
:104A5000E0910717F091081780819091151789232D
:104A600080836091FF1686ED96E10E944F0BE091E6
:104A70000717F0910817808190911017892B808378
:104A8000E5966FADE597E7CC98E2E5969FAFE597A1
:104A9000DFCFE8E9E596EFAFE597DACFF8EFE596F7
:104AA000FFAFE597D5CF28E4E5962FAFE597D0CFB8
:104AB0008091FB169091FC162730310519F470E0B7
:104AC00060E0FBCC19821A825B834C831D821E82BC
:104AD00026E0AE014F5F5F4F682F86ED96E10E94A2
:104AE000670F19821A8222E0AE014F5F5F4F60911B
:104AF000FD1686ED96E10E94670F8091EE1690916B
:104B0000EF16019759F4198221E0AE014F5F5F4F14
:104B100061E086ED96E10E94670FD1CC20E050E085
:104B200040E063E1F6CF21303105B1F49081892373
:104B3000808361E086ED96E10E944F0BE0910717BC
:104B4000F0910817808190911017892B808368E07D
:104B50001111E9CC6AE0E7CC2730310509F041C0FA
:104B60002091EC163091ED162D7F2115310529F598
:104B7000112369F131E2E6963FAFE69790818923F0
:104B8000808360E086ED96E10E944F0B61E086ED48
:104B900096E10E944F0BE0910717F0910817808172
:104BA00090911017892B8083E6966FADE69786ED7E
:104BB00096E10E944F0B63E8B6CC21303105F1F647
:104BC000112351F042E2E6964FAFE697D7CF51E07E
:104BD000E6965FAFE697D2CF92E0E6969FAFE69774
:104BE000CDCF90818923808361E211119CCC60E25A
:104BF0009ACCA801440F551FDA01A35CBB4E2D933C
:104C00003C93DA01AE5ABB4E6D937C9311821082B5
:104C1000DDCC03970CF062CD6FE7662E64E1762E53
:104C200076E2A72E72E1B72EF12CE12CF5018081FE
:104C3000F2E0AF0EB11C0E94DA048C018824839448
:104C4000912C892B11F0912C812CF3018191919160
:104C50003F018816990609F46DC00115110509F088
:104C600065C0B701CE0101960E94FA176DE873E1A5
:104C70008D2D9C2D0E944618BE016F5F7F4F8D2D9C
:104C80009C2D0E94AA170E944E178D2D9C2D0E94CC
:104C90008315CE0101960E9483150E945514F701D9
:104CA0003197EA30F10578F48827E75AF94D8F4FAC
:104CB0005CC39B279E27A327A627AB27AE27B32736
:104CC000B627B627BB270E94421561E070E090E04E
:104CD00080E00E94C1028CEA93E10E949015AD2D04
:104CE000BC2D85EE94E1FC0121913191CF0145E08D
:104CF000409FF001419FF00D1124EA59FB4EE20F55
:104D0000F31F20812D930F5F1F4F0530110559F7B9
:104D10006D2D7C2DCE0101960E944618CE01019684
:104D20000E944E17CE0101960E948315F30132971F
:104D3000918280825FEFE51AF50A8BE0E816F104B4
:104D400009F074CF3AE5632E34E1732E4EE1A42EC0
:104D500042E1B42E10E000E0F5018081F2E0AF0EF8
:104D6000B11C0E94DA0488248394912C009711F0DE
:104D7000912C812CF301219131913F0128153905A6
:104D800009F4A0C0892B09F099C0B801CE010196A1
:104D90000E94FA1768EB73E18D2D9C2D0E94461836
:104DA000BE016F5F7F4F8D2D9C2D0E94AA170E9420
:104DB0004E178D2D9C2D0E948315CE0101960E94C9
:104DC0008315209152143091531480915414909172
:104DD0005514281739070CF4C9018031F7E29F07F1
:104DE00014F08FE097E220915614309157148217F7
:104DF00093070CF49C016091581470915914261774
:104E000037070CF4B901CE0101960E94FA17CE01C2
:104E100001960E944E17CE0101960E9483157801DB
:104E2000EE0CFF1C97012E5A3B4E2901F9016081BF
:104E30007181CE0101960E94FA17CE0101960E945F
:104E40004E17CE0101960E948315F2012081318117
:104E500040915214509153148091541490915514D0
:104E6000481759070CF4CA018031F7E29F0714F084
:104E70008FE097E24091561450915714841795078C
:104E80000CF4AC01809158149091591448175907AB
:104E90000CF4CA01A701465B5B4E7A01281739075B
:104EA00009F07EC028513C4FF2013183208321E07C
:104EB00030E0F701318320830E94A615F301329779
:104EC000918280820F5F1F4F0630110509F044CF99
:104ED0008FB7F894209146143091471440914814AC
:104EE000509149148FBFA0919514B0919614AA0FB8
:104EF000BB1F1196205D374041095109ECD120EECE
:104F000033E944E050E0261B370B480B590BCA012C
:104F1000B90128EE33E040E050E0E3D1490130939D
:104F200057022093560237FF40C081E080939914C6
:104F30000E943315D3CB6FEF7FEFC9CE61E070E0F5
:104F400081E090E0C6CE6FEF7FEFFACF61E070E0D6
:104F500082E090E0BECE6FEF7FEFFACF61E070E0CD
:104F600083E090E0B6CE6FEF7FEFFACF6FEF7FEF89
:104F700084E090E0AECEE5EEF4E181919191892B51
:104F800009F082C024E1EF3EF207B9F7809197144F
:104F900090919814019690939814809397149BCEB7
:104FA0000E9442152FEF3FEF84CFC4016CE370E005
:104FB000C9D124EC26038001279F100D1124080D70
:104FC000191D24E6269FC001279F900D1124080F6C
:104FD000191F80E297E10E941B15C80168EE73E07B
:104FE000B1D190E080E00E94E514C80164E670E071
:104FF000A9D1CB01B101A6D1BC0181E090E00E9412
:10500000E514C801B1019ED18C01CB01B1019AD147
:10501000BC0182E090E00E94E514B80183E090E0DA
:105020000E94E51480E297E10E947E138091540271
:10503000909155028816990681F08091451491E06F
:1050400044E650E060E070E08927809345148823AF
:1050500049F088EE93E00E94AF059092550280924D
:1050600054023CCB84E893E0F6CF48EE53E060E096
:1050700070E084E690E00E94AF0560EB74E080E0B1
:1050800090E00E9488082ACB0E94421524CECF933C
:10509000DF93EC0189859A8520D28E819F8197FDCF
:1050A00005C060E0DF91CF910C947305DF91CF9143
:1050B0000895CF93DF9389EB95E1E9DF8FEC95E1DC
:1050C000E6DF85EE95E10E948315C6EDD6E12697D1
:1050D000CE010E94831586E1C430D807C1F780E273
:1050E00097E1DF91CF91D3CF8F929F92AF92BF92F2
:1050F000CF92DF92EF92FF92CF93DF93EC01688122
:1051000079818A819B81611571058105910521F461
:1051100064E279ED8BE597E02DE133EF41E050E07B
:10512000B4D049015A019B01AC01A7EAB1E4C9D04E
:105130006B017C01ACEEB4EFA5019401CED0C60E9C
:10514000D71EE81EF91EF7FE06C081E0C81AD10876
:10515000E10880E8F80AC882D982EA82FB82C701A6
:10516000B6019F77DF91CF91FF90EF90DF90CF90C6
:10517000BF90AF909F908F9008958F929F92AF9223
:10518000BF92CF92DF92EF92FF926091590270919D
:105190005A0280915B0290915C0261157105810554
:1051A000910521F464E279ED8BE597E02DE133EF91
:1051B00041E050E06AD049015A019B01AC01A7EAE5
:1051C000B1E47FD06B017C01ACEEB4EFA50194019A
:1051D00084D0C60ED71EE81EF91EF7FE06C081E079
:1051E000C81AD108E10880E8F80AC0925902D092A2
:1051F0005A02E0925B02F0925C02C701B6019F770F
:10520000FF90EF90DF90CF90BF90AF909F908F90E6
:1052100008956093590270935A0280935B029093B1
:105220005C020895BB274A3031F4992322F4BDE291
:10523000909581959F4F01C0BB27FB015527AA2759
:10524000880F991FAA1FA41710F0A41B8395505113
:10525000B9F7A05DAA3308F0A95DA193009779F78B
:10526000B111B1931192CB0100C0DC01FC01672F99
:1052700071917723E1F7329704C07C916D9370832D
:105280006291AE17BF07C8F30895052E97FB16F479
:1052900000940FD057FD05D024D007FC02D046F46F
:1052A00008C050954095309521953F4F4F4F5F4F27
:1052B000089590958095709561957F4F8F4F9F4F82
:1052C000089531D0A59F900DB49F900DA49F800D9F
:1052D000911D11240895B7FFF4CFF3DF821B930BC8
:1052E0000895A1E21A2EAA1BBB1BFD010DC0AA1F27
:1052F000BB1FEE1FFF1FA217B307E407F50720F03F
:10530000A21BB30BE40BF50B661F771F881F991FB9
:105310001A9469F760957095809590959B01AC0102
:10532000BD01CF010895A29FB001B39FC001A39F0B
:10533000700D811D1124911DB29F700D811D1124CE
:10534000911D089597FB072E16F4009406D077FD63
:1053500008D013D007FC05D03EF4909581959F4F5F
:105360000895709561957F4F0895EE0FFF1F881F78
:105370008BBF0790F691E02D1994AA1BBB1B51E13E
:1053800007C0AA1FBB1FA617B70710F0A61BB70BB5
:10539000881F991F5A95A9F780959095BC01CD015A
:1053A00008950F931F93CF93DF938230910510F4EC
:1053B00082E090E0E0913817F091391730E020E07A
:1053C000B0E0A0E0309799F42115310509F44AC006
:1053D000281B390B24303105D8F58A819B81611552
:1053E000710589F1FB0193838283FE0111C0408125
:1053F00051810281138148175907E0F04817590776
:1054000099F4109761F012960C93129713961C93CF
:105410003296CF01DF91CF911F910F9108950093A4
:10542000381710933917F4CF2115310551F0421771
:10543000530738F0A901DB019A01BD01DF01F80132
:10544000C1CFEF01F9CF9093391780933817CDCFA3
:10545000FE01E20FF31F81939193225031093983AA
:105460002883D7CF2091361730913717232B41F45B
:1054700020915F02309160023093371720933617E6
:1054800020915D0230915E022115310541F42DB766
:105490003EB74091610250916202241B350BE091AE
:1054A0003617F0913717E217F307A0F42E1B3F0BC6
:1054B0002817390778F0AC014E5F5F4F2417350786
:1054C00048F04E0F5F1F5093371740933617819364
:1054D00091939FCFF0E0E0E09CCFCF93DF930097D4
:1054E000E9F0FC01329713821282A0913817B09133
:1054F0003917ED0130E020E01097A1F420813181CF
:10550000820F931F209136173091371728173907CC
:1055100009F061C0F0933717E0933617DF91CF9110
:105520000895EA01CE17DF07E8F54A815B819E0105
:1055300041155105B1F7E901FB83EA83499159917E
:10554000C40FD51FEC17FD0761F48081918102968D
:10555000840F951FE90199838883828193819B83BE
:105560008A83F0E0E0E012968D919C91139700976A
:10557000B9F52D913C911197CD010296820F931FA1
:1055800020913617309137172817390739F6309799
:1055900051F51092391710923817B0933717A0931E
:1055A0003617BCCFD383C28340815181840F951FAE
:1055B000C817D90761F44E5F5F4F88819981480F02
:1055C000591F518340838A819B8193838283211554
:1055D000310509F0B0CFF0933917E09338179ECF1B
:1055E000FD01DC01C0CF13821282D7CF4F925F92B0
:1055F0006F927F928F929F92AF92BF92CF92DF92E3
:10560000EF92FF920F931F93CF93DF938C0100973C
:1056100091F4CB01DF91CF911F910F91FF90EF900B
:10562000DF90CF90BF90AF909F908F907F906F90C2
:105630005F904F90B6CEFC01E60FF71F9C01225001
:105640003109E217F30708F4AAC0D901CD91DC9122
:105650001197C617D70718F1C530D10570F0CE01E4
:1056600004978617970748F0C61BD70B2297C1935C
:10567000D1936D937C93CF0130DFC801DF91CF913F
:105680001F910F91FF90EF90DF90CF90BF90AF9060
:105690009F908F907F906F905F904F9008955B01E7
:1056A000AC1ABD0A4C018C0E9D1EA0913817B0910A
:1056B0003917512C412CF12CE12C109731F58091A8
:1056C0003617909137178815990509F05CC0461672
:1056D000570608F058C080915D0290915E020097D5
:1056E00041F48DB79EB74091610250916202841BD4
:1056F000950BE817F90708F052C0F0933717E093BD
:105700003617F90171836083B8CF8D919C91119701
:1057100012966C90129713967C901397A815B90562
:1057200059F56C0142E0C40ED11CCA14DB0420F10F
:10573000AC014A195B09DA011296159780F0628272
:10574000738251834083D9016D937C93E114F104FA
:1057500071F0D7011396FC93EE9312978ECF229699
:105760008C0F9D1FF90191838083F301EFCFF0939C
:105770003917E093381781CF4816590608F42C01E1
:105780007D01D3019ACFCB010CDE7C01009739F06B
:10579000AE01B8010BD0C801A0DE87016ECF10E0CA
:1057A00000E06BCF81E090E0F89451C0FB01DC0198
:1057B00002C001900D9241505040D8F708956817EB
:1057C000790768F4FB01DC01E40FF51FA40FB51F96
:1057D00002C002900E9241505040D8F70895E6CF93
:1057E000DC0101C06D9341505040E0F70895FB018A
:1057F000DC0101900D920020E1F70895FB01DC012E
:105800004150504048F001900D920020C9F701C06E
:105810001D9241505040E0F70895FB0151915523EE
:10582000A9F0BF01DC014D9145174111E1F759F491
:10583000CD010190002049F04D9140154111C9F36F
:10584000FB014111EFCF81E090E00197089512E054
:10585000CEE8D2E000E005C0802FFE0186DD219673
:10586000011DCF38D10780E00807B1F7F894FFCFCA
:10587000090015000B000C001100130005001800B2
:105880000900050007000A001300020000001200D2
:1058900007000F0017000B000A00010003000D00B5
:1058A00011000F0002000E0006000E000D000400A3
:1058B00003001A001B000100180008001600060073
:1058C00019001000E093E093FF0100000000003A8F
:1058D0001780000040145400401050FF835706000A
:1058E00007000800160017002400FFFF080017003B
:1058F000FFFFFFFFFFFFFFFFFFFF0600080015008F
:1059000016002400FFFFFFFF060008001500170027
:105910002400FFFFFFFFFFFF070008001500FFFF47
:105920001700FFFF06000700FFFF1500FFFF17002D
:10593000240006000700FFFF1500160017002400D2
:105940000600FFFF0800FFFFFFFF1700FFFF060034
:1059500007000800150016001700240006000700C5
:1059600008001500FFFF17002400040009000A00CA
:10597000180019002200FFFF0A001900FFFFFFFFB7
:10598000FFFFFFFFFFFF04000A00130018002200C2
:10599000FFFFFFFF04000A00130019002200FFFFB1
:1059A000FFFFFFFF09000A001300FFFF1900FFFFC0
:1059B00004000900FFFF1300FFFF1900220004008C
:1059C0000900FFFF13001800190022000400FFFF68
:1059D0000A00FFFFFFFF1900FFFF040009000A0093
:1059E0001300180019002200040009000A00130027
:1059F000FFFF1900220002000B000C001A001B0020
:105A00002000FFFF0C001B00FFFFFFFFFFFFFFFF59
:105A1000FFFF02000C0011001A002000FFFFFFFF33
:105A200002000C0011001B002000FFFFFFFFFFFF22
:105A30000B000C001100FFFF1B00FFFF02000B001A
:105A4000FFFF1100FFFF1B00200002000B00FFFF03
:105A500011001A001B0020000200FFFF0C00FFFFD6
:105A6000FFFF1B00FFFF02000B000C0011001A00DB
:105A70001B00200002000B000C001100FFFF1B00A8
:105A8000200000000D000E001C001D001E00FFFF86
:105A90000E001D00FFFFFFFFFFFFFFFFFFFF0000E5
:105AA0000E000F001C001E00FFFFFFFF00000E0095
:105AB0000F001D001E00FFFFFFFFFFFF0D000E0087
:105AC0000F00FFFF1D00FFFF00000D00FFFF0F0094
:105AD000FFFF1D001E0000000D00FFFF0F001C0057
