:100000008EC20000BDC20000BBC20000B9C2000029
:10001000B7C20000B5C20000B3C20000B1C2000008
:10002000AFC20000ADC20000ABC20000A9C2000018
:10003000A7C200000C948C18A3C20000A1C200004B
:100040009FC200009DC200009BC2000099C2000038
:1000500097C2000095C2000093C200000C944C1996
:100060008FC200000C9416190C94EC1889C2000081
:1000700087C2000085C2000083C2000081C2000068
:100080007FC200007DC200007BC2000079C2000078
:1000900077C2000075C2000073C200000C9496196C
:1000A0006FC200006DC200006BC2000069C2000098
:1000B00067C2000065C2000063C2000061C20000A8
:1000C0005FC200005DC200005BC2000059C20000B8
:1000D00057C2000055C2000053C2000051C20000C8
:1000E0004FC20000000020002300260029002C0041
:1000F0002F00320000010000030106010901000089
:100100002100240027002A002D00300033000101C7
:100110000000040107010A0100000A0B02090C0D8E
:100120000E080703040100000000000000000000AA
:1001300000000000000000000000000000000000BF
:10014000000000001211100000000000000000007C
:10015000000000000000000000000000000010008F
:100160008E2F11000C000700210028000600280037
:10017000050027007F052900A18900000100FFFF7D
:1001800064002900B080FFFF1E002900FEFF070069
:100190002302FFFF1E00070033020100832103003A
:1001A00030682F00FFFF2C00008027007005020040
:1001B00000030B000C581200090613000031110057
:1001C0007F78B103053C3CB203053C3CB306053CDB
:1001D0003C053C3CB40103C003280804C101C0C273
:1001E000020D00C3028D2AC4028DEEC5011A17014B
:1001F00005360100E0100322070A2E30252A2826A2
:100200002E3A00010313E1100416060D2D262327B4
:1002100027252D3B000104133A0105290001007F29
:100220009628003A0155C0020D0DC1024300C201DB
:1002300000C50400480048B40100B60302023BE0D8
:100240000F0F241C0A0F084388320F10060F0700F7
:10025000E10F0F3830090F0F4E773C071005231BB5
:100260000011007F9629002E018929018F2B0102A0
:10027000E20100E40101E50110E60101E70110E8F7
:100280000170F20100EA0100EB0120EC013CED01FC
:10029000C8E90138F101011B011A1A0101240161A9
:1002A00025015C2301881801361901011F01887F8F
:1002B000051F01807F051F01907F051F01D47F0569
:1002C0001701053601002801387F2828013C02016A
:1002D000000301000401000501EF06010007010011
:1002E00008010109013F0100B903FF83577FFAB3F9
:1002F0000400000606B60125B00168CC0105B10670
:1003000000151C1C83AAC0065050013C1E08B407EF
:100310000240002A2A0D783A01553601C035010005
:100320004402000211007F9629007F3201007F32D3
:100330002800F603010100CF03008130ED046403BF
:100340001281E803851078CB05392C003402F701BF
:1003500020EA020000B00100B40100C00121C10187
:1003600011C5023F3CC701B53601883A0155B102BB
:10037000001B360148F20100260101E00F0F262480
:100380000B0E0954A8460C17090F0700E10F0019BE
:100390001B0410072A473903060630380FB7010738
:1003A00011007F96290000000100FFFF32000100CC
:1003B00000010200000703003010040000000800E4
:1003C0000202090000000A0000000C0000000D00FD
:1003D00000000F00000010000000110007001200D4
:1003E000000013000000FFFFC8001000901611006D
:1003F0002702FFFF320012001A00FFFF3200130035
:10040000001829002A00FFFF3200300000003100F0
:1004100000003200000035000602360008083700F0
:10042000070038000102390000003C0000003D00D8
:1004300000002000000021000000500000005100DA
:10044000EF005200000053003F01600000A7610070
:1004500003006A000000900010009200000093006A
:1004600003009500001197000000980000000700AD
:100470003301020102102020080810204010204003
:100480008002010201080402010102040810204058
:100490008080402010080402018004020180402076
:1004A000100804020108040201010204081020409F
:1004B000800102040810204080000022002500284E
:1004C000002B002E0031003400020100000501085D
:1004D000010B0105050505070508080808020202C9
:1004E000020A0A08080404040401010101010101CF
:1004F000010303030303030303040707070C0C0CA6
:100500000C0C0C0C0C02020202060606060606067D
:10051000060B0B0B0B0B0B0B0B00141B07261124EC
:100520001FBECFEFD1E2DEBFCDBF00E00CBF13E1B5
:10053000A0E0B2E0ECECF3E500E00BBF02C00790F6
:100540000D92AA37B107D9F727E1AAE7B3E101C0B5
:100550001D92A032B207E1F712E0CEE8D2E000E04F
:1005600006C021970109802FFE010E946327CD3824
:10057000D10780E00807A9F70E94011D0C94D52936
:100580003FCD2091D5142223C1F0880F991FFC0183
:10059000E553FB4E80819181680F791F65307105AD
:1005A0001CF011821082089577FD03C0718360836F
:1005B000089584E090E09183808308952091CA1487
:1005C00081E0213208F044C08091A6148111FCCF53
:1005D0008091C91492E09093A61491E09093A51491
:1005E0009FEF9093A4141092A3142093A214A9EA4D
:1005F000B4E1E2E8F4E190E0291331C010928114F3
:1006000090918114880F892B80938114809180149C
:10061000813049F510928014809181148093BB0041
:100620008091BC0083FDF8CF85EC8093BC00809165
:10063000A6148230E1F38091A4148F3FB1F0809131
:10064000A4148032A1F08091A414803391F084E04E
:100650001092A8141092CA141092A71408953D91F4
:1006600031939F5FC9CF85EEE0CF80E0F1CF82E08C
:10067000EFCF83E0EDCFFC01828993890895FC01DF
:10068000848995890895AF92BF92CF92DF92EF92BD
:10069000FF920F931F93CF93DF936C017B018B012C
:1006A000040F151FEB015E01AE18BF08C017D1077C
:1006B00059F06991D601ED91FC910190F081E02D06
:1006C000C6011995892B79F7C501DF91CF911F914B
:1006D0000F91FF90EF90DF90CF90BF90AF90089573
:1006E000FC01538D448D252F30E0842F90E0821B38
:1006F000930B541710F0CF96089501970895FC01BD
:10070000918D828D981761F0A28DAE0FBF2FB11D14
:100710005D968C91928D9F5F9F73928F90E008956C
:100720008FEF9FEF0895FC01918D828D981731F026
:10073000828DE80FF11D858D90E008958FEF9FEF7A
:100740000895FC01918D228D892F90E0805C9F4F50
:10075000821B91098F739927089586EF94E1F1DF49
:1007600021E0892B09F420E0822F0895FC01A48D5B
:10077000A80FB92FB11DA35ABF4F2C91848D90E0C3
:1007800001968F739927848FA689B7892C93A089A6
:10079000B1898C91837080648C93938D848D981330
:1007A00006C00288F389E02D80818F7D80830895C3
:1007B000EF92FF920F931F93CF93DF93EC0181E0B1
:1007C000888F9B8D8C8D98131AC0E889F989808158
:1007D00085FF15C09FB7F894EE89FF896083E8898B
:1007E000F98980818370806480839FBF81E090E07D
:1007F000DF91CF911F910F91FF90EF900895F62E0A
:100800000B8D10E00F5F1F4F0F731127E02E8C8DA3
:100810008E110BC00FB607FCFACFE889F9898081E9
:1008200085FFF5CFCE01A2DFF2CFEB8DEC0FFD2FD0
:10083000F11DE35AFF4FF0829FB7F8940B8FEA89BE
:10084000FB8980818062D0CFCF93DF93EC01888DCC
:100850008823B1F0AA89BB89E889F9898C9185FD43
:1008600003C0808186FD0CC00FB607FCF7CF8C91CA
:1008700085FFF2CF808185FFEDCFCE0177DFEACF14
:10088000DF91CF91089580E090E0892B21F065DF22
:1008900081110E94000080E090E0892B49F080E007
:1008A00090E0892B29F00E94000081110E94000035
:1008B00080E090E0892B49F080E090E0892B29F0DE
:1008C0000E94000081110E94000080E090E0892BCE
:1008D00049F080E090E0892B29F00E94000081110E
:1008E0000C94000008958150823108F05AC0E82F1E
:1008F000F0E08827E158FB4F8F4F0C9463279F044B
:10090000A304910497049B04D104A604AC04B0048E
:10091000B604BA04BE04C404C804D104CC04D2048E
:10092000D604809180008F77809380000895809115
:1009300080008F7DF9CF80918000877FF5CF84B5CF
:100940008F7784BD089584B58F7DFBCF8091B000F3
:100950008F778093B00008958091B0008F7DF9CF9C
:10096000809190008F7780939000089580919000FF
:100970008F7DF9CF80919000877FF5CF8091A00087
:100980008F778093A00008958091A0008F7DF9CF8C
:100990008091A000877FF5CF809120018F77809391
:1009A00020010895809120018F7DF9CF8091200151
:1009B000877FF5CF1F93CF93DF93282F30E0F90186
:1009C000E85EFE4F8491F901ED58FB4FD491F90197
:1009D000ED52FB4FC491CC23A1F0162F811183DF80
:1009E000EC2FF0E0EE0FFF1FE754FB4FA591B49101
:1009F0008FB7F894EC91111108C0D095DE23DC93E9
:100A00008FBFDF91CF911F910895DE2BF8CF90918A
:100A1000040289130DC0E2E7F4E0E4919FEF9093A4
:100A20000402E230D9F030F4EE2379F0E13081F0C5
:100A300060E0C0CFE43049F110F1E530C9F79091A2
:100A400073009D7F90937300F3CF10926E00F0CFF0
:100A500090916F009D7F90936F00EACF909170000E
:100A60009D7F9093700091E09093B0009091B100C1
:100A7000987F94609093B1001092B300D9CF909179
:100A800071009D7F90937100D3CF909172009D7FF4
:100A900090937200CDCFCF93DF9390E0FC01ED589F
:100AA000FB4F24918D529B4FFC0184918823C9F008
:100AB00090E0880F991FFC01E250FF4FA591B4917F
:100AC000FC01E754FB4FC591D49161110DC09FB754
:100AD000F8948C91209582238C93888128232883F5
:100AE0009FBFDF91CF910895623051F49FB7F89482
:100AF0003C91822F809583238C93E8812E2BEFCF1E
:100B00008FB7F894EC912E2B2C938FBFEACF4F9296
:100B10005F926F927F928F929F92AF92BF92CF928D
:100B2000DF92EF92FF920F931F93CF93DF9300D04A
:100B30001F921F92CDB7DEB78C0149835A836B8316
:100B40007C83809104028533C9F08F3F09F4B1C0E2
:100B50000F900F900F900F900F90DF91CF911F91FA
:100B60000F91FF90EF90DF90CF90BF90AF909F904C
:100B70008F907F906F905F904F900895E2E7F4E040
:100B800024912D8327FDE4CF61E085E384DF8D810F
:100B90004801B12CA12C882301F1F12CE12C9D817D
:100BA000923009F05BC14801570160E970ED83E0C4
:100BB00090E0A70198010E94F32669017A0181E083
:100BC000C81AD108E108F10883E09FEFC916D104E3
:100BD000E104F10409F00CF465C060E072E18AE719
:100BE00090E0A50194010E94F32629013A0168E4EE
:100BF00078EE81E090E0A50194010E94F32669015E
:100C00007A0181E0C81AD108E108F1089D81992391
:100C100009F4E0C1923009F0DBC184E02FEFC21685
:100C2000D104E104F104F1F1ECF164E274EF80E04D
:100C300090E0A50194010E94F32669017A0181E008
:100C4000C81AD108E108F10885E02FEFC216D104D7
:100C5000E104F10439F130F162E17AE780E090E0FB
:100C6000A50194010E94F32669017A0181E0C81A66
:100C7000D108E108F10886E09FEFC916D104E1042C
:100C8000F10481F07CF0730162019AE0F594E7943D
:100C9000D794C7949A95D1F721E0C21AD108E108F8
:100CA000F10887E09091B100987F892B8093B10083
:100CB000B5C185E380930402E2E7F4E084918D837B
:100CC0008F3F09F445CF823009F468C058F4882377
:100CD00079F1813009F444C087FD3ACF61E085E3C2
:100CE000DADE5BCF9D81943009F49AC008F478C0B5
:100CF000953091F7109220011092210180912101ED
:100D0000886080932101809121018160809321017D
:100D1000E8E0F5E0E491F0E0EE0FFF1FE754FB4F51
:100D200085919491E8EAF4E0E491E093D6142CCF15
:100D300014BC15BC84B5826084BD85B5816085BD59
:100D4000E8E0F5E0E491F0E0EE0FFF1FE754FB4F21
:100D500085919491E8EAF4E0E491E093DD1414CFF6
:100D600010928000109281008091810088608093B1
:100D7000810080918100816080938100E8E0F5E04E
:100D8000E491F0E0EE0FFF1FE754FB4F8591949143
:100D9000E8EAF4E0E491E093DC14F6CE1092B000BF
:100DA0001092B1008091B00082608093B000809179
:100DB000B10081608093B100E8E0F5E0E491F0E0FB
:100DC000EE0FFF1FE754FB4F859194919093DB1436
:100DD0008093DA14E8EAF4E0E491E093D914D4CEF5
:100DE0001092900010929100809191008860809301
:100DF000910080919100816080939100E8E0F5E09E
:100E0000E491F0E0EE0FFF1FE754FB4F85919491C2
:100E1000E8EAF4E0E491E093D81423E02D83B4CE23
:100E20001092A0001092A1008091A1008860809390
:100E3000A1008091A10081608093A100E8E0F5E02D
:100E4000E491F0E0EE0FFF1FE754FB4F8591949182
:100E5000E8EAF4E0E491E093D71496CE60E072E122
:100E60008AE790E0A70198010E94F326DA01C90100
:100E70000197A109B109009721E0A207B10564F427
:100E80006C0191E02D812130C1F480918100887F37
:100E9000892B80938100C2C068E478EE81E090E005
:100EA000A70198010E94F32669017A0181E0C81A1E
:100EB000D108E108F10893E0E5CF8D81833039F462
:100EC00080919100887F892B80939100A7C02D810C
:100ED000243039F48091A100887F892B8093A10070
:100EE0009DC08D81853009F099C080912101887F56
:100EF000892B8093210192C0C7BC2093F2143093B8
:100F0000F3144093F4145093F51480916E008260B2
:100F100080936E001DCEC092B3002093EA143093EC
:100F2000EB144093EC145093ED14809170008260A8
:100F3000809370000DCED0929900C09298002093BB
:100F4000E6143093E7144093E8145093E914809129
:100F50007100826080937100FBCDD092A900C09295
:100F6000A8002093E2143093E3144093E4145093C8
:100F7000E51480917200826080937200E9CD730164
:100F800062012AE0F594E794D794C7942A95D1F7A3
:100F900091E0C91AD108E108F10895E03BC09D81B4
:100FA0009430D9F244F2953009F0D2CDD092290193
:100FB000C09228012093DE143093DF144093E01494
:100FC0005093E11480917300826080937300C0CDD0
:100FD00084E03BCE93E08FEFC816D104E104F10426
:100FE000C9F0C4F062E17AE780E090E0A5019401E5
:100FF0000E94F32669017A0191E0C91AD108E1083B
:10100000F1082FEFC216D104E104F10411F00CF045
:10101000B6CF94E085B5887F892B85BDD801AA0F0E
:10102000BB1F29813A814B815C810E940F2728EEEA
:1010300033E040E050E00E941F278D81823009F4A8
:101040006ACF0CF0ACCF882309F456CF813009F079
:101050007FCDD0928900C09288002093EE14309307
:10106000EF144093F0145093F11480916F0082605C
:1010700080936F006DCD3FB7F89480915814909194
:101080005914A0915A14B0915B1426B5A89B05C0C1
:101090002F3F19F00196A11DB11D3FBFBA2FA92FF7
:1010A000982F8827BC01CD01620F711D811D911DF4
:1010B00042E0660F771F881F991F4A95D1F7089560
:1010C0008F929F92AF92BF92CF92DF92EF92FF9258
:1010D0006B017C01D0DF4B015C01C114D104E10440
:1010E000F104B1F0C8DF681979098A099B09683EE3
:1010F00073408105910588F321E0C21AD108E10807
:10110000F10888EE880E83E0981EA11CB11CE5CF83
:10111000FF90EF90DF90CF90BF90AF909F908F9017
:10112000089521E001C0220F6A95EAF7DC011C96C0
:101130002C931C971A965C934E931997ED91FC9102
:101140000484F585E02D60E0199408950895DC018C
:10115000ED91FC910684F785E02D41E0199581E041
:1011600090E00895DC01ED91FC910684F785E02D77
:1011700040E019940F931F93CF93DF93EC0142301B
:1011800018F08C8188608C834F836887222329F034
:10119000413019F48C8184608C8364E670E080E0D7
:1011A00090E08EDF6C8164FD58C0E881F98106848F
:1011B000F785E02D42E063E0CE0119958BE496E4DB
:1011C0000197F1F7E881F9810684F785E02D42E087
:1011D00063E0CE01199503E512E0C8010197F1F72C
:1011E000E881F9810684F785E02D42E063E0CE01D5
:1011F0001995C8010197F1F7E881F9810684F7850F
:10120000E02D42E062E0CE011995C8010197F1F7A7
:101210006C816062CE01A6DF8BEE90E00197F1F762
:1012200084E08D836CE0CE019DDF61E0CE019ADF2A
:101230008BE39FE10197F1F782E08E8366E0CE01B8
:1012400091DFE881F9810484F585E02D6FEFCE010F
:10125000DF91CF911F910F9119946062CE0182DFCF
:101260008BE496E40197F1F76C816062CE017ADF3E
:1012700003E512E0C8010197F1F76C816062CE01CD
:1012800071DFC3CF08950895089585ED8093BC0064
:101290008091BC0084FDFCCF1092A614089520918B
:1012A0002E14260F3327331F21323105ECF4209101
:1012B000A614FC0190E080E0243069F082E00895FB
:1012C000A0912E142191AC01425F5B4EA40FB52F6B
:1012D000B11D2C930196861798F380912E14680FF8
:1012E00060932E1480E0089581E008950895E091C0
:1012F000561480915514E81730F4F0E0E251FC4E9A
:10130000808190E008958FEF9FEF0895909156149B
:10131000809155142FEF3FEF981748F4E92FF0E034
:10132000E251FC4E208130E09F5F90935614C9013A
:1013300008958091551490915614891B990B089526
:10134000CF92DF92EF92FF920F931F93CF93DF9391
:101350007C01CB018A012091A714222389F0EB01A3
:101360006B01C40ED51ECC15DD0561F06991D70166
:10137000ED91FC910190F081E02DC7011995F3CF1B
:10138000642F8DDFC801DF91CF911F910F91FF90E6
:10139000EF90DF90CF900895CF93DF931F92CDB75A
:1013A000DEB769832091A7142223F9F02091CA1493
:1013B000203258F021E030E0FC013383228390E0BA
:1013C00080E00F90DF91CF9108958091A814E82FCD
:1013D000F0E0E755FB4E998190838F5F8093A814CE
:1013E0008093CA1481E090E0ECCF61E0CE010196D9
:1013F00056DFF8CFFC0123812223D1F08181682BB5
:101400006083828191E09093A7148093C914109215
:10141000A8141092CA1483E995E1BEDFCFD8282F13
:1014200030E081E090E0232B11F090E080E008951F
:1014300030E020E0F6CFEF92FF920F931F93CF930F
:101440008C01FC0184E0C0E0262F30E060FF02C088
:101450009589C92BB9017595679581503196811190
:10146000F3CF413011F4F8014489F8016585C62BAA
:10147000C42B7801FEE0EF0EF11CF80162896C2BA1
:10148000C701B8DFF801628960956C23C701CF916D
:101490001F910F91FF90EF90ADCF0F931F93CF93BC
:1014A000DF93062F0F70423039F440E0602FDF9158
:1014B000CF911F910F91BFCF142FEC0170E084E00A
:1014C000759567958A95E1F7CE01B5DF412F602FBD
:1014D000CE01EDCFFC018485882399F021853285EA
:1014E0002115310521F4611107C0158606C0213090
:1014F0003105D9F76111F9CF85876585CF010E9642
:1015000079CF0895EF92FF920F931F93CF93DF93BC
:10151000EC01062FF42EE22E8B85888B1092561448
:10152000109255141092A8141092CA141092A61476
:1015300011E01093A5141092801461E084E13ADA6E
:1015400061E085E137DA8091B9008E7F8093B90040
:101550008091B9008D7F8093B90088E48093B800B2
:1015600085E48093BC0085EA98E0909354148093BE
:10157000531486EA98E0909352148093511488890A
:101580001093A7148093C9141092A8141092CA142F
:1015900015D8811119C0198B83E995E1B7DE8E87C3
:1015A0008989882331F01F861C8260E0CE010E9667
:1015B00021DF2E2D4F2D602FCE01DF91CF911F9176
:1015C0000F91FF90EF90D6CD198AEACF90E080E09E
:1015D000089538E0439FC0011124807E97702695BE
:1015E00026952695822B70E0762F66276627787FD2
:1015F000862B972B0895CF93DF93FC01848D88234E
:1016000051F01EBC00000DB407FEFDCF2EB5822F99
:10161000DF91CF91089588E0EF01CE5BDF4FA7A95E
:10162000B0AD9C91388193239C93A7A9B0AD9C91B8
:1016300035AD932B9C93220FA3A9B4A99C9133ADF4
:10164000932309F02160815051F7E1CF0F931F934D
:10165000CF93DF93FC01848D882359F06EBD000089
:101660000DB407FEFDCF8EB5DF91CF911F910F9185
:10167000089588E090E020E8AF014F5B5F4F8F0155
:101680000E5B1F4FA5A9B6A9362F3223A9F03C91B6
:1016900074AD372B3C93A7A9B0AD3C91E80178819C
:1016A00037233C93A7A9B0AD3C9175AD372B3C9344
:1016B0002695019739F7D8CF3C91EA0178813723F5
:1016C000E9CFFF920F931F93CF93DF93F82E162F3E
:1016D000072FCCEBD6E1EFA5F8A980812EAD8223B0
:1016E0008083E9A9FAA980812FAD82238083692FA5
:1016F000CE01ACDF6F2DCE01A9DFE9A9FAA9808167
:101700009AAD892B8083602FCE01A0DF612FCE019F
:101710009DDFEFA5F8A9808199AD892B8083DF91AA
:10172000CF911F910F91FF9008950F931F93CF9327
:10173000DF93EC018B01FE0185919491FE013296BD
:101740002496659174918F3F980769F490E080E04A
:10175000B7DC04501109101611066CF3DF91CF911C
:101760001F910F910895ADDFF4CFE091EB16F0914A
:10177000EC1680819091F516892B80838091041757
:1017800087FD0BC060E016D962E070E080E090E079
:1017900097DC61E0809104170DD9E091EB16F09190
:1017A000EC1680819091FA1689238083E091ED16E2
:1017B000F091EE1680819091FB168923808360E082
:1017C0008CEB96E143DFE091EB16F091EC16808113
:1017D0009091F516892B80830895CF93DF93D82FAE
:1017E000C62FE091EB16F091EC1680819091FA16DD
:1017F00089238083E091ED16F091EE16808190911F
:10180000FB168923808360E08CEB96E11FDF6D2F50
:101810008CEB96E11BDF61E070E080E090E050DC53
:101820008CEB96E1E8DED82F8CEB96E1E4DEC1305C
:1018300069F0E091EB16F091EC1690812091F5168D
:10184000922B90839D2FDF91CF910895C0E0E8CF38
:101850004F925F926F927F928F929F92AF92BF92C0
:10186000CF92DF92EF92FF920F931F93CF93DF936C
:10187000EC015A01270137FF05C0620F731F319534
:10188000219531097B01E20EF31E6B0177FF02C047
:10189000D12CC12CE881F9810684F785E02DCE0199
:1018A00019958E159F0544F4E881F9810684F78522
:1018B000E02DCE0119957C0147018C189D0817FF7A
:1018C00005C0A00EB11E1195019511090A0D1B1D31
:1018D000B7FE02C0B12CA12CE881F9810484F58502
:1018E000E02DCE0119958017910744F4E881F98124
:1018F0000484F585E02DCE0119958C0138016A1814
:101900007B0801501109970121503109E881F981C3
:101910000680F781E02DA501B601CE011995EFA54E
:10192000F8A980819EAD89238083888D998D892B2C
:1019300049F4E9A9FAA980819FAD8923808360E0F9
:10194000CE0184DEE9A9FAA980819FAD8923808335
:1019500069A1CE017BDE861497042CF0962D872D8D
:101960003401892E982E18141904A4F48301E9A9CE
:10197000FAA980819AAD892B8083652DCE0166DE20
:10198000642DCE0163DE0150110989F781E0881AC8
:101990009108E9CF888D998D009751F50C891D89A3
:1019A000015011092A893B8921503109E881F981C7
:1019B0000680F781E02D50E040E070E060E0CE016D
:1019C0001995EFA5F8A9808199AD892B8083DF91C6
:1019D000CF911F910F91FF90EF90DF90CF90BF902C
:1019E000AF909F908F907F906F905F904F900895F1
:1019F000019739F7EFA5F8A980819EAD89238083EF
:101A0000E9A9FAA980819FAD8923808364E0CE0192
:101A10001DDEE9A9FAA980819AAD892B80838A8984
:101A20009B890197692FCE0111DEE9A9FAA980816E
:101A30009FAD8923808365E0CE0108DEE9A9FAA97C
:101A400080819AAD892B80836A896150CE01FEDD49
:101A5000E9A9FAA980819FAD8923808368E0CE013E
:101A6000F5DDE9A9FAA980819AAD892B80838C895B
:101A70009D890197692FCE01E9DDE9A9FAA9808145
:101A80009FAD8923808369E0CE01E0DDE9A9FAA951
:101A900080819AAD892B80836C896150CE01D6DD1F
:101AA000EFA5F8A9808199AD892B80838ACFAF9269
:101AB000BF92CF92DF92EF92FF920F931F93CF933B
:101AC000DF9377FD41C057FD3FC0C32ED22E5A0190
:101AD0007B01EC01E881F9810684F785E02D1995F9
:101AE0008E159F058CF1E881F9810484F585E02D40
:101AF000CE0119958A159B053CF1E881F981068094
:101B0000F781E02D85019701A501B701CE01199557
:101B1000EFA5F8A980819EAD89238083888D998D5A
:101B2000E9A9FAA90797D9F480819AAD892B808316
:101B30006C2DCE018BDD6D2DCE0188DDEFA5F8A9D2
:101B4000808199AD892B8083DF91CF911F910F9177
:101B5000FF90EF90DF90CF90BF90AF90089580817D
:101B60009FAD892380836AA1CE0170DD69A1CE017A
:101B70006DDDE9A9FAA9D8CF2F923F924F925F92DB
:101B80006F927F928F929F92AF92BF92CF92DF928D
:101B9000EF92FF920F931F93CF93DF93EC018B0192
:101BA00079013901661A770A5A01A81AB90AA614E6
:101BB000B70444F08F2D7A01422F582F812F8E01C8
:101BC000C62FD82F4701801A910A1A012C1A3D0AF4
:101BD0006401D594C79444244A94542CC417D5075F
:101BE0001CF444244394512C2091C6163091C716FE
:101BF000A801BE01A614B70414F0AE01B8018CEB25
:101C000096E155DFC218D308D7FE04C0C40DD51D18
:101C1000C80CD91C0F5F1F4FE016F1062CF7DF919F
:101C2000CF911F910F91FF90EF90DF90CF90BF90D9
:101C3000AF909F908F907F906F905F904F903F906C
:101C40002F9008957F928F929F92AF92BF92CF92E2
:101C5000DF92EF92FF920F931F93CF93DF93EC01EC
:101C6000590198010E9D60010F9DD00C1E9DD00C56
:101C700011248701040F151F01501109260F371F6A
:101C800021503109E881F9810680F781E02D19950D
:101C90001C141D040CF084C0EFA5F8A980819EAD32
:101CA00089238083E9A9FAA980819FAD8923808354
:101CB0006CA1CE01CBDC6BA1CE01C8DC888D998DE7
:101CC000892B09F03BC075018601CE0194DCCE0161
:101CD00092DCCE0190DCCE018EDCCE018CDCCE011C
:101CE0008ADCCE0188DC782ECE0185DC972DF701C9
:101CF000819391937F010150110939F7CC0CDD1CC0
:101D0000AC0CBD1C0C891D89015011092A893B8925
:101D100021503109E881F9810680F781E02D50E0FA
:101D200040E070E060E0CE011995EFA5F8A9808150
:101D300099AD892B8083D12CC12CAACFCE015BDC3D
:101D4000750186018DA59EA581309105F9F4CE011E
:101D500052DC982ECE014FDC882ECE014CDCE8817F
:101D6000F9810190F081E02D282F482D692DCE01B9
:101D700019954C01F701819291927F01015011094F
:101D800009F7CC0CDD1CAC0CBD1CCFCF892B91F717
:101D9000CE0131DC882ECE012EDC982C882EEACFA5
:101DA00090E080E0DF91CF911F910F91FF90EF9035
:101DB000DF90CF90BF90AF909F908F907F900895CD
:101DC000BF92CF92DF92EF92FF920F931F93CF9328
:101DD000DF93EC016B01B42E152F0170EFA5F8A96C
:101DE00080819EAD892380832223B1F0888D998DD7
:101DF000892B49F4E9A9FAA980819FAD89238083C1
:101E000060E0CE0123DCE9A9FAA980819FAD892396
:101E1000808369A1CE011ADC7601CB2CD12E1C1453
:101E20001D04E4F4F7010023B1F085919491182F7B
:101E3000692FE9A9FAA980819AAD892B8083CE0107
:101E400005DC612FCE0102DCF2E0EF0EF11C81E037
:101E5000C81AD108E4CF10816181EBCFEFA5F8A9B2
:101E6000808199AD892B8083DF91CF911F910F9154
:101E7000FF90EF90DF90CF90BF900895CF92DF92C8
:101E8000EF92FF920F931F93CF93DF93EC01162FE6
:101E90006A01022FEFA5F8A980819EAD8923808376
:101EA000E9A9FAA980819FAD8923808360E0CE01F2
:101EB000CDDB612FCE01CADB7601DD24DA94D00EB2
:101EC000101604F5F70161917F01E9A9FAA9808153
:101ED0009AAD892B8083CE01B9DBDD2089F0888D16
:101EE000998D019769F41F5FE9A9FAA980819FADD7
:101EF0008923808360E0CE01A9DB612FCE01A6DBC0
:101F00000D2DDBCFEFA5F8A9808199AD892B8083BA
:101F1000DF91CF911F910F91FF90EF90DF90CF90C5
:101F20000895DF92EF92FF920F931F93CF93DF9369
:101F3000CDB7DEB768970FB6F894DEBF0FBECDBF42
:101F40008C017B01F80164913196D4900E5F1F4F94
:101F50006F3771F0DE01119690E080E0AD018D15D4
:101F600018F5F801E80FF91FE491ED930196F7CF0A
:101F70006D2D70E090E080E0A3D8D12CED2DF0E045
:101F80003296EE1AFF0A1E141F04E4F268960FB68A
:101F9000F894DEBF0FBECDBFDF91CF911F910F919F
:101FA000FF90EF90DF9008950D0D111D2D2D8CEBFE
:101FB00096E164DFE3CF4F925F926F927F928F92B0
:101FC0009F92AF92BF92CF92DF92EF92FF920F93C8
:101FD0001F93CF93DF9300D000D01F921F92CDB7F5
:101FE000DEB77C014B016A015901DC019F96ED913E
:101FF000FC91D0978081DE969C91DE978923808327
:1020000058968D919C915997009709F034C1569636
:102010008D919C9157978230910509F4FBC08330D4
:10202000910509F415C12A013B01019791F41E960F
:102030008D919C91980120953095C094D094360153
:10204000680E791E2B018501530164014901880E38
:10205000991ED701D196ED91FC91D2978081DF96A0
:102060009C918923808360E0C701F0DA60E5C701B5
:10207000EDDAD701D196ED91FC91D2978081DA9675
:102080009C91892B8083692DC701E0DA682DC701F7
:10209000DDDAD701D196ED91FC91D2978081DF9660
:1020A0009C918923808360E0C701D0DA61E5C70194
:1020B000CDDAD701D196ED91FC91D2978081DA9655
:1020C0009C91892B80836B2DC701C0DA6A2DC701D3
:1020D000BDDAD701D196ED91FC91D2978081DF9640
:1020E0009C918923808360E0C701B0DA62E5C70173
:1020F000ADDAD701D196ED91FC91D2978081DA9635
:102100009C91892B80836D2DC701A0DA6C2DC701AE
:102110009DDAD701D196ED91FC91D2978081DF961F
:102120009C918923808360E0C70190DA63E5C70151
:102130008DDAD701D196ED91FC91D2978081DA9614
:102140009C91892B8083612FC70180DA602FC701A2
:102150007DDAD701D196ED91FC91D2978081DF96FF
:102160009C918923808360E0C70170DA60E2C70137
:102170006DDAD701D196ED91FC91D2978081DA96F4
:102180009C91892B8083672DC70160DA662DC7017A
:102190005DDAD701D196ED91FC91D2978081DF96DF
:1021A0009C918923808360E0C70150DA61E2C70116
:1021B0004DDAD701D196ED91FC91D2978081DA96D4
:1021C0009C91892B8083652DC70140DA642DC7015E
:1021D0003DDAD7019F96ED91FC91D0978081D996F9
:1021E0009C91892B808328960FB6F894DEBF0FBE92
:1021F000CDBFDF91CF911F910F91FF90EF90DF90B6
:10220000CF90BF90AF909F908F907F906F905F9096
:102210004F900895F70186859785A90140955095BF
:102220005C01A61AB70AF1E0AF1AB10850962D91D9
:102230003C91B80160957095860100951095020F4C
:10224000131F280135016B01C20ED31E4A01FFCEB8
:10225000F70180899189209530952C01461A570AFB
:10226000F1E04F1A51083A01580182014601690113
:10227000C80ED91EEECE8130910509F0CEC0D196A0
:10228000ED91FC91D2978081DF969C918923808388
:1022900062E0C701DBD9D701D196ED91FC91D297CD
:1022A0008081DA969C91892B8083692DC701CED9D4
:1022B000D701D196ED91FC91D2978081DF969C91C8
:1022C0008923808363E0C701C1D9D701D196ED91FD
:1022D000FC91D2978081DA969C91892B8083682D1E
:1022E000C701B4D9D701D196ED91FC91D2978081E5
:1022F000DF969C918923808366E0C701A7D9D70127
:10230000D196ED91FC91D2978081DA969C91892BA0
:1023100080836D2DC7019AD9D701D196ED91FC919B
:10232000D2978081DF969C918923808367E0C701E3
:102330008DD9D701D196ED91FC91D2978081DA9613
:102340009C91892B80836C2DC70180D9D701D196B0
:10235000ED91FC91D2978081DF969C9189238083B7
:1023600064E0C70173D9D701D196ED91FC91D29762
:102370008081DA969C91892B80836B2DC70166D969
:10238000D701D196ED91FC91D2978081DF969C91F7
:102390008923808365E0C70159D9D701D196ED9192
:1023A000FC91D2978081DA969C91892B80836A2D4B
:1023B000C7014CD9D701D196ED91FC91D29780817C
:1023C000DF969C918923808368E0C7013FD9D701BC
:1023D000D196ED91FC91D2978081DA969C91892BD0
:1023E0008083612FC70132D9D701D196ED91FC913D
:1023F000D2978081DF969C918923808369E0C70111
:1024000025D9D701D196ED91FC91D2978081DA96AA
:102410009C91892B8083602FDACE079709F0A7C0A3
:10242000F701868997898130910531F058F0823023
:10243000910541F00397A1F422E0C20ED11C0E5F7A
:102440001F4F0EC0C601029698012E5F3F4F6401D8
:10245000F2E0CF0ED11C85010E5F1F4F59014C01D8
:10246000D701D196ED91FC91D2978081DF969C9116
:10247000DF97892380835D966C91C701E7D8D701E8
:10248000D196ED91FC91D2978081DA969C91892B1F
:1024900080836A2DC701DAD8D701D196ED91FC91DE
:1024A000D2978081DA969C91892B8083682DC70111
:1024B000CDD8D701D196ED91FC91D2978081DF964E
:1024C0009C91DF97892380835F966C91C701BED86A
:1024D000D701D196ED91FC91D2978081DA969C91AB
:1024E000892B8083602FC701B1D8D701D196ED9198
:1024F000FC91D2978081DA969C91892B80836C2DF8
:10250000C701A4D8D701D196ED91FC91D2978081D3
:10251000DF969C918923808361E2C70197D8D70118
:10252000D196ED91FC91D2978081DA969C91892B7E
:102530008083682DC7018AD8D701D196ED91FC918F
:10254000D2978081DA969C91892B80836C2DC7016C
:102550007DD8D701D196ED91FC91D2978081DF96FD
:102560009C91DF978923808391966C9130CE9D82D8
:102570006E83BF822887D9824A831B830C8324E021
:10258000AE014B5F5F4FF701658DC70177DC24E03B
:10259000AE014F5F5F4FD7015F966C91C7016EDC54
:1025A00018CECF92DF92EF92FF92CF93DF93FC0190
:1025B000CA01AA27BB27C32ED42EE52EFF244C2DFB
:1025C0003085332371F0C32FD0E0C89FA001C99F8D
:1025D000500DD89F500D1124852F3C9D6001112472
:1025E0004D2DA685218532859385A9131DC0DB015C
:1025F000AA0FBB1F6A0F7B1F620F731FA385A60F55
:10260000B72FB11D8C93A485A60FB72FB11D4C9386
:102610008585680F711DFB011082DF91CF91FF90BE
:10262000EF90DF90CF900895660F771F660F771FAA
:10263000620F731FA60FB72FB11D1C92DFCF8F92B1
:102640009F92AF92BF92EF92FF920F931F93CF93FF
:10265000DF93FC01E280F380E114F104D9F021154D
:10266000310521F02E153F0508F479014A015B017F
:102670008C01D0E0C0E0F80182819381C817D907AE
:1026800028F4A5019401BE01C8018BDF2196EC1648
:10269000FD0689F7DF91CF911F910F91FF90EF9089
:1026A000BF90AF909F908F900895CF92DF92EF925E
:1026B000FF920F931F93CF93DF9300D000D000D0F1
:1026C000CDB7DEB78C01DC0119968D919C91892BD9
:1026D00009F465C00E943B08F801C784D088E188EE
:1026E000F2886C197D098E099F096C327140810551
:1026F000910580F3F894D80114968D919C911597CB
:102700009A8389831996ED91FC917F01BFEFEB1AB3
:10271000FB0A80818987F80190810388F489E02D84
:10272000D80155968C91992309F448C09081982B33
:1027300098879081809589238F838F818C8388E00F
:102740008B8358856F8149853B812C8189819A8152
:10275000D701508347FD252F3A952083262F39F046
:10276000441F00C000006083000000C0F2CF38E0CA
:102770004D9160830000019761F7D8015496FC9356
:10278000EE93539749873B832C839A83898378946C
:102790000E943B08F8016787708B818B928B29968A
:1027A0000FB6F894DEBF0FBECDBFDF91CF911F9162
:1027B0000F91FF90EF90DF90CF9008959081982B2C
:1027C00098879081809589238F838F818E8388E07D
:1027D0008D8358856F8149853D812E8189819A81BC
:1027E000D701508347FD252F00C000C0208300C0C3
:1027F00000C000C000C000C060830000262F3A95D2
:1028000041F0441F000000C000C000C000C000C074
:10281000E8CF38E04D9100C0608300C0019709F710
:10282000D8015496FC93EE93539749873D832E83AA
:10283000ACCFCF93DF93EC018E819F8197FD07C0D2
:1028400061E00E944B0560E08E810E94DA0481E025
:102850008983DF91CF9108954F925F926F927F921B
:102860008F929F92AF92BF92CF92DF92EF92FF92A0
:102870000F931F93CF93DF9300D000D01F921F922E
:10288000CDB7DEB761E081ED95E10E94B2088BE340
:102890009FE10197F1F78BECE82E84E1F82EDD241F
:1028A000D39410E000E080900F0290901002A0906E
:1028B0001102B090120240901302509014026090E6
:1028C00015027090160295E0C92E8D829E82AF820D
:1028D000B88649825A826B827C822091D81581E029
:1028E000211180E0819590E03091D915303109F0C7
:1028F00040C02430F1F521E030E02C0F3D1F820F65
:10290000931FFC0160816D0D606881ED95E10E946F
:10291000B208F701819191917F01C09EF001C19EA3
:10292000F00D1124E35AFB4EE80FF91F608181ED91
:1029300095E10E94A7080F5F1F4FD394D394FBE04B
:10294000DF12C3CF28960FB6F894DEBF0FBECDBFFF
:10295000DF91CF911F910F91FF90EF90DF90CF907B
:10296000BF90AF909F908F907F906F905F904F90AF
:10297000089525E030E0C1CF0F931F93CF93DF93ED
:102980002CE8289F8001299F100D11248EE0869F3E
:102990009001879F300D1124020F131FD0E0C0E07B
:1029A000FE01EE0FFF1FE00FF11FE65EFD4F60819D
:1029B000718177FD0EC080910817909109176817F3
:1029C000790738F420E030E044E650E086E097E113
:1029D000E8DD2196C730D10519F7DF91CF911F911E
:1029E0000F910895EF92FF920F931F93CF93DF9370
:1029F0008B01FC01C081D1819E013327F901E85E82
:102A0000FE4F8491F901ED58FB4FE490F901ED522E
:102A1000FB4FF490FF2081F181110E947304EF2D90
:102A2000F0E0EE0FFF1FEC51FF4FA591B491EC9138
:102A3000EE2291E080E009F090E0E92EF82ECC0F34
:102A4000DD1FFE01E658FC4E808191818E159F05A9
:102A500061F0F1E0EF16F10421F490E080E0F8017C
:102A60001995C658DC4EF982E882DF91CF911F910B
:102A70000F91FF90EF900895EE24E394F12CDFCFB7
:102A8000FC014481558170E060E0818592850C9461
:102A90009E298FE995E1F4DF2AE430E040E056E931
:102AA00060E070E08FE995E1CADD8FE995E1FDCD49
:102AB0008FE995E1E5DF2AE430E040E050E066E9A7
:102AC00070E08FE995E1BBDD8FE995E1EECDCF9325
:102AD000DF93C0917B14D0917C142196D0937C1409
:102AE000C0937B1485EB95E1CBDF9E0140E050E085
:102AF00066E970E085EB95E1A2DD85EB95E1D5DD3A
:102B000085E30E94070548EE53E060E070E084E64C
:102B100090E00E948705239734F081E080937F1432
:102B2000DF91CF91C5CFDF91CF910895CF93DF9300
:102B3000EC0188819981009711F00E941B2819826D
:102B400018821D821C821B821A82DF91CF91089508
:102B5000FC01808191810C941B2842E050E06CE3E1
:102B600072E186EF94E10C944303CF93DF93FC0171
:102B7000448155816081718186EF94E10E94430315
:102B8000EC01EBDF8C0F9D1FDF91CF9108950F9328
:102B90001F93CF93DF93EC0188819981009759F0BF
:102BA0002A813B812617370730F081E0DF91CF91F2
:102BB0001F910F9108958B016F5F7F4F0E94A42892
:102BC000009759F0998388831B830A832C813D8168
:102BD000232B59F7FC011082E8CF80E0E7CFEF927A
:102BE000FF920F931F93CF93DF93EC01FB01E080E3
:102BF000F180E114F10409F1048115810115110539
:102C0000A1F08C819D81080F191FB801CE01BFDF93
:102C1000882399F0288139818C819D81B701820FA9
:102C2000931F0E94A5291D830C83CE01DF91CF91B4
:102C30001F910F91FF90EF900895CE0177DFF5CFB0
:102C4000EF92FF920F931F93CF93DF93EC017B01E1
:102C50008A01BA019CDF81110AC0CE0167DFCE0173
:102C6000DF91CF911F910F91FF90EF9008951D83F9
:102C70000C83B701888199810E94A529F0CFEF923A
:102C8000FF920F931F93CF93DF93CDB7DEB7629779
:102C90000FB6F894DEBF0FBECDBF8C01CB01F8019B
:102CA0001182108213821282158214824AE09E01E0
:102CB0002F5F3F4F7901B9010E94C026F7010190B3
:102CC0000020E9F73197AF014E195F09B701C8013C
:102CD000B7DF62960FB6F894DEBF0FBECDBFDF91AF
:102CE000CF911F910F91FF90EF900895FC011182F9
:102CF00010821382128215821482FB01019000203F
:102D0000E9F73197AF01461B570B9ACF0F931F93EB
:102D1000CF93DF93CDB7DEB72C970FB6F894DEBF15
:102D20000FBECDBF8C01BC01CE010796A8DF6FE3BB
:102D300072E1CE010196DADFBE01695F7F4FCE01FD
:102D400001964DDF12DFCE01019602DFCE0107961C
:102D5000FFDE82DD0B301105C8F4F8018827EC5442
:102D6000F94E8F4F0C946327BF16001703170817EF
:102D70000B171017131718171B171B172017A7DE91
:102D800061E070E090E080E00E94C1024BE050E022
:102D90006EE572E186EF94E10E944303DEDE2BECE8
:102DA00034E1DE01179690E080E065E0F9014191A1
:102DB00051919F01689FF001699FF00D1124E35A22
:102DC000FB4EE40FF51F40814D9301968530910530
:102DD00069F7BE01695F7F4FCE01019687DFCE01A3
:102DE0000196C3DECE010196B3DE2C960FB6F894A1
:102DF000DEBF0FBECDBFDF91CF911F910F91089520
:102E00006FEF7FEFBFCF61E070E081E090E0BCCF7B
:102E10006FEF7FEFFACF61E070E082E090E0B4CF37
:102E20006FEF7FEFFACF61E070E083E090E0ACCF2E
:102E30006FEF7FEFFACF6FEF7FEF84E090E0A4CFEA
:102E4000EBECF4E185ED94E121913191232B69F4D0
:102E50008E179F07C9F780917D1490917E1401967B
:102E600090937E1480937D1491CF31DE8FCF2F927B
:102E70003F924F925F926F927F928F929F92AF920A
:102E8000BF92CF92DF92EF92FF920F931F93CF9357
:102E9000DF93CDB7DEB76A970FB6F894DEBF0FBEEB
:102EA000CDBF1092C7161092C61620E430E041E85C
:102EB00050E060E470E090E080E00E94BC0D21E80A
:102EC00030E040E450E070E060E080E490E00E9498
:102ED000BC0D3AEC632E31E1732E46EE842E43E1B5
:102EE000942E87E190E0988B8F87E7E3F0E0FE87F0
:102EF000ED8753E0452E512C6DE0C62ED12CC60136
:102F0000841995099C012F5F3F4F8095909537FF5D
:102F1000C3C0CD8ADE8A37FDC2C02F8B388F9A8A14
:102F2000898A7C8A6B8A26E1A22EB12C1092C71660
:102F30001092C616EB89FC8921903190FC8BEB8BAB
:102F4000B101CE0101969BDE6AE672E1CE010796E1
:102F5000CDDEBE016F5F7F4FCE01079640DE05DEFE
:102F6000CE010796F5DDCE010196F2DD3694322CC6
:102F7000222437942794C101865B9B4F1C01EF8468
:102F8000F888F5017A96FA8FE98F00E210E0F101F6
:102F900080819181A281B381002E04C0B595A7954F
:102FA000979587950A94D2F780FF0DC02091C61699
:102FB0003091C716A701698D7A8D601B710B8CEB60
:102FC00096E10E94570D0150110909F7F4E02F0E08
:102FD000311C8FEFE81AF80AED85FE85EE16FF0624
:102FE000A1F6E989FA8981919191FA8BE98BF12C0B
:102FF000E12C019721F480E8E82E8FE0F82EF09282
:10300000C716E092C6160F89188D25E130E04D896C
:103010005E89B5018CEB96E10E94280CF0E4AF0EBE
:10302000B11C86E9A816B10409F080CF90E4C90E5E
:10303000D11CE0E44E0E511C8D859E85805C9F4F17
:103040009E878D87EF85F889E05CFF4FF88BEF87CF
:10305000F4E06F0E711C84E0880E911C9DE8C91687
:10306000D10409F04CCF6A960FB6F894DEBF0FBEBC
:10307000CDBFDF91CF911F910F91FF90EF90DF9027
:10308000CF90BF90AF909F908F907F906F905F9008
:103090004F903F902F9008954D8A5E8A3CCF8F8B42
:1030A000988F3DCF0F931F93CF93DF93CDB7DEB7AC
:1030B0002C970FB6F894DEBF0FBECDBF8C01BC01BC
:1030C000CE010796DCDD67E772E1CE0101960EDEE8
:1030D000BE01695F7F4FCE01019681DD46DDCE01E5
:1030E000019636DDCE01079633DD000F111FF80182
:1030F000EA51FC4E81E090E091838083B8DE2C960B
:103100000FB6F894DEBF0FBECDBFDF91CF911F91F8
:103110000F9108950E9480291F920F920FB60F926F
:1031200011240BB60F922F933F934F935F936F939E
:103130007F938F939F93AF93BF93EF93FF93809170
:10314000EA149091EB14A091EC14B091ED14892B3A
:103150008A2B8B2BE1F19091D914E091DA14F09144
:10316000DB148081892780838091EA149091EB148D
:10317000A091EC14B091ED14181619061A061B064E
:103180009CF48091EA149091EB14A091EC14B0910E
:10319000ED140197A109B1098093EA149093EB14FF
:1031A000A093EC14B093ED14FF91EF91BF91AF9108
:1031B0009F918F917F916F915F914F913F912F914F
:1031C0000F900BBE0F900FBE0F901F90189580911F
:1031D00004020E940705E8CF1F920F920FB60F92CC
:1031E00011240BB60F922F933F934F935F936F93DE
:1031F0007F938F939F93AF93BF93EF93FF9386EF4C
:1032000094E10E94B603FF91EF91BF91AF919F911E
:103210008F917F916F915F914F913F912F910F907F
:103220000BBE0F900FBE0F901F9018951F920F921C
:103230000FB60F9211240BB60F922F938F939F937B
:10324000EF93FF93E0910615F09107158081E091CF
:103250000C15F0910D1582FD1DC0908180910F1508
:103260008F5F8F7320911015821741F0E0910F1539
:10327000F0E0EA50FB4E958F80930F15FF91EF9190
:103280009F918F912F910F900BBE0F900FBE0F90BB
:103290001F9018958081F2CF1F920F920FB60F9258
:1032A00011242F933F938F939F93AF93BF9380915C
:1032B000771490917814A0917914B0917A14309188
:1032C000571423E0230F2D3758F50196A11DB11D8A
:1032D000209357148093771490937814A0937914C3
:1032E000B0937A148091581490915914A0915A1463
:1032F000B0915B140196A11DB11D80935814909359
:103300005914A0935A14B0935B14BF91AF919F913D
:103310008F913F912F910F900FBE0F901F90189596
:1033200026E8230F0296A11DB11DD2CF1F920F9246
:103330000FB60F9211240BB60F922F933F934F931A
:103340005F936F937F938F939F93AF93BF93EF930D
:10335000FF938091B900887F803609F44DC008F052
:1033600040C0883209F4A9C028F5803109F49DC015
:10337000C8F4882309F4FBC0883009F496C0FF9193
:10338000EF91BF91AF919F918F917F916F915F91DD
:103390004F913F912F910F900BBE0F900FBE0F904A
:1033A0001F901895883109F488C0803241F78093C6
:1033B000A41414C0803409F49DC040F48033B9F3E0
:1033C0008833E9F68093A41485ECB0C0803509F405
:1033D00085C0883509F496C0883489F60E9445096D
:1033E000CECF883909F48CC038F5883729F050F4ED
:1033F000883611F0803719F683E08093A614109276
:10340000501457C0883809F47BC0803919F08038CF
:1034100009F0B5CF80915014803208F071C0E0916E
:10342000501481E08E0F809350148091BB00F0E027
:10343000E05DFB4E80833DC0803B39F0E0F4803A94
:1034400009F479C0883A09F09ACF84E08093A614F1
:1034500010922F1410922E14E0915314F0915414E2
:10346000199580912E1481110FC081E080932E1444
:1034700010920E1409C0803C09F4A6CF883C09F4D0
:10348000A3CF883B09F07BCFE0912F1481E08E0F12
:1034900080932F14F0E0E25FFB4E80818093BB00AD
:1034A00090912F1480912E1429C0809181148093C3
:1034B000BB0085EC8093BC0062CF9091A3148091F7
:1034C000A214981758F5E091A31481E08E0F809311
:1034D000A314F0E0EE57FB4E8081E9CFE091A314F6
:1034E00081E08E0F8093A3148091BB00F0E0EE5733
:1034F000FB4E80839091A3148091A2149817C8F278
:1035000085E8D8CFE091A31481E08E0F8093A314B7
:103510008091BB00F0E0EE57FB4E80838091A514B4
:1035200081115CCF81E08093801484EA8093BC0099
:103530001092A61424CF85EC8093BC001092A614A0
:1035400080915014803230F4E0915014F0E0E05D4E
:10355000FB4E10826091501470E0E0915114F09194
:10356000521480E394E119951092501408CF1092F0
:10357000A41434CFCF92DF92EF92FF920F931F9358
:10358000CF93DF93EC016B018A01198218861F86A5
:10359000188A198A1A8A81E08E878B871C8692E0A6
:1035A0009D8788837B01EE0CFF1CE60EF71EFD82D3
:1035B000EC82C7010E947F279A878987009779F15B
:1035C000A70170E060E00E949E29DB82CA821F830F
:1035D0000E838981882341F061E0802F0E944B0592
:1035E00060E0802F0E94DA04F801ED52FB4FE49175
:1035F000F0E0EE0FFF1FE754FB4F859194919C8BF9
:103600008B8BF801ED58FB4FE491ED8BDF91CF915F
:103610001F910F91FF90EF90DF90CF9008951D8242
:103620001C821B821A82D3CF0F931F93CF93DF93F9
:10363000E6EFF4E11382128288EE93E0A0E0B0E0BE
:1036400084839583A683B78324EF31E1318320837C
:1036500025EC30E03587248724EC30E03787268757
:1036600020EC30E0318B208B21EC30E0338B228B4F
:1036700022EC30E0358B248B26EC30E0378B268B28
:10368000118E128E138E148EE3E9F5E113821282ED
:1036900084839583A683B78386E092E191838083B8
:1036A00044E350E065E270E086E097E163DFCCEB55
:1036B000D6E180E098EF9987888720EE37E03F8356
:1036C0002E839B878A8701E00C871D868CE292E11E
:1036D000998388838AE18093FF168CE18093001799
:1036E0001FEF109301178DE1809302178EE18093F5
:1036F00003178BE180930417109305171C8EEDEED2
:10370000F4E0E491F0E0EE0FFF1FE754FB4FA591CA
:10371000B491B8ABAFA7EDE8F4E0849189AF982FEE
:1037200090959EAFEFEEF4E0E491F0E0EE0FFF1F16
:10373000E754FB4F259134913AAB29ABEFE8F4E025
:10374000E491EAAFE095EFAF1CAA1BAA1BAE109262
:10375000FC16E0EFF4E0E491F0E0EE0FFF1FE75419
:10376000FB4F259134913EAB2DABE0E9F4E0E491C1
:10377000ECAFE095E093FD16E1EFF4E0E491F0E0CA
:10378000EE0FFF1FE754FB4F2591349138AF2FAB5D
:10379000E1E9F4E0E491EDAFE095E093FE16EC9101
:1037A0008E2B8C93E9A9FAA980819AAD892B80830D
:1037B000EBA9FCA980819BAD892B8083EDA9FEA993
:1037C00080819CAD892B8083EFA9F8AD80819DAD70
:1037D000892B808361E08AE10E944B0561E08CE1E6
:1037E0000E944B0560E08FEF0E944B0561E08DE188
:1037F0000E944B0561E08EE10E944B0561E08BE188
:103800000E94DA0461E08BE10E944B051F8A1E8A48
:1038100083E892E19B8F8A8F82E890E09F878E8772
:10382000998B888B9B8B8A8B9D8B8C8B6DE872E13F
:103830008AEE95E15BDA63E972E180EF95E156DAB1
:1038400069E972E186EF95E151DA6FE972E18CEF97
:1038500095E14CDA65EA72E182E096E147DA6BEADB
:1038600072E188E096E142DA61EB72E18EE096E186
:103870003DDA67EB72E184E196E138DA6DEB72E1F3
:103880008AE196E133DA63EC72E180E296E12EDAC6
:1038900069EC72E186E296E129DA6FEC72E18CE282
:1038A00096E124DA65ED72E182E396E11FDA6BEDD1
:1038B00072E188E396E11ADA61EE72E18EE396E155
:1038C00015DA67EE72E184E496E110DA6DEE72E1EA
:1038D0008AE496E10BDA63EF72E180E596E106DABD
:1038E00069EF72E186E596E101DA6FEF72E18CE54E
:1038F00096E1FCD965E073E182E696E1F7D96BE0E9
:1039000073E188E696E1F2D961E173E18EE696E132
:10391000EDD967E173E184E796E1E8D96DE173E100
:103920008AE796E1E3D963E273E180E896E1DED9C4
:1039300069E273E186E896E1D9D96FE273E18CE838
:1039400096E1D4D965E373E182E996E1CFD96BE3DF
:1039500073E188E996E1CAD961E473E18EE996E101
:10396000C5D967E473E184EA96E1C0D96DE473E1F7
:103970008AEA96E1BBD963E573E180EB96E1B6D9BB
:1039800069E573E186EB96E1B1D9E1EDF5E11382EA
:10399000128288E192E191838083108A17871686CC
:1039A000118A87E28387148615861286118684E041
:1039B000828B82E0838B048B80E1858B80E2868B17
:1039C00080E4878B80E8808F50E040E063E0CF01A7
:1039D0000E9491086EE372E18BEC95E187D942E396
:1039E00050E063E070E085EB95E1C4DD43E350E037
:1039F0006AE470E08FE995E1DF91CF911F910F911B
:103A0000B9CDCF93DF93CDB7DEB76E970FB6F894ED
:103A1000DEBF0FBECDBF789484B5826084BD84B50F
:103A2000816084BD85B5826085BD85B5816085BDB9
:103A300080916E00816080936E0010928100809171
:103A400081008260809381008091810081608093F9
:103A50008100809180008160809380008091B1001E
:103A600084608093B1008091B00081608093B00049
:103A7000809191008260809391008091910081609B
:103A8000809391008091900081608093900080915C
:103A9000A10082608093A1008091A1008160809349
:103AA000A1008091A00081608093A00080912101FD
:103AB00082608093210180912101816080932101A6
:103AC0008091200181608093200180917A00846040
:103AD00080937A0080917A00826080937A0080914E
:103AE0007A00816080937A0080917A008068809368
:103AF0007A001092C10080917B00877F80937B00C9
:103B000080E480937C0080917A00806480937A00C6
:103B100080917A0086FDFCCF8091780060917900D9
:103B2000762F682F072E000C880B990B61157105F5
:103B30008105910511F00E94B726E0910615F091DC
:103B4000071582E08083E0910215F0910315108241
:103B5000E0910415F09105158FEC808310920E15FD
:103B6000E0910A15F0910B1586E08083E09108152D
:103B7000F0910915808180618083E0910815F091B2
:103B80000915808188608083E0910815F0910915FE
:103B9000808180688083E0910815F091091580810B
:103BA0008F7D808386E097E10E94191486E097E17B
:103BB0000E94401586E097E10E94551385EB95E140
:103BC0000E94191485EB95E10E94401585EB95E163
:103BD0000E9455138FE995E10E9419148FE995E130
:103BE0000E9440158FE995E10E9455130AED11E1FD
:103BF000F0EFEF2EF1E1FF2EF80180810E5F1F4FF5
:103C000062E00E944B05E016F106B1F720E042E0C9
:103C100060E181ED95E10E94820A6FEF81ED95E10F
:103C20000E946A0A0E946B2623E230E040E050E0E6
:103C30000E94F32626E0269FF001279FF00D112415
:103C4000E651FA4E608171816115710509F4BCC0BD
:103C5000448155818BEC95E10E9420162BEC34E1D8
:103C60003A8F298F75EDE72E74E1F72E8901E5E093
:103C70008E2E912CA12CB12C0E946B26A5019401B3
:103C80000E94F326F801619371938F01EE16FF06EF
:103C900099F76FE573E1CE010D9628D8B12CA12CD0
:103CA0001E01F3E12F0E311C8091CF159091D0159C
:103CB000A816B90608F48DC06DE5E62E64E1F62E6F
:103CC00010E000E08091CF159091D01508171907EA
:103CD00008F0A0C11A8219821C821B821E821D82DA
:103CE0006D857E856115710531F049895A89CE014E
:103CF00001960E942016D12CC12C8D809E80B12C63
:103D0000A12C81149104A104B10431F0E4D7A501E0
:103D100094010E94F3264B01082C000C99084D8158
:103D20005E818416950628F4E981FA81309709F0BE
:103D30006BC110925C14ECE5F4E1B080841695063A
:103D4000C0F489819A81415051095E834D8348199D
:103D50005909B4016F5F7F4F680F791F880D991D56
:103D60000E94AC29E981FA818D819E81E80FF91FBB
:103D70001082F701EC0DFD1DB0822FEFC21AD20A9E
:103D800035E0C316D10409F0B8CF8091CF159091DA
:103D9000D0150817190738F4E091CB15F091CC1520
:103DA000309709F034C110925C14ECE5F4E18081A5
:103DB000F7018083CE0101960E94A8150F5F1F4F67
:103DC000F5E0EF0EF11C7ECF8BEC95E10E9496158D
:103DD00045CF6EE372E1CE0101960E947616809186
:103DE000CF159091D015A816B90638F4E091CB15EF
:103DF000F091CC15309709F043C010925C14ECE5BB
:103E0000F4E1808118861F821A8619861C861B861B
:103E10008B8B1C8AF10101900020E9F73197AF01EB
:103E200042195309B101CE0107960E9420166988F4
:103E30007A886114710409F463C08B849C848114B2
:103E4000910409F45DC0ED80FE80E818F9080D8545
:103E50001E85E114F104B9F46F817885C8010E94D0
:103E6000BB298C01009709F44BC069817A814D818F
:103E70005E810E9484298D819E81080F191FECCFDD
:103E8000EA0DFB1DBECFF7FC0EC04F8058846301C6
:103E9000C801B2010E94BB290097F1F1880D991D5C
:103EA000CE0CDF1CF6CF68016F817885C8010E94B7
:103EB000BB293C01009701F14C01801A910AA40131
:103EC000B801C6010E948429C80CD91C69817A8175
:103ED0004D815E81C6010E9484298D819E81C80E1C
:103EE000D91E0B851C85060D171D89899A898E0D93
:103EF0009F1D9A8B898BD8CFB801C6010E94A52936
:103F0000CE0107960E94A815CE0101960E94A81521
:103F1000FFEFAF1ABF0AC8CE6C147D0489F38F85FA
:103F200098898C159D0560F4B6016F5F7F4FC801BD
:103F30000E94A428009721F39E878D87D88ACF8678
:103F400009891A890150110917FDDACF48014B84FC
:103F50005C8441145104A1F2C988DA88C114D104E7
:103F600079F2C414D50460F20C151D0520F0460149
:103F700021E0821A91086D847E844F8158855C8F80
:103F80004B8FC3010FEF1FEFF301E80DF91DFE8FFB
:103F9000ED8F2D8D3E8D2817390780F06B8D7C8D30
:103FA0000E94BB29009751F09C01261937098216FF
:103FB000930608F4980101968901EBCF17FDA0CF75
:103FC000400E511EC301840D951DA60144195509CB
:103FD000BC018E0D9F1D0E948D2989899A898E0DA5
:103FE0009F1D9A8B898B2D853E85820F931FFC0127
:103FF00010828D859E8569817A814D815E81800FD9
:10400000911F0E9484299ECFE80DF91D96CEE00FE6
:10401000F11FCDCECE010D960E94A8150E942C1442
:1040200081E08093D514DE01179690E080E0BD0119
:1040300045E0E98DFA8D21913191FA8FE98F489F02
:10404000F001499FF00D1124E35AFB4EE20FF31FDC
:1040500020812D9301968530910559F7CE01019667
:104060000E947616CE0101960E94B515CE010196EA
:104070000E94A8158BEC95E10E94B51502ED11E1A7
:1040800052EEE52E51E1F52EE016F10641F0F80171
:1040900080810E5F1F4F62E00E944B05F5CF0E94AA
:1040A000B50B8091051787FD03C061E00E94DA041B
:1040B0008091D6169091D716019609F041C060E024
:1040C00084E090E00E94ED0B892B21F561E084E013
:1040D00090E00E94ED0B81159048E1F48091170269
:1040E00090911802A091190289839A83AB8323E0EF
:1040F000AE014F5F5F4F69EB8CEB96E10E943E0F84
:1041000060E080ED90E00E94ED0B61E080ED90E0DA
:104110000E94ED0B61E083ED90E00E94ED0B813495
:1041200033E9930749F0863844E9940729F060E0C1
:1041300090E080E00E94ED0B9093D7168093D61606
:104140000091D6161091D7160E94B50B68EC70E05E
:1041500080E090E00E946008053253E9150709F4F9
:1041600064C008F058C0053795E7190709F49FC0E7
:1041700058F40338124109F49EC28FEF90E09093F7
:10418000D5168093D4160AC1053327E7120709F420
:1041900055C20039104989F783E090E09093D51615
:1041A0008093D4168AE290E09093DA168093D91621
:1041B0008BE290E09093DC168093DB168CE290E02B
:1041C0009093DE168093DD168EE290E09093E016D9
:1041D0008093DF1683E390E09093E2168093E116DC
:1041E00087E390E09093E4168093E31686E390E0F3
:1041F0009093E6168093E51681E090E09093E816A0
:104200008093E7169093EA168093E91666E470E0CF
:1042100086EE92E0C1C0013443E9140709F47EC080
:10422000E8F50832134909F0A8CF1092D51610927C
:10423000D4161092DA161092D9161092DC1610923B
:10424000DB1682E290E09093DE168093DD16909369
:10425000E0168093DF1681E690E09093E21680935B
:10426000E1168AE690E09093E4168093E31683E0EB
:1042700090E09093E6168093E51681E090E09093AD
:10428000E8168093E7161092EA161092E9166CEC85
:1042900070E086EA93E00E94950B80C0063894E9AE
:1042A000190709F48EC10539154909F066CF81E077
:1042B00090E09093D5168093D4161092DA1610924F
:1042C000D9161092DC161092DB1622E230E0309301
:1042D000DE162093DD163093E0162093DF162EE0D5
:1042E00030E03093E2162093E11624E130E0309381
:1042F000E4162093E31626E130E03093E61620938F
:10430000E5169093E8168093E7169093EA1680934B
:10431000E9166FE770E087E692E03EC082E090E049
:104320009093D5168093D4168AE290E09093DA1693
:104330008093D9168BE290E09093DC168093DB1685
:104340008CE290E09093DE168093DD168EE290E092
:104350009093E0168093DF1683E390E09093E2164B
:104360008093E11687E390E09093E4168093E31640
:1043700086E390E09093E6168093E5161092E81697
:104380001092E71681E090E09093EA168093E91688
:104390006AE770E08CE293E00E94910F8091D21660
:1043A000282F237030E03093D3162093D216282F75
:1043B000217080FFBFC18091CC169091CD16909353
:1043C000CF168093CE168091CA169091CB162111EC
:1043D00004C08091CC169091CD169093D116809305
:1043E000D016E091EB16F091EC1680819091FA16C0
:1043F000892380832091D4163091D5168091D216CE
:104400009091D3162115310509F0A4C18130910591
:1044100009F495C108F49BC18230910509F492C159
:10442000039709F491C1E091ED16F091EE168081A9
:104430009091FB16892380836091E6168CEB96E1C0
:104440000E94260B6091E5168CEB96E10E94260BEC
:10445000E091ED16F091EE1680819091F616892B81
:10446000808360E18CEB96E10E94260B688D8CEBDB
:1044700096E10E94260B0091D0161091D1160150A2
:1044800011092091CE163091CF162150310950E0FC
:1044900040E070E060E08CEB96E10E94DB0F209141
:1044A000D4163091D5162115310509F055C263E0B7
:1044B00070E08091E1169091E2160E94610B70E02D
:1044C00060E08091E3169091E4160E94610BE09108
:1044D000EB16F091EC1680819091F516892B808374
:1044E000E091EB16F091EC1680819091FA168923F9
:1044F00080831091E7162091D4163091D516E09163
:10450000ED16F091EE168091FB162115310509F09C
:1045100062C290818923808361E68CEB96E10E94E0
:10452000260BE091ED16F091EE1680819091F61633
:10453000892B8083612F8CEB96E10E94260BE09102
:10454000EB16F091EC1680819091F516892B808303
:104550000091D0161091D1162091CE163091CF1621
:10456000EE24EA94FE2C50E040E070E060E08CEB3A
:1045700096E10E94280C0E9437170E94491520EEF0
:10458000422E23E9522E24E0622E712C3AE0A32E13
:10459000B12C44E0242E312C80917F14811116C35C
:1045A00080917D1490917E148330910509F06EC244
:1045B0000E94491530927E1420927D140E9443047B
:1045C000EBCF85E090E09093D5168093D4168AE2E5
:1045D00090E09093DA168093D9168BE290E0909356
:1045E000DC168093DB168CE290E09093DE168093CD
:1045F000DD168EE290E09093E0168093DF1683E361
:1046000090E09093E2168093E11687E390E0909318
:10461000E4168093E31686E390E09093E616809389
:10462000E5161092E8161092E7161092EA1610920C
:10463000E9166AE470E08DE192E0AECE86E090E0AB
:104640009093D5168093D4168AE290E09093DA1670
:104650008093D9168BE290E09093DC168093DB1662
:104660008CE290E09093DE168093DD168EE290E06F
:104670009093E0168093DF1683E390E09093E21628
:104680008093E11687E390E09093E4168093E3161D
:1046900086E390E09093E6168093E5161092E81674
:1046A0001092E7161092EA161092E9166FE570E084
:1046B0008EEB91E071CE87E090E09093D5168093D9
:1046C000D41685E490E09093DA168093D91684E4AA
:1046D00090E09093DC168093DB1682E290E090935A
:1046E000DE168093DD168EE290E09093E0168093C4
:1046F000DF1681E490E09093E2168093E11682E465
:1047000090E09093E4168093E31683E090E090931A
:10471000E6168093E51681E090E09093E81680938A
:10472000E7161092EA161092E91660E670E08EE540
:1047300091E0B1CD8091CA169091CB1640CEF8E2AF
:10474000F88F71CE188E6FCE28E1288F6CCE30E3B3
:10475000388F69CE2630310571F58130910501F130
:1047600038F182309105F9F00397F9F0E091ED16F8
:10477000F091EE1680819091FB16892380836091E1
:10478000E5168CEB96E10E94260BE091ED16F09178
:10479000EE1680819091F616892B80836D8967CE05
:1047A00040EA4D8BE3CF1D8AE1CF50E65D8BDECF33
:1047B00080ED8D8BDBCF2730310509F09EC0813035
:1047C000910549F008F450C08230910509F44CC0BD
:1047D000039709F050CEE091ED16F091EE1680812E
:1047E0009091FB168923808360E08CEB96E10E9418
:1047F000260B61E08CEB96E10E94260BE091ED1612
:10480000F091EE1680819091F616892B808362E2FA
:104810008CEB96E10E94260B63E88CEB96E10E94FC
:10482000260BE091ED16F091EE1680819091FB162B
:104830008923808360E08CEB96E10E94260B63E085
:104840008CEB96E10E94260BE091ED16F091EE16AE
:1048500080819091F616892B808368E68CEB96E137
:104860000E94260B68E303CEE091ED16F091EE1660
:1048700080819091FB168923808360E08CEB96E128
:104880000E94260B61E08CEB96E10E94260BE091E2
:10489000ED16F091EE1680819091F616892B8083AB
:1048A00061E28CEB96E10E94260B63E88CEB96E1CB
:1048B0000E94260BE091ED16F091EE16808190910A
:1048C000FB168923808360E08CEB96E10E94260B27
:1048D00063E08CEB96E10E94260BE091ED16F091DF
:1048E000EE1680819091F616892B808368E68CEB1A
:1048F00096E10E94260B60E3BACD8130910501F16B
:1049000040F182309105F9F0039701F1E091ED1645
:10491000F091EE1680819091FB168923808360913F
:10492000E5168CEB96E10E94260BE091ED16F091D6
:10493000EE1680819091F616892B80836E8997CD33
:1049400098E29E8BE3CFE8E9EE8BE0CFF8EFFE8BA9
:10495000DDCF28E42E8BDACF8091E1169091E2161C
:104960002730310519F470E060E0AFCD9091CC169E
:104970002091CD1619821A822B839C831D821E8260
:1049800026E0AE014F5F5F4F682F8CEB96E10E94EF
:104990003E0F19821A8222E0AE014F5F5F4F609195
:1049A000E3168CEB96E10E943E0F8091D416909115
:1049B000D516019759F4198221E0AE014F5F5F4F80
:1049C00061E08CEB96E10E943E0F81CD20E050E04B
:1049D00040E063E1F6CF21303105B1F490818923C5
:1049E000808361E08CEB96E10E94260BE091ED164E
:1049F000F091EE1680819091F616892B808368E005
:104A0000111199CD6AE097CD27303105B9F5209184
:104A1000D2163091D3162D7F2115310509F51123BA
:104A200039F131E23F8B90818923808360E08CEB08
:104A300096E10E94260B61E08CEB96E10E94260B2A
:104A4000E091ED16F091EE1680819091F616892B8B
:104A500080836F898CEB96E10E94260B63E86BCD17
:104A60002130310501F7112331F042E24F8BDBCFCA
:104A700051E05F8BD8CF92E09F8BD5CF9081892377
:104A8000808361E2111157CD60E255CD03970CF0A0
:104A900095CD66E876E18AED91E10E94F21462E537
:104AA00078E182ED91E10E94F2148FB7F8942091A1
:104AB0007714309178144091791450917A148FBF03
:104AC000A0917B14B0917C14AA0FBB1F1196205D9E
:104AD000374041095109ADD1A3019201261B370B83
:104AE000480B590BCA01B90128EE33E040E050E011
:104AF000A6D16901309303022093020237FF06C05A
:104B000031E030937F140E94581558CDC6016CE3F4
:104B100070E0C6D144EC46038001479F100D11247C
:104B20000C0D1D1D54E6569FC001579F900D11247A
:104B3000080F191F86E097E10E944015C80168EE32
:104B400073E0AED190E080E00E94BC14C80164E63E
:104B500070E0A6D1CB01B501A3D1BC0181E090E00A
:104B60000E94BC14C801B5019BD18C01CB01B501D9
:104B700097D1BC0182E090E00E94BC14B80183E0B0
:104B800090E00E94BC1486E097E10E94551380914A
:104B9000000290910102C816D90681F08091761426
:104BA00091E044E650E060E070E08927809376145D
:104BB000882349F088EE93E00E948705D092010295
:104BC000C0920002FBCC84E893E0F6CF48EE53E0BD
:104BD00060E070E084E690E00E94870560EB74E09E
:104BE00080E090E00E946008E9CCCF93DF93EC0175
:104BF00089859A8520D28E819F8197FD05C060E0CE
:104C0000DF91CF910C944B05DF91CF910895CF9315
:104C1000DF938FE995E1E9DF85EB95E1E6DF8BEC4A
:104C200095E10E94A815CCEBD6E12697CE010E9413
:104C3000A81585E1CA3ED807C1F786E097E1DF9164
:104C4000CF91D3CF8F929F92AF92BF92CF92DF92AC
:104C5000EF92FF92CF93DF93EC01688179818A8193
:104C60009B81611571058105910521F464E279ED5F
:104C70008BE597E02DE133EF41E050E0B4D04901FE
:104C80005A019B01AC01A7EAB1E4C9D06B017C01D8
:104C9000ACEEB4EFA5019401CED0C60ED71EE81E2F
:104CA000F91EF7FE06C081E0C81AD108E10880E8C5
:104CB000F80AC882D982EA82FB82C701B6019F77CF
:104CC000DF91CF91FF90EF90DF90CF90BF90AF90AA
:104CD0009F908F9008958F929F92AF92BF92CF92A4
:104CE000DF92EF92FF92609105027091060280912F
:104CF000070290910802611571058105910521F463
:104D000064E279ED8BE597E02DE133EF41E050E08F
:104D10006AD049015A019B01AC01A7EAB1E47FD0F6
:104D20006B017C01ACEEB4EFA501940184D0C60EFA
:104D3000D71EE81EF91EF7FE06C081E0C81AD1088A
:104D4000E10880E8F80AC0920502D0920602E092DB
:104D50000702F0920802C701B6019F77FF90EF901B
:104D6000DF90CF90BF90AF909F908F900895609309
:104D7000050270930602809307029093080208953B
:104D8000BB274A3031F4992322F4BDE290958195F6
:104D90009F4F01C0BB27FB015527AA27880F991FEA
:104DA000AA1FA41710F0A41B83955051B9F7A05D5A
:104DB000AA3308F0A95DA193009779F7B111B193D7
:104DC0001192CB0100C0DC01FC01672F71917723A8
:104DD000E1F7329704C07C916D9370836291AE17B6
:104DE000BF07C8F30895052E97FB16F400940FD063
:104DF00057FD05D024D007FC02D046F408C05095DA
:104E00004095309521953F4F4F4F5F4F08959095B6
:104E10008095709561957F4F8F4F9F4F089531D04A
:104E2000A59F900DB49F900DA49F800D911D1124FE
:104E30000895B7FFF4CFF3DF821B930B0895A1E22F
:104E40001A2EAA1BBB1BFD010DC0AA1FBB1FEE1F04
:104E5000FF1FA217B307E407F50720F0A21BB30B4F
:104E6000E40BF50B661F771F881F991F1A9469F7CB
:104E700060957095809590959B01AC01BD01CF0127
:104E80000895A29FB001B39FC001A39F700D811D23
:104E90001124911DB29F700D811D1124911D089543
:104EA00097FB072E16F4009406D077FD08D013D098
:104EB00007FC05D03EF4909581959F4F089570951D
:104EC00061957F4F0895EE0FFF1F881F8BBF0790DE
:104ED000F691E02D1994AA1BBB1B51E107C0AA1F34
:104EE000BB1FA617B70710F0A61BB70B881F991F8B
:104EF0005A95A9F780959095BC01CD0108950F931F
:104F00001F93CF93DF938230910510F482E090E0FD
:104F1000E0911E17F0911F1730E020E0B0E0A0E014
:104F2000309799F42115310509F44AC0281B390B33
:104F300024303105D8F58A819B816115710589F18D
:104F4000FB0193838283FE0111C040815181028164
:104F5000138148175907E0F04817590799F410973B
:104F600061F012960C93129713961C933296CF0110
:104F7000DF91CF911F910F91089500931E17109309
:104F80001F17F4CF2115310551F04217530738F0A0
:104F9000A901DB019A01BD01DF01F801C1CFEF01D9
:104FA000F9CF90931F1780931E17CDCFFE01E20F0C
:104FB000F31F819391932250310939832883D7CFEE
:104FC00020911C1730911D17232B41F420910B02C7
:104FD00030910C0230931D1720931C172091090269
:104FE00030910A022115310541F42DB73EB74091A9
:104FF0000D0250910E02241B350BE0911C17F0910D
:105000001D17E217F307A0F42E1B3F0B28173907D3
:1050100078F0AC014E5F5F4F2417350748F04E0F14
:105020005F1F50931D1740931C17819391939FCF3F
:10503000F0E0E0E09CCFCF93DF930097E9F0FC0134
:10504000329713821282A0911E17B0911F17ED01A3
:1050500030E020E01097A1F420813181820F931F6E
:1050600020911C1730911D172817390709F061C0CE
:10507000F0931D17E0931C17DF91CF910895EA017B
:10508000CE17DF07E8F54A815B819E014115510586
:10509000B1F7E901FB83EA8349915991C40FD51F08
:1050A000EC17FD0761F4808191810296840F951FB2
:1050B000E90199838883828193819B838A83F0E0CD
:1050C000E0E012968D919C9113970097B9F52D9180
:1050D0003C911197CD010296820F931F20911C17CE
:1050E00030911D172817390739F6309751F510926E
:1050F0001F1710921E17B0931D17A0931C17BCCF3B
:10510000D383C28340815181840F951FC817D9076B
:1051100061F44E5F5F4F88819981480F591F518319
:1051200040838A819B81938382832115310509F015
:10513000B0CFF0931F17E0931E179ECFFD01DC0147
:10514000C0CF13821282D7CF4F925F926F927F921D
:105150008F929F92AF92BF92CF92DF92EF92FF9287
:105160000F931F93CF93DF938C01009791F4CB01A2
:10517000DF91CF911F910F91FF90EF90DF90CF9033
:10518000BF90AF909F908F907F906F905F904F9067
:10519000B6CEFC01E60FF71F9C0122503109E21741
:1051A000F30708F4AAC0D901CD91DC911197C61775
:1051B000D70718F1C530D10570F0CE0104978617D6
:1051C000970748F0C61BD70B2297C193D1936D93D5
:1051D0007C93CF0130DFC801DF91CF911F910F91F8
:1051E000FF90EF90DF90CF90BF90AF909F908F9007
:1051F0007F906F905F904F9008955B01AC1ABD0A4D
:105200004C018C0E9D1EA0911E17B0911F17512CA2
:10521000412CF12CE12C109731F580911C179091C5
:105220001D178815990509F05CC04616570608F049
:1052300058C08091090290910A02009741F48DB7FD
:105240009EB740910D0250910E02841B950BE817FA
:10525000F90708F052C0F0931D17E0931C17F901ED
:1052600071836083B8CF8D919C91119712966C9049
:10527000129713967C901397A815B90559F56C01F0
:1052800042E0C40ED11CCA14DB0420F1AC014A195F
:105290005B09DA011296159780F06282738251835E
:1052A0004083D9016D937C93E114F10471F0D7012F
:1052B0001396FC93EE9312978ECF22968C0F9D1F20
:1052C000F90191838083F301EFCFF0931F17E093EF
:1052D0001E1781CF4816590608F42C017D01D30111
:1052E0009ACFCB010CDE7C01009739F0AE01B801FA
:1052F0000BD0C801A0DE87016ECF10E000E06BCFBD
:1053000081E090E0F89451C0FB01DC0102C0019003
:105310000D9241505040D8F708956817790768F406
:10532000FB01DC01E40FF51FA40FB51F02C00290C2
:105330000E9241505040D8F70895E6CFDC0101C0ED
:105340006D9341505040E0F70895FB01DC0101905E
:105350000D920020E1F70895FB01DC01415050401F
:1053600048F001900D920020C9F701C01D924150F4
:105370005040E0F70895FB0151915523A9F0BF017A
:10538000DC014D9145174111E1F759F4CD01019030
:10539000002049F04D9140154111C9F3FB01411125
:1053A000EFCF81E090E00197089512E0CEE8D2E0DF
:1053B00000E005C0802FFE0186DD2196011DCF385B
:0C53C000D10780E00807B1F7F894FFCF98
:1053CC00E093E093FF010000000000201780000034
:1053DC0040145400401050FF83570600070008008B
:1053EC00160017002400FFFF08001700FFFFFFFF47
:1053FC00FFFFFFFFFFFF060008001500160024004A
:10540C00FFFFFFFF06000800150017002400FFFF38
:10541C00FFFFFFFF070008001500FFFF1700FFFF4D
:10542C0006000700FFFF1500FFFF17002400060011
:10543C000700FFFF15001600170024000600FFFFF1
:10544C000800FFFFFFFF1700FFFF06000700080022
:10545C0015001600170024000600070008001500B0
:10546C00FFFF17002400040009000A0018001900AF
:10547C002200FFFF0A001900FFFFFFFFFFFFFFFFE5
:10548C00FFFF04000A00130018002200FFFFFFFFBB
:10549C0004000A00130019002200FFFFFFFFFFFFAA
:1054AC0009000A001300FFFF1900FFFF04000900A8
:1054BC00FFFF1300FFFF1900220004000900FFFF8B
:1054CC0013001800190022000400FFFF0A00FFFF60
:1054DC00FFFF1900FFFF040009000A001300180069
:1054EC0019002200040009000A001300FFFF190034
:1054FC00220002000B000C001A001B002000FFFF12
:10550C000C001B00FFFFFFFFFFFFFFFFFFFF020070
:10551C000C0011001A002000FFFFFFFF02000C001E
:10552C0011001B002000FFFFFFFFFFFF0B000C0012
:10553C001100FFFF1B00FFFF02000B00FFFF11001B
:10554C00FFFF1B00200002000B00FFFF11001A00E0
:10555C001B0020000200FFFF0C00FFFFFFFF1B00E1
:10556C00FFFF02000B000C0011001A001B002000B2
:10557C0002000B000C001100FFFF1B0020000000BC
:10558C000D000E001C001D001E00FFFF0E001D0074
:10559C00FFFFFFFFFFFFFFFFFFFF00000E000F00EC
:1055AC001C001E00FFFFFFFF00000E000F001D007F
:1055BC001E00FFFFFFFFFFFF0D000E000F00FFFF9F
:1055CC001D00FFFF00000D00FFFF0F00FFFF1D007F
:1055DC001E0000000D00FFFF0F001C001D001E0030
:1055EC000000FFFF0E00FFFFFFFF1D00FFFF00008C
:1055FC000D000E000F001C001D001E0000000D0011
:10560C000E000F00FFFF1D001E0000F81F0000FE23
:10561C007F008007E001C003C003E00000077000BA
:10562C00000C18F003181CFC1F380CBC3F300E0E7D
:10563C007870060EF060060CF0610300E0C1030008
:10564C00C0C30300E0C10300C0C30300C0C3030018
:10565C00C0C30300C0C10300E0C1070EE0E1060CAB
:10566C00F0600E0C78700C3E7E3018FC1F3838FC45
:10567C0007183000000CE0000007C001C003800FC9
:10568C00E00100FE7F0000F00F0010000000F0FFB2
:10569C000300F0FF3F00F0FFFF0080EEFF01000071
:1056AC00F0010000E0030000C0070070C30700FC1D
:1056BC009F0700FFBF0780FFFF0FC00FF00FC00751
:1056CC00E00FE003C00FE001800FF001800FF0014C
:1056DC00000FF001000FF001000FF000000FF000C0
:1056EC00000FF001000FF001800FE0018007E003D4
:1056FC00C007E007C003C00FF003807FFE0100FF6E
:10570C00FF0000FE3F0000F80F0000F0000000F862
:10571C00000000F8010000F8010000F0000000603B
:10572C0000000000000000000000000000000070FD
:10573C00000000E00000006000000060000000F0CD
:10574C00000000E0000000E0070000800F000000F7
:10575C001F0000003E0000007C000000F80000006C
:10576C00F8000000F8000000F8000000F800000746
:10577C00F800800FF800800F7C00800F3E00009F27
:10578C003F0000FE1F0000FC0300C0FF0700C0FF2D
:10579C003F0000C77F0000C6FF0000C6FF00008767
:1057AC00FF0100C6FF0100C6FF0100C7FF0100C6D4
:1057BC00FF0100C6FF010087FF0100C6FF0000C605
:1057CC007F0000C67F0000C61F00004601000006D7
:1057DC0000000006000000060000000600000007A4
:1057EC000000000600000006000000070000000694
:1057FC000000000600000007000000060000000684
:10580C000000000600000006000000FF0700E0FF9B
:10581C000F00F0FF3F00F8E77F007800FC00380035
:10582C00F8010800E0030000E0030000C0070000DE
:10583C00C007000080070000800F0000800F0000F0
:10584C00800F003C000F003C800F003C000F007CE0
:10585C00800F003C800F0028800F0000800F00009C
:10586C0080070000C0070000C0070000E00308002C
:10587C00E0033800F8017800FC00F8ABFF00F8FFFB
:10588C003F00C0FF0F0000FF030000E07F0000F8A6
:10589C00FF0100FEFF0700FFFA0F801F000FC00F73
:1058AC00000EE0030008E0030000F0010000F0012E
:1058BC000000F0000000F8000000F8000000F80004
:1058CC00000078001E00F8001E0078001E00F80092
:1058DC003F0078001E00F8000800F8000000F000FF
:1058EC000000F0010000F0010000E0030000E00304
:1058FC000008C00F000C801F000F00FFF50F00FE0A
:10590C00FF0F00F8FF0100E07F0000000000000026
:10591C0000000000000004F81F201CC007383CC029
:10592C00033C38C0031C78C0031E7880031E38C0AB
:10593C00031E78C0031E78C0031C78C0031E78C0F9
:10594C00031E7880031E78C0031EF0C0030FF0C046
:10595C00030FE0C18307C0C7D30300FEFF0000E0C4
:10596C000B0000C0030000C0030000C0030000C017
:10597C00030000C0030000E0070000F81F00000057
:10598C00000000000000000000000000000000000B
:10599C003E000000FE00000EF003807FC007E0FB1D
:1059AC00800FF0E1011FF0E0033EF8C0033E78C029
:1059BC00077C78C0077C7C8007FC7CC007F87C8067
:1059CC000FFC7C800FF83C800FF87CC00FF83C80FB
:1059DC000FF87C800FF87CC007FCFCC0077CF8E05B
:1059EC00077CF8E0077CF0E1033EF0F1031EE0FBDE
:1059FC00011FE0FF800F82FFC007CF7FF401FCFF87
:105A0C00FF00F8F71F0000000000000200008007F4
:105A1C000000C00F1800E00F1E00C09F3F00C0FF29
:105A2C003F0080FF7F0080FF7F0000FF1F00C0FF52
:105A3C000700E0FF0100F8FF0100FEFF0300FCFF80
:105A4C000306FCFB070FF8F1C70F78F0FF1F10E0FF
:105A5C00FF3F00C0FF1F00C0FF0F00E0FF0300F876
:105A6C00FF0000FCFF0000FFFF0000FFFF0000FE36
:105A7C00FD01007EFC03003CF8030008F007000069
:105A8C00F0030000E0000000200000F80F0000FC14
:105A9C001F0000FF7F00800FF800C007F001C0035B
:105AAC00E001E001C003E0008003F0008007F0009B
:105ABC008007F000800770000007F000800770007E
:105ACC008007F0000007F0008007F0008007E0007E
